ACAMC0J2
HFDTE011213
HFFXA050
HFPLTPilot:  
HFGYTGliderType:  ASW 20  
HFGIDGliderID: DR 
HFDTM100GPSDatum: WGS-84
HFRFWFIRMWAREVERSION: 6.0   
HFRHWHARDWAREVERSION: 39
HFCIDCompetitionID: DR 
HFSITSite: CAPA2009                        
HFTZNTimezone: 0
HFUNTUnits: km,m,m/s
I033638FXA3941ENL4247REX
LCAMM CAI Utilities 0.0.0
LCAMN000013427199S05927589W000045T       7 Y 41      
LCAMN000023351299S05932589W000033T       9 Y 41      
LCAMN000033358329S05931749W000027T       AE AMANECER 
LCAMN000043416878S05932240W000034T       AE ARECO FUM
LCAMN000053404638S06002749W000033T       AE ARRECIFES
LCAMN000063406958S05904790W000025T       AE ATE      
LCAMN000073347989S05928999W000000T       AE BARADERO 
LCAMN000083507999S06027998W000057T       AE BRAGADO  
LCAMN000093506739S05843558W000032T       AE CANUELAS 
LCAMN000103409939S05943849W000040T       AE CAP SARMI
LCAMN000113424969S05952218W000048T       AE CARMEN   
LCAMN000123413889S05912629W000031T       AE CHENAULT 
LCAMN000133457948S06001949W000045T       AE CHIVILCOY
LCAMN000143355998S06101990W000081T       AE COLON    
LCAMN000153436508S06024569W000068T       AE CUCHA CUC
LCAMN000163403378S06003638W000040T       AE DI PALMA 
LCAMN000173411028S05936150W000039T       AE DUGGAN CE
LCAMN000183409778S05935689W000038T       AE DUGGAN LE
LCAMN000193402239S06004739W000049T       AE FUMIGADOR
LCAMN000203421438S06009299W000063T       AE GAHAM    
LCAMN000213440689S05902200W000027T       AE GRAL RODR
LCAMN000223458999S06101990W000071T       AE GRAL VIAM
LCAMN000233409278S05952510W000045T       AE LA LUISA 
LCAMN000243424709S05926949W000040T       AE LAGUNA   
LCAMN000253438998S06100989W000077T       AE LAGUNA GO
LCAMN000263432338S05935089W000050T       AE LIPTON   
LCAMN000273512879S05907979W000028T       AE LOBOS    
LCAMN000283430498S05902989W000018T       AE LUJAN    
LCAMN000293438398S05927300W000032T       AE MERCEDES 
LCAMN000303501399S05917399W000031T       AE NAVARRO  
LCAMN000313425588S05928848W000049T       AE PEPONE   
LCAMN000323355139S06038849W000075T       AE PERGAMINO
LCAMN000333412899S06040448W000064T       AE ROJAS    
LCAMN000343418338S06017199W000042T       AE SALTO    
LCAMN000353413268S05926529W000033T       AE SAN ANTON
LCAMN000363340999S05943999W000026T       AE SAN PEDRO
LCAMN000373443388S05939458W000040T       AE SUIPACHA 
LCAMN000383339999S06158000W000111T       AE VENADO TU
LCAMN000393454659S05920919W000039T       AE WILLIAMS 
LCAMN000403355579S06023358W000076T       ANCHORENA ES
LCAMN000413355029S06056008W000083T       ARBOLITO EL 
LCAMN000423403768S06006279W000040T       ARRECIFES   
LCAMN000433421978S05922469W000036T       AZCUENAGA ES
LCAMN000443445119S06059719W000079T       BAIGORRITA E
LCAMN000453427688S05931059W000055T       BALANZA     
LCAMN000463322929S06111729W000090T       BIGAND EST  
LCAMN000473423329S05949149W000049T       CARMEN DE AR
LCAMN000483437748S06028239W000071T       CHACABUCO ES
LCAMN000493454588S06000019W000053T       CHIVILCOY ES
LCAMN000503403688S05933979W000035T       COLOMA SANTA
LCAMN000513521020S06044809W000066T       DENNEHY EST 
LCAMN000523412788S05939028W000051T       DUGGAN EST  
LCAMN000533431499S05935659W000051T       ESPORA      
LCAMN000543420109S06005589W000060T       GAHAM       
LCAMN000553442898S05933089W000035T       GARCIA MJ   
LCAMN000563428239S05925419W000050TAL     GILES CENTRO
LCAMN000573449698S05952690W000047T       GOROSTIAGA  
LCAMN000583429758S05948109W000054T       GOUIN       
LCAMN000593425938S05939439W000055T       HEAVY       
LCAMN000603428978S05922589W000046T       HOTEL LA LUN
LCAMN000613414688S06032078W000056T       HUNTER      
LCAMN000623415748S06022869W000052T       INVENCIBLE L
LCAMN000633458548S05931649W000043T       JACINTO SAN 
LCAMN000643408999S06100989W000081T       LA BEBA ESTA
LCAMN000653503119S06021969W000056T       LARREA EST  
LCAMN000663427419S06010808W000063T       LOS ANGELES 
LCAMN000673307498S06136499W000074T       LOS NOGALES 
LCAMN000683407628S05958360W000035T       LUISA LA    
LCAMN000693357239S06017719W000053T       MAGUIRE     
LCAMN000703355689S05944788W000021T       MONETA      
LCAMN000713459748S05916849W000033T       NAVARRO EST 
LCAMN000723436848S06014789W000060T       PATRICIO SAN
LCAMN000733431499S05918119W000039T       PEAJE ESPIL 
LCAMN000743349948S06029999W000079T       PENA DE LA  
LCAMN000753358789S05940199W000027T       PORTELA IRIN
LCAMN000763402018S06030079W000067T       RANCAGUA    
LCAMN000773436598S06004028W000063T       RAWSON      
LCAMN000783411999S06043999W000069T       ROJAS EST   
LCAMN000793524189S05920179W000032T       ROQUE PEREZ 
LCAMN000803417398S06015719W000042T       SALTO ESTACI
LCAMN000813352499S05952289W000050T       SANTA LUCIA 
LCAMN000823345988S05954999W000045T       SANTA LUCIA 
LCAMN000833427908S05959919W000050T       SARGENTOS TR
LCAMN000843410539S05947589W000048T       SARMIENTO CA
LCAMN000853417719S05919209W000039T       SOLIS       
LCAMN000863446378S05941430W000046T       SUIPACHA    
LCAMN000873422259S05957659W000046T       TATAY       
LCAMN000883431499S05941659W000053T       TUYUTI      
LCAMN000893417768S05927529W000032T       VAGUES      
LCAMN000903407218S05925739W000038T       VILLA LIA   
LCAMN000913359559S06013679W000052T       VINA        
LCAMN000923343978S06010499W000055T       VIOLETA LA  
LCAMN000933405819S05902279W000025T       ZARATE EST  
C261013162455011213000103
C3428489S05925280W0000TakeOff     
C3428239S05925420W0056GILES CENTRO
C3442900S05933089W0055GARCIA MJ   
C3351299S05932590W00029 Y 41      
C3413889S05912629W0012AE CHENAULT 
C3428239S05925420W0056GILES CENTRO
C3428439S05925289W0000Landing     
B1655143428489S05925280WA0009000072015000000000
B1655223428499S05925280WA0009000072015000000000
B1655303428499S05925280WA0009000072015000000000
B1655383428499S05925280WA0009000072015000000000
B1655463428499S05925280WA0009000073015000000000
B1655543428489S05925280WA0009000072015000000000
B1656023428489S05925280WA0009000071015000000000
B1656103428489S05925280WA0009000071015000000000
B1656183428489S05925280WA0008400071015000000000
B1656263428489S05925280WA0009000071015000000000
B1656343428489S05925280WA0008400071015000000000
B1656423428489S05925280WA0008400071015000000000
B1656503428489S05925280WA0008400072015000000000
B1656583428499S05925280WA0008400072015000000000
B1657063428499S05925280WA0008400073015000000000
B1657143428478S05925289WA0008400073015000000000
B1657163428468S05925299WA0009000073015000000000
B1657203428439S05925320WA0009000073015000000000
B1657243428398S05925339WA0009000073015000000000
B1657283428348S05925369WA0009700074015000000000
B1657323428288S05925410WA0009700075015000000000
B1657363428229S05925439WA0011000082015000000000
B1657403428159S05925479WA0011700092015000000000
B1657443428098S05925519WA0013800108015000000000
B1657483428029S05925549WA0013000119015000000000
B1657523427968S05925589WA0014500130015000000000
B1657563427908S05925629WA0017100142015000000000
B1658003427838S05925659WA0016300157015000000000
B1658043427778S05925679WA0018300174015000000000
B1658083427698S05925689WA0020300193015000000000
B1658123427629S05925689WA0021000210015000000000
B1658163427558S05925679WA0022500223015000000000
B1658203427499S05925649WA0023200230015000000000
B1658243427429S05925620WA0023800234015000000000
B1658283427358S05925569WA0025800252015000000000
B1658323427308S05925509WA0027900268015000000000
B1658363427258S05925439WA0030600289015000000000
B1658403427199S05925379WA0030600306015000000000
B1658443427138S05925339WA0032600325015000000000
B1658483427088S05925299WA0034700346015000000000
B1658523427029S05925259WA0036100367015000000000
B1658563426968S05925219WA0037500386015000000000
B1659003426899S05925190WA0038700397015000000000
B1659043426838S05925179WA0040300411015000000000
B1659083426769S05925179WA0041600426015000000000
B1659123426699S05925198WA0044300436015000000000
B1659163426628S05925230WA0045600449015000000000
B1659203426548S05925259WA0047800458015000000000
B1659243426509S05925289WA0049100469015000000000
B1659283426469S05925349WA0049700486015000000000
B1659323426439S05925419WA0051200499015000000000
B1659363426439S05925509WA0052600511015000000000
B1659403426458S05925589WA0053300526015000000000
B1659443426509S05925669WA0053300536015000000000
B1659483426578S05925719WA0053900539015000000000
B1659523426658S05925750WA0054600547015000000000
B1659563426739S05925759WA0055400549015000015000
B1700003426819S05925739WA0055400555015000015000
B1700043426899S05925699WA0057500562015000000000
B1700083426968S05925639WA0058200571015000000000
B1700123427029S05925559WA0059500581015000015000
B1700163427068S05925479WA0061000595015000000000
B1700203427098S05925389WA0063000612015000015000
B1700243427098S05925309WA0065200625015000000000
B1700283427058S05925259WA0065700648015000000000
B1700323427008S05925269WA0065700663015000000000
B1700363426978S05925329WA0067100662015000015000
B1700403426978S05925399WA0067900663015000000000
B1700443427029S05925439WA0068600664015000015000
B1700483427098S05925429WA0068600672015000000000
B1700523427148S05925379WA0068600675015000000000
B1700563427169S05925309WA0069400682015000015000
B1701003427169S05925249WA0070000687015000000000
B1701043427128S05925198WA0070800698015000000000
B1701083427079S05925190WA0071500706015000000000
B1701123427048S05925230WA0071500729015000000000
B1701163427029S05925289WA0070800736015000000000
B1701203427058S05925349WA0072100728015000000000
B1701243427108S05925389WA0073500737015000015000
B1701283427169S05925410WA0073500750015000015000
B1701323427228S05925379WA0073500751015000000000
B1701363427258S05925320WA0074100752015000000000
B1701403427249S05925259WA0074100753015000000000
B1701443427199S05925230WA0075000763015000000000
B1701483427159S05925239WA0075700774015000000000
B1701523427119S05925289WA0075000775015000000000
B1701563427088S05925349WA0075700774015000000000
B1702003427098S05925410WA0077100776015000000000
B1702043427128S05925479WA0078600782015000000000
B1702083427178S05925509WA0079300793015000000000
B1702123427249S05925509WA0078600797015000000000
B1702163427318S05925499WA0077900794015000000000
B1702203427388S05925490WA0077900790015000000000
B1702243427459S05925469WA0078600794015000000000
B1702283427539S05925450WA0077900796015000000000
B1702323427608S05925439WA0077900795015000000000
B1702363427679S05925419WA0077100792015000000000
B1702403427748S05925399WA0076400786015000000000
B1702443427818S05925379WA0076400778015000000000
B1702483427889S05925349WA0076400775015000000000
B1702523427948S05925320WA0076400778015000000000
B1702563428019S05925289WA0077900783015000000000
B1703003428069S05925249WA0079300799015000000000
B1703043428088S05925179WA0079900813015000000000
B1703083428059S05925119WA0079900818015000015000
B1703123428008S05925110WA0081400821015000000000
B1703163427968S05925150WA0082000830015000000000
B1703203427958S05925209WA0082000841015000000000
B1703243427979S05925280WA0082800852015000000000
B1703283428029S05925320WA0084100858015000015000
B1703323428088S05925320WA0084100865015000015000
B1703363428149S05925299WA0085000873015000000000
B1703403428178S05925249WA0085700887015000015000
B1703443428178S05925190WA0087700895015000000000
B1703483428138S05925150WA0088500902015000015000
B1703523428088S05925169WA0089100910015000000000
B1703563428069S05925219WA0090000924015000000000
B1704003428078S05925289WA0090000933015000000000
B1704043428128S05925339WA0090000935015000015000
B1704083428189S05925360WA0091300938015000015000
B1704123428248S05925360WA0092100944015000000000
B1704163428298S05925329WA0092800954015000000000
B1704203428329S05925269WA0093400960015000000000
B1704243428298S05925209WA0094900963015000000000
B1704283428248S05925209WA0095700975015000000000
B1704323428208S05925259WA0095700981015000000000
B1704363428208S05925329WA0096400990030000015000
B1704403428248S05925389WA0097100992015000015000
B1704443428308S05925419WA0097801003015000015000
B1704483428369S05925389WA0098501012015000015000
B1704523428398S05925329WA0097801015015000015000
B1704563428378S05925269WA0097801013015000015000
B1705003428348S05925209WA0099301019015000000000
B1705043428298S05925198WA0099801032015000000000
B1705083428248S05925230WA0099801039015000000000
B1705123428239S05925289WA0100701044015000000000
B1705163428268S05925360WA0101501048015000000000
B1705203428329S05925379WA0103001052015000015000
B1705243428388S05925339WA0103601062015000000000
B1705283428418S05925280WA0104301073015000015000
B1705323428409S05925209WA0105101079015000015000
B1705363428369S05925179WA0105901083015000015000
B1705403428329S05925209WA0106501086015000000000
B1705443428308S05925269WA0107301089015000015000
B1705483428329S05925339WA0108001091015000000000
B1705523428398S05925360WA0108801096015000000000
B1705563428459S05925339WA0108801106015000000000
B1706003428499S05925289WA0109401115015000015000
B1706043428518S05925219WA0110201122015000000000
B1706083428489S05925159WA0111001126015000000000
B1706123428439S05925139WA0111701131015000015000
B1706163428388S05925150WA0111001133015000000000
B1706203428338S05925150WA0111001138015000000000
B1706243428288S05925119WA0111701145015000000000
B1706283428239S05925068WA0111701149015000000000
B1706323428208S05924999WA0113101158015000000000
B1706363428178S05924938WA0114601169015000000000
B1706403428159S05924869WA0114601176015000000000
B1706443428138S05924808WA0115401179015000000000
B1706483428109S05924749WA0115401186015000000000
B1706523428078S05924689WA0115401215015000000000
B1706563428038S05924639WA0115401189015000000000
B1707003428008S05924579WA0115401191015000000000
B1707043427979S05924519WA0116101207015000000000
B1707083427939S05924460WA0116801210015000000000
B1707123427908S05924409WA0116801211015000000000
B1707163427868S05924369WA0116101207015000000000
B1707203427818S05924349WA0115401204015000000000
B1707243427769S05924349WA0114601196015000000000
B1707283427708S05924380WA0113101181015000000000
B1707323427658S05924409WA0111701162015000000000
B1707363427599S05924449WA0110201145015000000000
B1707403427528S05924499WA0109401131015000000000
B1707443427459S05924539WA0108801126015000000000
B1707483427388S05924579WA0108001122015000000000
B1707523427318S05924609WA0108001121015000000000
B1707563427249S05924639WA0108801117015000000000
B1708003427188S05924680WA0108801118015000000000
B1708043427128S05924729WA0109401122015000000000
B1708083427068S05924779WA0112401146015000000000
B1708123427018S05924819WA0114601171015000000000
B1708163426978S05924869WA0116801195015000000000
B1708203426989S05924930WA0117601205015000000000
B1708243427039S05924980WA0118301212015000000000
B1708283427108S05924989WA0119001216015000000000
B1708323427178S05924949WA0119001221015000030000
B1708363427199S05924869WA0119801223015000015000
B1708403427169S05924800WA0121301231015000015000
B1708443427128S05924739WA0124101242015000000000
B1708483427079S05924749WA0125001260015000000000
B1708523427048S05924808WA0125001269015000000000
B1708563427058S05924879WA0125701266015000000000
B1709003427119S05924909WA0127101275015000000000
B1709043427178S05924889WA0127101282015000000000
B1709083427228S05924829WA0127901288015000015000
B1709123427258S05924749WA0128501293015000015000
B1709163427258S05924680WA0130901298015000015000
B1709203427218S05924629WA0131601355015000015000
B1709243427169S05924659WA0131601362015000000000
B1709283427159S05924720WA0132401363015000000000
B1709323427188S05924769WA0133801369015000015000
B1709363427258S05924769WA0135301379015000015000
B1709403427299S05924709WA0136101393015000015000
B1709443427318S05924639WA0137601401015000015000
B1709483427299S05924579WA0138301406015000000000
B1709523427249S05924569WA0139101415015000000000
B1709563427209S05924609WA0139901428015000000000
B1710003427199S05924670WA0140501436015000000000
B1710043427228S05924720WA0142101442015000015000
B1710083427299S05924720WA0143701454015000015000
B1710123427348S05924680WA0145801473015000000000
B1710163427358S05924609WA0145801492015000000000
B1710203427329S05924559WA0147401500015000000000
B1710243427379S05924499WA0147401526015000000000
B1710283427258S05924619WA0148901552015000015000
B1710323427278S05924689WA0149801542015000015000
B1710363427339S05924720WA0150501521015000015000
B1710403427409S05924709WA0152001545015000015000
B1710443427459S05924659WA0152801582015000000000
B1710483427478S05924590WA0153601593015000000000
B1710523427448S05924539WA0154401596015000000000
B1710563427398S05924550WA0155001602015000000000
B1711003427369S05924599WA0155001612015000000000
B1711043427369S05924670WA0155801619015000000000
B1711083427419S05924720WA0157401624015000000000
B1711123427478S05924739WA0158201636015000000000
B1711163427539S05924699WA0159601644015000000000
B1711203427558S05924629WA0160601652015000015000
B1711243427528S05924590WA0161201657015000015000
B1711283427469S05924579WA0160601653015000000000
B1711323427429S05924639WA0162101653015000000000
B1711363427438S05924709WA0162801666015000000000
B1711403427488S05924739WA0164301676015000000000
B1711443427549S05924709WA0165201689015000000000
B1711483427578S05924639WA0165201692015000000000
B1711523427558S05924579WA0165901700015000015000
B1711563427509S05924579WA0166701714015000015000
B1712003427478S05924639WA0167501722015000000000
B1712043427488S05924699WA0168201728015000015000
B1712083427549S05924720WA0169801734015000015000
B1712123427599S05924680WA0171401740015000015000
B1712163427608S05924609WA0171401746015000015000
B1712203427578S05924559WA0172101751015000015000
B1712243427528S05924569WA0173701760015000000000
B1712283427488S05924609WA0173701773015000000000
B1712323427509S05924680WA0173701781015000000000
B1712363427558S05924709WA0173701785015000000000
B1712403427618S05924689WA0174501791015000000000
B1712443427669S05924649WA0174501795015000000000
B1712483427738S05924619WA0175301801015000000000
B1712523427809S05924619WA0174501804015000000000
B1712563427889S05924619WA0174501800015000000000
B1713003427968S05924629WA0173701792015000000000
B1713043428048S05924649WA0173001786015000000000
B1713083428128S05924659WA0173001783015000000000
B1713123428218S05924680WA0173001780015000000000
B1713163428298S05924699WA0173001780015000000000
B1713203428378S05924720WA0173001776015000000000
B1713243428459S05924749WA0172101776015000000000
B1713283428528S05924769WA0172101774015000000000
B1713323428608S05924800WA0172101775015000000000
B1713363428688S05924819WA0173001777015000000000
B1713403428759S05924850WA0173701784015000000000
B1713443428839S05924869WA0173701795015000000000
B1713483428908S05924909WA0174501797015000000000
B1713523428978S05924938WA0175301806015000000000
B1713563429049S05924969WA0175301809015000000000
B1714003429108S05924999WA0175301812015000000000
B1714043429179S05925029WA0175301812015000000000
B1714083429238S05925049WA0176001815015000000000
B1714123429298S05925060WA0175301815015000000000
B1714163429368S05925039WA0174501809015000000000
B1714203429439S05925020WA0173701795015000000000
B1714243429508S05924989WA0173001787015000000000
B1714283429578S05924969WA0173701787015000000000
B1714323429649S05924938WA0174501793015000000000
B1714363429708S05924909WA0176001807015000000000
B1714403429768S05924869WA0177701819015000000000
B1714443429779S05924789WA0177701829015000000000
B1714483429749S05924729WA0178301835015000000000
B1714523429688S05924720WA0177701838015000000000
B1714563429638S05924759WA0177701832015000000000
B1715003429619S05924829WA0176801830015000015000
B1715043429619S05924899WA0176801827015000000000
B1715083429619S05924980WA0176001826015000000000
B1715123429619S05925060WA0176801821015000000000
B1715163429628S05925139WA0178301831015000000000
B1715203429659S05925198WA0179301843015000000000
B1715243429718S05925239WA0180001851015000000000
B1715283429779S05925209WA0180001850015000000000
B1715323429808S05925150WA0180801853015000000000
B1715363429779S05925079WA0180801859015000000000
B1715403429718S05925049WA0182401869015000000000
B1715443429678S05925089WA0183201879015000000000
B1715483429668S05925159WA0183201889015000000000
B1715523429718S05925198WA0184701895015000000000
B1715563429779S05925179WA0184701901015000000000
B1716003429808S05925119WA0186201909015000000000
B1716043429798S05925049WA0185501914015000015000
B1716083429739S05925020WA0186201917015000000000
B1716123429688S05925049WA0187101922015000000000
B1716163429659S05925099WA0187101931015000000000
B1716203429659S05925169WA0188001938015000000000
B1716243429688S05925219WA0188001944015000000000
B1716283429749S05925239WA0188701943015000000000
B1716323429808S05925219WA0189501946015000000000
B1716363429848S05925169WA0188701949015000000000
B1716403429848S05925099WA0189501958015000015000
B1716443429808S05925049WA0190301962015000015000
B1716483429758S05925049WA0190301964015000000000
B1716523429718S05925099WA0191801974015000000000
B1716563429739S05925169WA0192601985015000000000
B1717003429798S05925190WA0192601983015000000000
B1717043429859S05925150WA0193501996015000000000
B1717083429888S05925089WA0193502018015000000000
B1717123429859S05925029WA0194202017015000000000
B1717163429808S05924999WA0194202016015000000000
B1717203429758S05925020WA0195002021015000015000
B1717243429749S05925089WA0195802025015000015000
B1717283429798S05925129WA0195802026015000015000
B1717323429859S05925139WA0195802026015000000000
B1717363429909S05925099WA0196502026015000000000
B1717403429949S05925039WA0196502033015000000000
B1717443429959S05924969WA0197502037015000000000
B1717483429928S05924909WA0197502040015000000000
B1717523429869S05924889WA0197502041015000000000
B1717563429829S05924919WA0197502043015000000000
B1718003429808S05924980WA0198402045015000000000
B1718043429848S05925029WA0198402047015000015000
B1718083429909S05925060WA0199002050015000000000
B1718123429968S05925039WA0199902058015000000000
B1718163430008S05924980WA0199902064015000000000
B1718203430008S05924909WA0200802067015000000000
B1718243429978S05924850WA0201602067015000000000
B1718283429928S05924850WA0201602069015000015000
B1718323429888S05924879WA0201602068015000015000
B1718363429898S05924949WA0201602067015000000000
B1718403429938S05924989WA0201602067015000000000
B1718443429999S05924980WA0202302075015000000000
B1718483430028S05924919WA0201602072015000000000
B1718523430049S05924850WA0202302067015000015000
B1718563430008S05924789WA0202302067015000000000
B1719003429959S05924739WA0201602064015000000000
B1719043429898S05924720WA0201602061015000000000
B1719083429838S05924729WA0199902056015000000000
B1719123429779S05924749WA0198402040015000000000
B1719163429718S05924779WA0196502026015000000000
B1719203429659S05924819WA0195802014015000000000
B1719243429598S05924859WA0195802011015000000000
B1719283429538S05924909WA0195802013015000000000
B1719323429489S05924959WA0196502014015000000000
B1719363429439S05925009WA0197502019015000000000
B1719403429408S05925068WA0199002035015000000000
B1719443429378S05925119WA0199002043015000000000
B1719483429349S05925179WA0199902048015000000000
B1719523429319S05925239WA0199002049015000000000
B1719563429269S05925299WA0199902047015000000000
B1720003429219S05925349WA0200802054015000000000
B1720043429158S05925379WA0199902057015000000000
B1720083429099S05925410WA0197502042015000000000
B1720123429028S05925450WA0196502026015000000000
B1720163428959S05925479WA0196502023015000000000
B1720203428889S05925519WA0195802016015000000000
B1720243428818S05925559WA0194202005015000000000
B1720283428738S05925599WA0193501996015000000000
B1720323428658S05925629WA0192601983015000000000
B1720363428569S05925669WA0191801976015000000000
B1720403428489S05925699WA0191001967015000000000
B1720443428398S05925719WA0189501957015000000000
B1720483428308S05925729WA0188701946015000000000
B1720523428208S05925739WA0188001935015000000000
B1720563428118S05925750WA0187101926015000000000
B1721003428029S05925750WA0186201919015000000000
B1721043427939S05925750WA0186201915015000000000
B1721083427849S05925750WA0185501909015000000000
B1721123427759S05925750WA0184701904015000000000
B1721163427658S05925759WA0183201890015000000000
B1721203427568S05925759WA0182401876015000000000
B1721243427469S05925769WA0180801858015000000000
B1721283427369S05925769WA0179301849015000000000
B1721323427278S05925779WA0177701836015000000000
B1721363427178S05925789WA0177701821015000000000
B1721403427079S05925799WA0176801817015000000000
B1721443426989S05925809WA0176001813015000000000
B1721483426899S05925830WA0176801811015000000000
B1721523426819S05925849WA0178301825015000000000
B1721563426748S05925880WA0177701830015000000000
B1722003426668S05925899WA0176801823015000000000
B1722043426588S05925899WA0176801817015000000000
B1722083426519S05925899WA0177701821015000000000
B1722123426448S05925909WA0178301839015000000000
B1722163426379S05925919WA0178301835015000000000
B1722203426318S05925929WA0177701834015000000000
B1722243426248S05925939WA0177701836015000000000
B1722283426188S05925960WA0179301841015000000000
B1722323426129S05925979WA0179301847015000000000
B1722363426058S05925999WA0180001848015000000000
B1722403425999S05926029WA0180801851015000000000
B1722443425949S05926059WA0180801860015000000000
B1722483425888S05926090WA0180801863015000000000
B1722523425829S05926119WA0180801863015000000000
B1722563425768S05926159WA0180001858015000000000
B1723003425718S05926199WA0178301846015000000000
B1723043425668S05926260WA0177701832015000000000
B1723083425609S05926319WA0175301817015000000000
B1723123425558S05926379WA0175301805015000000000
B1723163425498S05926440WA0173701794015000000000
B1723203425449S05926509WA0173001784015000000000
B1723243425388S05926570WA0171401774015000000000
B1723283425328S05926629WA0170601764015000000000
B1723323425258S05926689WA0169801750015000000000
B1723363425189S05926749WA0168201738015000000000
B1723403425128S05926819WA0166701730015000000000
B1723443425059S05926879WA0165901716015000000000
B1723483424988S05926949WA0164301705015000000000
B1723523424929S05927019WA0163501689015000000000
B1723563424868S05927089WA0162801678015000000000
B1724003424808S05927159WA0162801675015000000000
B1724043424748S05927229WA0162801676015000000000
B1724083424698S05927300WA0162801676015000000000
B1724123424638S05927359WA0162801678015000000000
B1724163424589S05927409WA0164301678015000000000
B1724203424539S05927449WA0166701704015000000000
B1724243424499S05927489WA0167501722015000000000
B1724283424438S05927509WA0168201734015000000000
B1724323424358S05927509WA0168201733015000000000
B1724363424319S05927539WA0166701732015000000000
B1724403424249S05927550WA0165901712015000000000
B1724443424168S05927550WA0164301696015000000000
B1724483424088S05927539WA0163501688015000000000
B1724523423989S05927539WA0163501768015000000000
B1724563423908S05927539WA0162801769015000000000
B1725003423849S05927550WA0162801737015000000000
B1725043423769S05927569WA0160601667015000000000
B1725083423689S05927579WA0160601655015000000000
B1725123423608S05927600WA0158901647015000000000
B1725163423528S05927609WA0158901636015000000000
B1725203423448S05927619WA0158201631015000000000
B1725243423368S05927629WA0157401623015000000000
B1725283423289S05927640WA0156501613015000000000
B1725323423209S05927640WA0155801603015000000000
B1725363423129S05927649WA0155801596015000000000
B1725403423048S05927649WA0155801600015000000000
B1725443422968S05927640WA0157401602015000000000
B1725483422909S05927629WA0158901625015000000000
B1725523422848S05927619WA0159601640015000000000
B1725563422789S05927609WA0158901639015000000000
B1726003422718S05927600WA0158901635015000000000
B1726043422649S05927600WA0158901635015000000000
B1726083422578S05927589WA0158201633015000000000
B1726123422508S05927600WA0156501620015000000000
B1726163422439S05927609WA0155001602015000000000
B1726203422359S05927619WA0153601588015000000000
B1726243422278S05927640WA0152001574015000000000
B1726283422198S05927659WA0151301558015000000000
B1726323422118S05927680WA0150501544015000000000
B1726363422028S05927699WA0149801536015000000000
B1726403421959S05927730WA0150501541015000000000
B1726443421879S05927749WA0150501544015000000000
B1726483421808S05927770WA0148901540015000000000
B1726523421738S05927789WA0148901538015000000000
B1726563421659S05927810WA0149801537015000000000
B1727003421598S05927818WA0150501542015000000000
B1727043421529S05927839WA0148901543015000000000
B1727083421458S05927860WA0147401526015000000000
B1727123421388S05927879WA0145801506015000015000
B1727163421319S05927909WA0145201495015000000000
B1727203421239S05927940WA0143701487015000000000
B1727243421168S05927969WA0142101469015000000000
B1727283421088S05927999WA0140501454015000000000
B1727323421009S05928039WA0141401447015000000000
B1727363420939S05928070WA0142101451015000000000
B1727403420879S05928099WA0143701467015000000000
B1727443420818S05928129WA0145201482015000000000
B1727483420759S05928160WA0145201491015000000000
B1727523420708S05928179WA0144501489015000000000
B1727563420648S05928189WA0143701483015000000000
B1728003420589S05928200WA0142901473015000000000
B1728043420518S05928209WA0142101462015000000000
B1728083420438S05928209WA0141401457015000000000
B1728123420369S05928200WA0139901449015000000000
B1728163420289S05928200WA0139901439015000000000
B1728203420188S05928179WA0139901439015000000000
B1728243420128S05928179WA0138301426015000000000
B1728283420048S05928169WA0138301420015000000000
B1728323419968S05928160WA0138301415015000000000
B1728363419878S05928149WA0139101410015000000000
B1728403419809S05928139WA0141401445015000000000
B1728443419748S05928129WA0142101465015000000000
B1728483419679S05928119WA0139901454015000000000
B1728523419609S05928110WA0139101439015000000000
B1728563419528S05928110WA0138301426015000000000
B1729003419448S05928110WA0139101424015000000000
B1729043419368S05928110WA0139901434015000000000
B1729083419299S05928119WA0140501446015000000000
B1729123419228S05928129WA0139901444015000000000
B1729163419148S05928149WA0139901433015000000000
B1729203419079S05928169WA0140501438015000000000
B1729243419018S05928200WA0142101449015000000000
B1729283418959S05928229WA0142101457015000000000
B1729323418909S05928288WA0142901460015000000000
B1729363418879S05928349WA0142901462015000000000
B1729403418848S05928419WA0143701474015000000000
B1729443418808S05928479WA0144501486015000000000
B1729483418768S05928539WA0144501488015000000000
B1729523418728S05928599WA0145201488015000000000
B1729563418668S05928639WA0145201491015000000000
B1730003418609S05928679WA0145201494015000000000
B1730043418538S05928710WA0146801497015000000000
B1730083418468S05928739WA0147401513015000000000
B1730123418399S05928760WA0148101525015000000000
B1730163418328S05928769WA0148901529015000000000
B1730203418259S05928789WA0149801544015000000000
B1730243418179S05928779WA0148101622015000000000
B1730283418108S05928800WA0147401593015000000000
B1730323418028S05928809WA0147401510015000000000
B1730363417948S05928809WA0147401511015000000000
B1730403417868S05928800WA0147401539015000000000
B1730443417799S05928800WA0148901531015000000000
B1730483417728S05928789WA0148901545015000000000
B1730523417648S05928779WA0148901543015000000000
B1730563417568S05928779WA0149801541015000000000
B1731003417489S05928769WA0152001558015000000000
B1731043417419S05928769WA0152801583015000000000
B1731083417348S05928769WA0152801585015000000000
B1731123417268S05928769WA0152801582015000000000
B1731163417189S05928779WA0154401587015000000000
B1731203417128S05928789WA0155801610015000000000
B1731243417059S05928800WA0155001613015000000000
B1731283416989S05928809WA0154401668015000000000
B1731323416908S05928819WA0154401584015000000000
B1731363416828S05928829WA0155001594015000000000
B1731403416748S05928840WA0154401594015000000000
B1731443416658S05928848WA0153601580015000000000
B1731483416578S05928859WA0152001571015000000000
B1731523416488S05928859WA0151301562015000000000
B1731563416408S05928859WA0150501631015000000000
B1732003416318S05928859WA0149801547015000000000
B1732043416238S05928848WA0148901600015000000000
B1732083416159S05928840WA0148101602015000000000
B1732123416068S05928829WA0147401596015000000000
B1732163415989S05928819WA0147401582015000000000
B1732203415909S05928800WA0145801501015000000000
B1732243415829S05928789WA0145801491015000000000
B1732283415748S05928779WA0145201506015000000000
B1732323415658S05928769WA0145201497015000000000
B1732363415578S05928769WA0145201489015000000000
B1732403415498S05928779WA0145201483015000000000
B1732443415408S05928779WA0144501482015000000000
B1732483415318S05928789WA0144501481015000000000
B1732523415238S05928809WA0143701477015000000000
B1732563415148S05928819WA0142901471015000000000
B1733003415058S05928840WA0141401460015000000000
B1733043414978S05928859WA0141401451015000000000
B1733083414888S05928879WA0141401448015000000000
B1733123414798S05928909WA0142101447015000000000
B1733163414728S05928930WA0142901459015000000000
B1733203414648S05928949WA0145201480015000000000
B1733243414588S05928970WA0146801499015000000000
B1733283414539S05928989WA0147401517015000000000
B1733323414479S05929029WA0147401517015000000000
B1733363414428S05929089WA0145201505015000000000
B1733403414378S05929149WA0144501489015000000000
B1733443414319S05929219WA0142901478015000000000
B1733483414258S05929289WA0141401464015000000000
B1733523414189S05929360WA0140501453015000000000
B1733563414128S05929429WA0139901442015000000000
B1734003414059S05929499WA0139101433015000000000
B1734043413998S05929569WA0138301424015000000000
B1734083413929S05929639WA0137601417015000000000
B1734123413858S05929700WA0136801409015000000000
B1734163413788S05929759WA0135301399015000000000
B1734203413719S05929819WA0134601389015000000000
B1734243413648S05929869WA0134601384015000000000
B1734283413579S05929920WA0133801377015000000000
B1734323413509S05929969WA0133001365015000000000
B1734363413438S05930009WA0131601358015000000000
B1734403413369S05930050WA0130901345015000000000
B1734443413298S05930099WA0129401335015000000000
B1734483413228S05930139WA0129401324015000000000
B1734523413178S05930209WA0130901320015000000000
B1734563413138S05930279WA0130301330015000000000
B1735003413088S05930350WA0130901334015000000000
B1735043413048S05930409WA0130301333015000000000
B1735083412989S05930459WA0130301330015000000000
B1735123412928S05930499WA0127901319015000000000
B1735163412859S05930539WA0127101303015000000000
B1735203412788S05930569WA0126301293030000030000
B1735243412708S05930599WA0126301297015000000000
B1735283412639S05930629WA0125701290015000000000
B1735323412559S05930659WA0125701283015000000000
B1735363412488S05930690WA0126301280015000015000
B1735403412419S05930719WA0127901296030000015000
B1735443412358S05930749WA0130301310015000000000
B1735483412299S05930780WA0130901330015000000000
B1735523412249S05930799WA0131601345015000000000
B1735563412198S05930829WA0133001354015000000000
B1736003412138S05930860WA0133801360015000000000
B1736043412089S05930889WA0135301373015000000000
B1736083412089S05930849WA0135301640015000015000
B1736123411978S05930950WA0136801647015000000000
B1736163411919S05930979WA0138301412015000000000
B1736203411859S05931009WA0139101424015000000000
B1736243411819S05931009WA0139901575015000000000
B1736283411758S05931039WA0139101491015000000000
B1736323411699S05931080WA0139101415015000000000
B1736363411638S05931129WA0136801412015000000000
B1736403411578S05931189WA0136801408015000000000
B1736443411529S05931250WA0136101401015000000000
B1736483411468S05931309WA0134601388015000000000
B1736523411418S05931380WA0135301381015000000000
B1736563411368S05931439WA0134601379015000000000
B1737003411328S05931499WA0134601377015000000000
B1737043411278S05931550WA0133001371015000000000
B1737083411219S05931579WA0132401366015000000000
B1737123411148S05931590WA0131601353015000000000
B1737163411068S05931579WA0130301339015000000000
B1737203410998S05931569WA0128501414015000000000
B1737243410919S05931550WA0127101308015000000000
B1737283410829S05931550WA0125001284015000000000
B1737323410749S05931529WA0124101303015000000000
B1737363410659S05931519WA0122801278015000000000
B1737403410568S05931499WA0121901284015000000000
B1737443410478S05931489WA0120401235015000000000
B1737483410388S05931479WA0120401225015000000000
B1737523410308S05931479WA0120401223015000000000
B1737563410229S05931479WA0120401223015000000000
B1738003410139S05931479WA0120401222015000000000
B1738043410059S05931499WA0120401224015000000000
B1738083409979S05931510WA0121301231015000000000
B1738123409908S05931529WA0121301238015000000000
B1738163409828S05931550WA0120401231015000000000
B1738203409759S05931559WA0121301228015000000000
B1738243409679S05931569WA0121901246015000000000
B1738283409608S05931590WA0119801238015000000000
B1738323409538S05931609WA0119001223015000000000
B1738363409459S05931629WA0118301212015000000000
B1738403409388S05931659WA0117601202015000000000
B1738443409308S05931689WA0116801194015000000000
B1738483409228S05931720WA0116801192015000000000
B1738523409148S05931749WA0116101190015000000000
B1738563409068S05931779WA0115401188015000000000
B1739003408989S05931810WA0116101180015000000000
B1739043408918S05931839WA0115401184015000000000
B1739083408838S05931859WA0114601177015000000000
B1739123408758S05931879WA0113801170015000000000
B1739163408678S05931899WA0113801165015000000000
B1739203408599S05931919WA0114601165015000000000
B1739243408528S05931949WA0114601169015000000000
B1739283408458S05931969WA0115401176015000000000
B1739323408389S05931980WA0116801187015000000000
B1739363408328S05931999WA0118301206015000000000
B1739403408268S05932009WA0118301214015000000000
B1739443408219S05932020WA0117601210015000000000
B1739483408158S05932049WA0116101195015000000000
B1739523408098S05932089WA0113801177015000000000
B1739563408028S05932129WA0113101155015000000000
B1740003407968S05932169WA0111701141015000000000
B1740043407898S05932209WA0111001131015000000000
B1740083407829S05932249WA0109401119015000000000
B1740123407758S05932280WA0108801112015000000000
B1740163407688S05932309WA0108001111015000000000
B1740203407619S05932339WA0107301096015000000000
B1740243407548S05932379WA0108001094015000000000
B1740283407489S05932410WA0108001099015000000000
B1740323407428S05932439WA0106501088015000000000
B1740363407359S05932469WA0105901078015000000000
B1740403407288S05932498WA0105901072015000000000
B1740443407218S05932540WA0105901063015000000000
B1740483407158S05932580WA0108001072015000000000
B1740523407118S05932628WA0111001105015000000000
B1740563407118S05932689WA0111701122015000015000
B1741003407168S05932729WA0111001129015000000000
B1741043407238S05932710WA0112401128015000000000
B1741083407279S05932649WA0113101142015000015000
B1741123407269S05932589WA0113101152015000015000
B1741163407229S05932559WA0113101154015000000000
B1741203407168S05932569WA0113101155015000000000
B1741243407118S05932609WA0113801152015000000000
B1741283407059S05932639WA0113801156015000000000
B1741323406998S05932679WA0115401163015000000000
B1741363406948S05932719WA0116801185015000000000
B1741403406908S05932758WA0116801196015000000000
B1741443406849S05932800WA0115401189015000000000
B1741483406778S05932840WA0113801178015000000000
B1741523406719S05932880WA0112401165015000000000
B1741563406638S05932920WA0111001147015000000000
B1742003406568S05932959WA0110201137015000000000
B1742043406499S05932999WA0110201132015000000000
B1742083406419S05933029WA0109401126015000000000
B1742123406348S05933069WA0109401123015000000000
B1742163406268S05933109WA0110201120015000000000
B1742203406199S05933140WA0110201119015000000000
B1742243406128S05933180WA0111001121015000000000
B1742283406058S05933209WA0112401125015000000000
B1742323405998S05933239WA0114601135015000000000
B1742363405968S05933289WA0116801150015000015000
B1742403406008S05933349WA0118301161015000000000
B1742443406078S05933359WA0119001175015000000000
B1742483406128S05933319WA0119801189015000000000
B1742523406159S05933259WA0119801207015000000000
B1742563406149S05933180WA0120401211015000000000
B1743003406109S05933129WA0121901220015000000000
B1743043406058S05933119WA0123401234015000000000
B1743083406019S05933140WA0123401246015000000000
B1743123406008S05933199WA0125001253015000000000
B1743163406048S05933249WA0126301265015000000000
B1743203406119S05933239WA0127101281015000000000
B1743243406159S05933180WA0127901293015000000000
B1743283406159S05933109WA0128501299015000015000
B1743323406119S05933069WA0130301305015000000000
B1743363406069S05933069WA0130301316015000000000
B1743403406029S05933100WA0130901323015000000000
B1743443405998S05933159WA0131601327015000000000
B1743483405979S05933209WA0132401338015000000000
B1743523405989S05933279WA0133801347015000000000
B1743563406019S05933339WA0134601362015000000000
B1744003406098S05933359WA0136101378015000000000
B1744043406159S05933299WA0136801392015000000000
B1744083406168S05933219WA0139101402015000000000
B1744123406138S05933180WA0139901411015000015000
B1744163406088S05933189WA0139901417015000000000
B1744203406069S05933249WA0141401425015000000000
B1744243406098S05933310WA0142901434015000000000
B1744283406159S05933339WA0144501447015000000000
B1744323406229S05933329WA0145801469015000000000
B1744363406279S05933270WA0145801484015000000000
B1744403406279S05933199WA0147401493015000000000
B1744443406239S05933159WA0148101500015000000000
B1744483406188S05933189WA0148101505015000015000
B1744523406178S05933270WA0148901512015000000000
B1744563406239S05933339WA0150501523015000000000
B1745003406298S05933349WA0152801552015000000000
B1745043406348S05933339WA0154401586015000000000
B1745083406388S05933270WA0155001593015000000000
B1745123406378S05933209WA0156501598015000000000
B1745163406329S05933199WA0158201613015000015000
B1745203406308S05933249WA0159601627030000015000
B1745243406338S05933319WA0161201639015000000000
B1745283406409S05933329WA0163501660015000000000
B1745323406468S05933279WA0164301674015000000000
B1745363406499S05933209WA0165201678015000015000
B1745403406468S05933159WA0164301680015000015000
B1745443406419S05933180WA0166701682015000000000
B1745483406378S05933249WA0169001686015000000000
B1745523406409S05933310WA0170601704015000000000
B1745563406478S05933329WA0172101719015000000000
B1746003406539S05933289WA0173001727015000015000
B1746043406549S05933209WA0173001733015000015000
B1746083406508S05933169WA0173701739015000000000
B1746123406468S05933189WA0175301754015000000000
B1746163406438S05933239WA0176801769015000000000
B1746203406468S05933310WA0179301781015000000000
B1746243406528S05933329WA0180001791015000000000
B1746283406589S05933279WA0181501805015000015000
B1746323406589S05933209WA0182401814030000015000
B1746363406549S05933169WA0182401823015000000000
B1746403406489S05933180WA0182401825015000000000
B1746443406419S05933209WA0181501829015000000000
B1746483406348S05933230WA0182401835015000000000
B1746523406268S05933249WA0183801855015000000000
B1746563406199S05933270WA0184701870015000000000
B1747003406119S05933289WA0185501877015000000000
B1747043406048S05933310WA0185501893015000000000
B1747083405979S05933329WA0184701887015000000000
B1747123405899S05933339WA0183801961015000000000
B1747163405809S05933349WA0183201890015000000000
B1747203405729S05933369WA0183801881015000000000
B1747243405648S05933379WA0184701891015000000000
B1747283405578S05933409WA0184701904015000000000
B1747323405509S05933419WA0184701909015000000000
B1747363405429S05933440WA0187101911015000000000
B1747403405368S05933440WA0186201921015000000000
B1747443405299S05933449WA0184701904015000000000
B1747483405218S05933449WA0183201888015000000000
B1747523405138S05933449WA0182401879015000000000
B1747563405048S05933449WA0182401867015000000000
B1748003404959S05933449WA0180801860015000000000
B1748043404878S05933440WA0180801857015000000000
B1748083404789S05933429WA0179301848015000000000
B1748123404699S05933419WA0177701833015000000000
B1748163404609S05933409WA0176801820015000000000
B1748203404519S05933409WA0176001809015000000000
B1748243404429S05933409WA0176001809015000000000
B1748283404349S05933409WA0178301822015000000000
B1748323404269S05933409WA0180001844015000000000
B1748363404198S05933409WA0180801857015000000000
B1748403404118S05933409WA0182401867015000000000
B1748443404038S05933409WA0183201880015000000000
B1748483403959S05933419WA0184701887015000000000
B1748523403879S05933419WA0186201901015000000000
B1748563403799S05933419WA0185501908015000000000
B1749003403709S05933409WA0184701906015000000000
B1749043403619S05933400WA0183201891015000000000
B1749083403529S05933389WA0182401871015000000000
B1749123403438S05933369WA0182401862015000000000
B1749163403348S05933359WA0181501864015000000000
B1749203403248S05933349WA0180001852015000000000
B1749243403158S05933339WA0180001845015000000000
B1749283403069S05933329WA0177701833015000000000
B1749323402969S05933319WA0176001822015000000000
B1749363402868S05933289WA0175301810015000000000
B1749403402778S05933270WA0174501801015000000000
B1749443402679S05933239WA0173001784015000000000
B1749483402579S05933219WA0172101773015000000000
B1749523402469S05933189WA0170601756015000000000
B1749563402379S05933180WA0170601746015000000000
B1750003402278S05933159WA0173001762015000000000
B1750043402199S05933149WA0174501788015000000000
B1750083402119S05933149WA0176001801015000000000
B1750123402039S05933140WA0176801808015000000000
B1750163401949S05933149WA0176801812015000000000
B1750203401868S05933140WA0177701817015000000000
B1750243401779S05933119WA0178301828015000000000
B1750283401698S05933079WA0177701829015000000000
B1750323401618S05933019WA0176801816015000000000
B1750363401549S05932949WA0174501797015000000000
B1750403401479S05932859WA0173001775015000000000
B1750443401408S05932769WA0171401762015000000000
B1750483401328S05932679WA0171401752015000000000
B1750523401249S05932609WA0170601748015000000000
B1750563401158S05932549WA0169801742015000000000
B1751003401058S05932509WA0169001733015000000000
B1751043400959S05932498WA0169001727015000000000
B1751083400858S05932498WA0169001725015000000000
B1751123400758S05932498WA0168201725015000000000
B1751163400668S05932498WA0169801729015000000000
B1751203400578S05932479WA0169001735015000000000
B1751243400489S05932459WA0169801737015000000000
B1751283400408S05932449WA0169001732015000000000
B1751323400319S05932439WA0169001729015000000000
B1751363400238S05932449WA0167501725015000000000
B1751403400149S05932459WA0166701715015000000000
B1751443400059S05932469WA0166701708015000000000
B1751483359969S05932469WA0165201696015000000000
B1751523359889S05932490WA0164301683015000000000
B1751563359799S05932519WA0164301677015000000000
B1752003359719S05932540WA0164301676015000000000
B1752043359639S05932559WA0163501674015000000000
B1752083359559S05932589WA0163501669015000000000
B1752123359469S05932609WA0163501667015000000000
B1752163359390S05932649WA0164301670015000000000
B1752203359308S05932670WA0165201674015000000000
B1752243359229S05932679WA0165201689015000000000
B1752283359149S05932670WA0166701701015000000000
B1752323359079S05932639WA0166701706015000000000
B1752363359019S05932589WA0165901703015000000000
B1752403358959S05932519WA0165901696015000000000
B1752443358899S05932449WA0165901696015000000000
B1752483358838S05932379WA0165901692015000000000
B1752523358789S05932309WA0168201708015000000000
B1752563358739S05932259WA0170601736015000000000
B1753003358689S05932219WA0169801749015000000000
B1753043358628S05932209WA0169801737015000000000
B1753083358559S05932209WA0168201722015000000000
B1753123358498S05932219WA0166701710015000000000
B1753163358419S05932229WA0165201699015000000000
B1753203358339S05932240WA0164301682015000000000
B1753243358269S05932240WA0163501675015000000000
B1753283358190S05932249WA0165201680015000000000
B1753323358108S05932249WA0166701697015000000000
B1753363358039S05932259WA0167501707015000000000
B1753403357969S05932269WA0167501716015000000000
B1753443357909S05932269WA0166701717015000000000
B1753483357839S05932280WA0165201703015000000000
B1753523357769S05932289WA0164301688015000000000
B1753563357689S05932289WA0165201683015000015000
B1754003357609S05932299WA0166701696015000000000
B1754043357539S05932309WA0168201710015000015000
B1754083357479S05932319WA0169001718015000015000
B1754123357418S05932329WA0169001724015000000000
B1754163357359S05932319WA0166701714015000000000
B1754203357279S05932299WA0164301689015000000000
B1754243357209S05932280WA0163501676015000000000
B1754283357129S05932249WA0162801665015000000000
B1754323357059S05932229WA0163501659015000000000
B1754363356988S05932219WA0165901676015000000000
B1754403356929S05932219WA0165901690015000000000
B1754443356869S05932219WA0165901691015000000000
B1754483356799S05932229WA0167501693015000000000
B1754523356739S05932240WA0169001700030000015000
B1754563356688S05932249WA0171401702030000015000
B1755003356640S05932269WA0172101707030000030000
B1755043356629S05932360WA0173001711015000000000
B1755083356648S05932439WA0173701719015000000000
B1755123356709S05932479WA0174501738015000000000
B1755163356778S05932479WA0173701744015000000000
B1755203356869S05932479WA0173701743015000000000
B1755243356959S05932459WA0173701749015000000000
B1755283357049S05932449WA0175301754015000000000
B1755323357139S05932429WA0174501761015000000000
B1755363357239S05932410WA0173701757015000000000
B1755403357330S05932379WA0172101746015000000000
B1755443357429S05932360WA0170601738015000000000
B1755483357529S05932329WA0169801729015000000000
B1755523357629S05932309WA0168201718015000000000
B1755563357729S05932289WA0169001713015000000000
B1756003357829S05932289WA0169001717015000000000
B1756043357929S05932289WA0169801729015000000000
B1756083358018S05932309WA0170601734015000000000
B1756123358108S05932339WA0170601733015000000000
B1756163358209S05932360WA0171401739015000000000
B1756203358299S05932379WA0169801742015000000000
B1756243358389S05932410WA0168201726015000000000
B1756283358490S05932429WA0167501710015000000000
B1756323358589S05932459WA0168201710015000000000
B1756363358689S05932490WA0170601724015000000000
B1756403358769S05932498WA0173001749015000000000
B1756443358849S05932509WA0171401767015000000000
B1756483358939S05932519WA0170601749015000000000
B1756523359029S05932540WA0169801733015000000000
B1756563359129S05932580WA0170601740015000000000
B1757003359219S05932609WA0172101747015000000000
B1757043359308S05932628WA0173701771015000000000
B1757083359398S05932649WA0174501782015000000000
B1757123359489S05932670WA0174501781015000000000
B1757163359589S05932689WA0176001791015000000000
B1757203359689S05932699WA0176001799015000000000
B1757243359788S05932719WA0176801800015000000000
B1757283359879S05932739WA0175301794015000000000
B1757323359979S05932758WA0175301789015000000000
B1757363400078S05932790WA0176001794015000000000
B1757403400168S05932819WA0175301788015000000000
B1757443400259S05932849WA0175301788015000000000
B1757483400349S05932880WA0175301792015000000000
B1757523400439S05932889WA0173701784015000000000
B1757563400538S05932880WA0174501779015000000000
B1758003400628S05932869WA0173001776015000000000
B1758043400718S05932859WA0172101766015000000000
B1758083400818S05932859WA0171401757015000000000
B1758123400928S05932869WA0171401759015000000000
B1758163401028S05932869WA0169801874015000000000
B1758203401129S05932869WA0169801777015000000000
B1758243401219S05932869WA0169801741015000000000
B1758283401318S05932869WA0168201864015000000000
B1758323401419S05932869WA0168201879015000000000
B1758363401528S05932859WA0168201853015000000000
B1758403401609S05932869WA0168201811015000000000
B1758443401708S05932869WA0168201791015000000000
B1758483401798S05932869WA0168201789015000000000
B1758523401888S05932869WA0169001785015000000000
B1758563401989S05932880WA0169801796015000000000
B1759003402079S05932880WA0171401808015000000000
B1759043402168S05932880WA0173701764015000000000
B1759083402249S05932869WA0174501783015000000000
B1759123402339S05932869WA0173001783015000000000
B1759163402428S05932869WA0171401786015000000000
B1759203402528S05932869WA0171401790015000000000
B1759243402618S05932869WA0172101796015000000000
B1759283402719S05932859WA0172101797015000000000
B1759323402818S05932859WA0172101793015000000000
B1759363402908S05932859WA0173701805015000000000
B1759403402998S05932869WA0174501817015000000000
B1759443403088S05932880WA0173001811015000000000
B1759483403178S05932889WA0173001798015000000000
B1759523403269S05932899WA0172101789015000000000
B1759563403369S05932909WA0171401778015000000000
B1800003403468S05932909WA0169801762015000000000
B1800043403568S05932909WA0169801755015000000000
B1800083403659S05932909WA0169801750015000000000
B1800123403758S05932909WA0169801746015000000000
B1800163403848S05932920WA0169801743015000000000
B1800203403948S05932909WA0170601747015000000000
B1800243404038S05932899WA0173001768015000000000
B1800283404118S05932880WA0173001781015000000000
B1800323404208S05932869WA0171401771015000000000
B1800363404299S05932859WA0170601755015000000000
B1800403404399S05932849WA0169801742015000000000
B1800443404488S05932829WA0169001734015000000000
B1800483404588S05932800WA0168201730015000000000
B1800523404678S05932779WA0167501722015000000000
B1800563404779S05932758WA0166701714015000000000
B1801003404869S05932729WA0166701705015000000000
B1801043404959S05932679WA0165901703015000000000
B1801083405048S05932620WA0164301695015000000000
B1801123405148S05932569WA0164301682015000000000
B1801163405238S05932509WA0163501672015000000000
B1801203405339S05932449WA0163501670015000000000
B1801243405429S05932399WA0164301680015000000000
B1801283405509S05932349WA0165901693015000000000
B1801323405589S05932309WA0165901697015000000000
B1801363405679S05932289WA0166701701015000000000
B1801403405769S05932280WA0166701706015000000000
B1801443405859S05932280WA0167501714015000000000
B1801483405958S05932280WA0166701713015000000000
B1801523406058S05932299WA0165201702015000000000
B1801563406159S05932319WA0164301688015000000000
B1802003406258S05932349WA0163501673015000000000
B1802043406359S05932379WA0162801670015000000000
B1802083406459S05932410WA0162101664015000000000
B1802123406549S05932439WA0161201653015000000000
B1802163406648S05932479WA0160601643015000000000
B1802203406738S05932509WA0160601638015000000000
B1802243406839S05932549WA0159601636015000000000
B1802283406919S05932589WA0160601641015000000000
B1802323407009S05932628WA0161201645015000000000
B1802363407099S05932670WA0161201646015000000000
B1802403407179S05932699WA0159601639015000000000
B1802443407269S05932729WA0159601634015000000000
B1802483407359S05932750WA0158901629015000000000
B1802523407449S05932769WA0158201619015000000000
B1802563407538S05932779WA0157401611015000000000
B1803003407638S05932779WA0158201612015000000000
B1803043407728S05932758WA0157401610015000000000
B1803083407829S05932739WA0157401608015000000000
B1803123407919S05932710WA0156501605015000000000
B1803163408018S05932679WA0156501599015000000000
B1803203408118S05932639WA0155801592015000000000
B1803243408219S05932599WA0155001590015000000000
B1803283408309S05932569WA0153601577015000000000
B1803323408408S05932529WA0153601574015000000000
B1803363408498S05932498WA0153601570015000000000
B1803403408578S05932469WA0154401572015000000000
B1803443408658S05932449WA0154401578015000000000
B1803483408748S05932419WA0152801571015000000000
B1803523408828S05932389WA0152001560015000000000
B1803563408918S05932370WA0152001552015000000000
B1804003409008S05932349WA0150501544015000000000
B1804043409098S05932339WA0150501539015000000000
B1804083409188S05932339WA0148901530015000000000
B1804123409278S05932349WA0148101523015000000000
B1804163409369S05932360WA0146801505015000000000
B1804203409469S05932360WA0145201489015000000000
B1804243409578S05932360WA0145201481015000000000
B1804283409679S05932360WA0145201486015000000000
B1804323409778S05932360WA0145801491015000000000
B1804363409878S05932360WA0148101516015000000000
B1804403409968S05932349WA0150501711015000000000
B1804443410078S05932329WA0150501536015000000000
B1804483410168S05932339WA0148901742015000000000
B1804523410218S05932360WA0147401576015000000000
B1804563410329S05932349WA0145801539015000000000
B1805003410409S05932370WA0145801565015000000000
B1805043410499S05932389WA0145801499015000000000
B1805083410588S05932429WA0145201485015000000000
B1805123410678S05932459WA0144501482015000000000
B1805163410768S05932498WA0143701470015000000000
B1805203410858S05932519WA0143701465015000000000
B1805243410948S05932540WA0143701465015000000000
B1805283411038S05932569WA0142901460015000000000
B1805323411139S05932589WA0142901458015000000000
B1805363411238S05932609WA0142101454015000000000
B1805403411328S05932628WA0142901451015000000000
B1805443411418S05932649WA0142901453015000000000
B1805483411508S05932679WA0142901454015000000000
B1805523411588S05932710WA0142901458015000000000
B1805563411668S05932739WA0142101451015000000000
B1806003411768S05932758WA0141401442015000000000
B1806043411859S05932750WA0140501433015000000000
B1806083411959S05932729WA0139901423015000000000
B1806123412058S05932699WA0139101419015000000000
B1806163412148S05932670WA0138301414015000000000
B1806203412249S05932639WA0139101413015000000000
B1806243412339S05932620WA0139901420015000000000
B1806283412429S05932589WA0142101434015000000000
B1806323412509S05932559WA0142101448015000000000
B1806363412588S05932529WA0142101452015000000000
B1806403412679S05932498WA0142901452015000000000
B1806443412769S05932469WA0142901454015000000000
B1806483412859S05932449WA0142901456015000000000
B1806523412958S05932419WA0142901454015000000000
B1806563413048S05932399WA0144501461015000000000
B1807003413138S05932379WA0145201473015000000000
B1807043413228S05932360WA0145801481015000000000
B1807083413319S05932339WA0145201480015000000000
B1807123413409S05932329WA0145201477015000000000
B1807163413509S05932309WA0144501470015000000000
B1807203413598S05932289WA0142901463015000000000
B1807243413698S05932269WA0142101454015000000000
B1807283413799S05932240WA0141401444015000000000
B1807323413889S05932219WA0141401439015000000000
B1807363413988S05932189WA0140501434015000000000
B1807403414088S05932150WA0140501431015000000000
B1807443414179S05932110WA0140501435015000000000
B1807483414279S05932079WA0139901432015000000000
B1807523414369S05932039WA0139901426015000000000
B1807563414458S05932009WA0139101421015000000000
B1808003414539S05931980WA0139101417015000000000
B1808043414628S05931949WA0138301411015000000000
B1808083414718S05931919WA0137601406015000000000
B1808123414798S05931899WA0137601406015000000000
B1808163414888S05931879WA0138301407015000000000
B1808203414978S05931859WA0138301409015000000000
B1808243415058S05931839WA0138301409015000000000
B1808283415148S05931829WA0137601404015000000000
B1808323415248S05931819WA0137601396015000000000
B1808363415338S05931839WA0139101405015000000000
B1808403415408S05931869WA0141401428015000000000
B1808443415479S05931909WA0142101439015000000000
B1808483415548S05931959WA0142901442015000000000
B1808523415618S05931999WA0145201460015000000000
B1808563415689S05932020WA0146801484015000000000
B1809003415758S05932039WA0145801489015000000000
B1809043415829S05932039WA0145801483015000000000
B1809083415909S05932039WA0145801480015000000000
B1809123415999S05932029WA0143701474015000000000
B1809163416088S05932020WA0142901458015000000000
B1809203416188S05932020WA0141401445015000000000
B1809243416289S05932020WA0141401435015000000000
B1809283416379S05932029WA0138301422015000000000
B1809323416478S05932039WA0138301407015000000000
B1809363416578S05932049WA0138301402015000000000
B1809403416679S05932070WA0139901415015000000000
B1809443416769S05932079WA0140501422015000000000
B1809483416859S05932110WA0141401433015000000000
B1809523416939S05932139WA0142101443015000000000
B1809563417029S05932159WA0142101450015000000000
B1810003417118S05932179WA0142901452015000000000
B1810043417218S05932199WA0142901449015000000000
B1810083417308S05932219WA0141401451015000000000
B1810123417409S05932240WA0144501458015000000000
B1810163417499S05932259WA0145201469015000000000
B1810203417589S05932280WA0145201473015000000000
B1810243417678S05932299WA0145201476015000000000
B1810283417778S05932319WA0144501475015000000000
B1810323417868S05932349WA0144501468015000000000
B1810363417969S05932370WA0144501465015000000000
B1810403418068S05932399WA0145801474015000000000
B1810443418149S05932429WA0147401493015000000000
B1810483418229S05932479WA0149801514015000000000
B1810523418309S05932519WA0151301531015000000000
B1810563418378S05932559WA0151301537015000000000
B1811003418458S05932609WA0150501530015000000000
B1811043418538S05932659WA0152001537015000000000
B1811083418619S05932710WA0153601550015000000000
B1811123418699S05932758WA0154401561015000000000
B1811163418779S05932800WA0155001574015000000000
B1811203418858S05932819WA0155001577015000000000
B1811243418949S05932840WA0153601570015000000000
B1811283419039S05932829WA0152801557015000000000
B1811323419129S05932809WA0152001549015000000000
B1811363419219S05932779WA0151301542015000000000
B1811403419309S05932750WA0150501531015000000000
B1811443419398S05932710WA0149801524015000000000
B1811483419498S05932679WA0148101518015000000000
B1811523419599S05932649WA0147401503015000000000
B1811563419698S05932620WA0146801495015000000000
B1812003419798S05932599WA0145801487015000000000
B1812043419899S05932580WA0147401484015000000000
B1812083419998S05932559WA0149801501015000000000
B1812123420088S05932540WA0152001532015000000000
B1812163420169S05932529WA0154401557015000000000
B1812203420249S05932529WA0155001575015000000000
B1812243420329S05932529WA0155001586015000000000
B1812283420408S05932540WA0155001580015000000000
B1812323420499S05932559WA0154401574015000000000
B1812363420589S05932580WA0154401571015000000000
B1812403420679S05932599WA0152801566015000000000
B1812443420778S05932620WA0152801557015000000000
B1812483420868S05932649WA0151301547015000000000
B1812523420969S05932689WA0151301539015000000000
B1812563421059S05932729WA0150501535015000000000
B1813003421158S05932769WA0149801532015000000000
B1813043421248S05932819WA0148101519015000000000
B1813083421329S05932880WA0147401506015000000000
B1813123421418S05932929WA0147401499015000000000
B1813163421508S05932999WA0146801494015000000000
B1813203421598S05933059WA0145801487015000000000
B1813243421688S05933119WA0145801485015000000000
B1813283421778S05933169WA0145801486015000000000
B1813323421868S05933230WA0146801487015000000000
B1813363421948S05933289WA0146801489015000000000
B1813403422028S05933359WA0147401493015000000000
B1813443422099S05933429WA0147401515015000000000
B1813483422188S05933489WA0147401526015000000000
B1813523422269S05933559WA0147401526015000000000
B1813563422349S05933619WA0148101524015000000000
B1814003422439S05933679WA0146801519015000000000
B1814043422519S05933740WA0145801506015000000000
B1814083422609S05933799WA0145801497015000000000
B1814123422699S05933849WA0147401499015000000000
B1814163422789S05933879WA0148901519015000000000
B1814203422878S05933899WA0148901521015000000000
B1814243422978S05933919WA0148101514015000000000
B1814283423069S05933929WA0147401511015000000000
B1814323423169S05933939WA0145801502015000000000
B1814363423268S05933960WA0145801491015000000000
B1814403423368S05933969WA0146801488015000000000
B1814443423469S05933979WA0147401502015000000000
B1814483423559S05933979WA0146801504015000000000
B1814523423658S05933989WA0146801490015000000000
B1814563423748S05934000WA0147401491015000000000
B1815003423838S05934000WA0148901504015000000000
B1815043423928S05933989WA0149801525015000000000
B1815083424029S05933969WA0150501528015000000000
B1815123424128S05933950WA0151301535015000000000
B1815163424218S05933929WA0152001541015000000000
B1815203424308S05933909WA0152001549015000000000
B1815243424409S05933889WA0152801558015000000000
B1815283424499S05933859WA0153601565015000000000
B1815323424598S05933839WA0153601571015000000000
B1815363424688S05933820WA0152801675015000000000
B1815403424789S05933809WA0152801556015000000000
B1815443424878S05933788WA0152801602015000000000
B1815483424979S05933769WA0152801612015000000000
B1815523425078S05933769WA0153601659015000000000
B1815563425168S05933769WA0153601669015000000000
B1816003425258S05933769WA0154401567015000000000
B1816043425359S05933779WA0153601564015000000000
B1816083425449S05933788WA0152801557015000000000
B1816123425548S05933799WA0152801555015000000000
B1816163425648S05933809WA0153601557015000000000
B1816203425749S05933809WA0155001574015000000000
B1816243425848S05933820WA0157401596015000000000
B1816283425938S05933820WA0158201606015000000000
B1816323426028S05933820WA0158201617015000000000
B1816363426118S05933799WA0160601618015000000000
B1816403426198S05933779WA0162101641015000000000
B1816443426278S05933759WA0162801658015000000000
B1816483426358S05933740WA0162801661015000000000
B1816523426439S05933719WA0162801657015000000000
B1816563426528S05933700WA0162101652015000000000
B1817003426618S05933669WA0162801652015000000000
B1817043426718S05933649WA0164301661015000000000
B1817083426808S05933639WA0165901688015000000000
B1817123426958S05933639WA0168201797015000000000
B1817163426978S05933629WA0170601728015000000000
B1817203427048S05933619WA0173001751015000000000
B1817243427119S05933619WA0174501766015000000000
B1817283427188S05933610WA0174501780015000000000
B1817323427268S05933610WA0174501778015000000000
B1817363427348S05933599WA0174501795015000000000
B1817403427438S05933579WA0173701791015000000000
B1817443427539S05933549WA0173001785015000000000
B1817483427629S05933509WA0171401772015000000000
B1817523427729S05933479WA0171401763015000000000
B1817563427828S05933440WA0171401757015000000000
B1818003427918S05933389WA0169801749015000000000
B1818043428019S05933349WA0169801739015000000000
B1818083428118S05933310WA0169801736015000000000
B1818123428208S05933270WA0169801736015000000000
B1818163428308S05933230WA0169801738015000000000
B1818203428409S05933189WA0169801795015000000000
B1818243428508S05933159WA0169801744015000000000
B1818283428608S05933119WA0168201784015000000000
B1818323428709S05933069WA0169001835015000000000
B1818363428808S05933029WA0168201764015000000000
B1818403428908S05932989WA0168201765015000000000
B1818443429009S05932949WA0166701730015000000000
B1818483429108S05932909WA0165901711015000000000
B1818523429219S05932869WA0164301698015000000000
B1818563429328S05932829WA0162801682015000000000
B1819003429439S05932779WA0162101666015000000000
B1819043429558S05932739WA0161201654015000000000
B1819083429668S05932699WA0160601646015000000000
B1819123429779S05932659WA0159601637015000000000
B1819163429898S05932620WA0158901629015000000000
B1819203430008S05932580WA0158201621015000000000
B1819243430119S05932540WA0157401617015000000000
B1819283430238S05932509WA0156501600015000000000
B1819323430358S05932479WA0155001644015000000000
B1819363430469S05932449WA0155001639015000000000
B1819403430578S05932429WA0156501609015000000000
B1819443430679S05932410WA0155801607015000000000
B1819483430779S05932389WA0155001580015000000000
B1819523430878S05932370WA0152801680015000000000
B1819563430989S05932349WA0151301625015000000000
B1820003431098S05932339WA0150501604015000000000
B1820043431199S05932319WA0150501600015000000000
B1820083431308S05932299WA0152001530015000000000
B1820123431398S05932280WA0154401564015000000000
B1820163431478S05932240WA0155801639015000000000
B1820203431549S05932179WA0155801597015000000000
B1820243431629S05932110WA0156501590015000000000
B1820283431698S05932039WA0158201601015000000000
B1820323431759S05931969WA0159601618015000000000
B1820363431828S05931899WA0159601627015000000000
B1820403431889S05931819WA0161201632015000000000
B1820443431948S05931749WA0161201642015000000000
B1820483432019S05931680WA0162101644015000000000
B1820523432078S05931598WA0162801650015000000000
B1820563432139S05931529WA0162101655015000000000
B1821003432198S05931460WA0162101654015000000000
B1821043432269S05931389WA0162101650015000000000
B1821083432338S05931319WA0164301657015000000000
B1821123432399S05931269WA0165201684015000000000
B1821163432468S05931219WA0164301694015000000000
B1821203432548S05931169WA0163501776015000000000
B1821243432628S05931109WA0162801758015000000000
B1821283432718S05931059WA0163501700015000000000
B1821323432799S05931009WA0163501692015000000000
B1821363432879S05930959WA0164301691015000000000
B1821403432969S05930910WA0164301689015000000000
B1821443433049S05930869WA0165201689015000000000
B1821483433129S05930829WA0165201773015000000000
B1821523433219S05930809WA0165201681015000000000
B1821563433318S05930789WA0164301675015000000000
B1822003433418S05930780WA0164301671015000000000
B1822043433508S05930780WA0162801665015000000000
B1822083433609S05930789WA0162801658015000000000
B1822123433708S05930789WA0162801655015000000000
B1822163433808S05930799WA0162101650015000000000
B1822203433899S05930799WA0160601644015000000000
B1822243433999S05930799WA0161201638015000000000
B1822283434088S05930799WA0162101641015000000000
B1822323434178S05930799WA0165201663015000000000
B1822363434259S05930799WA0166701690015000000000
B1822403434339S05930799WA0165901699015000000000
B1822443434429S05930799WA0165201686015000000000
B1822483434528S05930799WA0164301676015000000000
B1822523434628S05930799WA0164301672015000000000
B1822563434719S05930799WA0163501672015000000000
B1823003434818S05930789WA0164301673015000000000
B1823043434928S05930789WA0163501671015000000000
B1823083435029S05930789WA0162801664015000000000
B1823123435128S05930789WA0162101655015000000000
B1823163435229S05930789WA0161201644015000000000
B1823203435329S05930780WA0159601636015000000000
B1823243435438S05930780WA0159601629015000000000
B1823283435539S05930780WA0159601623015000000000
B1823323435638S05930780WA0158201617015000000000
B1823363435749S05930780WA0156501603015000000000
B1823403435849S05930769WA0155801589015000000000
B1823443435958S05930759WA0155001579015000000000
B1823483436068S05930749WA0155001575015000000000
B1823523436168S05930739WA0155001575015000000000
B1823563436269S05930730WA0154401576015000000000
B1824003436378S05930709WA0154401569015000000000
B1824043436479S05930699WA0153601563015000000000
B1824083436588S05930690WA0152801557015000000000
B1824123436688S05930690WA0152801551015000000000
B1824163436789S05930679WA0152801551015000000000
B1824203436888S05930669WA0152001550015000000000
B1824243436988S05930659WA0151301552015000000000
B1824283437089S05930650WA0151301547015000000000
B1824323437188S05930639WA0150501543015000000000
B1824363437288S05930629WA0150501535015000000000
B1824403437379S05930619WA0150501530015000000000
B1824443437479S05930609WA0150501535015000000000
B1824483437568S05930599WA0151301539015000000000
B1824523437658S05930589WA0152001557015000000000
B1824563437748S05930579WA0151301559015000000000
B1825003437838S05930569WA0151301558015000000000
B1825043437928S05930560WA0151301554015000000000
B1825083438018S05930560WA0152001550015000000000
B1825123438109S05930549WA0151301551015000000000
B1825163438199S05930549WA0151301549015000000000
B1825203438278S05930549WA0151301544015000000000
B1825243438369S05930549WA0149801534015000000000
B1825283438459S05930549WA0148901526015000000000
B1825323438549S05930549WA0148901519015000000000
B1825363438629S05930529WA0149801521015000000000
B1825403438708S05930499WA0148901522015000000000
B1825443438788S05930480WA0147401512015000000000
B1825483438879S05930469WA0147401501015000000000
B1825523438968S05930469WA0147401496015000000000
B1825563439048S05930480WA0148901507015000000000
B1826003439139S05930499WA0150501523015000000000
B1826043439218S05930520WA0149801525015000000000
B1826083439298S05930539WA0148101512015000000000
B1826123439388S05930560WA0148101500015000000000
B1826163439468S05930579WA0147401491015000000000
B1826203439569S05930599WA0146801485015000000000
B1826243439659S05930619WA0147401485015000000000
B1826283439738S05930629WA0148901498015000000000
B1826323439818S05930629WA0149801512015000000000
B1826363439898S05930619WA0148901508015000000000
B1826403439978S05930599WA0148101498015000000000
B1826443440059S05930579WA0148101492015000000000
B1826483440148S05930560WA0148101495015000000000
B1826523440229S05930529WA0148101498015000000000
B1826563440298S05930489WA0148101495015000000000
B1827003440378S05930459WA0148901495015000000000
B1827043440458S05930419WA0150501508015000000000
B1827083440519S05930390WA0151301525015000000000
B1827123440588S05930350WA0152001534015000000000
B1827163440649S05930319WA0151301537015000000000
B1827203440718S05930269WA0151301535015000000000
B1827243440779S05930220WA0150501537015000000000
B1827283440848S05930170WA0151301537015000000000
B1827323440909S05930109WA0152001536015000000000
B1827363440959S05930050WA0152001538015000000000
B1827403440989S05929979WA0152001542015000000000
B1827443440999S05929889WA0151301537015000000000
B1827483440978S05929799WA0150501529015000000000
B1827523440938S05929719WA0151301528015000000000
B1827563440898S05929649WA0149801523015000000000
B1828003440848S05929569WA0148901514015000000000
B1828043440798S05929499WA0148101507015000000000
B1828083440748S05929419WA0147401500015000000000
B1828123440708S05929339WA0146801496015000000000
B1828163440668S05929259WA0146801491015000000000
B1828203440628S05929169WA0145801485015000000000
B1828243440588S05929089WA0144501477015000000000
B1828283440559S05928999WA0143701465015000000000
B1828323440519S05928919WA0142901453015000000000
B1828363440479S05928829WA0142101448015000000000
B1828403440439S05928749WA0142101447015000000000
B1828443440399S05928659WA0142101448015000000000
B1828483440359S05928569WA0142901452015000000000
B1828523440318S05928489WA0142101451015000000000
B1828563440278S05928399WA0141401443015000000000
B1829003440238S05928309WA0139901432015000000000
B1829043440198S05928229WA0140501425015000000000
B1829083440168S05928139WA0139901429015000000000
B1829123440139S05928059WA0139101423015000000000
B1829163440099S05927969WA0138301414015000000000
B1829203440068S05927879WA0137601405015000000000
B1829243440038S05927789WA0136801397015000000000
B1829283439998S05927699WA0136101388015000000000
B1829323439959S05927609WA0136101384015000000000
B1829363439919S05927519WA0136101386015000000000
B1829403439879S05927439WA0136101384015000000000
B1829443439839S05927349WA0135301379015000000000
B1829483439799S05927269WA0135301380015000000000
B1829523439768S05927189WA0135301383015000000000
B1829563439728S05927099WA0135301379015000000000
B1830003439699S05927019WA0134601378015000000000
B1830043439669S05926929WA0135301375015000000000
B1830083439638S05926839WA0136101381015000000000
B1830123439608S05926759WA0136101386015000000000
B1830163439579S05926679WA0136801389015000000000
B1830203439548S05926599WA0136801393015000000000
B1830243439518S05926520WA0136801394015000000000
B1830283439478S05926449WA0138301407015000000000
B1830323439428S05926379WA0138301409015000000000
B1830363439378S05926310WA0138301413015000000000
B1830403439329S05926239WA0139101414015000000000
B1830443439279S05926169WA0139101423015000000000
B1830483439229S05926098WA0139901430015000000000
B1830523439189S05926029WA0139901432015000000000
B1830563439149S05925960WA0141401448015000000000
B1831003439109S05925889WA0140501448015000000000
B1831043439059S05925819WA0139901436015000000000
B1831083438998S05925750WA0139101430015000000000
B1831123438939S05925679WA0138301426015000000000
B1831163438879S05925620WA0137601418015000000000
B1831203438818S05925559WA0136801411015000000000
B1831243438748S05925499WA0136101406015000000000
B1831283438679S05925439WA0134601395015000000000
B1831323438608S05925389WA0134601383015000000000
B1831363438539S05925329WA0133001376015000000000
B1831403438469S05925280WA0132401363015000000000
B1831443438398S05925209WA0130901349015000000000
B1831483438339S05925139WA0130301337015000000000
B1831523438278S05925068WA0129401328015000000000
B1831563438218S05924999WA0128501320015000000000
B1832003438159S05924930WA0127901309015000000000
B1832043438088S05924859WA0127101303015000000000
B1832083438029S05924800WA0126301296015000000000
B1832123437968S05924739WA0126301291015000000000
B1832163437909S05924680WA0125701292015000000000
B1832203437849S05924619WA0125701284015000000000
B1832243437788S05924569WA0125001277015000000000
B1832283437718S05924539WA0124101270015000000000
B1832323437639S05924509WA0122801261015000000000
B1832363437568S05924479WA0122801249015000000000
B1832403437488S05924449WA0121901243015000000000
B1832443437418S05924429WA0121301240015000000000
B1832483437339S05924409WA0121301235015000000000
B1832523437268S05924399WA0120401231015000000000
B1832563437198S05924380WA0121301230015000000000
B1833003437118S05924359WA0119801225015000000000
B1833043437049S05924349WA0119801217015000000000
B1833083436978S05924330WA0118301207015000000000
B1833123436898S05924309WA0117601197015000000000
B1833163436829S05924290WA0117601195015000000000
B1833203436758S05924269WA0118301196015000000000
B1833243436688S05924250WA0116801190015000000000
B1833283436619S05924239WA0116101180015000000000
B1833323436548S05924219WA0116101177015000000000
B1833363436468S05924209WA0117601183015000000000
B1833403436408S05924209WA0118301195015000000000
B1833443436338S05924209WA0119801214015000000000
B1833483436279S05924219WA0120401226015000000000
B1833523436218S05924239WA0120401233015000000000
B1833563436149S05924250WA0119801229015000000000
B1834003436088S05924250WA0119801221015000000000
B1834043436019S05924239WA0121301233015000000000
B1834083435958S05924239WA0121901243015000000000
B1834123435898S05924219WA0121301247015000000000
B1834163435828S05924200WA0121301238015000000000
B1834203435759S05924169WA0120401237015000000000
B1834243435688S05924139WA0119001227015000000000
B1834283435619S05924120WA0117601218015000000000
B1834323435539S05924089WA0117601209015000000000
B1834363435459S05924049WA0116801202015000000000
B1834403435378S05924019WA0115401193015000000000
B1834443435308S05923990WA0115401181015000000000
B1834483435239S05923959WA0114601178015000000000
B1834523435159S05923919WA0113801170015000000000
B1834563435088S05923889WA0112401152015000000000
B1835003435008S05923860WA0110201133015000000000
B1835043434918S05923829WA0110201120015000000000
B1835083434838S05923799WA0109401114015000000000
B1835123434769S05923770WA0109401117015000000000
B1835163434689S05923749WA0108001107015000000000
B1835203434608S05923730WA0106501094015000000000
B1835243434538S05923699WA0105901082015000000000
B1835283434459S05923669WA0105101070015000000000
B1835323434389S05923640WA0104301069015000000000
B1835363434329S05923609WA0104301067015000000000
B1835403434268S05923569WA0104301060015000000000
B1835443434199S05923539WA0103001051015000000000
B1835483434138S05923499WA0103001041015000000000
B1835523434069S05923459WA0101501036015000000000
B1835563434008S05923430WA0101501028015000000000
B1836003433949S05923399WA0100701021015000000000
B1836043433878S05923379WA0099801013015000000000
B1836083433808S05923379WA0099801008015000000000
B1836123433748S05923419WA0099801002015000015000
B1836163433699S05923470WA0099801005015000015000
B1836203433658S05923539WA0100701005015000000000
B1836243433618S05923600WA0102101016015000000000
B1836283433578S05923648WA0101501025015000000000
B1836323433538S05923709WA0100701025015000000000
B1836363433498S05923770WA0099801017015000000000
B1836403433458S05923820WA0099801010015000000000
B1836443433408S05923879WA0098501002015000000000
B1836483433358S05923929WA0097800991015000000000
B1836523433318S05923999WA0097100981015000000000
B1836563433278S05924069WA0096400975015000015000
B1837003433238S05924139WA0095700971015000000000
B1837043433198S05924209WA0095700969015000000000
B1837083433169S05924279WA0096400971015000000000
B1837123433129S05924339WA0095700968015000000000
B1837163433089S05924399WA0096400967015000000000
B1837203433049S05924460WA0097100977015000000000
B1837243433018S05924519WA0097800983015000000000
B1837283432978S05924569WA0097800990015000000000
B1837323432938S05924619WA0097800991015000000000
B1837363432898S05924670WA0097800989015000000000
B1837403432848S05924720WA0096400982015000000000
B1837443432799S05924759WA0095700972015000000000
B1837483432739S05924779WA0094900961015000000000
B1837523432669S05924800WA0094200958015000000000
B1837563432609S05924808WA0094200954015000000000
B1838003432539S05924819WA0093400948015000000000
B1838043432479S05924819WA0092800940015000000000
B1838083432409S05924808WA0091300929015000000000
B1838123432349S05924800WA0090700919015000000000
B1838163432279S05924779WA0090000910015000000000
B1838203432208S05924779WA0088500899015000000000
B1838243432139S05924789WA0087700893015000000000
B1838283432069S05924808WA0087700883015000000000
B1838323431998S05924829WA0087000882015000000000
B1838363431929S05924850WA0086200881015000000000
B1838403431858S05924879WA0085700872015000000000
B1838443431788S05924899WA0085000865015000000000
B1838483431719S05924930WA0085000857015000000000
B1838523431648S05924959WA0083400848015000000000
B1838563431579S05924999WA0082000838015000000000
B1839003431509S05925029WA0081400827015000000000
B1839043431428S05925068WA0080700815015000000000
B1839083431358S05925099WA0080700808015000000000
B1839123431278S05925129WA0079300801015000000000
B1839163431209S05925159WA0079300797015000000000
B1839203431138S05925190WA0080700802015000000000
B1839243431079S05925219WA0080700807015000000000
B1839283431008S05925239WA0079900803015000000000
B1839323430939S05925269WA0079300796015000000000
B1839363430868S05925289WA0078600790015000000000
B1839403430798S05925320WA0078600786015000000000
B1839443430729S05925339WA0078600786015000000000
B1839483430668S05925369WA0077900785015000000000
B1839523430599S05925389WA0077900779015000000000
B1839563430538S05925419WA0077100774015000000000
B1840003430479S05925450WA0076400772015000000000
B1840043430419S05925469WA0076400764015000000000
B1840083430358S05925479WA0076400765015000000000
B1840123430299S05925499WA0076400771015000000000
B1840163430249S05925509WA0076400770015000000000
B1840203430188S05925529WA0075700769015000000000
B1840243430129S05925540WA0075000766015000000000
B1840283430068S05925549WA0073500750015000000000
B1840323429999S05925569WA0072100737015000000000
B1840363429938S05925580WA0072100728015000000000
B1840403429869S05925589WA0071500725015000000000
B1840443429798S05925589WA0070800725015000000000
B1840483429729S05925589WA0070000859015000000000
B1840523429649S05925589WA0070000760015000000000
B1840563429578S05925589WA0070800763015000000000
B1841003429519S05925589WA0071500744015000000000
B1841043429458S05925589WA0072900754015000000000
B1841083429399S05925589WA0073500759015000000000
B1841123429349S05925589WA0072100756015000000000
B1841163429288S05925599WA0072100745015000000000
B1841203429219S05925599WA0072100745015000000000
B1841243429168S05925599WA0072900743015000000000
B1841283429108S05925599WA0071500737015000000000
B1841323429038S05925599WA0070800724015000000000
B1841363428969S05925609WA0070000713015000000000
B1841403428908S05925609WA0070000709015000000000
B1841443428839S05925609WA0070000706015000000000
B1841483428768S05925609WA0069400702015000000000
B1841523428709S05925620WA0069400702015000000000
B1841563428648S05925629WA0070800703015000000000
B1842003428589S05925639WA0070800711015000000000
B1842043428528S05925649WA0072100719015000000000
B1842083428478S05925659WA0072100724015000000000
B1842123428418S05925669WA0071500720015000000000
B1842163428359S05925679WA0071500716015000000000
B1842203428288S05925679WA0071500719015000000000
B1842243428229S05925679WA0072100717015000000000
B1842283428159S05925679WA0071500720015000000000
B1842323428088S05925679WA0070800714015000000000
B1842363428019S05925669WA0070000705015000000000
B1842403427948S05925669WA0069400701015000000000
B1842443427878S05925669WA0068600694015000000000
B1842483427809S05925669WA0067900683015000000000
B1842523427738S05925659WA0066600670015000000000
B1842563427658S05925669WA0065200657015000000000
B1843003427578S05925669WA0064300647015000000000
B1843043427509S05925669WA0064300639015000000000
B1843083427429S05925679WA0064300635015000000000
B1843123427358S05925679WA0064300632015000000000
B1843163427289S05925679WA0063700632015000000000
B1843203427209S05925679WA0063700630015000000000
B1843243427138S05925689WA0064300634015000000000
B1843283427068S05925699WA0065700639015000000000
B1843323426999S05925699WA0067100655015000000000
B1843363426949S05925710WA0068600675015000000000
B1843403426899S05925739WA0068600685015000000000
B1843443426848S05925779WA0069400686015000000000
B1843483426808S05925819WA0069400684015000000000
B1843523426779S05925880WA0069400685015000000000
B1843563426788S05925960WA0070800688015000000000
B1844003426808S05926029WA0072100697045000000000
B1844043426848S05926090WA0072100698030000000000
B1844083426909S05926069WA0072100698030000015000
B1844123426968S05925979WA0072100698030000000000
B1844163426978S05925909WA0072100702015000015000
B1844203426958S05925840WA0072100704015000000000
B1844243426949S05925779WA0071500700015000000000
B1844283426928S05925699WA0071500701015000000000
B1844323426918S05925629WA0071500693015000000000
B1844363426899S05925559WA0072100748015000000000
B1844403426859S05925459WA0072900760015000000000
B1844443426848S05925429WA0073500889015000000000
B1844483426808S05925419WA0072900737015000000000
B1844523426758S05925439WA0072100730015000000000
B1844563426708S05925459WA0070800712015000000000
B1845003426658S05925490WA0070000701015000000000
B1845043426609S05925529WA0069400694015000000000
B1845083426548S05925559WA0067900687015000000000
B1845123426498S05925580WA0067100674015000000000
B1845163426439S05925599WA0067100667015000000000
B1845203426379S05925620WA0066600664015000000000
B1845243426328S05925649WA0065700658015000000000
B1845283426269S05925679WA0065700654015000000000
B1845323426219S05925699WA0065700652015000000000
B1845363426158S05925729WA0065700652015000000000
B1845403426108S05925750WA0065700655015000000000
B1845443426058S05925769WA0066600656015000000000
B1845483426009S05925789WA0067100663015000000000
B1845523425968S05925809WA0068600669015000000000
B1845563425938S05925849WA0069400681015000015000
B1846003425949S05925909WA0069400688015000060000
B1846043425968S05925979WA0069400690015000075000
B1846083426068S05925979WA0070800693015000000000
B1846123426098S05925960WA0071500717015000000000
B1846163426588S05926629WA0072100718015000000000
B1846203426098S05925859WA0072100644015000015000
B1846243426058S05925859WA0072900656015000015000
B1846283426058S05925880WA0073500670015000015000
B1846323425978S05925919WA0074100673015000045000
B1846363426018S05925999WA0075000675015000015000
B1846403426139S05926029WA0075700675015000015000
B1846443426198S05925999WA0076400678015000015000
B1846483426228S05925939WA0076400686030000000000
B1846523426228S05925880WA0076400693030000000000
B1846563426188S05925840WA0077100697015000000000
B1847003426139S05925849WA0077900709015000000000
B1847043426098S05925880WA0077900723015000015000
B1847083426089S05925939WA0077900727015000030000
B1847123426148S05926010WA0078600728015000000000
B1847163426198S05926059WA0079300730015000000000
B1847203426269S05926090WA0079900744030000000000
B1847243426318S05926069WA0079900754030000000000
B1847283426358S05926010WA0080700766030000015000
B1847323426339S05925949WA0081400769030000015000
B1847363426299S05925939WA0082000775015000000000
B1847403426259S05925979WA0082800788015000015000
B1847443426238S05926039WA0083400795015000030000
B1847483426248S05926109WA0083400797015000030000
B1847523426259S05926169WA0085000798015000030000
B1847563426418S05926059WA0085000798015000015000
B1848003426418S05925989WA0085700807030000015000
B1848043426368S05925960WA0086200812030000000000
B1848083426349S05925989WA0085700825015000000000
B1848123426328S05926050WA0086200826015000015000
B1848163426328S05926109WA0086200826015000030000
B1848203426439S05926129WA0087000826015000015000
B1848243426628S05926029WA0088500828030000015000
B1848283426519S05926029WA0089100818030000015000
B1848323426509S05925949WA0090000866030000000000
B1848363426458S05925949WA0090000871015000015000
B1848403426429S05925968WA0090000880015000000000
B1848443426398S05926019WA0090700884015000015000
B1848483426389S05926090WA0092100885015000030000
B1848523426439S05926140WA0092800885015000030000
B1848563426578S05926090WA0094200887015000015000
B1849003426588S05926029WA0094900900015000015000
B1849043426569S05925979WA0095700914030000015000
B1849083426519S05925968WA0094900919015000000000
B1849123426479S05926010WA0095700925015000015000
B1849163426458S05926069WA0096400926015000030000
B1849203426479S05926129WA0097100926015000030000
B1849243426609S05926159WA0098500930015000000000
B1849283426668S05926129WA0099300936015000000000
B1849323426678S05926069WA0099800943015000000000
B1849363426649S05926010WA0100700954015000000000
B1849403426609S05926010WA0101501015015000000000
B1849443426569S05926059WA0100701041015000015000
B1849483426578S05926129WA0101501041015000030000
B1849523426649S05926180WA0103001041015000015000
B1849563426718S05926180WA0104301038015000000000
B1850003426748S05926119WA0105901038030000015000
B1850043426739S05926059WA0106501043045000015000
B1850083426699S05926019WA0107301048030000000000
B1850123426668S05926039WA0108001054015000015000
B1850163426649S05926098WA0108801054015000015000
B1850203426649S05926169WA0109401055015000015000
B1850243426758S05926189WA0110201055015000015000
B1850283426808S05926159WA0111701059030000000000
B1850323426828S05926098WA0112401076030000000000
B1850363426808S05926039WA0113101092015000000000
B1850403426769S05926010WA0113801099015000000000
B1850443426729S05926029WA0113801112015000015000
B1850483426708S05926090WA0113801117015000015000
B1850523426708S05926149WA0115401119015000015000
B1850563426808S05926209WA0116801121015000000000
B1851003426878S05926199WA0118301125015000000000
B1851043426928S05926149WA0119001134030000000000
B1851083426928S05926090WA0119801155030000015000
B1851123426899S05926039WA0121301167030000015000
B1851163426859S05926039WA0121901180015000000000
B1851203426828S05926069WA0122801195015000015000
B1851243426828S05926140WA0122801202015000030000
B1851283426848S05926209WA0124101204015000030000
B1851323426978S05926209WA0125701206015000015000
B1851363427008S05926149WA0125701212015000000000
B1851403427008S05926079WA0126301227015000000000
B1851443426968S05926050WA0127101236030000015000
B1851483426918S05926059WA0128501312015000000000
B1851523426899S05926109WA0129401335015000015000
B1851563426909S05926180WA0130301338015000030000
B1852003426928S05926239WA0131601339015000030000
B1852043426968S05926279WA0132401339015000030000
B1852083427079S05926140WA0133001351030000015000
B1852123427079S05926079WA0133801355030000015000
B1852163427039S05926039WA0134601360015000000000
B1852203426999S05926059WA0136101366015000000000
B1852243426978S05926109WA0135301369015000015000
B1852283427008S05926180WA0136101370015000030000
B1852323427058S05926209WA0137601370015000015000
B1852363427119S05926189WA0139901374030000015000
B1852403427138S05926119WA0140501382030000000000
B1852443427128S05926059WA0141401390015000000000
B1852483427079S05926039WA0142101396015000000000
B1852523427029S05926069WA0142901456015000015000
B1852563427008S05926129WA0143701484015000015000
B1853003427039S05926189WA0144501487015000015000
B1853043427159S05926209WA0145801477015000015000
B1853083427209S05926169WA0146801452045000015000
B1853123427228S05926098WA0147401470030000000000
B1853163426779S05925809WA0148101935030000015000
B1853203426758S05925729WA0148901939030000015000
B1853243426739S05925659WA0150501941030000015000
B1853283426718S05925580WA0150501942030000015000
B1853323426699S05925509WA0152001942030000015000
B1853363426678S05925439WV0152801942030000015160
B1853403426658S05925360WV0153601942030000015160
B1853443427308S05926079WV0154401942030000015160
B1853483427289S05926019WA0155001562030000015000
B1853523427249S05925989WA0155001576015000000000
B1853563427209S05926019WA0156501586015000015000
B1854003427178S05926069WA0156501587015000000000
B1854043427199S05926140WA0158201587015000015000
B1854083427299S05926159WA0159601585015000015000
B1854123427348S05926109WA0160601585030000015000
B1854163427348S05926039WA0160601593015000000000
B1854203427318S05925989WA0161201602015000000000
B1854243427268S05925999WA0162101611015000015000
B1854283427238S05926050WA0163501617015000015000
B1854323427228S05926109WA0163501620015000015000
B1854363427318S05926159WA0164301622015000015000
B1854403427388S05926149WA0165901625015000015000
B1854443427419S05926090WA0165901629015000000000
B1854483427438S05926019WA0166701639015000000000
B1854523427438S05925949WA0166701648015000000000
B1854563427419S05925880WA0166701655015000000000
B1855003427398S05925799WA0165901659015000000000
B1855043427358S05925719WA0165201661015000000000
B1855083427329S05925639WA0165201661015000000000
B1855123427299S05925549WA0165201662015000000000
B1855163427268S05925469WA0164301662015000000000
B1855203427228S05925379WA0165201662015000000000
B1855243427199S05925299WA0165201663015000000000
B1855283427159S05925219WA0163501663015000000000
B1855323427119S05925129WA0163501657015000000000
B1855363427079S05925049WA0162801645015000000000
B1855403427039S05924969WA0162801640015000000000
B1855443426989S05924889WA0162801639015000000000
B1855483426949S05924800WA0162101637015000000000
B1855523426909S05924720WA0162101635015000000000
B1855563426878S05924629WA0162101634015000000000
B1856003426848S05924539WA0162101635015000000000
B1856043426808S05924449WA0161201632015000000000
B1856083426779S05924359WA0160601631015000000000
B1856123426739S05924269WA0160601627015000000000
B1856163426708S05924189WA0160601624015000000000
B1856203426678S05924109WA0159601623015000000000
B1856243426649S05924019WA0159601615015000000000
B1856283426609S05923950WA0158901609015000000000
B1856323426578S05923869WA0157401601015000000000
B1856363426538S05923789WA0156501595015000000000
B1856403426488S05923719WA0156501592015000000000
B1856443426439S05923640WA0155801585015000000000
B1856483426398S05923569WA0155001582015000000000
B1856523426349S05923499WA0154401573015000000000
B1856563426288S05923419WA0154401570015000000000
B1857003426238S05923348WA0154401570015000000000
B1857043426188S05923279WA0154401565015000000000
B1857083426148S05923199WA0154401567015000000000
B1857123426118S05923130WA0155001575015000000000
B1857163426079S05923049WA0154401579015000000000
B1857203426049S05922969WA0155001572015000000000
B1857243426018S05922889WA0153601567015000000000
B1857283425988S05922809WA0154401567015000000000
B1857323425959S05922729WA0154401567015000000000
B1857363425938S05922639WA0155801571015000000000
B1857403425919S05922570WA0155801584015000000000
B1857443425908S05922479WA0155001580015000000000
B1857483425898S05922400WA0155001576015000000000
B1857523425888S05922310WA0154401569015000000000
B1857563425869S05922219WA0153601566015000000000
B1858003425839S05922140WA0152801560015000000000
B1858043425808S05922050WA0152001557030000015000
B1858083425768S05921959WA0152001553015000015000
B1858123425739S05921879WA0151301550015000000000
B1858163425699S05921790WA0150501540015000000000
B1858203425659S05921710WA0150501537015000000000
B1858243425619S05921639WA0150501533015000000000
B1858283425579S05921559WA0149801530015000000000
B1858323425548S05921479WA0149801527015000000000
B1858363425518S05921399WA0148101521015000000000
B1858403425479S05921309WA0148101518015000000000
B1858443425449S05921229WA0148101512015000000000
B1858483425418S05921150WA0147401509015000000000
B1858523425378S05921070WA0148101506015000000000
B1858563425349S05920989WA0148101507015000000000
B1859003425328S05920919WA0148101508015000000000
B1859043425298S05920839WA0146801508015000000000
B1859083425269S05920770WA0148101507015000000000
B1859123425238S05920689WA0148101507015000000000
B1859163425218S05920619WA0148101508015000000000
B1859203425179S05920550WA0147401508015000000000
B1859243425139S05920479WA0148901507015000000000
B1859283425088S05920429WA0149801514015000000000
B1859323425038S05920380WA0150501526015000000000
B1859363424998S05920329WA0150501528015000000000
B1859403424948S05920279WA0151301534015000000000
B1859443424898S05920229WA0152801548015000000000
B1859483424858S05920189WA0154401562015000000000
B1859523424808S05920149WA0153601563015000000000
B1859563424759S05920099WA0153601565015000000000
B1900003424709S05920040WA0153601564015000000000
B1900043424658S05919979WA0153601563015000000000
B1900083424608S05919919WA0155001571015000000000
B1900123424568S05919860WA0157401590015000000000
B1900163424528S05919809WA0156501601015000000000
B1900203424488S05919749WA0157401597015000000000
B1900243424438S05919690WA0157401601015000000000
B1900283424388S05919619WA0156501598015000000000
B1900323424348S05919549WA0157401597015000000000
B1900363424308S05919469WA0157401598015000000000
B1900403424268S05919399WA0156501598015000000000
B1900443424228S05919310WA0156501594015000000000
B1900483424188S05919229WA0157401596015000000000
B1900523424149S05919149WA0157401601015000000000
B1900563424119S05919069WA0156501598015000000000
B1901003424078S05918979WA0155001588015000000000
B1901043424048S05918889WA0155801578015000000000
B1901083424019S05918799WA0155801577015000000000
B1901123423989S05918719WA0155001577015000000000
B1901163423958S05918629WA0153601577015000000000
B1901203423928S05918538WA0154401570015000000000
B1901243423899S05918450WA0152001564015000000000
B1901283423868S05918369WA0150501559015000000000
B1901323423838S05918278WA0149801552015000000000
B1901363423809S05918179WA0149801547015000000000
B1901403423778S05918089WA0148101542015000000000
B1901443423748S05917999WA0147401527015000000000
B1901483423719S05917909WA0146801518015000000000
B1901523423689S05917819WA0145801515015000000000
B1901563423648S05917739WA0144501508015000000000
B1902003423618S05917649WA0145201503015000000000
B1902043423578S05917569WA0145801503015000000000
B1902083423549S05917489WA0145801504015000000000
B1902123423509S05917409WA0145201499015000000000
B1902163423478S05917330WA0144501495015000000000
B1902203423448S05917248WA0144501487015000000000
B1902243423419S05917169WA0144501480015000000000
B1902283423389S05917089WA0144501477015000000000
B1902323423358S05917009WA0142901473015000000000
B1902363423339S05916929WA0143701466015000000000
B1902403423308S05916849WA0143701461015000000000
B1902443423268S05916770WA0143701459015000000000
B1902483423249S05916699WA0142901454015000000000
B1902523423219S05916609WA0141401445015000000000
B1902563423188S05916529WA0141401440015000000000
B1903003423158S05916449WA0141401439015000000000
B1903043423138S05916369WA0141401431015000000000
B1903083423108S05916279WA0140501423015000000000
B1903123423089S05916189WA0139901421015000000000
B1903163423069S05916099WA0141401421015000000000
B1903203423048S05916019WA0143701427015000000000
B1903243423028S05915949WA0146801458015000000000
B1903283422989S05915919WA0148101479015000000000
B1903323422949S05915949WA0149801490015000015000
B1903363422928S05916009WA0150501494015000015000
B1903403423018S05916069WA0148901496015000000000
B1903443423079S05916019WA0150501497015000000000
B1903483423119S05915949WA0152001502015000000000
B1903523423119S05915879WA0155001535015000000000
B1903563423069S05915830WA0156501553015000000000
B1904003423028S05915839WA0158901563015000015000
B1904043423018S05915889WA0160601565015000015000
B1904083423048S05915949WA0162101567015000000000
B1904123423119S05915929WA0164301570015000000000
B1904163423138S05915859WA0166701603015000015000
B1904203423098S05915799WA0166701628015000000000
