ACAM000J2
HFDTE270112
HFFXA050
HFPLTPilot:  
HFGIDGliderType:  ASW 20  
HFGIDGliderID: DR 
HFDTM100Datum: 
HFRFWFIRMWAREVERSION: 6.0   
HFRHWHARDWAREVERSION: 39
HFSITSite: CAPA2009                        
HFTZOTimezone: 0
HFUNTUnits: km,m,m/s
I033638FXA3941ENL4247REX
LCAMNCONV-CAM Version 2.0.2    IGC File Creation
LCAMN000013427199S05927590W000450T       7 Y 41      
LCAMN000023351299S05932589W000330T       9 Y 41      
LCAMN000033358329S05931750W000270T       AE AMANECER 
LCAMN000043416880S05932240W000340T       AE ARECO FUM
LCAMN000053404640S06002750W000330T       AE ARRECIFES
LCAMN000063406959S05904789W000250T       AE ATE      
LCAMN000073347989S05929000W000000T       AE BARADERO 
LCAMN000083507999S06028000W000570T       AE BRAGADO  
LCAMN000093506739S05843559W000320T       AE CANUELAS 
LCAMN000103409939S05943850W000400T       AE CAP SARMI
LCAMN000113424970S05952220W000480T       AE CARMEN   
LCAMN000123413889S05912630W000310T       AE CHENAULT 
LCAMN000133457950S06001949W000450T       AE CHIVILCOY
LCAMN000143355999S06101989W000810T       AE COLON    
LCAMN000153436509S06024570W000680T       AE CUCHA CUC
LCAMN000163403380S06003640W000400T       AE DI PALMA 
LCAMN000173411029S05936149W000390T       AE DUGGAN CE
LCAMN000183409779S05935690W000380T       AE DUGGAN LE
LCAMN000193402240S06004740W000490T       AE FUMIGADOR
LCAMN000203421440S06009300W000630T       AE GAHAM    
LCAMN000213440690S05902200W000270T       AE GRAL RODR
LCAMN000223459000S06101989W000710T       AE GRAL VIAM
LCAMN000233409279S05952509W000450T       AE LA LUISA 
LCAMN000243424710S05926949W000400T       AE LAGUNA   
LCAMN000253438999S06100990W000770T       AE LAGUNA GO
LCAMN000263432340S05935090W000500T       AE LIPTON   
LCAMN000273512879S05907980W000280T       AE LOBOS    
LCAMN000283430499S05902989W000180T       AE LUJAN    
LCAMN000293438400S05927299W000320T       AE MERCEDES 
LCAMN000303501400S05917399W000310T       AE NAVARRO  
LCAMN000313425589S05928850W000490T       AE PEPONE   
LCAMN000323355139S06038850W000750T       AE PERGAMINO
LCAMN000333412900S06040449W000640T       AE ROJAS    
LCAMN000343418340S06017200W000420T       AE SALTO    
LCAMN000353413270S05926529W000330T       AE SAN ANTON
LCAMN000363340999S05944000W000260T       AE SAN PEDRO
LCAMN000373443389S05939459W000400T       AE SUIPACHA 
LCAMN000383339999S06158000W001110T       AE VENADO TU
LCAMN000393454660S05920919W000390T       AE WILLIAMS 
LCAMN000403355579S06023359W000760T       ANCHORENA ES
LCAMN000413355030S06056010W000830T       ARBOLITO EL 
LCAMN000423403769S06006280W000400T       ARRECIFES   
LCAMN000433421979S05922469W000360T       AZCUENAGA ES
LCAMN000443445120S06059720W000790T       BAIGORRITA E
LCAMN000453427690S05931059W000550T       BALANZA     
LCAMN000463322930S06111730W000900T       BIGAND EST  
LCAMN000473423329S05949150W000490T       CARMEN DE AR
LCAMN000483437750S06028239W000710T       CHACABUCO ES
LCAMN000493454589S06000019W000530T       CHIVILCOY ES
LCAMN000503403690S05933979W000350T       COLOMA SANTA
LCAMN000513521019S06044810W000660T       DENNEHY EST 
LCAMN000523412789S05939030W000510T       DUGGAN EST  
LCAMN000533431499S05935659W000510T       ESPORA      
LCAMN000543420109S06005590W000600T       GAHAM       
LCAMN000553442900S05933089W000350T       GARCIA MJ   
LCAMN000563428239S05925420W000500TAL     GILES CENTRO
LCAMN000573449699S05952689W000470T       GOROSTIAGA  
LCAMN000583429760S05948110W000540T       GOUIN       
LCAMN000593425939S05939440W000550T       HEAVY       
LCAMN000603428979S05922590W000460T       HOTEL LA LUN
LCAMN000613414689S06032079W000560T       HUNTER      
LCAMN000623415750S06022869W000520T       INVENCIBLE L
LCAMN000633458550S05931650W000430T       JACINTO SAN 
LCAMN000643408999S06100990W000810T       LA BEBA ESTA
LCAMN000653503119S06021969W000560T       LARREA EST  
LCAMN000663427420S06010809W000630T       LOS ANGELES 
LCAMN000673307500S06136500W000740T       LOS NOGALES 
LCAMN000683407630S05958360W000350T       LUISA LA    
LCAMN000693357240S06017719W000530T       MAGUIRE     
LCAMN000703355690S05944789W000210T       MONETA      
LCAMN000713459749S05916850W000330T       NAVARRO EST 
LCAMN000723436850S06014789W000600T       PATRICIO SAN
LCAMN000733431499S05918119W000390T       PEAJE ESPIL 
LCAMN000743349950S06030000W000790T       PENA DE LA  
LCAMN000753358789S05940200W000270T       PORTELA IRIN
LCAMN000763402020S06030080W000670T       RANCAGUA    
LCAMN000773436599S06004029W000630T       RAWSON      
LCAMN000783412000S06044000W000690T       ROJAS EST   
LCAMN000793524189S05920180W000320T       ROQUE PEREZ 
LCAMN000803417399S06015720W000420T       SALTO ESTACI
LCAMN000813352500S05952289W000500T       SANTA LUCIA 
LCAMN000823345990S05954999W000450T       SANTA LUCIA 
LCAMN000833427910S05959919W000500T       SARGENTOS TR
LCAMN000843410539S05947589W000480T       SARMIENTO CA
LCAMN000853417719S05919209W000390T       SOLIS       
LCAMN000863446380S05941430W000460T       SUIPACHA    
LCAMN000873422260S05957659W000460T       TATAY       
LCAMN000883431499S05941659W000530T       TUYUTI      
LCAMN000893417769S05927529W000320T       VAGUES      
LCAMN000903407220S05925740W000380T       VILLA LIA   
LCAMN000913359559S06013680W000520T       VINA        
LCAMN000923343979S06010499W000550T       VIOLETA LA  
LCAMN000933405820S05902279W000250T       ZARATE EST  
LCAMN000943707530S06024579W002000T       Santa Luisa 
LCAMN000953637599S05943580W001060T       Shaw        
LCAMN000963806159S06214189W002480T       Tornquist   
LCAMN000973823160S06016409W001060T       Tres Arroyos
LCAMN000983810679S06010100W001530T       Vazquez     
LCAMN000993724200S05930840W002170T       Vela        
C270112162039270112000103
C0000000N00000000E0000TAKEOFF    
C3428239S05925420W0056GILES CENTRO
C3351299S05932589W00029 Y 41      
C3442900S05933089W0055GARCIA MJ   
C3413889S05912630W0012AE CHENAULT 
C3428239S05925420W0056GILES CENTRO
C0000000N00000000E0000LANDING    
B1536433428178S05925459WV0003000000000000000192
B1536513428178S05925459WV0003600000000000000224
B1536593428178S05925459WV0003600000000000000224
B1537073428178S05925459WV0003600000000000000224
B1537113428449S05925269WA0003600070000000030000
B1537133428449S05925269WA0004400070000000030000
B1537173428449S05925269WA0004400067000000030000
B1537213428449S05925269WA0004400068000000030000
B1537253428449S05925269WA0004400068000000030000
B1537293428449S05925269WA0004400068000001030000
B1537373428449S05925269WA0004400069000000015000
B1537413428449S05925269WA0004400070000000015000
B1537453428449S05925259WA0004400070000000015000
B1537493428449S05925259WA0004400071000000015000
B1537533428449S05925259WA0004400072000000015000
B1537573428449S05925269WA0004400072000000015000
B1538013428449S05925269WA0003600072000000015000
B1538053428449S05925269WA0004400073000000015000
B1538093428449S05925269WA0004400073000000015000
B1538133428449S05925269WA0004400073000000015000
B1538173428449S05925269WA0004400073000000015000
B1624513428478S05925289WA0003000067000000015000
B1624593428478S05925289WA0003000067000000015000
B1625073428478S05925289WA0003000067000000015000
B1625153428478S05925289WA0003000067000000015000
B1625233428478S05925289WA0003000067000000015000
B1625313428478S05925289WA0003600067000000015000
B1625393428478S05925289WA0003000067000000015000
B1625473428478S05925289WA0003000067000000015000
B1625553428478S05925289WA0003000067000000015000
B1626033428478S05925289WA0003000067000000015000
B1626113428478S05925289WA0003600067000000015000
B1626193428478S05925289WA0003000067000000015000
B1626273428478S05925289WA0003000067000000015000
B1626353428478S05925289WA0003000068000000015000
B1626433428478S05925289WA0003600068000000015000
B1626513428468S05925289WA0003600068000000015000
B1626553428438S05925309WA0003000068000000015000
B1626593428409S05925329WA0003000068000000015000
B1627033428369S05925360WA0003000069000000015000
B1627073428319S05925399WA0003000069000000015000
B1627113428258S05925439WA0004400070000000015000
B1627153428189S05925479WA0005000079000000015000
B1627193428128S05925519WA0006300094000000015000
B1627233428069S05925559WA0007600108000000015000
B1627273427998S05925599WA0009700125000000015000
B1627313427939S05925639WA0011700141000000015000
B1627353427878S05925669WA0013800159000000015000
B1627393427818S05925699WA0015000177000000015000
B1627433427748S05925719WA0017100198000000015000
B1627473427679S05925729WA0019700218000000015000
B1627513427618S05925739WA0021800240000000015000
B1627553427549S05925739WA0023200261000000015000
B1627593427488S05925739WA0025000279000000015000
B1628033427438S05925739WA0026600299000000015000
B1628073427379S05925739WA0027900319000000015000
B1628113427318S05925739WA0028500334000000015000
B1628153427258S05925729WA0030000347000000015000
B1628193427209S05925710WA0030000351000000015000
B1628233427159S05925679WA0030600356000000015000
B1628273427108S05925629WA0031900361000000015000
B1628313427069S05925589WA0032600373000000015000
B1628353427029S05925529WA0034000390000000015000
B1628393427008S05925459WA0034700396000000015000
B1628433426978S05925389WA0034700401000000015000
B1628473426968S05925320WA0034700407000000015000
B1628513426968S05925239WA0036100411000000015000
B1628553426978S05925159WA0037500415000000015000
B1628593426999S05925079WA0036700426000000015000
B1629033427039S05924999WA0036700429000000015000
B1629073427079S05924919WA0037500430000000015000
B1629113427138S05924859WA0038700439000000015000
B1629153427199S05924808WA0038700450000000015000
B1629193427278S05924760WA0040300456000000015000
B1629233427358S05924720WA0040900469000000015000
B1629273427448S05924699WA0041600470000000015000
B1629313427538S05924680WA0041600471000000015000
B1629353427629S05924680WA0043600484000000015000
B1629393427719S05924680WA0046300510000000015000
B1629433427818S05924709WA0048600531000000015000
B1629473427899S05924760WA0049100542000000015000
B1629513427988S05924829WA0050500555000000015000
B1629553428059S05924919WA0052600572000000015000
B1629593428109S05925009WA0054600595000000015000
B1630033428138S05925110WA0056100615000000015000
B1630073428159S05925219WA0058900637000000015000
B1630113428159S05925320WA0059500647000000015000
B1630153428149S05925419WA0061000659000000015000
B1630193428128S05925519WA0063000681000000015000
B1630233428128S05925599WA0065700702000000015000
B1630273428168S05925669WA0067100725000000015000
B1630313428229S05925689WA0067900735000000015000
B1630353428279S05925649WA0067900736000000015000
B1630393428279S05925599WA0067900734000000015000
B1630433428248S05925580WA0068600739000000015000
B1630473428208S05925589WA0069400748000000015000
B1630513428178S05925649WA0070800755000000015000
B1630553428178S05925719WA0072100774000000015000
B1630593428218S05925769WA0072100784000000015000
B1631033428288S05925790WA0072900791000000015000
B1631073428338S05925769WA0072900795000000015000
B1631113428359S05925719WA0072900798000000015000
B1631153428338S05925679WA0074100803000000015000
B1631193428308S05925659WA0075700813000000015000
B1631233428268S05925669WA0076400824000000015000
B1631273428248S05925710WA0077900838000000015000
B1631313428258S05925779WA0078600849000000015000
B1631353428298S05925840WA0079300853000000015000
B1631393428369S05925859WA0080700862000000015000
B1631433428418S05925829WA0081400873000000015000
B1631473428428S05925779WA0082000881000000015000
B1631513428409S05925750WA0082000888000000015000
B1631553428369S05925750WA0082800899000000015000
B1631593428338S05925799WA0085000913000000015000
B1632033428348S05925869WA0085000920000000015000
B1632073428388S05925929WA0085700925000000015000
B1632113428459S05925939WA0086200930000000015000
B1632153428508S05925899WA0086200935000000015000
B1632193428508S05925840WA0087700940000000015000
B1632233428489S05925799WA0089100955000000015000
B1632273428449S05925799WA0090700970000000015000
B1632313428418S05925829WA0092100983000000015000
B1632353428399S05925889WA0092800998000000015000
B1632393428428S05925959WA0093401000000000015000
B1632433428478S05925999WA0093401005000000015000
B1632473428539S05925999WA0094201013000000015000
B1632513428589S05925968WA0094201016000000015000
B1632553428608S05925909WA0095701021000000015000
B1632593428598S05925859WA0097101032000000015000
B1633033428568S05925840WA0097801045000000015000
B1633073428518S05925859WA0098501055000000015000
B1633113428499S05925909WA0099801069000000015000
B1633153428508S05925979WA0099801079000000015000
B1633193428558S05926029WA0099801076000000015000
B1633233428629S05926039WA0100701080000000015000
B1633273428669S05925999WA0101501083000000015000
B1633313428688S05925949WA0102101093000000015000
B1633353428678S05925889WA0103601100000000015000
B1633393428638S05925869WA0105101114000000015000
B1633433428608S05925880WA0105901127000000015000
B1633473428579S05925939WA0106501139000000015000
B1633513428589S05925999WA0106501143000000015000
B1633553428638S05926050WA0107301142000000015000
B1633593428698S05926059WA0106501144000000015000
B1634033428749S05926019WA0107301146000000015000
B1634073428768S05925959WA0108001153000000015000
B1634113428768S05925909WA0109401163000000015000
B1634153428738S05925880WA0110201177000000015000
B1634193428698S05925889WA0111701189000000015000
B1634233428678S05925949WA0112401194000000015000
B1634273428688S05926019WA0113101204000000015000
B1634313428738S05926059WA0113801212000000015000
B1634353428799S05926059WA0114601214000000015000
B1634393428858S05926019WA0114601222000000015000
B1634433428879S05925968WA0116801234000000015000
B1634473428879S05925920WA0117601244000000015000
B1634513428839S05925909WA0118301257000000015000
B1634553428799S05925939WA0119001267000000015000
B1634593428799S05925999WA0119801273000000015000
B1635033428829S05926069WA0120401281000000015000
B1635073428889S05926099WA0121901293000000015000
B1635113428938S05926079WA0122801303000000015000
B1635153428969S05926029WA0123401312000000015000
B1635193428959S05925979WA0124101317000000015000
B1635233428929S05925959WA0125001325000000015000
B1635273428889S05925989WA0125701336000000015000
B1635313428868S05926039WA0126301342000000015000
B1635353428898S05926109WA0127101349000000015000
B1635393428959S05926149WA0127101355000000015000
B1635433429019S05926140WA0128501364000000015000
B1635473429059S05926090WA0128501369000000015000
B1635513429049S05926039WA0130301376000000015000
B1635553429019S05926019WA0130901386000000015000
B1635593428978S05926059WA0130901393000000015000
B1636033428969S05926119WA0131601391000000015000
B1636073428988S05926189WA0131601398000000015000
B1636113429038S05926239WA0133001405000000015000
B1636153429099S05926259WA0133001413000000015000
B1636193429158S05926239WA0133801421000000015000
B1636233429198S05926189WA0133801424000000015000
B1636273429189S05926140WA0133801431000000015000
B1636313429158S05926119WA0135301438000000015000
B1636353429118S05926140WA0135301443000000015000
B1636393429108S05926209WA0136101445000000015000
B1636433429089S05926279WA0136101446000000015000
B1636473429068S05926350WA0136101447000000015000
B1636513429038S05926419WA0136801452000000015000
B1636553429009S05926469WA0136801450000000015000
B1636593428969S05926499WA0136801449000000015000
B1637033428908S05926509WA0136101447000000015000
B1637073428858S05926499WA0135301446000000015000
B1637113428808S05926480WA0135301440000000015000
B1637153428759S05926449WA0133801431000000015000
B1637193428698S05926419WA0133001420000000015000
B1637233428638S05926389WA0132401409000000015000
B1637273428579S05926359WA0131601403000000015000
B1637313428518S05926339WA0130901396000000015000
B1637353428459S05926319WA0129401385000000015000
B1637393428399S05926299WA0128501373000000015000
B1637433428338S05926279WA0127901364000000015000
B1637473428279S05926270WA0126301357000000015000
B1637513428229S05926259WA0126301346000000015000
B1637553428168S05926239WA0125701337000000015000
B1637593428109S05926229WA0125701339000000015000
B1638033428059S05926220WA0126301346000000015000
B1638073428008S05926209WA0127101345000000015000
B1638113427958S05926180WA0127901346000000015000
B1638153427918S05926140WA0128501355000000015000
B1638193427889S05926090WA0129401371000000015000
B1638233427859S05926039WA0131601382000000015000
B1638273427828S05925999WA0132401399000000015000
B1638313427788S05925989WA0133801416000000015000
B1638353427769S05926039WA0135301432000000015000
B1638393427778S05926109WA0136801446000000015000
B1638433427828S05926169WA0137601452000000015000
B1638473427899S05926169WA0138301457000000015000
B1638513427948S05926140WA0139101469000000015000
B1638553427979S05926079WA0139901480000000015000
B1638593427968S05926019WA0141401488000000015000
B1639033427939S05925989WA0142101499000000015000
B1639073427899S05925959WA0143701514000000015000
B1639113427868S05925959WA0145201530000000015000
B1639153427838S05925999WA0145201540000000015000
B1639193427838S05926069WA0146801545000000015000
B1639233427899S05926129WA0147401554000000015000
B1639273427958S05926129WA0148901566000000015000
B1639313428019S05926090WA0150501581000000015000
B1639353428029S05926029WA0152001597000000015000
B1639393427998S05925989WA0152801609000000015000
B1639433427958S05925999WA0153601621000000015000
B1639473427948S05926059WA0154401630000000015000
B1639513427968S05926140WA0155801638000000015000
B1639553428029S05926180WA0156501648000000015000
B1639593428099S05926159WA0158201661000000015000
B1640033428128S05926109WA0158901678000000015000
B1640073428128S05926050WA0160601693000000015000
B1640113428099S05926029WA0161201704000000015000
B1640153428069S05926050WA0162101710000000015000
B1640193428038S05926109WA0163501722000000015000
B1640233428048S05926180WA0165201735000000015000
B1640273428109S05926229WA0165201739000000015000
B1640313428178S05926229WA0166701745000000015000
B1640353428229S05926189WA0168201764000000015000
B1640393428239S05926129WA0168201777000000015000
B1640433428218S05926090WA0169801788000000015000
B1640473428178S05926079WA0170601794000000015000
B1640513428138S05926099WA0171401803000000015000
B1640553428109S05926140WA0172101811000000015000
B1640593428088S05926199WA0173701820000000015000
B1641033428099S05926279WA0173701831000000015000
B1641073428149S05926339WA0174501840000000015000
B1641113428218S05926350WA0175301848000000015000
B1641153428268S05926319WA0176001853000000015000
B1641193428288S05926259WA0176001853000000015000
B1641233428268S05926209WA0176001850000000015000
B1641273428229S05926180WA0176801857000000015000
B1641313428189S05926169WA0178301869000000015000
B1641353428149S05926169WA0178301876000000015000
B1641393428109S05926189WA0179301880000000015000
B1641433428059S05926209WA0179301885000000015000
B1641473428019S05926229WA0180001889000000015000
B1641513427968S05926239WA0179301885000000015000
B1641553427929S05926259WA0179301885000000015000
B1641593427878S05926279WA0180001887000000015000
B1642033427838S05926310WA0179301890000000015000
B1642073427799S05926350WA0180001890000000015000
B1642113427759S05926399WA0180001891000000015000
B1642153427729S05926449WA0178301887000000015000
B1642193427708S05926520WA0178301882000000015000
B1642233427729S05926599WA0178301878000000015000
B1642273427778S05926659WA0177701873000000015000
B1642313427838S05926689WA0177701868000000015000
B1642353427908S05926669WA0176001858000000015000
B1642393427979S05926650WA0176001853000000015000
B1642433428038S05926610WA0176801856000000015000
B1642473428109S05926589WA0176001859000000015000
B1642513428189S05926579WA0176001859000000015000
B1642553428258S05926589WA0177701860000000015000
B1642593428338S05926610WA0177701867000000015000
B1643033428409S05926629WA0177701872000000015000
B1643073428478S05926659WA0179301878000000015000
B1643113428548S05926659WA0180001891000000015000
B1643153428598S05926629WA0180001897000000015000
B1643193428629S05926570WA0180001893000000015000
B1643233428619S05926520WA0180801895000000015000
B1643273428579S05926499WA0181501905000000015000
B1643313428548S05926529WA0181501909000000015000
B1643353428529S05926589WA0182401912000000015000
B1643393428539S05926659WA0183201924000000015000
B1643433428598S05926719WA0183801930000000015000
B1643473428669S05926709WA0183801928000000015000
B1643513428698S05926659WA0183201927000000015000
B1643553428698S05926599WA0183801929000000015000
B1643593428678S05926549WA0184701936000000015000
B1644033428629S05926539WA0184701938000000015000
B1644073428589S05926559WA0185501943000000015000
B1644113428558S05926619WA0185501944000000015000
B1644153428558S05926700WA0186201952000000015000
B1644193428598S05926769WA0187101964000000015000
B1644233428669S05926809WA0187101969000000015000
B1644273428738S05926809WA0188001968000000015000
B1644313428808S05926789WA0188001968000000015000
B1644353428848S05926729WA0188001968000000015000
B1644393428848S05926659WA0187101968000000015000
B1644433428818S05926619WA0187101969000000015000
B1644473428768S05926610WA0187101964000000015000
B1644513428709S05926610WA0188001968000000015000
B1644553428669S05926639WA0187101970000000015000
B1644593428638S05926700WA0186201962000000015000
B1645033428648S05926789WA0186201955000000015000
B1645073428678S05926870WA0186201950000000015000
B1645113428728S05926950WA0186201952000000015000
B1645153428778S05927019WA0186201957000000015000
B1645193428839S05927080WA0187101960000000015000
B1645233428898S05927139WA0187101960000000015000
B1645273428969S05927139WA0186201958000000015000
B1645313429038S05927109WA0186201955000000015000
B1645353429068S05927049WA0185501950000000015000
B1645393429078S05926989WA0185501950000000015000
B1645433429078S05926929WA0184701944000000015000
B1645473429078S05926859WA0184701942000000015000
B1645513429059S05926799WA0185501942000000015000
B1645553429028S05926749WA0184701944000000015000
B1645593428988S05926719WA0185501946000000015000
B1646033428938S05926700WA0184701947000000015000
B1646073428889S05926689WA0183801934000000015000
B1646113428829S05926669WA0182401926000000015000
B1646153428759S05926650WA0180801907000000015000
B1646193428688S05926629WA0180001892000000015000
B1646233428619S05926610WA0178301880000000015000
B1646273428539S05926579WA0176001860000000015000
B1646313428449S05926559WA0174501839000000015000
B1646353428369S05926529WA0173701827000000015000
B1646393428279S05926499WA0173001817000000015000
B1646433428189S05926480WA0173001816000000015000
B1646473428109S05926459WA0173001812000000015000
B1646513428019S05926429WA0172101806000000015000
B1646553427939S05926409WA0170601799000000015000
B1646593427849S05926389WA0169801788000000015000
B1647033427759S05926369WA0169801782000000015000
B1647073427679S05926350WA0169001778000000015000
B1647113427589S05926329WA0168201769000000015000
B1647153427499S05926310WA0168201761000000015000
B1647193427419S05926299WA0168201761000000015000
B1647233427339S05926289WA0169801769000000015000
B1647273427258S05926279WA0170601788000000015000
B1647313427188S05926270WA0170601792000000015000
B1647353427119S05926259WA0169801788000000015000
B1647393427039S05926249WA0168201773000000015000
B1647433426958S05926249WA0165201750000000015000
B1647473426869S05926259WA0163501729000000015000
B1647513426779S05926270WA0162801713000000015000
B1647553426689S05926279WA0160601697000000015000
B1647593426609S05926279WA0161201692000000015000
B1648033426519S05926270WA0160601692000000015000
B1648073426439S05926270WA0159601679000000015000
B1648113426349S05926279WA0160601678000000015000
B1648153426278S05926279WA0162801692000000015000
B1648193426209S05926270WA0165201723000000015000
B1648233426148S05926289WA0165201742000000015000
B1648273426078S05926319WA0163501725000000015000
B1648313425999S05926369WA0163501722000000015000
B1648353425928S05926419WA0165201730000000015000
B1648393425848S05926469WA0164301734000000015000
B1648433425779S05926499WA0163501728000000015000
B1648473425699S05926520WA0162101713000000015000
B1648513425609S05926520WA0161201694000000015000
B1648553425518S05926520WA0159601678000000015000
B1648593425428S05926520WA0158901667000000015000
B1649033425338S05926520WA0158901664000000015000
B1649073425248S05926520WA0158201659000000015000
B1649113425158S05926520WA0157401650000000015000
B1649153425068S05926520WA0156501641000000015000
B1649193424979S05926520WA0155001632000000015000
B1649233424889S05926520WA0154401624000000015000
B1649273424808S05926520WA0155001621000000015000
B1649313424719S05926529WA0154401620000000015000
B1649353424638S05926549WA0155001620000000015000
B1649393424568S05926549WA0155801635000000015000
B1649433424488S05926549WA0155801641000000015000
B1649473424419S05926549WA0155801639000000015000
B1649513424338S05926539WA0155801641000000015000
B1649553424268S05926539WA0156501640000000015000
B1649593424189S05926529WA0157401646000000015000
B1650033424109S05926520WA0157401651000000015000
B1650073424038S05926499WA0158201653000000015000
B1650113423968S05926480WA0158201658000000015000
B1650153423899S05926449WA0158201663000000015000
B1650193423819S05926409WA0156501653000000015000
B1650233423748S05926379WA0155801639000000015000
B1650273423668S05926339WA0155001633000000015000
B1650313423599S05926289WA0155001626000000015000
B1650353423519S05926249WA0153601621000000015000
B1650393423438S05926209WA0152001606000000015000
B1650433423368S05926159WA0151301593000000015000
B1650473423289S05926119WA0151301586000000015000
B1650513423219S05926069WA0151301585000000015000
B1650553423148S05926029WA0152001596000000015000
B1650593423089S05925979WA0153601607000000015000
B1651033423039S05925939WA0153601613000000015000
B1651073422978S05925889WA0153601614000000015000
B1651113422918S05925849WA0152001606000000015000
B1651153422848S05925829WA0150501593000000015000
B1651193422779S05925809WA0149801580000000015000
B1651233422699S05925809WA0148901571000000015000
B1651273422628S05925799WA0148901565000000015000
B1651313422548S05925790WA0148101564000000015000
B1651353422468S05925790WA0148101559000000015000
B1651393422389S05925779WA0148101553000000015000
B1651433422318S05925769WA0148901560000000015000
B1651473422248S05925759WA0149801570000000015000
B1651513422179S05925759WA0150501578000000015000
B1651553422108S05925739WA0150501579000000015000
B1651593422049S05925719WA0150501581000000015000
B1652033421978S05925710WA0152001590000000015000
B1652073421908S05925689WA0152801599000000015000
B1652113421848S05925689WA0151301602000000015000
B1652153421778S05925689WA0149801586000000015000
B1652193421699S05925699WA0147401563000000015000
B1652233421608S05925710WA0145801541000000015000
B1652273421518S05925710WA0145201529000000015000
B1652313421428S05925719WA0144501522000000015000
B1652353421338S05925729WA0144501517000000015000
B1652393421258S05925739WA0143701513000000015000
B1652433421168S05925750WA0142101503000000015000
B1652473421078S05925759WA0141401490000000015000
B1652513420988S05925769WA0140501480000000015000
B1652553420908S05925769WA0140501475000000015000
B1652593420818S05925779WA0140501475000000015000
B1653033420738S05925779WA0140501478000000015000
B1653073420658S05925790WA0141401482000000015000
B1653113420578S05925790WA0141401485000000015000
B1653153420499S05925809WA0141401488000000015000
B1653193420419S05925829WA0142901492000000015000
B1653233420339S05925849WA0143701506000000015000
B1653273420258S05925869WA0142901505000000015000
B1653313420178S05925889WA0142101500000000015000
B1653353420109S05925909WA0142901504000000015000
B1653393420029S05925920WA0142901502000000015000
B1653433419949S05925929WA0140501488000000015000
B1653473419868S05925939WA0139101472000000015000
B1653513419788S05925949WA0137601453000000015000
B1653553419708S05925968WA0136101438000000015000
B1653593419618S05925989WA0134601425000000015000
B1654033419538S05925999WA0134601418000000015000
B1654073419458S05926019WA0133801409000000015000
B1654113419379S05926029WA0133001400000000015000
B1654153419288S05926050WA0132401392000000015000
B1654193419209S05926069WA0130901383000000015000
B1654233419129S05926090WA0130301372000000015000
B1654273419039S05926109WA0129401363000000015000
B1654313418959S05926140WA0129401355000000015000
B1654353418869S05926169WA0127901348000000015000
B1654393418789S05926199WA0127901344000000015000
B1654433418708S05926229WA0127101338000000015000
B1654473418628S05926259WA0127101336000000015000
B1654513418548S05926299WA0125701330000000015000
B1654553418479S05926329WA0126301325000000015000
B1654593418408S05926369WA0127101334000000015000
B1655033418349S05926419WA0129401352000000015000
B1655073418288S05926459WA0131601372000000015000
B1655113418238S05926499WA0132401394000000015000
B1655153418189S05926529WA0132401399000000015000
B1655193418128S05926539WA0130901388000000015000
B1655233418068S05926539WA0130301377000000015000
B1655273417998S05926529WA0129401368000000015000
B1655313417929S05926509WA0127901357000000015000
B1655353417858S05926499WA0127101342000000015000
B1655393417778S05926480WA0125701331000000015000
B1655433417698S05926469WA0125001321000000015000
B1655473417619S05926459WA0125001315000001015000
B1655513417539S05926440WA0124101311000001015000
B1655553417459S05926419WA0122801304000002015000
B1655593417378S05926409WA0121901294000003015000
B1656033417308S05926399WA0121301284000004015000
B1656073417228S05926389WA0120401273000005015000
B1656113417149S05926369WA0119801266000005015000
B1656153417069S05926359WA0119001257000006015000
B1656193416989S05926339WA0118301252000008015000
B1656233416918S05926329WA0118301251000009015000
B1656273416838S05926310WA0116801240000009015000
B1656313416759S05926299WA0115401228000009015000
B1656353416679S05926279WA0115401219000009015000
B1656393416599S05926259WA0114601213000009015000
B1656433416518S05926239WA0113801204000009015000
B1656473416438S05926220WA0112401194000010015000
B1656513416358S05926199WA0111701181000011015000
B1656553416278S05926180WA0111001175000011015000
B1656593416199S05926159WA0110201170000010015000
B1657033416119S05926140WA0110201166000011015000
B1657073416039S05926129WA0109401159000011015000
B1657113415968S05926119WA0108801150000010015000
B1657153415888S05926099WA0108001145000010015000
B1657193415798S05926090WA0107301140000010015000
B1657233415718S05926069WA0106501127000010015000
B1657273415638S05926059WA0105901117000010015000
B1657313415559S05926050WA0105101110000010015000
B1657353415479S05926029WA0104301107000011015000
B1657393415399S05926019WA0103001095000011015000
B1657433415318S05926019WA0102101087000011015000
B1657473415238S05926010WA0100701076000011015000
B1657513415169S05925999WA0100701067000011015000
B1657553415089S05925989WA0099801064000011015000
B1657593415009S05925979WA0099801060000013015000
B1658033414938S05925979WA0099301054000012015000
B1658073414858S05925989WA0097801044000012015000
B1658113414778S05925989WA0097801037000012015000
B1658153414699S05925989WA0098501037000012015000
B1658193414628S05925989WA0098501043000011015000
B1658233414558S05925979WA0098501044000010015000
B1658273414489S05925968WA0097801039000009015000
B1658313414409S05925959WA0097101032000009015000
B1658353414338S05925939WA0096401025000009015000
B1658393414269S05925909WA0096401022000009015000
B1658433414208S05925880WA0095701018000010015000
B1658473414139S05925849WA0095701011000010015000
B1658513414078S05925819WA0094201003000011015000
B1658553414019S05925790WA0092800990000011015000
B1658593413948S05925759WA0092100977000011015000
B1659033413879S05925729WA0091300970000011015000
B1659073413809S05925699WA0092800978000011015000
B1659113413748S05925669WA0094200995000009015000
B1659153413688S05925639WA0094201002000011015000
B1659193413629S05925609WA0096401014000009015000
B1659233413589S05925589WA0099301037000008015000
B1659273413549S05925580WA0099301051000007015000
B1659313413509S05925620WA0098501053000005015000
B1659353413518S05925699WA0098501051000006015000
B1659393413568S05925779WA0098501047000006015000
B1659433413639S05925819WA0098501042000006015000
B1659473413709S05925859WA0099301043000006015000
B1659513413788S05925859WA0099801054000006015000
B1659553413839S05925829WA0100701060000005015000
B1659593413879S05925779WA0100701067000005015000
B1700033413898S05925729WA0101501073000004015000
B1700073413918S05925679WA0103001083000005015000
B1700113413918S05925629WA0103601092000005015000
B1700153413889S05925599WA0104301102000005015000
B1700193413839S05925620WA0105901111000005015000
B1700233413818S05925679WA0107301130000005015000
B1700273413849S05925759WA0108001142000007015000
B1700313413908S05925790WA0109401155000005015000
B1700353413969S05925779WA0110201166000005015000
B1700393414009S05925729WA0111001170000004015000
B1700433414028S05925669WA0112401178000005015000
B1700473414019S05925620WA0112401191000005015000
B1700513413988S05925599WA0113801200000004015000
B1700553413948S05925620WA0114601211000005015000
B1700593413948S05925689WA0116801222000004015000
B1701033413988S05925750WA0117601235000003015000
B1701073414059S05925769WA0119001244000001015000
B1701113414109S05925750WA0119801265000001015000
B1701153414128S05925689WA0121301276000001015000
B1701193414109S05925649WA0121901282000000015000
B1701233414059S05925659WA0122801291000000015000
B1701273414038S05925719WA0123401297000001015000
B1701313414059S05925790WA0124101313000001015000
B1701353414109S05925849WA0125701326000000015000
B1701393414179S05925849WA0127101339000000015000
B1701433414229S05925809WA0129401355000000015000
B1701473414239S05925750WA0130301366000000015000
B1701513414198S05925729WA0130301372000000015000
B1701553414158S05925759WA0131601379000000015000
B1701593414158S05925819WA0133001391000000015000
B1702033414198S05925889WA0133801408000000015000
B1702073414269S05925909WA0135301421000000015000
B1702113414319S05925869WA0136101433000000015000
B1702153414338S05925819WA0136801443000000015000
B1702193414319S05925779WA0136801449000000015000
B1702233414269S05925790WA0137601449000000015000
B1702273414239S05925840WA0139101460000000015000
B1702313414248S05925920WA0140501476000000015000
B1702353414288S05925989WA0142101492000000015000
B1702393414348S05926019WA0143701509000000015000
B1702433414409S05925989WA0144501519000000015000
B1702473414439S05925939WA0145201527000000015000
B1702513414428S05925889WA0145801533000000015000
B1702553414388S05925889WA0145801538000000015000
B1702593414348S05925939WA0147401543000000015000
B1703033414348S05926010WA0148901560000000015000
B1703073414369S05926069WA0149801573000001015000
B1703113414428S05926119WA0149801578000000015000
B1703153414498S05926109WA0151301587000000015000
B1703193414548S05926059WA0152001598000000015000
B1703233414548S05925999WA0152001600000000015000
B1703273414529S05925949WA0152001600000000015000
B1703313414478S05925939WA0152001602000001015000
B1703353414428S05925929WA0153601610000002015000
B1703393414369S05925929WA0152001608000005015000
B1703433414309S05925929WA0150501595000006015000
B1703473414239S05925920WA0148901578000007015000
B1703513414179S05925909WA0148101565000008015000
B1703553414099S05925899WA0147401558000008015000
B1703593414028S05925889WA0147401549000006015000
B1704033413958S05925869WA0147401547000006015000
B1704073413879S05925859WA0145801538000007015000
B1704113413799S05925840WA0144501524000007015000
B1704153413719S05925829WA0142901510000007015000
B1704193413639S05925819WA0142901505000009015000
B1704233413558S05925809WA0142901505000009015000
B1704273413478S05925799WA0144501511000011015000
B1704313413398S05925790WA0145201518000011015000
B1704353413318S05925779WA0146801529000013015000
B1704393413239S05925779WA0147401549000011015000
B1704433413168S05925769WA0147401543000010015000
B1704473413088S05925759WA0147401542000011015000
B1704513413018S05925759WA0147401547000010015000
B1704553412949S05925750WA0148901558000009015000
B1704593412878S05925739WA0150501566000009015000
B1705033412819S05925729WA0151301582000009015000
B1705073412758S05925719WA0150501583000008015000
B1705113412698S05925719WA0148901567000008015000
B1705153412628S05925710WA0148101556000009015000
B1705193412549S05925689WA0146801547000010015000
B1705233412479S05925679WA0145801536000010015000
B1705273412398S05925669WA0144501521000012015000
B1705313412318S05925649WA0142901509000012015000
B1705353412238S05925639WA0142901503000012015000
B1705393412158S05925629WA0142901505000012015000
B1705433412089S05925620WA0144501510000012015000
B1705473412008S05925609WA0143701511000012015000
B1705513411938S05925599WA0144501513000013015000
B1705553411858S05925589WA0145201520000013015000
B1705593411789S05925589WA0147401529000012015000
B1706033411718S05925580WA0148901557000013015000
B1706073411659S05925580WA0148101564000011015000
B1706113411588S05925569WA0147401553000009015000
B1706153411508S05925559WA0145201537000009015000
B1706193411439S05925549WA0143701518000011015000
B1706233411349S05925540WA0143701509000012015000
B1706273411269S05925529WA0143701507000013015000
B1706313411189S05925529WA0142101502000012015000
B1706353411108S05925519WA0141401492000012015000
B1706393411028S05925519WA0139901477000011015000
B1706433410948S05925519WA0140501477000011015000
B1706473410879S05925529WA0141401483000012015000
B1706513410799S05925529WA0142901493000011015000
B1706553410738S05925540WA0143701509000010015000
B1706593410669S05925549WA0144501520000010015000
B1707033410608S05925549WA0142901517000009015000
B1707073410539S05925549WA0142101500000008015000
B1707113410459S05925540WA0142101493000009015000
B1707153410388S05925540WA0140501490000010015000
B1707193410308S05925529WA0139901481000009015000
B1707233410229S05925529WA0139901475000009015000
B1707273410159S05925529WA0139101471000009015000
B1707313410088S05925529WA0139101465000009015000
B1707353410008S05925519WA0137601458000009015000
B1707393409929S05925509WA0137601450000009015000
B1707433409849S05925509WA0136801445000009015000
B1707473409778S05925509WA0136101439000009015000
B1707513409698S05925499WA0134601429000009015000
B1707553409608S05925490WA0133801417000009015000
B1707593409528S05925490WA0133001407000009015000
B1708033409448S05925479WA0132401398000009015000
B1708073409358S05925469WA0131601388000010015000
B1708113409278S05925459WA0130301378000009015000
B1708153409188S05925450WA0130301370000010015000
B1708193409108S05925439WA0129401365000010015000
B1708233409018S05925429WA0128501355000010015000
B1708273408939S05925429WA0127901351000012015000
B1708313408848S05925429WA0127101346000011015000
B1708353408769S05925419WA0126301339000011015000
B1708393408689S05925419WA0125701329000011015000
B1708433408599S05925410WA0125001317000011015000
B1708473408519S05925410WA0125001313000012015000
B1708513408439S05925410WA0124101313000011015000
B1708553408349S05925399WA0123401307000010015000
B1708593408268S05925389WA0121901293000009015000
B1709033408179S05925379WA0120401274000011015000
B1709073408089S05925369WA0119801260000010015000
B1709113408009S05925369WA0119801261000010015000
B1709153407919S05925360WA0121901266000010015000
B1709193407839S05925360WA0121901286000010015000
B1709233407768S05925349WA0121301286000009015000
B1709273407688S05925349WA0121301280000009015000
B1709313407619S05925339WA0121301281000008015000
B1709353407548S05925339WA0121901288000008015000
B1709393407479S05925329WA0121901286000008015000
B1709433407409S05925320WA0122801288000008015000
B1709473407338S05925309WA0123401290000009015000
B1709513407258S05925299WA0124101305000009015000
B1709553407198S05925280WA0125701320000008015000
B1709593407139S05925269WA0127901332000008015000
B1710033407078S05925259WA0129401353000008015000
B1710073407019S05925239WA0130301367000007015000
B1710113406969S05925219WA0130901375000006015000
B1710153406919S05925199WA0130301372000006015000
B1710193406858S05925179WA0130901372000008015000
B1710233406808S05925159WA0132401386000008015000
B1710273406768S05925139WA0133001403000007015000
B1710313406719S05925129WA0133801410000006015000
B1710353406679S05925119WA0133001406000006015000
B1710393406629S05925110WA0132401400000006015000
B1710433406579S05925110WA0131601393000006015000
B1710473406528S05925110WA0130901385000006015000
B1710513406468S05925119WA0130901381000007015000
B1710553406409S05925119WA0131601378000007015000
B1710593406358S05925129WA0131601391000007015000
B1711033406308S05925129WA0131601395000006015000
B1711073406249S05925139WA0132401392000006015000
B1711113406189S05925150WA0132401395000005015000
B1711153406128S05925150WA0132401397000006015000
B1711193406069S05925159WA0131601396000006015000
B1711233405998S05925169WA0132401391000006015000
B1711273405928S05925169WA0131601389000007015000
B1711313405859S05925179WA0130301377000007015000
B1711353405788S05925179WA0129401367000007015000
B1711393405719S05925179WA0127901356000008015000
B1711433405639S05925179WA0127101346000008015000
B1711473405568S05925169WA0126301336000008015000
B1711513405488S05925169WA0125001325000010015000
B1711553405419S05925169WA0125001316000010015000
B1711593405339S05925169WA0123401306000012015000
B1712033405259S05925169WA0122801300000010015000
B1712073405188S05925159WA0121301289000009015000
B1712113405108S05925159WA0120401276000008015000
B1712153405039S05925159WA0119001263000010015000
B1712193404959S05925159WA0118301252000010015000
B1712233404888S05925159WA0117601245000009015000
B1712273404819S05925169WA0116101238000010015000
B1712313404739S05925169WA0114601222000010015000
B1712353404659S05925169WA0113801207000010015000
B1712393404578S05925159WA0111701192000009015000
B1712433404498S05925159WA0111001180000009015000
B1712473404418S05925159WA0111001171000009015000
B1712513404338S05925159WA0111001168000009015000
B1712553404248S05925159WA0110201168000009015000
B1712593404168S05925159WA0109401162000010015000
B1713033404089S05925169WA0108801156000009015000
B1713073404009S05925159WA0108001146000009015000
B1713113403938S05925159WA0107301138000009015000
B1713153403858S05925150WA0106501128000009015000
B1713193403778S05925129WA0106501125000009015000
B1713233403709S05925119WA0108001136000009015000
B1713273403648S05925110WA0111001158000009015000
B1713313403598S05925119WA0112401184000009015000
B1713353403569S05925190WA0113801200000008015000
B1713393403598S05925259WA0114601210000006015000
B1713433403659S05925299WA0114601212000006015000
B1713473403728S05925280WA0115401215000006015000
B1713513403778S05925239WA0116801229000006015000
B1713553403789S05925179WA0118301242000005015000
B1713593403768S05925139WA0119801255000005015000
B1714033403728S05925150WA0120401263000004015000
B1714073403699S05925199WA0120401268000005015000
B1714113403709S05925280WA0120401273000005015000
B1714153403758S05925339WA0121301279000006015000
B1714193403829S05925369WA0122801288000005015000
B1714233403898S05925349WA0123401295000006015000
B1714273403948S05925309WA0125001308000008015000
B1714313403969S05925259WA0125001316000007015000
B1714353403948S05925209WA0125001316000006015000
B1714393403908S05925179WA0126301326000007015000
B1714433403869S05925159WA0127901342000006015000
B1714473403818S05925159WA0127901347000007015000
B1714513403768S05925169WA0127901350000007015000
B1714553403718S05925190WA0127101351000008015000
B1714593403669S05925199WA0127101345000007015000
B1715033403608S05925219WA0125701332000006015000
B1715073403539S05925229WA0124101316000007015000
B1715113403468S05925239WA0121901295000007015000
B1715153403388S05925249WA0119801273000008015000
B1715193403308S05925269WA0118301257000008015000
B1715233403239S05925280WA0117601243000008015000
B1715273403158S05925289WA0116801231000008015000
B1715313403078S05925299WA0115401220000008015000
B1715353402998S05925309WA0114601209000008015000
B1715393402918S05925320WA0113801204000009015000
B1715433402849S05925329WA0113801198000009015000
B1715473402769S05925339WA0113101193000009015000
B1715513402688S05925349WA0113101189000010015000
B1715553402608S05925360WA0112401187000009015000
B1715593402528S05925369WA0112401181000009015000
B1716033402448S05925379WA0111001174000009015000
B1716073402369S05925399WA0110201166000009015000
B1716113402289S05925410WA0110201161000009015000
B1716153402218S05925419WA0108801153000009015000
B1716193402138S05925429WA0108001145000010015000
B1716233402058S05925429WA0108001141000009015000
B1716273401979S05925439WA0107301138000009015000
B1716313401899S05925450WA0108001136000009015000
B1716353401828S05925450WA0108801137000009015000
B1716393401748S05925459WA0109401147000009015000
B1716433401689S05925469WA0111001163000009015000
B1716473401628S05925490WA0113801183000008015000
B1716513401578S05925519WA0116801216000008015000
B1716553401578S05925589WA0119801248000008015000
B1716593401628S05925639WA0121301269000006015000
B1717033401689S05925639WA0121901280000005015000
B1717073401718S05925589WA0122801291000005015000
B1717113401708S05925540WA0125001307000005015000
B1717153401668S05925509WA0126301328000005015000
B1717193401628S05925549WA0129401349000005015000
B1717233401628S05925620WA0130901374000005015000
B1717273401668S05925679WA0133001395000005015000
B1717313401738S05925689WA0134601413000005015000
B1717353401788S05925649WA0136101428000006015000
B1717393401798S05925589WA0137601441000006015000
B1717433401779S05925549WA0139901465000005015000
B1717473401738S05925549WA0142101483000004015000
B1717513401708S05925589WA0142901498000005015000
B1717553401729S05925669WA0144501509000004015000
B1717593401779S05925719WA0146801529000004015000
B1718033401848S05925719WA0148901554000005015000
B1718073401888S05925679WA0149801569000005015000
B1718113401878S05925620WA0151301582000006015000
B1718153401838S05925599WA0153601602000006015000
B1718193401809S05925639WA0155801628000005015000
B1718233401809S05925710WA0157401648000005015000
B1718273401859S05925759WA0159601661000004015000
B1718313401928S05925759WA0161201680000004015000
B1718353401968S05925710WA0162101695000004015000
B1718393401968S05925649WA0162801704000004015000
B1718433401928S05925620WA0165201723000005015000
B1718473401888S05925639WA0166701741000005015000
B1718513401878S05925699WA0168201756000004015000
B1718553401909S05925769WA0169001765000004015000
B1718593401968S05925799WA0170601784000005015000
B1719033402029S05925779WA0173001805000005015000
B1719073402058S05925719WA0173701817000005015000
B1719113402039S05925669WA0175301829000005015000
B1719153401998S05925649WA0176801843000004015000
B1719193401968S05925689WA0178301860000004015000
B1719233401968S05925750WA0179301870000004015000
B1719273402008S05925819WA0180801881000005015000
B1719313402069S05925840WA0181501895000006015000
B1719353402138S05925809WA0183201911000006015000
B1719393402168S05925750WA0183201919000006015000
B1719433402159S05925689WA0184701927000006015000
B1719473402119S05925649WA0184701933000005015000
B1719513402069S05925649WA0185501941000005015000
B1719553402018S05925669WA0186201946000005015000
B1719593401989S05925719WA0187101953000007015000
B1720033401968S05925779WA0186201954000007015000
B1720073401979S05925859WA0187101953000008015000
B1720113402018S05925920WA0188701962000008015000
B1720153402079S05925968WA0189501979000006015000
B1720193402148S05925959WA0191001994000006015000
B1720233402178S05925899WA0191802001000005015000
B1720273402168S05925840WA0192602011000005015000
B1720313402128S05925799WA0193502017000006015000
B1720353402079S05925799WA0192602016000006015000
B1720393402018S05925819WA0192602014000007015000
B1720433401968S05925840WA0188701996000007015000
B1720473401899S05925859WA0188001968000008015000
B1720513401828S05925889WA0186201953000008015000
B1720553401748S05925909WA0184701935000009015000
B1720593401668S05925939WA0184701925000009015000
B1721033401588S05925968WA0185501934000009015000
B1721073401509S05925999WA0184701937000009015000
B1721113401429S05926019WA0184701930000009015000
B1721153401349S05926039WA0183801926000009015000
B1721193401268S05926059WA0184701923000009015000
B1721233401198S05926079WA0184701926000009015000
B1721273401119S05926099WA0184701929000009015000
B1721313401039S05926129WA0184701926000011015000
B1721353400959S05926149WA0183801926000012015000
B1721393400879S05926180WA0182401917000012015000
B1721433400798S05926199WA0181501904000011015000
B1721473400718S05926220WA0180001891000010015000
B1721513400628S05926249WA0179301879000012015000
B1721553400538S05926279WA0178301869000012015000
B1721593400449S05926310WA0177701862000011015000
B1722033400359S05926339WA0177701854000010015000
B1722073400269S05926369WA0176801845000009015000
B1722113400179S05926399WA0176001838000009015000
B1722153400099S05926440WA0174501829000009015000
B1722193400009S05926469WA0174501826000009015000
B1722233359919S05926499WA0174501822000009015000
B1722273359839S05926529WA0173701818000010015000
B1722313359749S05926559WA0172101810000009015000
B1722353359669S05926589WA0171401795000009015000
B1722393359579S05926629WA0171401794000009015000
B1722433359499S05926659WA0173701805000010015000
B1722473359419S05926689WA0173001815000010015000
B1722513359339S05926709WA0173001809000009015000
B1722553359268S05926740WA0172101805000009015000
B1722593359189S05926769WA0172101802000011015000
B1723033359109S05926799WA0172101803000011015000
B1723073359029S05926829WA0171401798000011015000
B1723113358949S05926859WA0169801788000012015000
B1723153358869S05926889WA0169801774000013015000
B1723193358779S05926919WA0169001768000012015000
B1723233358699S05926950WA0167501759000013015000
B1723273358618S05926989WA0167501750000012015000
B1723313358538S05927029WA0166701744000011015000
B1723353358459S05927059WA0165201738000012015000
B1723393358389S05927099WA0165201729000012015000
B1723433358309S05927139WA0165201731000012015000
B1723473358238S05927179WA0165201728000012015000
B1723513358169S05927210WA0164301723000011015000
B1723553358099S05927250WA0163501714000011015000
B1723593358029S05927289WA0163501711000011015000
B1724033357959S05927329WA0163501714000011015000
B1724073357888S05927369WA0163501717000012015000
B1724113357819S05927409WA0164301719000011015000
B1724153357760S05927449WA0164301723000010015000
B1724193357689S05927470WA0163501718000009015000
B1724233357609S05927489WA0162101705000008015000
B1724273357529S05927499WA0162101695000009015000
B1724313357449S05927499WA0161201692000009015000
B1724353357369S05927499WA0162101696000010015000
B1724393357288S05927489WA0162101693000011015000
B1724433357208S05927489WA0160601689000011015000
B1724473357129S05927489WA0159601681000010015000
B1724513357059S05927489WA0160601676000010015000
B1724553356979S05927479WA0160601688000010015000
B1724593356909S05927479WA0162101692000009015000
B1725033356839S05927470WA0164301706000009015000
B1725073356769S05927459WA0165201730000009015000
B1725113356709S05927459WA0165201737000008015000
B1725153356639S05927470WA0164301732000009015000
B1725193356569S05927489WA0162801718000009015000
B1725233356489S05927529WA0162101705000009015000
B1725273356409S05927569WA0162801698000010015000
B1725313356339S05927609WA0162801704000009015000
B1725353356258S05927649WA0162801703000009015000
B1725393356189S05927689WA0162101702000009015000
B1725433356109S05927719WA0162101697000008015000
B1725473356029S05927749WA0161201692000008015000
B1725513355958S05927779WA0160601685000008015000
B1725553355879S05927810WA0158901673000009015000
B1725593355799S05927839WA0158201662000009015000
B1726033355719S05927869WA0158201659000011015000
B1726073355639S05927900WA0158901663000011015000
B1726113355568S05927929WA0158901667000010015000
B1726153355488S05927949WA0160601673000009015000
B1726193355429S05927980WA0162101686000008015000
B1726233355369S05928009WA0162801701000009015000
B1726273355329S05928079WA0163501707000007015000
B1726313355329S05928169WA0162801707000006015000
B1726353355379S05928249WA0162101701000006015000
B1726393355459S05928279WA0161201693000007015000
B1726433355539S05928279WA0160601686000007015000
B1726473355629S05928259WA0160601678000007015000
B1726513355719S05928240WA0160601679000008015000
B1726553355809S05928209WA0159601680000008015000
B1726593355899S05928179WA0159601676000008015000
B1727033355998S05928149WA0158901670000008015000
B1727073356088S05928119WA0158901664000008015000
B1727113356179S05928079WA0158901663000008015000
B1727153356279S05928049WA0157401655000008015000
B1727193356369S05928019WA0157401650000008015000
B1727233356459S05927980WA0157401646000008015000
B1727273356549S05927949WA0158201648000009015000
B1727313356639S05927909WA0157401654000009015000
B1727353356728S05927879WA0157401648000008015000
B1727393356818S05927839WA0157401645000008015000
B1727433356919S05927810WA0155801633000008015000
B1727473357009S05927779WA0155801624000009015000
B1727513357099S05927749WA0156501634000009015000
B1727553357189S05927719WA0156501643000009015000
B1727593357279S05927689WA0156501639000008015000
B1728033357369S05927659WA0156501637000008015000
B1728073357469S05927629WA0155801635000008015000
B1728113357559S05927600WA0155801634000008015000
B1728153357659S05927569WA0155801632000009015000
B1728193357749S05927539WA0155001629000010015000
B1728233357848S05927510WA0153601615000009015000
B1728273357949S05927489WA0152801608000009015000
B1728313358039S05927470WA0153601605000009015000
B1728353358139S05927449WA0153601611000008015000
B1728393358238S05927430WA0154401611000008015000
B1728433358339S05927419WA0154401615000008015000
B1728473358439S05927399WA0154401618000008015000
B1728513358538S05927389WA0155001624000008015000
B1728553358639S05927369WA0155801628000009015000
B1728593358739S05927359WA0155801632000009015000
B1729033358849S05927340WA0155801633000008015000
B1729073358949S05927319WA0155801633000008015000
B1729113359048S05927309WA0155801632000008015000
B1729153359149S05927300WA0155801633000008015000
B1729193359249S05927279WA0155801630000008015000
B1729233359350S05927269WA0155801634000008015000
B1729273359449S05927259WA0154401628000008015000
B1729313359549S05927250WA0154401618000008015000
B1729353359650S05927229WA0153601613000008015000
B1729393359749S05927219WA0152801605000008015000
B1729433359849S05927199WA0151301595000008015000
B1729473359949S05927189WA0151301588000008015000
B1729513400049S05927179WA0150501582000008015000
B1729553400149S05927170WA0149801573000008015000
B1729593400248S05927159WA0148901565000007015000
B1730033400349S05927159WA0147401554000008015000
B1730073400449S05927149WA0147401547000008015000
B1730113400548S05927149WA0146801539000008015000
B1730153400638S05927139WA0145201531000008015000
B1730193400749S05927139WA0144501518000008015000
B1730233400838S05927128WA0143701513000008015000
B1730273400938S05927119WA0142901507000008015000
B1730313401039S05927109WA0142901499000008015000
B1730353401138S05927099WA0141401491000008015000
B1730393401238S05927089WA0140501481000007015000
B1730433401328S05927069WA0139901471000007015000
B1730473401429S05927059WA0137601458000007015000
B1730513401528S05927049WA0136801441000007015000
B1730553401639S05927029WA0135301430000007015000
B1730593401718S05927029WA0134601418000007015000
B1731033401819S05927009WA0133001407000007015000
B1731073401909S05926979WA0132401395000007015000
B1731113401998S05926939WA0131601389000008015000
B1731153402079S05926899WA0132401385000008015000
B1731193402159S05926870WA0131601383000008015000
B1731233402239S05926829WA0131601383000007015000
B1731273402318S05926809WA0130901383000006015000
B1731313402409S05926809WA0131601380000006015000
B1731353402509S05926829WA0133001387000007015000
B1731393402589S05926849WA0134601403000006015000
B1731433402679S05926870WA0136101421000007015000
B1731473402769S05926899WA0137601431000006015000
B1731513402858S05926919WA0139101450000006015000
B1731553402939S05926929WA0141401469000006015000
B1731593402998S05926899WA0142901490000006015000
B1732033403019S05926849WA0142101503000006015000
B1732073402998S05926820WA0142101495000006015000
B1732113402948S05926829WA0142101491000006015000
B1732153402918S05926879WA0142101492000005015000
B1732193402889S05926950WA0144501502000005015000
B1732233402878S05927019WA0145201522000005015000
B1732273402898S05927099WA0147401538000005015000
B1732313402958S05927149WA0148101552000005015000
B1732353403028S05927139WA0149801566000004015000
B1732393403069S05927089WA0151301578000004015000
B1732433403059S05927040WA0152001588000004015000
B1732473403019S05927040WA0153601600000004015000
B1732513402988S05927080WA0153601611000004015000
B1732553402998S05927159WA0155801625000004015000
B1732593403048S05927219WA0156501637000004015000
B1733033403118S05927229WA0157401648000004015000
B1733073403168S05927199WA0158201655000004015000
B1733113403178S05927139WA0158201658000004015000
B1733153403158S05927099WA0159601668000004015000
B1733193403118S05927089WA0161201679000004015000
B1733233403078S05927119WA0162101691000005015000
B1733273403048S05927170WA0162101696000004015000
B1733313403028S05927229WA0162801703000004015000
B1733353403019S05927300WA0164301718000005015000
B1733393403028S05927380WA0165201727000005015000
B1733433403059S05927459WA0166701741000004015000
B1733473403099S05927529WA0165901743000004015000
B1733513403158S05927579WA0165201735000005015000
B1733553403239S05927600WA0162801721000006015000
B1733593403319S05927609WA0162801708000007015000
B1734033403409S05927619WA0163501709000006015000
B1734073403508S05927629WA0162101702000007015000
B1734113403608S05927640WA0161201694000006015000
B1734153403718S05927649WA0162101692000007015000
B1734193403829S05927659WA0162101694000007015000
B1734233403948S05927669WA0162801697000008015000
B1734273404049S05927680WA0166701723000009015000
B1734313404148S05927689WA0167501749000009015000
B1734353404238S05927709WA0165901753000008015000
B1734393404349S05927719WA0164301726000008015000
B1734433404448S05927730WA0163501714000008015000
B1734473404559S05927749WA0162801709000008015000
B1734513404659S05927759WA0162101698000008015000
B1734553404768S05927770WA0162101692000009015000
B1734593404878S05927779WA0161201688000009015000
B1735033404989S05927789WA0160601679000009015000
B1735073405098S05927799WA0159601672000008015000
B1735113405198S05927810WA0158901664000008015000
B1735153405308S05927819WA0157401653000008015000
B1735193405419S05927829WA0155001638000008015000
B1735233405519S05927839WA0156501632000008015000
B1735273405628S05927839WA0157401646000008015000
B1735313405719S05927849WA0158901659000007015000
B1735353405819S05927860WA0159601670000007015000
B1735393405908S05927860WA0159601675000007015000
B1735433406008S05927869WA0160601681000007015000
B1735473406109S05927879WA0160601683000007015000
B1735513406199S05927889WA0158901675000007015000
B1735553406298S05927900WA0157401659000007015000
B1735593406409S05927909WA0156501646000007015000
B1736033406518S05927919WA0155801634000007015000
B1736073406619S05927940WA0155001626000007015000
B1736113406728S05927949WA0154401621000008015000
B1736153406839S05927969WA0154401618000008015000
B1736193406948S05927980WA0153601615000009015000
B1736233407049S05927989WA0152001605000009015000
B1736273407158S05927999WA0152001593000009015000
B1736313407258S05928009WA0151301581000009015000
B1736353407359S05928019WA0150501576000009015000
B1736393407458S05928039WA0150501574000009015000
B1736433407558S05928059WA0150501575000008015000
B1736473407659S05928079WA0150501582000008015000
B1736513407758S05928099WA0151301582000008015000
B1736553407858S05928119WA0149801572000008015000
B1736593407968S05928149WA0147401554000008015000
B1737033408068S05928169WA0148101547000009015000
B1737073408169S05928200WA0149801558000009015000
B1737113408259S05928219WA0151301575000008015000
B1737153408349S05928249WA0150501584000008015000
B1737193408439S05928269WA0150501575000008015000
B1737233408528S05928288WA0148901565000008015000
B1737273408628S05928319WA0148101557000008015000
B1737313408718S05928339WA0147401552000008015000
B1737353408819S05928359WA0148101544000009015000
B1737393408918S05928370WA0149801562000009015000
B1737433408999S05928379WA0150501582000010015000
B1737473409088S05928389WA0150501580000008015000
B1737513409188S05928410WA0149801576000008015000
B1737553409278S05928419WA0148901565000008015000
B1737593409379S05928419WA0148901559000008015000
B1738033409478S05928419WA0148901561000009015000
B1738073409578S05928419WA0148901557000009015000
B1738113409679S05928410WA0148101554000008015000
B1738153409778S05928410WA0148101551000008015000
B1738193409878S05928410WA0148101551000008015000
B1738233409979S05928419WA0147401548000007015000
B1738273410078S05928439WA0147401547000007015000
B1738313410178S05928469WA0148101550000007015000
B1738353410279S05928509WA0148901559000008015000
B1738393410378S05928549WA0147401557000007015000
B1738433410478S05928590WA0146801547000008015000
B1738473410579S05928639WA0145201528000008015000
B1738513410678S05928689WA0145801523000008015000
B1738553410778S05928749WA0146801534000008015000
B1738593410868S05928809WA0146801539000009015000
B1739033410959S05928849WA0145801535000011015000
B1739073411059S05928890WA0144501521000009015000
B1739113411168S05928930WA0143701511000009015000
B1739153411269S05928959WA0142901505000010015000
B1739193411378S05928999WA0142901503000010015000
B1739233411479S05929029WA0142901500000009015000
B1739273411588S05929069WA0142101495000009015000
B1739313411689S05929100WA0141401489000009015000
B1739353411789S05929140WA0141401486000008015000
B1739393411888S05929169WA0139901474000008015000
B1739433411999S05929209WA0139101465000008015000
B1739473412098S05929239WA0137601450000009015000
B1739513412209S05929279WA0137601440000008015000
B1739553412308S05929309WA0136801436000008015000
B1739593412408S05929349WA0136101430000008015000
B1740033412498S05929379WA0134601419000009015000
B1740073412599S05929419WA0133001408000009015000
B1740113412698S05929459WA0132401399000008015000
B1740153412798S05929490WA0132401390000008015000
B1740193412888S05929539WA0131601386000008015000
B1740233412979S05929579WA0131601380000008015000
B1740273413069S05929629WA0131601381000008015000
B1740313413149S05929679WA0131601382000008015000
B1740353413239S05929729WA0133001395000008015000
B1740393413318S05929769WA0134601412000008015000
B1740433413398S05929819WA0136101429000007015000
B1740473413468S05929859WA0135301431000007015000
B1740513413558S05929909WA0133801415000007015000
B1740553413648S05929949WA0133001403000007015000
B1740593413738S05930000WA0131601392000007015000
B1741033413839S05930050WA0130901386000007015000
B1741073413929S05930099WA0130301376000007015000
B1741113414028S05930149WA0130301366000008015000
B1741153414109S05930189WA0130301376000008015000
B1741193414198S05930239WA0130301375000007015000
B1741233414288S05930289WA0128501362000007015000
B1741273414378S05930339WA0126301343000007015000
B1741313414478S05930390WA0125001325000007015000
B1741353414569S05930439WA0122801306000008015000
B1741393414669S05930489WA0122801295000008015000
B1741433414768S05930529WA0121901288000007015000
B1741473414869S05930579WA0120401279000008015000
B1741513414959S05930619WA0120401266000008015000
B1741553415058S05930669WA0119001255000008015000
B1741593415148S05930709WA0118301246000008015000
B1742033415248S05930759WA0117601240000008015000
B1742073415339S05930799WA0116101223000008015000
B1742113415429S05930839WA0115401211000008015000
B1742153415519S05930879WA0114601205000008015000
B1742193415609S05930919WA0113801199000009015000
B1742233415708S05930950WA0113101196000009015000
B1742273415798S05930969WA0112401183000008015000
B1742313415888S05930990WA0111701176000008015000
B1742353415989S05931009WA0112401183000008015000
B1742393416079S05931029WA0113101187000008015000
B1742433416169S05931049WA0113101190000008015000
B1742473416259S05931069WA0113801197000007015000
B1742513416348S05931080WA0113801199000007015000
B1742553416448S05931099WA0113801200000007015000
B1742593416538S05931109WA0113801201000007015000
B1743033416629S05931129WA0113101196000007015000
B1743073416719S05931139WA0112401189000008015000
B1743113416818S05931160WA0112401178000008015000
B1743153416908S05931179WA0113101191000008015000
B1743193416998S05931199WA0113101195000007015000
B1743233417088S05931219WA0111001181000007015000
B1743273417189S05931250WA0110201163000007015000
B1743313417289S05931269WA0108801151000008015000
B1743353417388S05931299WA0108001142000008015000
B1743393417489S05931319WA0108001137000008015000
B1743433417589S05931359WA0111001150000008015000
B1743473417669S05931389WA0113801182000009015000
B1743513417738S05931380WA0116101211000008015000
B1743553417768S05931329WA0118301234000007015000
B1743593417759S05931279WA0119001252000006015000
B1744033417709S05931279WA0119801259000005015000
B1744073417678S05931329WA0121301275000006015000
B1744113417678S05931409WA0121901286000006015000
B1744153417728S05931469WA0122801292000005015000
B1744193417789S05931499WA0124101305000005015000
B1744233417849S05931469WA0125001313000005015000
B1744273417879S05931409WA0125001315000005015000
B1744313417879S05931349WA0126301322000004015000
B1744353417839S05931309WA0128501340000004015000
B1744393417799S05931338WA0129401359000005015000
B1744433417789S05931409WA0130901374000004015000
B1744473417818S05931469WA0131601385000005015000
B1744513417889S05931479WA0132401388000004015000
B1744553417938S05931439WA0133801398000004015000
B1744593417948S05931380WA0135301413000005015000
B1745033417919S05931338WA0136801431000005015000
B1745073417879S05931349WA0137601445000004015000
B1745113417858S05931409WA0139101455000004015000
B1745153417879S05931479WA0139901467000004015000
B1745193417938S05931510WA0141401478000004015000
B1745233417998S05931489WA0141401484000004015000
B1745273418019S05931429WA0142901497000004015000
B1745313417998S05931380WA0144501510000005015000
B1745353417948S05931389WA0145201524000004015000
B1745393417929S05931449WA0145801537000004015000
B1745433417948S05931519WA0147401546000004015000
B1745473418009S05931559WA0148901557000004015000
B1745513418068S05931550WA0148901561000004015000
B1745553418108S05931489WA0150501570000005015000
B1745593418089S05931429WA0152001585000004015000
B1746033418049S05931420WA0152801597000004015000
B1746073418019S05931460WA0154401611000004015000
B1746113418019S05931529WA0155801625000004015000
B1746153418068S05931569WA0156501635000003015000
B1746193418128S05931569WA0157401643000004015000
B1746233418158S05931510WA0158201649000004015000
B1746273418149S05931449WA0158901656000005015000
B1746313418099S05931429WA0159601670000005015000
B1746353418068S05931469WA0161201682000005015000
B1746393418068S05931539WA0161201689000005015000
B1746433418128S05931599WA0161201688000005015000
B1746473418198S05931619WA0162101695000006015000
B1746513418269S05931640WA0162101698000006015000
B1746553418359S05931659WA0161201694000006015000
B1746593418449S05931680WA0161201686000007015000
B1747033418529S05931709WA0160601687000007015000
B1747073418628S05931739WA0159601677000008015000
B1747113418718S05931768WA0158201666000008015000
B1747153418829S05931810WA0157401653000008015000
B1747193418928S05931839WA0156501638000009015000
B1747233419039S05931879WA0156501635000009015000
B1747273419138S05931909WA0156501634000008015000
B1747313419249S05931940WA0156501634000008015000
B1747353419349S05931969WA0155801634000009015000
B1747393419448S05931999WA0155801633000009015000
B1747433419548S05932029WA0155801630000008015000
B1747473419649S05932059WA0154401620000008015000
B1747513419758S05932089WA0153601610000008015000
B1747553419859S05932119WA0153601603000008015000
B1747593419958S05932150WA0152001597000008015000
B1748033420069S05932189WA0152001591000009015000
B1748073420169S05932219WA0152001590000009015000
B1748113420268S05932249WA0151301585000009015000
B1748153420369S05932280WA0150501579000010015000
B1748193420469S05932309WA0150501573000010015000
B1748233420568S05932339WA0149801570000009015000
B1748273420669S05932370WA0150501572000009015000
B1748313420769S05932399WA0150501574000009015000
B1748353420868S05932429WA0149801573000008015000
B1748393420969S05932459WA0148101562000008015000
B1748433421069S05932498WA0147401548000008015000
B1748473421178S05932540WA0147401541000008015000
B1748513421279S05932569WA0147401541000008015000
B1748553421388S05932609WA0146801539000008015000
B1748593421489S05932639WA0145801532000008015000
B1749033421598S05932670WA0145201525000008015000
B1749073421709S05932710WA0145201516000008015000
B1749113421818S05932739WA0144501511000008015000
B1749153421929S05932769WA0142901505000009015000
B1749193422028S05932800WA0142901496000009015000
B1749233422139S05932829WA0142101495000009015000
B1749273422238S05932859WA0140501481000008015000
B1749313422338S05932889WA0141401472000009015000
B1749353422439S05932919WA0142901489000010015000
B1749393422529S05932949WA0144501506000009015000
B1749433422628S05932979WA0146801519000009015000
B1749473422708S05933019WA0148901548000008015000
B1749513422789S05933050WA0149801560000007015000
B1749553422869S05933089WA0150501570000006015000
B1749593422949S05933119WA0149801574000007015000
B1750033423039S05933149WA0148901568000007015000
B1750073423138S05933180WA0148101558000006015000
B1750113423238S05933219WA0148101551000006015000
B1750153423339S05933259WA0147401544000007015000
B1750193423438S05933289WA0146801536000008015000
B1750233423549S05933310WA0145801532000008015000
B1750273423648S05933339WA0145801535000008015000
B1750313423758S05933359WA0145801531000008015000
B1750353423859S05933379WA0144501520000008015000
B1750393423958S05933400WA0143701510000008015000
B1750433424058S05933419WA0143701505000007015000
B1750473424159S05933440WA0142101497000007015000
B1750513424258S05933469WA0142101490000007015000
B1750553424358S05933489WA0141401486000007015000
B1750593424449S05933519WA0141401480000006015000
B1751033424549S05933549WA0139901474000006015000
B1751073424648S05933589WA0139101468000006015000
B1751113424738S05933629WA0138301458000006015000
B1751153424849S05933669WA0138301450000007015000
B1751193424948S05933719WA0138301448000008015000
B1751233425038S05933759WA0138301450000008015000
B1751273425139S05933799WA0136801439000008015000
B1751313425229S05933839WA0136101431000007015000
B1751353425319S05933889WA0134601421000007015000
B1751393425409S05933929WA0134601414000007015000
B1751433425498S05933969WA0133801405000007015000
B1751473425598S05934009WA0133001398000007015000
B1751513425688S05934049WA0132401394000008015000
B1751553425779S05934089WA0132401392000007015000
B1751593425869S05934130WA0131601385000007015000
B1752033425948S05934170WA0130301377000008015000
B1752073426039S05934210WA0130901373000009015000
B1752113426129S05934239WA0131601374000008015000
B1752153426209S05934279WA0131601381000009015000
B1752193426299S05934319WA0131601382000009015000
B1752233426378S05934359WA0131601381000009015000
B1752273426469S05934399WA0131601381000009015000
B1752313426548S05934430WA0130901378000008015000
B1752353426628S05934470WA0130901374000009015000
B1752393426718S05934519WA0131601377000008015000
B1752433426798S05934560WA0132401380000008015000
B1752473426878S05934609WA0130901379000008015000
B1752513426958S05934659WA0130301370000008015000
B1752553427048S05934699WA0129401358000008015000
B1752593427138S05934749WA0129401355000008015000
B1753033427228S05934789WA0129401355000007015000
B1753073427318S05934829WA0128501351000007015000
B1753113427408S05934869WA0127901344000007015000
B1753153427499S05934909WA0127901340000006015000
B1753193427589S05934949WA0129401351000008015000
B1753233427679S05934999WA0129401360000008015000
B1753273427769S05935039WA0129401358000008015000
B1753313427859S05935079WA0129401361000008015000
B1753353427948S05935120WA0128501356000007015000
B1753393428038S05935160WA0127901351000007015000
B1753433428128S05935209WA0127901342000008015000
B1753473428229S05935259WA0125701330000007015000
B1753513428319S05935299WA0125001318000008015000
B1753553428409S05935349WA0124101309000008015000
B1753593428508S05935389WA0123401301000008015000
B1754033428598S05935429WA0122801293000008015000
B1754073428688S05935479WA0121901284000007015000
B1754113428789S05935519WA0121301278000007015000
B1754153428879S05935569WA0120401267000007015000
B1754193428969S05935609WA0119801256000007015000
B1754233429068S05935659WA0119001253000008015000
B1754273429158S05935699WA0119001251000007015000
B1754313429248S05935749WA0119001250000007015000
B1754353429338S05935789WA0119001246000007015000
B1754393429439S05935839WA0118301240000007015000
B1754433429529S05935879WA0116801232000007015000
B1754473429628S05935930WA0116101225000007015000
B1754513429718S05935969WA0116101216000007015000
B1754553429819S05936020WA0114601209000008015000
B1754593429909S05936069WA0114601203000007015000
B1755033429999S05936119WA0113801196000008015000
B1755073430089S05936169WA0113801199000008015000
B1755113430178S05936219WA0114601204000008015000
B1755153430268S05936269WA0115401203000008015000
B1755193430349S05936309WA0116801220000009015000
B1755233430429S05936360WA0119001244000008015000
B1755273430509S05936399WA0121301262000006015000
B1755313430578S05936450WA0122801279000006015000
B1755353430649S05936490WA0122801288000007015000
B1755393430729S05936539WA0121901282000006015000
B1755433430809S05936589WA0121301276000006015000
B1755473430878S05936639WA0121301272000006015000
B1755513430968S05936679WA0120401266000006015000
B1755553431058S05936729WA0119801256000007015000
B1755593431149S05936769WA0119801253000009015000
B1756033431239S05936809WA0119001254000009015000
B1756073431329S05936849WA0118301251000009015000
B1756113431419S05936889WA0119801245000009015000
B1756153431509S05936939WA0121301262000008015000
B1756193431589S05936979WA0122801280000007015000
B1756233431669S05937010WA0123401292000006015000
B1756273431748S05937050WA0123401295000006015000
B1756313431828S05937099WA0122801290000006015000
B1756353431918S05937138WA0122801286000006015000
B1756393432009S05937189WA0122801288000007015000
B1756433432088S05937229WA0123401295000006015000
B1756473432178S05937269WA0123401298000006015000
B1756513432269S05937319WA0121901283000006015000
B1756553432359S05937369WA0121301272000008015000
B1756593432449S05937409WA0121901278000009015000
B1757033432529S05937459WA0122801282000008015000
B1757073432608S05937499WA0123401285000008015000
B1757113432688S05937539WA0121901285000008015000
B1757153432778S05937579WA0119801268000009015000
B1757193432858S05937629WA0119001253000008015000
B1757233432938S05937669WA0119001247000006015000
B1757273433018S05937709WA0119801249000006015000
B1757313433099S05937740WA0121301264000006015000
B1757353433169S05937780WA0123401287000005015000
B1757393433238S05937809WA0125001304000006015000
B1757433433299S05937799WA0125701318000005015000
B1757473433328S05937749WA0125701323000005015000
B1757513433318S05937699WA0125701319000005015000
B1757553433278S05937690WA0127101321000005015000
B1757593433238S05937719WA0127901334000006015000
B1758033433219S05937789WA0128501341000006015000
B1758073433219S05937868WA0129401353000006015000
B1758113433229S05937959WA0130901364000008015000
B1758153433269S05938029WA0129401364000007015000
B1758193433338S05938080WA0129401357000008015000
B1758233433408S05938129WA0129401352000008015000
B1758273433488S05938159WA0130901358000008015000
B1758313433559S05938189WA0132401378000007015000
B1758353433638S05938219WA0132401384000007015000
B1758393433708S05938250WA0132401391000006015000
B1758433433798S05938279WA0131601389000005015000
B1758473433888S05938319WA0130901376000005015000
B1758513433978S05938359WA0129401363000006015000
B1758553434068S05938399WA0128501352000007015000
B1758593434169S05938449WA0128501349000007015000
B1759033434259S05938489WA0127901345000009015000
B1759073434358S05938539WA0127901338000009015000
B1759113434459S05938579WA0128501345000009015000
B1759153434549S05938629WA0130901360000009015000
B1759193434639S05938669WA0130901371000009015000
B1759233434719S05938719WA0130901369000009015000
B1759273434809S05938770WA0131601368000008015000
B1759313434899S05938819WA0131601383000008015000
B1759353434989S05938869WA0132401384000009015000
B1759393435078S05938909WA0133001392000010015000
B1759433435178S05938949WA0133801401000011015000
B1759473435268S05938980WA0134601410000010015000
B1759513435359S05939019WA0136101417000010015000
B1759553435449S05939049WA0136801424000009015000
B1759593435549S05939079WA0136801436000008015000
B1800033435638S05939110WA0137601439000007015000
B1800073435728S05939150WA0137601442000007015000
B1800113435828S05939189WA0137601438000007015000
B1800153435919S05939229WA0139901450000009015000
B1800193436009S05939259WA0142101475000008015000
B1800233436099S05939299WA0143701494000007015000
B1800273436179S05939330WA0145201516000006015000
B1800313436258S05939349WA0145201528000006015000
B1800353436338S05939379WA0145201523000006015000
B1800393436428S05939399WA0144501519000007015000
B1800433436519S05939439WA0144501515000008015000
B1800473436609S05939469WA0143701508000007015000
B1800513436708S05939509WA0143701508000007015000
B1800553436798S05939540WA0144501507000007015000
B1800593436898S05939580WA0145201513000007015000
B1801033436999S05939619WA0146801524000008015000
B1801073437098S05939659WA0147401537000009015000
B1801113437188S05939699WA0147401541000008015000
B1801153437288S05939739WA0148101545000009015000
B1801193437389S05939779WA0148101548000009015000
B1801233437479S05939829WA0147401550000010015000
B1801273437578S05939869WA0147401548000008015000
B1801313437679S05939909WA0147401541000008015000
B1801353437779S05939959WA0145801534000008015000
B1801393437878S05940010WA0145801529000008015000
B1801433437968S05940060WA0145201522000008015000
B1801473438058S05940109WA0145201518000009015000
B1801513438148S05940149WA0143701510000009015000
B1801553438249S05940179WA0142901496000011015000
B1801593438348S05940199WA0142101488000011015000
B1802033438448S05940219WA0141401484000012015000
B1802073438549S05940239WA0142901487000011015000
B1802113438639S05940249WA0144501507000009015000
B1802153438719S05940270WA0145801521000008015000
B1802193438809S05940289WA0145201521000006015000
B1802233438899S05940310WA0145801517000007015000
B1802273438988S05940319WA0145801530000007015000
B1802313439078S05940339WA0145801530000006015000
B1802353439168S05940360WA0145801530000007015000
B1802393439258S05940379WA0146801531000007015000
B1802433439359S05940400WA0145801533000006015000
B1802473439449S05940409WA0145801530000007015000
B1802513439548S05940429WA0145801533000007015000
B1802553439648S05940440WA0145201524000009015000
B1802593439749S05940459WA0144501516000008015000
B1803033439848S05940469WA0143701508000008015000
B1803073439948S05940479WA0142901503000008015000
B1803113440049S05940499WA0142901501000008015000
B1803153440139S05940509WA0142901498000008015000
B1803193440238S05940519WA0142101494000009015000
B1803233440328S05940519WA0142101491000008015000
B1803273440429S05940530WA0142101494000008015000
B1803313440519S05940530WA0142901495000008015000
B1803353440609S05940539WA0143701501000007015000
B1803393440699S05940539WA0144501509000006015000
B1803433440779S05940549WA0146801526000007015000
B1803473440829S05940509WA0148101544000006015000
B1803513440838S05940459WA0148901554000005015000
B1803553440808S05940429WA0148101560000005015000
B1803593440758S05940440WA0149801562000006015000
B1804033440729S05940499WA0150501572000006015000
B1804073440708S05940579WA0152001587000005015000
B1804113440739S05940649WA0152801596000005015000
B1804153440798S05940700WA0152001597000005015000
B1804193440878S05940740WA0151301588000005015000
B1804233440949S05940790WA0151301586000006015000
B1804273441028S05940839WA0150501586000007015000
B1804313441108S05940889WA0150501581000007015000
B1804353441198S05940939WA0148901570000007015000
B1804393441289S05940989WA0148101554000008015000
B1804433441379S05941040WA0147401548000008015000
B1804473441458S05941090WA0148101547000009015000
B1804513441549S05941139WA0148101553000009015000
B1804553441628S05941179WA0148901562000009015000
B1804593441708S05941229WA0149801567000008015000
B1805033441798S05941279WA0149801571000007015000
B1805073441878S05941329WA0148901566000007015000
B1805113441968S05941390WA0148901561000007015000
B1805153442048S05941439WA0148101558000007015000
B1805193442138S05941499WA0146801546000007015000
B1805233442228S05941549WA0145201527000007015000
B1805273442319S05941609WA0145801520000009015000
B1805313442419S05941659WA0145801525000009015000
B1805353442508S05941719WA0145201525000009015000
B1805393442598S05941769WA0144501519000008015000
B1805433442688S05941820WA0142901510000008015000
B1805473442788S05941869WA0142101497000008015000
B1805513442879S05941919WA0141401486000008015000
B1805553442979S05941969WA0139901477000008015000
B1805593443068S05942019WA0139901468000008015000
B1806033443158S05942059WA0138301460000008015000
B1806073443258S05942109WA0137601443000008015000
B1806113443348S05942149WA0137601448000008015000
B1806153443449S05942200WA0136801446000007015000
B1806193443539S05942239WA0136801441000007015000
B1806233443628S05942290WA0135301430000006015000
B1806273443718S05942339WA0135301422000006015000
B1806313443798S05942389WA0134601417000007015000
B1806353443888S05942439WA0133801413000007015000
B1806393443969S05942489WA0133801408000006015000
B1806433444058S05942539WA0133001401000006015000
B1806473444148S05942590WA0133001397000007015000
B1806513444228S05942630WA0133001398000007015000
B1806553444318S05942669WA0133801398000007015000
B1806593444398S05942699WA0132401399000006015000
B1807033444488S05942739WA0132401398000006015000
B1807073444559S05942789WA0132401396000006015000
B1807113444639S05942839WA0133801399000006015000
B1807153444708S05942890WA0133801410000006015000
B1807193444769S05942939WA0135301415000005015000
B1807233444838S05942999WA0136101424000005015000
B1807273444899S05943049WA0136801434000005015000
B1807313444958S05943110WA0137601439000006015000
B1807353445039S05943150WA0138301447000006015000
B1807393445108S05943139WA0138301455000006015000
B1807433445159S05943079WA0139901464000006015000
B1807473445169S05943020WA0141401477000005015000
B1807513445119S05942999WA0140501478000005015000
B1807553445079S05943039WA0141401478000006015000
B1807593445058S05943110WA0142901490000006015000
B1808033445079S05943190WA0143701505000006015000
B1808073445129S05943249WA0144501514000005015000
B1808113445209S05943259WA0145201518000004015000
B1808153445268S05943219WA0146801534000004015000
B1808193445289S05943159WA0147401549000004015000
B1808233445258S05943129WA0148101552000004015000
B1808273445209S05943119WA0147401553000005015000
B1808313445159S05943139WA0148101546000006015000
B1808353445108S05943169WA0148901556000008015000
B1808393445079S05943240WA0151301573000007015000
B1808433445088S05943320WA0152001583000006015000
B1808473445138S05943379WA0153601597000006015000
B1808513445209S05943399WA0155001615000005015000
B1808553445268S05943369WA0156501630000005015000
B1808593445289S05943299WA0157401638000004015000
B1809033445268S05943259WA0158201651000005015000
B1809073445228S05943259WA0158901658000004015000
B1809113445199S05943309WA0158901661000004015000
B1809153445188S05943389WA0159601668000006015000
B1809193445199S05943469WA0161201680000006015000
B1809233445249S05943529WA0162101694000007015000
B1809273445318S05943540WA0164301706000007015000
B1809313445369S05943499WA0164301721000006015000
B1809353445388S05943429WA0165201727000006015000
B1809393445358S05943389WA0165901736000005015000
B1809433445308S05943389WA0166701743000005015000
B1809473445289S05943450WA0167501749000005015000
B1809513445278S05943519WA0169001761000005015000
B1809553445318S05943589WA0169001771000006015000
B1809593445388S05943620WA0169801769000005015000
B1810033445448S05943599WA0170601785000007015000
B1810073445499S05943549WA0171401794000006015000
B1810113445488S05943479WA0172101801000005015000
B1810153445448S05943459WA0173001806000006015000
B1810193445408S05943499WA0174501820000008015000
B1810233445408S05943569WA0176001832000008015000
B1810273445469S05943629WA0176001844000007015000
B1810313445528S05943620WA0177701852000008015000
B1810353445578S05943569WA0178301864000007015000
B1810393445589S05943499WA0179301871000006015000
B1810433445558S05943450WA0179301877000007015000
B1810473445518S05943410WA0179301875000008015000
B1810513445469S05943369WA0178301874000008015000
B1810553445408S05943339WA0177701862000010015000
B1810593445339S05943309WA0176801852000009015000
B1811033445278S05943269WA0176001842000008015000
B1811073445209S05943229WA0176001838000009015000
B1811113445138S05943190WA0176001838000009015000
B1811153445069S05943150WA0176001833000010015000
B1811193444999S05943119WA0176001837000009015000
B1811233444928S05943079WA0176801842000010015000
B1811273444859S05943049WA0175301841000011015000
B1811313444779S05943009WA0174501831000010015000
B1811353444708S05942969WA0173001818000010015000
B1811393444628S05942929WA0173001806000009015000
B1811433444548S05942890WA0172101797000010015000
B1811473444469S05942850WA0171401793000010015000
B1811513444389S05942810WA0171401791000008015000
B1811553444318S05942760WA0169001783000009015000
B1811593444238S05942729WA0167501758000011015000
B1812033444158S05942689WA0166701743000012015000
B1812073444068S05942669WA0165201733000014015000
B1812113443978S05942639WA0165201725000014015000
B1812153443898S05942609WA0165901723000014015000
B1812193443808S05942590WA0165901732000013015000
B1812233443728S05942569WA0166701740000012015000
B1812273443659S05942539WA0167501745000011015000
B1812313443579S05942508WA0166701750000011015000
B1812353443498S05942479WA0167501752000011015000
B1812393443428S05942449WA0168201754000011015000
B1812433443348S05942409WA0169001754000012015000
B1812473443269S05942380WA0169001766000011015000
B1812513443198S05942349WA0168201765000011015000
B1812553443118S05942309WA0166701747000011015000
B1812593443038S05942259WA0165201731000012015000
B1813033442958S05942219WA0164301723000012015000
B1813073442879S05942169WA0163501713000013015000
B1813113442799S05942129WA0162101703000014015000
B1813153442719S05942089WA0162101696000013015000
B1813193442638S05942039WA0160601688000012015000
B1813233442568S05941990WA0159601679000012015000
B1813273442488S05941939WA0158901669000013015000
B1813313442409S05941900WA0158201656000014015000
B1813353442338S05941849WA0156501644000013015000
B1813393442258S05941799WA0155801635000013015000
B1813433442188S05941759WA0154401626000013015000
B1813473442119S05941709WA0155001618000014015000
B1813513442048S05941659WA0153601613000014015000
B1813553441979S05941619WA0154401611000013015000
B1813593441908S05941569WA0154401609000011015000
B1814033441838S05941529WA0154401610000010015000
B1814073441769S05941470WA0154401610000010015000
B1814113441698S05941419WA0155001620000011015000
B1814153441639S05941369WA0156501629000012015000
B1814193441568S05941319WA0156501636000011015000
B1814233441498S05941269WA0156501639000012015000
B1814273441438S05941220WA0158901647000013015000
B1814313441368S05941170WA0162101672000011015000
B1814353441318S05941130WA0163501699000011015000
B1814393441268S05941079WA0164301716000011015000
B1814433441219S05941049WA0165901732000011015000
B1814473441178S05941009WA0165901739000011015000
B1814513441119S05940979WA0164301726000011015000
B1814553441058S05940960WA0162101708000010015000
B1814593440989S05940929WA0160601688000011015000
B1815033440909S05940899WA0158201667000012015000
B1815073440838S05940849WA0156501643000011015000
B1815113440768S05940809WA0155801633000011015000
B1815153440708S05940759WA0155801631000011015000
B1815193440638S05940719WA0155001627000011015000
B1815233440578S05940669WA0155001627000010015000
B1815273440508S05940629WA0155001625000010015000
B1815313440448S05940589WA0155801628000011015000
B1815353440378S05940559WA0155001624000013015000
B1815393440309S05940530WA0154401618000013015000
B1815433440238S05940499WA0155001617000013015000
B1815473440168S05940479WA0155001626000013015000
B1815513440089S05940459WA0154401623000011015000
B1815553440018S05940440WA0154401618000011015000
B1815593439938S05940409WA0154401614000012015000
B1816033439868S05940379WA0155001616000012015000
B1816073439799S05940349WA0155001621000013015000
B1816113439728S05940329WA0154401621000012015000
B1816153439648S05940289WA0154401619000011015000
B1816193439588S05940259WA0153601614000011015000
B1816233439518S05940230WA0152001607000011015000
B1816273439438S05940188WA0152001596000011015000
B1816313439369S05940159WA0151301587000011015000
B1816353439288S05940119WA0149801575000011015000
B1816393439208S05940089WA0148901566000011015000
B1816433439138S05940049WA0148101558000013015000
B1816473439059S05940010WA0147401550000012015000
B1816513438979S05939979WA0146801540000013015000
B1816553438908S05939949WA0145801532000014015000
B1816593438828S05939909WA0144501521000013015000
B1817033438748S05939879WA0142901507000012015000
B1817073438669S05939849WA0142901496000012015000
B1817113438589S05939829WA0141401488000011015000
B1817153438509S05939800WA0140501475000012015000
B1817193438428S05939769WA0139101464000014015000
B1817233438348S05939739WA0138301453000014015000
B1817273438278S05939710WA0138301444000014015000
B1817313438199S05939689WA0137601442000013015000
B1817353438128S05939659WA0136801439000012015000
B1817393438048S05939639WA0134601426000012015000
B1817433437978S05939619WA0134601413000012015000
B1817473437899S05939599WA0133001406000012015000
B1817513437828S05939580WA0133001394000013015000
B1817553437758S05939569WA0131601384000013015000
B1817593437679S05939549WA0130901374000013015000
B1818033437609S05939540WA0130301365000014015000
B1818073437538S05939519WA0128501359000014015000
B1818113437458S05939509WA0128501356000014015000
B1818153437389S05939500WA0129401357000014015000
B1818193437318S05939489WA0128501355000013015000
B1818233437238S05939479WA0128501347000012015000
B1818273437169S05939469WA0128501349000013015000
B1818313437098S05939449WA0128501351000012015000
B1818353437028S05939439WA0130301358000012015000
B1818393436959S05939439WA0131601376000011015000
B1818433436888S05939429WA0132401391000010015000
B1818473436829S05939419WA0130901381000009015000
B1818513436749S05939410WA0130901367000010015000
B1818553436678S05939399WA0132401377000010015000
B1818593436619S05939389WA0133001393000011015000
B1819033436548S05939389WA0133001399000011015000
B1819073436489S05939379WA0133801405000011015000
B1819113436428S05939379WA0134601409000011015000
B1819153436378S05939370WA0136101424000010015000
B1819193436319S05939349WA0137601436000009015000
B1819233436279S05939339WA0136801443000008015000
B1819273436219S05939319WA0135301432000007015000
B1819313436168S05939289WA0133801417000007015000
B1819353436099S05939259WA0133001400000007015000
B1819393436038S05939219WA0131601390000008015000
B1819433435978S05939189WA0132401384000008015000
B1819473435919S05939150WA0132401390000009015000
B1819513435849S05939110WA0131601385000009015000
B1819553435789S05939079WA0132401384000009015000
B1819593435728S05939039WA0133801396000009015000
B1820033435669S05939009WA0134601412000009015000
B1820073435608S05938980WA0133001408000008015000
B1820113435549S05938940WA0132401394000009015000
B1820153435478S05938909WA0130901381000009015000
B1820193435409S05938869WA0130301368000009015000
B1820233435338S05938829WA0127901351000009015000
B1820273435268S05938799WA0126301331000008015000
B1820313435189S05938759WA0126301320000009015000
B1820353435119S05938719WA0126301321000010015000
B1820393435048S05938689WA0126301325000011015000
B1820433434979S05938649WA0125701322000010015000
B1820473434918S05938619WA0125701315000009015000
B1820513434849S05938579WA0125001313000009015000
B1820553434778S05938550WA0125001312000009015000
B1820593434719S05938510WA0124101308000010015000
B1821033434648S05938479WA0125001300000009015000
B1821073434589S05938439WA0125001309000010015000
B1821113434518S05938409WA0125701318000010015000
B1821153434459S05938380WA0126301326000009015000
B1821193434398S05938349WA0126301325000008015000
B1821233434329S05938319WA0128501334000008015000
B1821273434278S05938289WA0130901367000008015000
B1821313434228S05938319WA0132401384000008015000
B1821353434228S05938389WA0133001395000007015000
B1821393434278S05938459WA0133001397000006015000
B1821433434339S05938470WA0133001398000006015000
B1821473434398S05938429WA0133801402000006015000
B1821513434419S05938359WA0134601405000006015000
B1821553434429S05938298WA0136101421000005015000
B1821593434419S05938239WA0138301446000005015000
B1822033434379S05938239WA0139101457000006015000
B1822073434348S05938289WA0139101461000006015000
B1822113434379S05938359WA0139101464000006015000
B1822153434438S05938399WA0139101463000006015000
B1822193434509S05938380WA0141401468000006015000
B1822233434568S05938340WA0142901486000006015000
B1822273434599S05938279WA0144501505000005015000
B1822313434589S05938219WA0144501518000004015000
B1822353434549S05938210WA0144501516000005015000
B1822393434518S05938259WA0144501516000005015000
B1822433434518S05938329WA0145801517000006015000
B1822473434568S05938399WA0146801531000008015000
B1822513434629S05938429WA0148101544000006015000
B1822553434698S05938399WA0149801561000006015000
B1822593434719S05938340WA0151301575000005015000
B1823033434698S05938298WA0152001590000006015000
B1823073434658S05938319WA0151301587000006015000
B1823113434648S05938389WA0152001582000006015000
B1823153434679S05938470WA0153601597000007015000
B1823193434729S05938519WA0155001616000008015000
B1823233434798S05938529WA0156501630000006015000
B1823273434849S05938489WA0157401641000005015000
B1823313434859S05938429WA0158901650000007015000
B1823353434828S05938399WA0160601667000007015000
B1823393434788S05938429WA0160601678000007015000
B1823433434778S05938499WA0162101689000008015000
B1823473434828S05938569WA0163501701000008015000
B1823513434889S05938579WA0164301715000008015000
B1823553434939S05938529WA0164301720000007015000
B1823593434928S05938470WA0165901729000007015000
B1824033434899S05938439WA0166701743000007015000
B1824073434859S05938470WA0166701747000007015000
B1824113434849S05938550WA0168201755000006015000
B1824153434878S05938619WA0169801766000007015000
B1824193434939S05938649WA0170601778000008015000
B1824233434998S05938619WA0171401786000007015000
B1824273435029S05938559WA0172101795000006015000
B1824313434998S05938510WA0173701806000006015000
B1824353434958S05938510WA0174501817000006015000
B1824393434939S05938579WA0175301820000006015000
B1824433434958S05938649WA0176001829000006015000
B1824473435019S05938689WA0176801840000006015000
B1824513435078S05938680WA0177701848000006015000
B1824553435109S05938619WA0177701852000006015000
B1824593435098S05938559WA0178301861000006015000
B1825033435059S05938550WA0179301871000006015000
B1825073435019S05938589WA0180001875000007015000
B1825113435008S05938669WA0180001877000007015000
B1825153435029S05938749WA0180801882000006015000
B1825193435088S05938799WA0181501891000006015000
B1825233435159S05938799WA0182401896000007015000
B1825273435199S05938749WA0182401901000007015000
B1825313435199S05938680WA0182401904000006015000
B1825353435159S05938640WA0183201906000006015000
B1825393435109S05938600WA0182401901000008015000
B1825433435059S05938550WA0181501891000008015000
B1825473434998S05938499WA0180801883000008015000
B1825513434939S05938449WA0182401889000010015000
B1825553434878S05938409WA0183801906000010015000
B1825593434828S05938369WA0186201929000009015000
B1826033434778S05938340WA0186201944000008015000
B1826073434719S05938309WA0188001950000007015000
B1826113434679S05938269WA0189501966000006015000
B1826153434639S05938239WA0191801982000006015000
B1826193434589S05938219WA0192602001000006015000
B1826233434538S05938229WA0191002000000005015000
B1826273434478S05938219WA0188701978000006015000
B1826313434429S05938179WA0187101958000007015000
B1826353434379S05938120WA0185501941000007015000
B1826393434329S05938049WA0183801925000007015000
B1826433434278S05937969WA0182401907000008015000
B1826473434228S05937879WA0181501894000009015000
B1826513434178S05937799WA0180801885000011015000
B1826553434138S05937719WA0180801878000011015000
B1826593434088S05937629WA0179301871000011015000
B1827033434039S05937549WA0178301862000011015000
B1827073433989S05937459WA0178301857000011015000
B1827113433938S05937379WA0177701856000011015000
B1827153433899S05937299WA0176801849000011015000
B1827193433848S05937209WA0176801838000011015000
B1827233433798S05937129WA0176001834000012015000
B1827273433748S05937050WA0176001838000012015000
B1827313433699S05936969WA0175301833000012015000
B1827353433649S05936880WA0174501824000011015000
B1827393433599S05936799WA0173701816000012015000
B1827433433548S05936719WA0173701808000012015000
B1827473433498S05936639WA0174501814000012015000
B1827513433448S05936569WA0174501820000012015000
B1827553433399S05936499WA0174501817000012015000
B1827593433349S05936419WA0172101805000011015000
B1828033433288S05936349WA0170601790000010015000
B1828073433238S05936269WA0170601781000010015000
B1828113433188S05936190WA0170601775000010015000
B1828153433148S05936109WA0169001768000010015000
B1828193433099S05936039WA0168201758000009015000
B1828233433049S05935959WA0166701745000009015000
B1828273432999S05935879WA0165201727000008015000
B1828313432948S05935800WA0165201717000009015000
B1828353432888S05935720WA0163501711000011015000
B1828393432839S05935649WA0163501704000010015000
B1828433432778S05935569WA0162101692000009015000
B1828473432728S05935489WA0161201683000009015000
B1828513432678S05935409WA0161201677000009015000
B1828553432628S05935319WA0160601674000008015000
B1828593432579S05935239WA0159601666000009015000
B1829033432529S05935149WA0158901657000010015000
B1829073432468S05935070WA0158201649000009015000
B1829113432418S05934990WA0157401642000009015000
B1829153432369S05934900WA0156501636000009015000
B1829193432328S05934818WA0156501634000009015000
B1829233432279S05934730WA0155801628000009015000
B1829273432229S05934640WA0155801623000010015000
B1829313432189S05934560WA0155001621000010015000
B1829353432139S05934470WA0154401618000010015000
B1829393432099S05934390WA0153601612000009015000
B1829433432059S05934300WA0154401603000010015000
B1829473432019S05934219WA0154401601000011015000
B1829513431969S05934130WA0153601603000011015000
B1829553431929S05934049WA0153601595000012015000
B1829593431889S05933969WA0153601596000011015000
B1830033431849S05933889WA0155001607000011015000
B1830073431809S05933819WA0155801623000010015000
B1830113431778S05933740WA0155801626000010015000
B1830153431748S05933658WA0158901635000011015000
B1830193431719S05933589WA0160601661000011015000
B1830233431688S05933519WA0161201678000008015000
B1830273431669S05933449WA0159601674000008015000
B1830313431648S05933379WA0158201658000008015000
B1830353431618S05933289WA0158201648000008015000
B1830393431598S05933209WA0159601655000009015000
B1830433431589S05933129WA0161201675000009015000
B1830473431579S05933050WA0160601679000009015000
B1830513431558S05932959WA0159601667000009015000
B1830553431518S05932880WA0158901659000010015000
B1830593431478S05932800WA0159601659000011015000
B1831033431428S05932719WA0158901662000012015000
B1831073431388S05932649WA0158901659000012015000
B1831113431338S05932580WA0158901655000012015000
B1831153431279S05932498WA0158201650000011015000
B1831193431239S05932429WA0157401642000010015000
B1831233431188S05932349WA0157401636000012015000
B1831273431138S05932280WA0155801630000013015000
B1831313431079S05932209WA0155801625000014015000
B1831353431029S05932139WA0155001619000013015000
B1831393430979S05932059WA0155001614000011015000
B1831433430928S05931989WA0154401606000011015000
B1831473430878S05931909WA0153601605000011015000
B1831513430819S05931839WA0152801594000012015000
B1831553430769S05931759WA0152001585000011015000
B1831593430708S05931680WA0151301580000011015000
B1832033430658S05931609WA0150501572000011015000
B1832073430608S05931539WA0148901563000011015000
B1832113430549S05931469WA0148101551000011015000
