ACAMC0J2
HFDTE141013
HFFXA050
HFPLTPilot:STUART LITTLE
HFGYTGliderType:  ASW 20  
HFGIDGliderID: DR 
HFDTM100GPSDatum: WGS-84
HFRFWFIRMWAREVERSION: 6.0   
HFRHWHARDWAREVERSION: 39
HFCIDCompetitionID: DR 
HFSITSite: CAPA2009                        
HFTZNTimezone: 0
HFUNTUnits: km,m,m/s
I033638FXA3941ENL4247REX
LCAMM CAI Utilities 0.0.0
LCAMN000013427199S05927589W000045T       7 Y 41      
LCAMN000023351299S05932589W000033T       9 Y 41      
LCAMN000033358329S05931749W000027T       AE AMANECER 
LCAMN000043416878S05932240W000034T       AE ARECO FUM
LCAMN000053404638S06002749W000033T       AE ARRECIFES
LCAMN000063406958S05904790W000025T       AE ATE      
LCAMN000073347989S05928999W000000T       AE BARADERO 
LCAMN000083507999S06027998W000057T       AE BRAGADO  
LCAMN000093506739S05843558W000032T       AE CANUELAS 
LCAMN000103409939S05943849W000040T       AE CAP SARMI
LCAMN000113424969S05952218W000048T       AE CARMEN   
LCAMN000123413889S05912629W000031T       AE CHENAULT 
LCAMN000133457948S06001949W000045T       AE CHIVILCOY
LCAMN000143355998S06101990W000081T       AE COLON    
LCAMN000153436508S06024569W000068T       AE CUCHA CUC
LCAMN000163403378S06003638W000040T       AE DI PALMA 
LCAMN000173411028S05936150W000039T       AE DUGGAN CE
LCAMN000183409778S05935689W000038T       AE DUGGAN LE
LCAMN000193402239S06004739W000049T       AE FUMIGADOR
LCAMN000203421438S06009299W000063T       AE GAHAM    
LCAMN000213440689S05902200W000027T       AE GRAL RODR
LCAMN000223458999S06101990W000071T       AE GRAL VIAM
LCAMN000233409278S05952510W000045T       AE LA LUISA 
LCAMN000243424709S05926949W000040T       AE LAGUNA   
LCAMN000253438998S06100989W000077T       AE LAGUNA GO
LCAMN000263432338S05935089W000050T       AE LIPTON   
LCAMN000273512879S05907979W000028T       AE LOBOS    
LCAMN000283430498S05902989W000018T       AE LUJAN    
LCAMN000293438398S05927300W000032T       AE MERCEDES 
LCAMN000303501399S05917399W000031T       AE NAVARRO  
LCAMN000313425588S05928848W000049T       AE PEPONE   
LCAMN000323355139S06038849W000075T       AE PERGAMINO
LCAMN000333412899S06040448W000064T       AE ROJAS    
LCAMN000343418338S06017199W000042T       AE SALTO    
LCAMN000353413268S05926529W000033T       AE SAN ANTON
LCAMN000363340999S05943999W000026T       AE SAN PEDRO
LCAMN000373443388S05939458W000040T       AE SUIPACHA 
LCAMN000383339999S06158000W000111T       AE VENADO TU
LCAMN000393454659S05920919W000039T       AE WILLIAMS 
LCAMN000403355579S06023358W000076T       ANCHORENA ES
LCAMN000413355029S06056008W000083T       ARBOLITO EL 
LCAMN000423403768S06006279W000040T       ARRECIFES   
LCAMN000433421978S05922469W000036T       AZCUENAGA ES
LCAMN000443445119S06059719W000079T       BAIGORRITA E
LCAMN000453427688S05931059W000055T       BALANZA     
LCAMN000463322929S06111729W000090T       BIGAND EST  
LCAMN000473423329S05949149W000049T       CARMEN DE AR
LCAMN000483437748S06028239W000071T       CHACABUCO ES
LCAMN000493454588S06000019W000053T       CHIVILCOY ES
LCAMN000503403688S05933979W000035T       COLOMA SANTA
LCAMN000513521020S06044809W000066T       DENNEHY EST 
LCAMN000523412788S05939028W000051T       DUGGAN EST  
LCAMN000533431499S05935659W000051T       ESPORA      
LCAMN000543420109S06005589W000060T       GAHAM       
LCAMN000553442898S05933089W000035T       GARCIA MJ   
LCAMN000563428239S05925419W000050TAL     GILES CENTRO
LCAMN000573449698S05952690W000047T       GOROSTIAGA  
LCAMN000583429758S05948109W000054T       GOUIN       
LCAMN000593425938S05939439W000055T       HEAVY       
LCAMN000603428978S05922589W000046T       HOTEL LA LUN
LCAMN000613414688S06032078W000056T       HUNTER      
LCAMN000623415748S06022869W000052T       INVENCIBLE L
LCAMN000633458548S05931649W000043T       JACINTO SAN 
LCAMN000643408999S06100989W000081T       LA BEBA ESTA
LCAMN000653503119S06021969W000056T       LARREA EST  
LCAMN000663427419S06010808W000063T       LOS ANGELES 
LCAMN000673307498S06136499W000074T       LOS NOGALES 
LCAMN000683407628S05958360W000035T       LUISA LA    
LCAMN000693357239S06017719W000053T       MAGUIRE     
LCAMN000703355689S05944788W000021T       MONETA      
LCAMN000713459748S05916849W000033T       NAVARRO EST 
LCAMN000723436848S06014789W000060T       PATRICIO SAN
LCAMN000733431499S05918119W000039T       PEAJE ESPIL 
LCAMN000743349948S06029999W000079T       PENA DE LA  
LCAMN000753358789S05940199W000027T       PORTELA IRIN
LCAMN000763402018S06030079W000067T       RANCAGUA    
LCAMN000773436598S06004028W000063T       RAWSON      
LCAMN000783411999S06043999W000069T       ROJAS EST   
LCAMN000793524189S05920179W000032T       ROQUE PEREZ 
LCAMN000803417398S06015719W000042T       SALTO ESTACI
LCAMN000813352499S05952289W000050T       SANTA LUCIA 
LCAMN000823345988S05954999W000045T       SANTA LUCIA 
LCAMN000833427908S05959919W000050T       SARGENTOS TR
LCAMN000843410539S05947589W000048T       SARMIENTO CA
LCAMN000853417719S05919209W000039T       SOLIS       
LCAMN000863446378S05941430W000046T       SUIPACHA    
LCAMN000873422259S05957659W000046T       TATAY       
LCAMN000883431499S05941659W000053T       TUYUTI      
LCAMN000893417768S05927529W000032T       VAGUES      
LCAMN000903407218S05925739W000038T       VILLA LIA   
LCAMN000913359559S06013679W000052T       VINA        
LCAMN000923343978S06010499W000055T       VIOLETA LA  
LCAMN000933405819S05902279W000025T       ZARATE EST  
C141013162342141013000102
C3427998S05925580W0000TakeOff     
C3428239S05925420W0056GILES CENTRO
C3449700S05952689W0057GOROSTIAGA  
C3413889S05912629W0012AE CHENAULT 
C3428239S05925420W0056GILES CENTRO
C3428048S05925519W0000Landing     
B1637583427998S05925580WA0003600073015000000000
B1638063427998S05925580WA0003000074015000000000
B1638143427998S05925580WA0003000074015000000000
B1638223427998S05925580WA0003000073015000000000
B1638303427998S05925580WA0003000073015000000000
B1638383427998S05925580WA0003000073015000000000
B1638463427998S05925580WA0003000073015000000000
B1638543427998S05925580WA0003000073015000000000
B1639023427998S05925580WA0003000073015000000000
B1639103427998S05925580WA0003000073015000000000
B1639183427998S05925580WA0003000073015000000000
B1639263427998S05925580WA0003000073015000000000
B1639343427998S05925580WA0002200073015000000000
B1639423427998S05925580WA0003000073015000000000
B1639503427998S05925580WA0003000073015000000000
B1639583427998S05925580WA0003000073015000000000
B1640043428029S05925559WA0003000073015000000000
B1640083428059S05925540WA0002200073015000000000
B1640123428109S05925509WA0003000073015000000000
B1640163428159S05925479WA0003000075015000000000
B1640203428218S05925450WA0003000076015000000000
B1640243428288S05925410WA0003000077015000000000
B1640283428359S05925369WA0004400085015000000000
B1640323428439S05925320WA0005500094015000000000
B1640363428508S05925280WA0007000108015000000000
B1640403428579S05925239WA0008400123015000000000
B1640443428658S05925190WA0009700134015000000000
B1640483428728S05925159WA0011700153015000000000
B1640523428799S05925129WA0013000169015000000000
B1640563428879S05925110WA0015000184015000000000
B1641003428948S05925079WA0016300199015000000000
B1641043429019S05925060WA0019100223015000000000
B1641083429089S05925049WA0020300243015000000000
B1641123429158S05925049WA0022500260015000000000
B1641163429229S05925049WA0023800278015000000000
B1641203429288S05925049WA0026600296015000000000
B1641243429349S05925060WA0027900321015000000000
B1641283429418S05925068WA0028500338015000000000
B1641323429479S05925079WA0031300353015000000000
B1641363429538S05925079WA0032600370015000000000
B1641403429598S05925060WA0034000388015000000000
B1641443429649S05924999WA0036100403015000000000
B1641483429678S05924930WA0036100411015000000000
B1641523429699S05924839WA0036700418015000000000
B1641563429699S05924749WA0037500427015000000000
B1642003429668S05924659WA0038100436015000000000
B1642043429628S05924590WA0038700439015000000000
B1642083429578S05924519WA0038700444015000000000
B1642123429508S05924479WA0039600448015000000000
B1642163429439S05924449WA0039600452015000000000
B1642203429359S05924439WA0040900455015000000000
B1642243429288S05924439WA0041600467015000000000
B1642283429219S05924469WA0042800483015000000000
B1642323429158S05924509WA0045100499015000000000
B1642363429118S05924579WA0047800516015000000000
B1642403429089S05924649WA0047800539015000000000
B1642443429078S05924729WA0050500553015000000000
B1642483429089S05924808WA0053300575015000000000
B1642523429128S05924869WA0055400604015000000000
B1642563429189S05924909WA0057500627015000000000
B1643003429248S05924919WA0060200648015000000000
B1643043429309S05924879WA0061000665015000000000
B1643083429328S05924800WA0061600671015000000000
B1643123429319S05924720WA0061600675015000000000
B1643163429269S05924670WA0062300684015000000000
B1643203429208S05924659WA0063000686015000000000
B1643243429148S05924680WA0063700694015000000000
B1643283429118S05924720WA0064300704015000000000
B1643323429128S05924769WA0065700715015000000000
B1643363429158S05924800WA0066600726015000000000
B1643403429208S05924779WA0067100734015000000000
B1643443429238S05924709WA0067900741015000000000
B1643483429229S05924639WA0068600749015000000000
B1643523429179S05924590WA0068600752015000000000
B1643563429118S05924590WA0070000758015000000000
B1644003429068S05924609WA0070800769015000000000
B1644043429038S05924670WA0072100776015000000000
B1644083429028S05924720WA0074100799015000000000
B1644123429059S05924749WA0075700817015000000000
B1644163429108S05924729WA0075700821015000000000
B1644203429139S05924659WA0077100833015000000000
B1644243429118S05924590WA0077900844015000000000
B1644283429068S05924550WA0079900853015000000000
B1644323429009S05924550WA0081400870015000000000
B1644363428969S05924579WA0082000885015000000000
B1644403428948S05924629WA0083400900015000000000
B1644443428978S05924670WA0084100907015000000000
B1644483429028S05924649WA0085700914015000000000
B1644523429059S05924599WA0087000933015000000000
B1644563429059S05924519WA0087700945015000000000
B1645003429009S05924460WA0089100953015000000000
B1645043428948S05924439WA0090000969015000000000
B1645083428898S05924469WA0092100983015000000000
B1645123428889S05924519WA0092800996015000000000
B1645163428908S05924559WA0093401001015000000000
B1645203428959S05924559WA0094901016015000000000
B1645243428998S05924509WA0096401033015000000000
B1645283428998S05924439WA0097801046015000000000
B1645323428969S05924359WA0099301057015000000000
B1645363428908S05924339WA0100701075015000000000
B1645403428858S05924359WA0101501090015000000000
B1645443428839S05924409WA0102101098015000000000
B1645483428868S05924460WA0104301106015000000000
B1645523428919S05924460WA0105901126015000000000
B1645563428959S05924409WA0106501138015000000000
B1646003428969S05924330WA0108001145015000000000
B1646043428938S05924259WA0109401162015000000000
B1646083428879S05924229WA0111001175015000000000
B1646123428829S05924250WA0111701186015000000000
B1646163428799S05924299WA0112401198015000000000
B1646203428818S05924339WA0113801208015000000000
B1646243428868S05924349WA0115401218015000000000
B1646283428908S05924309WA0116101232015000000000
B1646323428929S05924229WA0118301243015000000000
B1646363428908S05924160WA0119801259015000000000
B1646403428868S05924109WA0119801269015000000000
B1646443428808S05924109WA0119801276015000000000
B1646483428768S05924149WA0121301286015000000000
B1646523428768S05924200WA0122801298015000000000
B1646563428808S05924219WA0122801307015000000000
B1647003428858S05924200WA0124101318015000000000
B1647043428889S05924149WA0125701328015000000000
B1647083428898S05924069WA0126301338015000000000
B1647123428858S05924009WA0127101351015000000000
B1647163428799S05923979WA0127901357015000000000
B1647203428749S05924009WA0128501360015000000000
B1647243428728S05924059WA0130301372015000000000
B1647283428738S05924109WA0130901386015000000000
B1647323428789S05924120WA0131601400015000000000
B1647363428829S05924089WA0133001407015000000000
B1647403428858S05924009WA0133001414015000000000
B1647443428839S05923939WA0134601424015000000000
B1647483428789S05923889WA0135301437015000000000
B1647523428728S05923900WA0136101442015000000000
B1647563428699S05923950WA0137601451015000000000
B1648003428699S05923999WA0139101464015000000000
B1648043428738S05924019WA0139901480015000000000
B1648083428789S05923999WA0141401493015000000000
B1648123428818S05923929WA0141401500015000000000
B1648163428818S05923849WA0142901504015000000000
B1648203428778S05923778WA0143701520015000000000
B1648243428728S05923749WA0144501528015000000000
B1648283428669S05923759WA0145801539015000000000
B1648323428638S05923799WA0146801547015000000000
B1648363428658S05923849WA0147401553015000000000
B1648403428699S05923889WA0146801556015000000000
B1648443428749S05923929WA0146801557015000000000
B1648483428808S05923979WA0146801554015000000000
B1648523428879S05924039WA0147401553015000000000
B1648563428948S05924109WA0146801554015000000000
B1649003429028S05924179WA0145801543015000000000
B1649043429099S05924250WA0146801547015000000000
B1649083429179S05924319WA0145801544015000000000
B1649123429248S05924389WA0145201536015000000000
B1649163429328S05924460WA0145201534015000000000
B1649203429399S05924529WA0145801537015000000000
B1649243429479S05924599WA0145201536015000000000
B1649283429548S05924659WA0144501527015000000000
B1649323429628S05924729WA0143701518015000000000
B1649363429699S05924789WA0142901508015000000000
B1649403429779S05924859WA0142901506015000000000
B1649443429848S05924919WA0141401499015000000000
B1649483429928S05924989WA0141401490015000000000
B1649523430008S05925049WA0139901486015000000000
B1649563430079S05925119WA0139901477015000000000
B1650003430158S05925179WA0139101473015000000000
B1650043430228S05925249WA0138301469015000000000
B1650083430308S05925320WA0139101468015000000000
B1650123430389S05925379WA0138301467015000000000
B1650163430469S05925450WA0138301466015000000000
B1650203430549S05925509WA0137601462015000000000
B1650243430628S05925580WA0138301459015000000000
B1650283430708S05925639WA0138301458015000000000
B1650323430779S05925710WA0138301462015000000000
B1650363430859S05925769WA0139101465015000000000
B1650403430939S05925830WA0139101469015000000000
B1650443431018S05925899WA0139901474015000000000
B1650483431088S05925960WA0140501483015000000000
B1650523431159S05926019WA0142101496015000000000
B1650563431218S05926090WA0142901506015000000000
B1651003431278S05926169WA0142901512015000000000
B1651043431329S05926249WA0142101511015000000000
B1651083431379S05926329WA0141401504015000000000
B1651123431419S05926409WA0140501494015000000000
B1651163431459S05926509WA0139901481015000000000
B1651203431509S05926599WA0138301471015000000000
B1651243431549S05926689WA0138301464015000000000
B1651283431589S05926780WA0139901468015000000000
B1651323431629S05926859WA0141401480015000000000
B1651363431679S05926929WA0141401489015000000000
B1651403431719S05927009WA0140501489015000000000
B1651443431768S05927089WA0139901480015000000000
B1651483431818S05927170WA0139901482015000000000
B1651523431879S05927239WA0140501483015000000000
B1651563431929S05927309WA0139901483015000000000
B1652003431988S05927369WA0139901483015000000000
B1652043432059S05927439WA0139901475015000000000
B1652083432118S05927509WA0139101474015000000000
B1652123432178S05927569WA0139101472015000000000
B1652163432239S05927640WA0139101470015000000000
B1652203432308S05927699WA0139101471015000000000
B1652243432369S05927759WA0139101473015000000000
B1652283432428S05927810WA0138301467015000000000
B1652323432498S05927839WA0137601459015000000000
B1652363432579S05927869WA0136801450015000000000
B1652403432659S05927900WA0135301440015000000000
B1652443432749S05927929WA0134601428015000000000
B1652483432829S05927959WA0134601421015000000000
B1652523432919S05927989WA0133801417015000000000
B1652563432999S05928019WA0133001414015000000000
B1653003433078S05928049WA0132401409015000000000
B1653043433169S05928079WA0130901397015000000000
B1653083433248S05928110WA0130301386015000000000
B1653123433338S05928149WA0129401380015000000000
B1653163433418S05928189WA0130301373015000000000
B1653203433498S05928240WA0129401369015000000000
B1653243433569S05928288WA0128501362015000000000
B1653283433638S05928349WA0127901359015000000000
B1653323433708S05928419WA0127901353015000000000
B1653363433768S05928489WA0127101350015000000000
B1653403433829S05928559WA0126301345015000000000
B1653443433888S05928630WA0125701341015000000000
B1653483433949S05928699WA0125701330015000000000
B1653523434008S05928760WA0124101323015000000000
B1653563434079S05928819WA0123401315015000000000
B1654003434148S05928869WA0123401308015000000000
B1654043434228S05928909WA0121901296015000000000
B1654083434308S05928949WA0121901291015000000000
B1654123434389S05928979WA0121901288015000000000
B1654163434478S05929009WA0121901288015000000000
B1654203434559S05929039WA0123401298015000000000
B1654243434628S05929069WA0124101314015000000000
B1654283434679S05929119WA0124101317015000000000
B1654323434729S05929169WA0122801314015000000000
B1654363434769S05929239WA0121301294015000000000
B1654403434809S05929309WA0120401280015000000000
B1654443434859S05929389WA0119001268015000000000
B1654483434908S05929469WA0117601254015000000000
B1654523434948S05929549WA0116801242015000000000
B1654563434998S05929639WA0116101235015000000000
B1655003435038S05929719WA0115401230015000000000
B1655043435088S05929809WA0115401221015000000000
B1655083435128S05929899WA0113801211015000000000
B1655123435178S05929979WA0112401199015000000000
B1655163435229S05930069WA0111701190015000000000
B1655203435279S05930159WA0111001181015000000000
B1655243435329S05930249WA0109401174015000000000
B1655283435378S05930339WA0109401167015000000000
B1655323435419S05930430WA0108801162015000000000
B1655363435468S05930509WA0108001153015000000000
B1655403435518S05930599WA0108001149015000000000
B1655443435558S05930679WA0108801150015000000000
B1655483435608S05930759WA0108001148015000000000
B1655523435648S05930849WA0107301144015000000000
B1655563435698S05930929WA0109401152015000000000
B1656003435728S05930990WA0110201181015000000000
B1656043435768S05931069WA0108801169015000000000
B1656083435808S05931149WA0106501146015000000000
B1656123435839S05931239WA0105101131015000000000
B1656163435879S05931330WA0104301120015000000000
B1656203435919S05931419WA0103601109015000000000
B1656243435948S05931510WA0102101100015000000000
B1656283435978S05931609WA0101501092015000000000
B1656323436009S05931699WA0102101091015000000000
B1656363436028S05931799WA0101501085015000000000
B1656403436059S05931899WA0101501083015000000000
B1656443436078S05931989WA0101501080015000000000
B1656483436099S05932079WA0102101087015000000000
B1656523436108S05932159WA0102101089015000000000
B1656563436128S05932240WA0104301098015000000000
B1657003436139S05932309WA0104301114015000000000
B1657043436149S05932379WA0105901127015000000000
B1657083436168S05932439WA0107301138015000000000
B1657123436198S05932490WA0108801154015000000000
B1657163436229S05932529WA0110201167015000000000
B1657203436279S05932559WA0111001179015000000000
B1657243436319S05932599WA0110201185015000000000
B1657283436378S05932639WA0110201175015000000000
B1657323436439S05932679WA0108801169015000000000
B1657363436498S05932729WA0107301154015000000000
B1657403436569S05932779WA0107301146015000000000
B1657443436638S05932829WA0108001143015000000000
B1657483436708S05932880WA0108801157015000000000
B1657523436768S05932929WA0108801159015000000000
B1657563436838S05932979WA0108001152015000000000
B1658003436909S05933029WA0105901138015000000000
B1658043436978S05933100WA0104301118015000000000
B1658083437049S05933169WA0104301109015000000000
B1658123437108S05933239WA0105901118015000000000
B1658163437169S05933319WA0106501128015000000000
B1658203437228S05933400WA0105901128015000000000
B1658243437278S05933479WA0105901124015000000000
B1658283437349S05933559WA0105901121015000000000
B1658323437398S05933639WA0104301117015000000000
B1658363437458S05933719WA0105101113015000000000
B1658403437519S05933799WA0105901115015000000000
B1658443437568S05933879WA0106501126015000000000
B1658483437609S05933950WA0108801148015000000000
B1658523437649S05934009WA0111001166015000000000
B1658563437689S05934059WA0111001181015000000000
B1659003437718S05934119WA0111701182015000000000
B1659043437748S05934170WA0112401193015000000000
B1659083437788S05934210WA0112401198015000000000
B1659123437849S05934239WA0111701192015000000000
B1659163437909S05934249WA0111701191015000000000
B1659203437979S05934260WA0110201180015000000000
B1659243438058S05934269WA0109401169015000000000
B1659283438138S05934289WA0107301153015000000000
B1659323438218S05934300WA0105101136015000000000
B1659363438308S05934309WA0105101122015000000000
B1659403438398S05934319WA0104301114015000000000
B1659443438488S05934319WA0104301114015000000000
B1659483438589S05934319WA0103601106015000000000
B1659523438679S05934319WA0103601102015000000000
B1659563438759S05934319WA0103001099015000000000
B1700003438849S05934319WA0103001100015000000000
B1700043438929S05934329WA0103601104015000000000
B1700083439009S05934329WA0104301110015000000000
B1700123439078S05934348WA0104301115015000000000
B1700163439139S05934390WA0104301112015000000000
B1700203439199S05934449WA0104301106015000000000
B1700243439248S05934519WA0104301107015000000000
B1700283439288S05934600WA0103001106015000000000
B1700323439329S05934690WA0102101096015000000000
B1700363439369S05934779WA0101501088015000000000
B1700403439399S05934879WA0102101079015000000000
B1700443439428S05934980WA0103001094015000000000
B1700483439449S05935069WA0104301108015000000000
B1700523439458S05935160WA0105101117015000000000
B1700563439478S05935240WA0105901121015000000000
B1701003439499S05935330WA0105901130015000000000
B1701043439518S05935420WA0105901132015000000000
B1701083439548S05935500WA0105901131015000000000
B1701123439579S05935590WA0105901139015000000000
B1701163439608S05935670WA0105901130015000000000
B1701203439638S05935749WA0106501134015000000000
B1701243439678S05935829WA0105901148015000000000
B1701283439709S05935909WA0104301129015000000000
B1701323439749S05935999WA0104301115015000000000
B1701363439789S05936089WA0105101120015000000000
B1701403439829S05936169WA0106501131015000000000
B1701443439868S05936259WA0106501141015000000000
B1701483439919S05936339WA0107301145015000000000
B1701523439959S05936429WA0107301141015000000000
B1701563439998S05936509WA0108801146015000000000
B1702003440049S05936599WA0108801156015000000000
B1702043440089S05936689WA0108801154015000000000
B1702083440128S05936769WA0108001149015000000000
B1702123440168S05936859WA0107301142015000000000
B1702163440208S05936960WA0105901136015000000000
B1702203440248S05937050WA0105901131015000000000
B1702243440278S05937149WA0105101125015000000000
B1702283440318S05937239WA0104301117015000000000
B1702323440368S05937329WA0105101115015000000000
B1702363440408S05937419WA0104301115015000000000
B1702403440448S05937499WA0104301116015000000000
B1702443440479S05937579WA0104301114015000000000
B1702483440519S05937669WA0104301110015000000000
B1702523440559S05937740WA0106501122015000000000
B1702563440599S05937809WA0109401147015000000000
B1703003440628S05937868WA0112401181015000000000
B1703043440659S05937919WA0112401198015000000000
B1703083440699S05937959WA0110201190015000000000
B1703123440758S05938019WA0110201173015000000000
B1703163440819S05938069WA0108801165015000000000
B1703203440888S05938139WA0108001156015000000000
B1703243440959S05938189WA0107301146015000000000
B1703283441018S05938250WA0105901136015000000000
B1703323441089S05938309WA0105901125015000000000
B1703363441158S05938380WA0103601115015000000000
B1703403441219S05938449WA0103601103015000000000
B1703443441278S05938529WA0101501092015000000000
B1703483441328S05938609WA0102101086015000000000
B1703523441379S05938689WA0102101087015000000000
B1703563441429S05938779WA0103001090015000000000
B1704003441469S05938859WA0103601098015000000000
B1704043441509S05938929WA0105101106015000000000
B1704083441538S05939009WA0105101117015000000000
B1704123441578S05939079WA0105901123015000000000
B1704163441608S05939139WA0105901125015000000000
B1704203441649S05939200WA0107301135015000000000
B1704243441679S05939259WA0108001147015000000000
B1704283441718S05939299WA0108001152015000000000
B1704323441769S05939349WA0106501145015000000000
B1704363441819S05939410WA0104301124015000000000
B1704403441878S05939469WA0103601108015000000000
B1704443441939S05939540WA0102101096015000000000
B1704483441998S05939609WA0101501083015000000000
B1704523442058S05939679WA0100701074015000000000
B1704563442119S05939760WA0099301065015000000000
B1705003442168S05939829WA0098501053015000000000
B1705043442228S05939909WA0097101041015000000000
B1705083442289S05939989WA0096401029015000000000
B1705123442348S05940069WA0096401026015000000000
B1705163442409S05940149WA0095701022015000000000
B1705203442468S05940239WA0094201009015000000000
B1705243442518S05940318WA0094201005015000000000
B1705283442568S05940409WA0094901009015000000000
B1705323442629S05940490WA0094201010015000000000
B1705363442679S05940569WA0093401003015000000000
B1705403442748S05940639WA0092800992015000000000
B1705443442818S05940709WA0094900997015000000000
B1705483442879S05940769WA0098501029015000000000
B1705523442938S05940819WA0101501068015000000000
B1705563442979S05940859WA0103601100015000000000
B1706003443019S05940899WA0103001110015000000000
B1706043443068S05940939WA0099801080015000000000
B1706083443128S05941000WA0097101048015000000000
B1706123443198S05941059WA0095701025015000000000
B1706163443269S05941130WA0094201007015000000000
B1706203443338S05941199WA0092800991015000000000
B1706243443409S05941260WA0090700975015000000000
B1706283443479S05941329WA0089100960015000000000
B1706323443548S05941390WA0087700946015000000000
B1706363443628S05941449WA0087000935015000000000
B1706403443709S05941499WA0087000931015000000000
B1706443443789S05941560WA0086200926015000000000
B1706483443879S05941609WA0086200922015000000000
B1706523443959S05941659WA0087000925015000000000
B1706563444028S05941699WA0087700938015000000000
B1707003444108S05941749WA0087700937015000000000
B1707043444188S05941789WA0087700934015000000000
B1707083444259S05941839WA0090000951015000000000
B1707123444328S05941879WA0090700965015000000000
B1707163444398S05941919WA0091300971015000000000
B1707203444468S05941959WA0094200984015000000000
B1707243444538S05941990WA0094201001015000000000
B1707283444618S05942030WA0093401002015000000000
B1707323444689S05942080WA0092800999015000000000
B1707363444758S05942120WA0092800991015000000000
B1707403444838S05942160WA0091301026015000000000
B1707443444909S05942200WA0090700974015000000000
B1707483444989S05942250WA0089100962015000000000
B1707523445058S05942299WA0089100953015000000000
B1707563445129S05942339WA0087700944015000000000
B1708003445199S05942389WA0087700939015000000000
B1708043445278S05942420WA0087700939015000000000
B1708083445348S05942460WA0090000949015000000000
B1708123445419S05942489WA0092800974015000000000
B1708163445478S05942519WA0095701003015000000000
B1708203445528S05942529WA0096401026015000000000
B1708243445568S05942489WA0097101034015000000000
B1708283445578S05942420WA0097101034015000000000
B1708323445549S05942349WA0097101037015000000000
B1708363445488S05942339WA0097101036015000000000
B1708403445438S05942380WA0097801036015000000000
B1708443445419S05942439WA0097101036015000000000
B1708483445429S05942519WA0097101035015000000000
B1708523445429S05942599WA0096401036015000000000
B1708563445438S05942680WA0096401030015000000000
B1709003445438S05942760WA0096401029015000000000
B1709043445438S05942839WA0097101031015000000000
B1709083445438S05942919WA0097101038015000000000
B1709123445438S05942999WA0097101039015000000000
B1709163445438S05943079WA0097101040015000000000
B1709203445429S05943159WA0097801040015000000000
B1709243445429S05943240WA0097801045015000000000
B1709283445429S05943309WA0098501050015000000000
B1709323445429S05943389WA0099301059015000000000
B1709363445438S05943450WA0098501059015000000000
B1709403445469S05943509WA0098501055015000000000
B1709443445518S05943569WA0097801054015000000000
B1709483445578S05943620WA0097101045015000000000
B1709523445639S05943669WA0097101040015000000000
B1709563445698S05943710WA0097101034015000000000
B1710003445759S05943769WA0095701026015000000000
B1710043445809S05943819WA0095701025015000000000
B1710083445868S05943869WA0094201016015000000000
B1710123445929S05943929WA0093401003015000000000
B1710163445979S05943989WA0092100991015000000000
B1710203446038S05944039WA0091300980015000000000
B1710243446099S05944099WA0090000969015000000000
B1710283446159S05944159WA0087700955015000000000
B1710323446218S05944219WA0086200933015000000000
B1710363446289S05944289WA0085700919015000000000
B1710403446359S05944349WA0085000908015000000000
B1710443446428S05944409WA0085000902015000000000
B1710483446489S05944469WA0086200916015000000000
B1710523446548S05944520WA0088500935015000000000
B1710563446589S05944570WA0091300959015000000000
B1711003446638S05944610WA0092800982015000000000
B1711043446688S05944629WA0094901001015000000000
B1711083446738S05944589WA0094901015015000000000
B1711123446738S05944509WA0094901012015000000000
B1711163446688S05944459WA0096401017015000000000
B1711203446629S05944469WA0097101029015000000000
B1711243446589S05944499WA0099301050015000000000
B1711283446589S05944559WA0100701065015000000000
B1711323446629S05944589WA0101501077015000000000
B1711363446678S05944549WA0103001092015000000000
B1711403446678S05944469WA0103601103015000000000
B1711443446629S05944429WA0104301112015000000000
B1711483446579S05944440WA0105901122015000000000
B1711523446548S05944489WA0108001137015000000000
B1711563446568S05944539WA0109401156015000000000
B1712003446629S05944528WA0110201166015000000000
B1712043446648S05944459WA0111001173015000000000
B1712083446619S05944398WA0113101188015000000000
B1712123446558S05944390WA0113101201015000000000
B1712163446528S05944449WA0114601208015000000000
B1712203446539S05944509WA0116101224015000000000
B1712243446589S05944528WA0117601236015000000000
B1712283446638S05944479WA0117601243015000000000
B1712323446629S05944390WA0118301249015000000000
B1712363446568S05944339WA0119801258015000000000
B1712403446508S05944339WA0121301273015000000000
B1712443446478S05944398WA0122801287015000000000
B1712483446508S05944440WA0125001310015000000000
B1712523446568S05944419WA0125001320015000000000
B1712563446579S05944339WA0125701321015000000000
B1713003446548S05944279WA0127101335015000000000
B1713043446489S05944260WA0128501348015000000000
B1713083446438S05944299WA0129401356015000000000
B1713123446428S05944359WA0130901375015000000000
B1713163446459S05944398WA0132401395015000000000
B1713203446508S05944359WA0133001408015000000000
B1713243446518S05944289WA0133801415015000000000
B1713283446478S05944219WA0134601420015000000000
B1713323446418S05944209WA0135301424015000000000
B1713363446369S05944249WA0137601442015000000000
B1713403446369S05944310WA0139101460015000000000
B1713443446409S05944329WA0139901473015000000000
B1713483446459S05944279WA0140501482015000000000
B1713523446459S05944189WA0141401489015000000000
B1713563446418S05944140WA0143701501015000000000
B1714003446359S05944140WA0144501515015000000000
B1714043446338S05944189WA0145801528015000000000
B1714083446359S05944239WA0146801542015000000000
B1714123446398S05944279WA0145801542015000000000
B1714163446449S05944329WA0144501528015000000000
B1714203446508S05944390WA0143701512015000000000
B1714243446568S05944459WA0142101499015000000000
B1714283446629S05944528WA0142101490015000000000
B1714323446688S05944599WA0142101499015000000000
B1714363446738S05944679WA0142901498015000000000
B1714403446799S05944749WA0143701508015000000000
B1714443446848S05944829WA0142901505015000000000
B1714483446908S05944910WA0144501513015000000000
B1714523446958S05944989WA0142901509015000000000
B1714563447009S05945069WA0142901501015000000000
B1715003447059S05945149WA0142101498015000000000
B1715043447108S05945239WA0140501485015000000000
B1715083447168S05945329WA0140501478015000000000
B1715123447219S05945419WA0139901471015000000000
B1715163447269S05945509WA0139101466015000000000
B1715203447328S05945589WA0139101463015000000000
B1715243447378S05945680WA0138301460015000000000
B1715283447428S05945759WA0138301456015000000000
B1715323447479S05945839WA0138301456015000000000
B1715363447529S05945929WA0139101457015000000000
B1715403447578S05946009WA0138301459015000000000
B1715443447628S05946089WA0138301457015000000000
B1715483447678S05946179WA0138301452015000000000
B1715523447728S05946269WA0137601448015000000000
B1715563447779S05946359WA0136801437015000000000
B1716003447838S05946439WA0137601448015000000000
B1716043447878S05946529WA0138301452015000000000
B1716083447928S05946609WA0137601455015000000000
B1716123447978S05946699WA0136801446015000000000
B1716163448029S05946789WA0136101437015000000000
B1716203448068S05946869WA0134601427015000000000
B1716243448118S05946959WA0134601420015000000000
B1716283448159S05947049WA0134601414015000000000
B1716323448198S05947140WA0133801413015000000000
B1716363448238S05947230WA0134601415015000000000
B1716403448289S05947320WA0134601416015000000000
B1716443448328S05947408WA0134601419015000000000
B1716483448368S05947499WA0136101424015000000000
B1716523448419S05947589WA0137601433015000000000
B1716563448458S05947669WA0139101457015000000000
B1717003448509S05947739WA0139901465015000000000
B1717043448568S05947809WA0139101467015000000000
B1717083448628S05947889WA0139101461015000000000
B1717123448689S05947960WA0139901467015000000000
B1717163448748S05948029WA0138301464015000000000
B1717203448809S05948109WA0139101455015000000000
B1717243448868S05948180WA0142101476015000000000
B1717283448899S05948249WA0143701507015000000000
B1717323448939S05948319WA0142901511015000000000
B1717363448989S05948390WA0141401498015000000000
B1717403449038S05948469WA0142901491015000000000
B1717443449088S05948549WA0141401495015000000000
B1717483449148S05948629WA0139901481015000000000
B1717523449209S05948709WA0139901471015000000000
B1717563449268S05948789WA0140501474015000000000
B1718003449319S05948869WA0139901478015000000000
B1718043449379S05948950WA0139901473015000000000
B1718083449428S05949029WA0139101463015000000000
B1718123449488S05949109WA0139101458015000000000
B1718163449539S05949189WA0138301461015000000000
B1718203449598S05949269WA0137601447015000000000
B1718243449648S05949349WA0136801442015000000000
B1718283449709S05949429WA0138301443015000000000
B1718323449759S05949499WA0139901453015000000000
B1718363449809S05949569WA0142901482015000000000
B1718403449849S05949619WA0145201518015000000000
B1718443449889S05949669WA0144501529015000000000
B1718483449929S05949729WA0141401499015000000000
B1718523449988S05949810WA0139101471015000000000
B1718563450038S05949890WA0137601457015000000000
B1719003450099S05949969WA0136101441015000000000
B1719043450158S05950049WA0134601424015000000000
B1719083450218S05950139WA0133001407015000000000
B1719123450288S05950219WA0132401395015000000000
B1719163450359S05950299WA0132401391015000000000
B1719203450418S05950370WA0133001395015000000000
B1719243450489S05950439WA0133001403015000000000
B1719283450558S05950500WA0134601412015000000000
B1719323450619S05950559WA0133801416015000000000
B1719363450688S05950629WA0133001403015000000000
B1719403450758S05950699WA0133001399015000000000
B1719443450818S05950769WA0133001401015000000000
B1719483450888S05950849WA0136801415015000000000
B1719523450938S05950909WA0138301452015000000000
B1719563450998S05950970WA0136801453015000000000
B1720003451049S05951039WA0136801439015000000000
B1720043451108S05951119WA0136801439015000000000
B1720083451169S05951199WA0138301443015000000000
B1720123451229S05951279WA0139101454015000000000
B1720163451278S05951359WA0139901461015000000000
B1720203451328S05951449WA0138301467015000000000
B1720243451389S05951539WA0138301456015000000000
B1720283451429S05951639WA0136801443015000000000
B1720323451469S05951740WA0136801440015000000000
B1720363451508S05951839WA0136801440015000000000
B1720403451538S05951939WA0136101434015000000000
B1720443451569S05952039WA0135301427015000000000
B1720483451599S05952149WA0133801418015000000000
B1720523451618S05952249WA0132401400015000000000
B1720563451649S05952359WA0131601387015000000000
B1721003451668S05952470WA0131601382015000000000
B1721043451689S05952569WA0132401387015000000000
B1721083451708S05952659WA0135301407015000000000
B1721123451718S05952739WA0138301435015000000000
B1721163451739S05952799WA0139901464015000000000
B1721203451748S05952869WA0138301465015000000000
B1721243451768S05952949WA0135301440015000000000
B1721283451798S05953039WA0133801412015000000000
B1721323451829S05953129WA0133801401015000000000
B1721363451848S05953229WA0135301408015000000000
B1721403451859S05953319WA0137601430015000000000
B1721443451869S05953399WA0137601448015000000000
B1721483451888S05953489WA0136101438015000000000
B1721523451909S05953579WA0134601420015000000000
B1721563451949S05953678WA0133801410015000000000
B1722003451989S05953769WA0133001401015000000000
B1722043452028S05953869WA0131601391015000000000
B1722083452069S05953969WA0130301379015000000000
B1722123452119S05954079WA0128501360015000000000
B1722163452158S05954179WA0127101343015000000000
B1722203452209S05954289WA0125001324015000000000
B1722243452259S05954408WA0124101305015000000000
B1722283452308S05954529WA0122801283015000000000
B1722323452348S05954639WA0123401288015000000000
B1722363452379S05954739WA0123401293015000000000
B1722403452419S05954849WA0122801288015000000000
B1722443452448S05954960WA0125001294015000000000
B1722483452478S05955059WA0126301321015000000000
B1722523452518S05955149WA0127101336015000000000
B1722563452568S05955220WA0130301353015000000000
B1723003452629S05955249WA0133001382015000000000
B1723043452679S05955229WA0134601410015000000000
B1723083452698S05955159WA0135301428015000000000
B1723123452679S05955079WA0137601439015000000000
B1723163452629S05955029WA0139101452015000000000
B1723203452568S05955019WA0140501468015000000000
B1723243452528S05955050WA0140501476015000000000
B1723283452509S05955109WA0140501483015000000000
B1723323452528S05955169WA0140501477015000000000
B1723363452559S05955239WA0139901472015000000000
B1723403452589S05955310WA0138301464015000000000
B1723443452629S05955390WA0138301452015000000000
B1723483452668S05955480WA0136801443015000000000
B1723523452719S05955569WA0134601423015000000000
B1723563452759S05955659WA0133801407015000000000
B1724003452809S05955749WA0133001400015000000000
B1724043452868S05955839WA0133001398015000000000
B1724083452908S05955929WA0133001395015000000000
B1724123452958S05956019WA0133801403015000000000
B1724163453008S05956109WA0133001407015000000000
B1724203453048S05956210WA0133001398015000000000
B1724243453088S05956309WA0132401392015000000000
B1724283453109S05956399WA0132401395015000000000
B1724323453138S05956499WA0132401391015000000000
B1724363453159S05956600WA0131601387015000000000
B1724403453168S05956709WA0130301375015000000000
B1724443453168S05956810WA0130301364015000000000
B1724483453159S05956919WA0128501359015000000000
B1724523453149S05957019WA0128501351015000000000
B1724563453138S05957129WA0127901344015000000000
B1725003453119S05957240WA0128501341015000000000
B1725043453119S05957349WA0128501348015000000000
B1725083453109S05957450WA0128501352015000000000
B1725123453109S05957549WA0128501348015000000000
B1725163453119S05957649WA0127901346015000000000
B1725203453119S05957749WA0126301337015000000000
B1725243453128S05957840WA0126301330015000000000
B1725283453138S05957939WA0125701327015000000000
B1725323453149S05958029WA0125701324015000000000
B1725363453159S05958119WA0125001320015000000000
B1725403453168S05958209WA0125701317015000000000
B1725443453208S05958279WA0125001316015000000000
B1725483453279S05958299WA0125001315015000000000
B1725523453348S05958239WA0124101310015000000000
B1725563453369S05958149WA0123401307015000000000
B1726003453369S05958039WA0122801299015000000000
B1726043453338S05957930WA0121901286015000000000
B1726083453308S05957829WA0119801273015000000000
B1726123453268S05957710WA0119001258015000000000
B1726163453228S05957599WA0117601245015000000000
B1726203453188S05957489WA0116801234015000000000
B1726243453149S05957379WA0116101225015000000000
B1726283453109S05957269WA0115401219015000000000
B1726323453069S05957159WA0115401215015000000000
B1726363453029S05957049WA0114601210015000000000
B1726403452989S05956940WA0114601207015000000000
B1726443452948S05956829WA0114601206015000000000
B1726483452918S05956719WA0113801203015000000000
B1726523452889S05956609WA0113801200015000000000
B1726563452859S05956489WA0112401194015000000000
B1727003452838S05956380WA0111001179015000000000
B1727043452819S05956259WA0110201166015000000000
B1727083452819S05956139WA0109401157015000000000
B1727123452809S05956029WA0108001154015000000000
B1727163452809S05955910WA0107301134015000000000
B1727203452809S05955780WA0106501126015000000000
B1727243452819S05955659WA0105901122015000000000
B1727283452828S05955539WA0106501118015000000000
B1727323452849S05955429WA0107301126015000000000
B1727363452868S05955319WA0109401141015000000000
B1727403452889S05955229WA0111701164015000000000
B1727443452899S05955140WA0113801193015000000000
B1727483452859S05955079WA0114601210015000000000
B1727523452798S05955090WA0113801208015000000000
B1727563452778S05955149WA0113801202015000000000
B1728003452809S05955189WA0113801207015000000000
B1728043452868S05955199WA0115401212015000000000
B1728083452918S05955189WA0116801233015000000000
B1728123452958S05955140WA0117601242015000000000
B1728163452979S05955050WA0116801237015000000000
B1728203452989S05954960WA0117601244015000000000
B1728243452958S05954880WA0117601244015000000000
B1728283452918S05954809WA0116801232015000000000
B1728323452868S05954739WA0115401219015000000000
B1728363452809S05954659WA0114601207015000000000
B1728403452738S05954580WA0113101197015000000000
B1728443452679S05954499WA0111701185015000000000
B1728483452608S05954408WA0110201169015000000000
B1728523452538S05954329WA0109401154015000000000
B1728563452469S05954239WA0110201156015000000000
B1729003452398S05954159WA0112401172015000000000
B1729043452339S05954089WA0115401201015000000000
B1729083452278S05954029WA0118301230015000000000
B1729123452218S05954029WA0119801259015000000000
B1729163452209S05954079WA0120401269015000000000
B1729203452249S05954109WA0121301276015000000000
B1729243452299S05954079WA0121901284015000000000
B1729283452318S05953999WA0123401291015000000000
B1729323452308S05953919WA0125701306015000000000
B1729363452268S05953869WA0127901333015000000000
B1729403452228S05953890WA0128501349015000000000
B1729443452218S05953938WA0128501350015000000000
B1729483452259S05953980WA0130301359015000000000
B1729523452308S05953969WA0130301373015000000000
B1729563452348S05953899WA0130901377015000000000
B1730003452368S05953819WA0133001390015000000000
B1730043452348S05953749WA0133801410015000000000
B1730083452299S05953729WA0133801418015000000000
B1730123452249S05953760WA0134601416015000000000
B1730163452259S05953819WA0136101424015000000000
B1730203452308S05953859WA0137601438015000000000
B1730243452368S05953839WA0138301451015000000000
B1730283452398S05953769WA0138301455015000000000
B1730323452389S05953678WA0139101464015000000000
B1730363452368S05953590WA0137601454015000000000
B1730403452339S05953489WA0136101438015000000000
B1730443452299S05953399WA0136801436015000000000
B1730483452238S05953309WA0137601441015000000000
B1730523452188S05953219WA0139101455015000000000
B1730563452138S05953129WA0139101464015000000000
B1731003452088S05953030WA0136101443015000000000
B1731043452028S05952939WA0135301423015000000000
B1731083451968S05952839WA0137601435015000000000
B1731123451909S05952739WA0136801449015000000000
B1731163451848S05952640WA0136101434015000000000
B1731203451788S05952539WA0134601423015000000000
B1731243451729S05952449WA0133801416015000000000
B1731283451659S05952359WA0133001409015000000000
B1731323451588S05952269WA0132401399015000000000
B1731363451508S05952189WA0132401393015000000000
B1731403451439S05952109WA0131601389015000000000
B1731443451368S05952029WA0131601387015000000000
B1731483451288S05951960WA0131601386015000000000
B1731523451219S05951899WA0131601387015000000000
B1731563451139S05951849WA0133001395015000000000
B1732003451068S05951789WA0134601407015000000000
B1732043450998S05951740WA0136101423015000000000
B1732083450928S05951689WA0135301431015000000000
B1732123450879S05951619WA0134601427015000000000
B1732163450848S05951519WA0135301422015000000000
B1732203450848S05951400WA0134601421015000000000
B1732243450848S05951289WA0135301422015000000000
B1732283450848S05951180WA0134601421015000000000
B1732323450858S05951058WA0135301421015000000000
B1732363450858S05950949WA0135301426015000000000
B1732403450848S05950840WA0136101429015000000000
B1732443450829S05950739WA0136101434015000000000
B1732483450789S05950639WA0135301432015000000000
B1732523450738S05950549WA0134601424015000000000
B1732563450688S05950459WA0133801473015000000000
B1733003450628S05950379WA0132401409015000000000
B1733043450558S05950289WA0130901387015000000000
B1733083450489S05950209WA0130301375015000000000
B1733123450418S05950129WA0129401363015000000000
B1733163450348S05950049WA0128501354015000000000
B1733203450269S05949969WA0129401356015000000000
B1733243450198S05949890WA0130301360015000000000
B1733283450128S05949810WA0130301368015000000000
B1733323450059S05949720WA0132401377015000000000
B1733363450009S05949629WA0135301409015000000000
B1733403449969S05949550WA0137601435015000000000
B1733443449918S05949468WA0139901456015000000000
B1733483449879S05949389WA0140501472015000000000
B1733523449839S05949299WA0142901477015000000000
B1733563449799S05949219WA0142901500015000000000
B1734003449759S05949139WA0140501491015000000000
B1734043449709S05949039WA0139101468015000000000
B1734083449658S05948939WA0138301456015000000000
B1734123449608S05948839WA0137601449015000000000
B1734163449558S05948739WA0136801446015000000000
B1734203449509S05948629WA0136801442015000000000
B1734243449459S05948529WA0137601442015000000000
B1734283449409S05948430WA0138301449015000000000
B1734323449358S05948329WA0139101460015000000000
B1734363449308S05948220WA0140501470015000000000
B1734403449258S05948119WA0143701488015000000000
B1734443449218S05948029WA0145201516015000000000
B1734483449178S05947929WA0144501519015000000000
B1734523449128S05947819WA0143701508015000000000
B1734563449079S05947719WA0142101500015000000000
B1735003449029S05947609WA0141401490015000000000
B1735043448979S05947499WA0140501484015000000000
B1735083448918S05947389WA0139101473015000000000
B1735123448868S05947278WA0138301459015000000000
B1735163448819S05947179WA0139101454015000000000
B1735203448769S05947069WA0140501465015000000000
B1735243448718S05946969WA0141401479015000000000
B1735283448668S05946859WA0140501479015000000000
B1735323448628S05946760WA0141401483015000000000
B1735363448578S05946649WA0142101488015000000000
B1735403448528S05946549WA0141401490015000000000
B1735443448479S05946449WA0141401485015000000000
B1735483448429S05946349WA0142101486015000000000
B1735523448389S05946249WA0142101488015000000000
B1735563448339S05946149WA0141401484015000000000
B1736003448299S05946049WA0139901478015000000000
B1736043448228S05945969WA0139901473015000000000
B1736083448159S05945889WA0138301463015000000000
B1736123448079S05945818WA0137601454015000000000
B1736163448008S05945749WA0136801448015000000000
B1736203447919S05945688WA0136101441015000000000
B1736243447838S05945629WA0136101437015000000000
B1736283447758S05945569WA0136101430015000000000
B1736323447668S05945509WA0135301425015000000000
B1736363447588S05945449WA0134601418015000000000
B1736403447508S05945389WA0133801412015000000000
B1736443447428S05945340WA0133801410015000000000
B1736483447338S05945300WA0135301416015000000000
B1736523447269S05945249WA0137601432015000000000
B1736563447189S05945210WA0138301455015000000000
B1737003447129S05945170WA0139901469015000000000
B1737043447059S05945130WA0140501479015000000000
B1737083446999S05945080WA0139901481015000000000
B1737123446958S05945000WA0139101473015000000000
B1737163446929S05944919WA0137601462015000000000
B1737203446898S05944829WA0137601452015000000000
B1737243446868S05944729WA0136801446015000000000
B1737283446848S05944629WA0136101439015000000000
B1737323446818S05944520WA0135301435015000000000
B1737363446799S05944409WA0134601423015000000000
B1737403446778S05944289WA0135301421015000000000
B1737443446759S05944180WA0135301422015000000000
B1737483446738S05944069WA0136101430015000000000
B1737523446718S05943959WA0136801435015000000000
B1737563446698S05943859WA0136801439015000000000
B1738003446669S05943759WA0137601442015000000000
B1738043446638S05943659WA0138301452015000000000
B1738083446608S05943559WA0139101459015000000000
B1738123446568S05943450WA0139901461015000000000
B1738163446539S05943349WA0141401471015000000000
B1738203446499S05943249WA0140501483015000000000
B1738243446459S05943150WA0139101473015000000000
B1738283446418S05943049WA0138301461015000000000
B1738323446369S05942938WA0138301452015000000000
B1738363446319S05942829WA0138301451015000000000
B1738403446279S05942720WA0138301453015000000000
B1738443446229S05942609WA0137601448015000000000
B1738483446189S05942509WA0136101436015000000000
B1738523446149S05942399WA0134601417015000000000
B1738563446109S05942279WA0133001408015000000000
B1739003446078S05942160WA0133801403015000000000
B1739043446048S05942049WA0133001401015000000000
B1739083446019S05941939WA0133801404015000000000
B1739123445988S05941829WA0133801403015000000000
B1739163445958S05941719WA0133801405015000000000
B1739203445939S05941609WA0132401398015000000000
B1739243445899S05941499WA0131601382015000000000
B1739283445859S05941390WA0129401366015000000000
B1739323445818S05941279WA0128501353015000000000
B1739363445759S05941170WA0127901345015000000000
B1739403445708S05941069WA0127101340015000000000
B1739443445639S05940979WA0126301330015000000000
B1739483445558S05940899WA0125701325015000000000
B1739523445478S05940819WA0125701321015000000000
B1739563445398S05940740WA0125001315015000000000
B1740003445318S05940660WA0124101307015000000000
B1740043445238S05940589WA0123401300015000000000
B1740083445159S05940519WA0122801291015000000000
B1740123445069S05940449WA0121901286015000000000
B1740163444989S05940379WA0120401274015000000000
B1740203444909S05940309WA0120401261015000000000
B1740243444828S05940239WA0119001254015000000000
B1740283444748S05940159WA0119001251015000000000
B1740323444668S05940079WA0119001250015000000000
B1740363444598S05939999WA0118301243015000000000
B1740403444519S05939919WA0118301242015000000000
B1740443444448S05939829WA0117601239015000000000
B1740483444379S05939749WA0116801234015000000000
B1740523444299S05939670WA0115401221015000000000
B1740563444228S05939589WA0114601206015000000000
B1741003444148S05939500WA0113801197015000000000
B1741043444078S05939419WA0113801200015000000000
B1741083444009S05939339WA0113801193015000000000
B1741123443928S05939249WA0113101189015000000000
B1741163443858S05939158WA0114601192015000000000
B1741203443789S05939070WA0115401202015000000000
B1741243443718S05938989WA0116801218015000000000
B1741283443648S05938909WA0119001240015000000000
B1741323443588S05938849WA0119801257015000000000
B1741363443529S05938779WA0118301256015000000000
B1741403443468S05938699WA0117601238015000000000
B1741443443399S05938609WA0116101225015000000000
B1741483443328S05938519WA0115401214015000000000
B1741523443258S05938420WA0114601206015000000000
B1741563443198S05938329WA0116801212015000000000
B1742003443139S05938250WA0118301231015000000000
B1742043443078S05938159WA0117601238015000000000
B1742083443019S05938069WA0115401219015000000000
B1742123442958S05937979WA0113801202015000000000
B1742163442889S05937889WA0113801194015000000000
B1742203442828S05937789WA0113801191015000000000
B1742243442768S05937689WA0114601195015000000000
B1742283442738S05937579WA0115401205015000000000
B1742323442709S05937469WA0116101215015000000000
B1742363442688S05937369WA0116801225015000000000
B1742403442669S05937269WA0117601235015000000000
B1742443442629S05937180WA0116801235015000000000
B1742483442558S05937109WA0116101223015000000000
B1742523442488S05937029WA0115401214015000000000
B1742563442419S05936960WA0113801203015000000000
B1743003442338S05936880WA0113801197015000000000
B1743043442268S05936809WA0113101192015000000000
B1743083442188S05936729WA0113101188015000000000
B1743123442119S05936660WA0112401182015000000000
B1743163442038S05936589WA0111001172015000000000
B1743203441958S05936519WA0111001166015000000000
B1743243441878S05936450WA0111701165015000000000
B1743283441809S05936379WA0111701168015000000000
B1743323441729S05936320WA0111001166015000000000
B1743363441658S05936249WA0111701167015000000000
B1743403441588S05936179WA0112401177015000000000
B1743443441528S05936119WA0113801188015000000000
B1743483441458S05936049WA0113801195015000000000
B1743523441398S05935979WA0115401219015000000000
B1743563441339S05935909WA0113801209015000000000
B1744003441268S05935839WA0113801202015000000000
B1744043441209S05935760WA0113101198015000000000
B1744083441129S05935689WA0112401184015000000000
B1744123441048S05935619WA0111701175015000000000
B1744163440968S05935539WA0111701169015000000000
B1744203440888S05935469WA0111001163015000000000
B1744243440808S05935399WA0111001160015000000000
B1744283440739S05935339WA0113101173015000000000
B1744323440659S05935279WA0114601189015000000000
B1744363440599S05935219WA0115401203015000000000
B1744403440529S05935160WA0115401213015000000000
B1744443440479S05935089WA0116101214015000000000
B1744483440418S05934999WA0116101217015000000000
B1744523440368S05934909WA0117601224015000000000
B1744563440328S05934809WA0117601231015000000000
B1745003440278S05934719WA0116801226015000000000
B1745043440238S05934619WA0116101219015000000000
B1745083440208S05934509WA0114601208015000000000
B1745123440179S05934409WA0113801202015000000000
B1745163440148S05934309WA0113801197015000000000
B1745203440118S05934199WA0114601201015000000000
B1745243440089S05934099WA0114601204015000000000
B1745283440059S05934009WA0113801203015000000000
B1745323440028S05933909WA0112401188015000000000
B1745363439988S05933799WA0111701177015000000000
B1745403439938S05933700WA0111701176015000000000
B1745443439888S05933610WA0111701173015000000000
B1745483439829S05933519WA0111701172015000000000
B1745523439768S05933440WA0112401177015000000000
B1745563439699S05933349WA0112401180015000000000
B1746003439629S05933270WA0113101182015000000000
B1746043439569S05933189WA0113101185015000000000
B1746083439499S05933100WA0111701185015000000000
B1746123439428S05933019WA0111001165015000000000
B1746163439359S05932920WA0111001157015000000000
B1746203439298S05932829WA0112401164015000000000
B1746243439239S05932750WA0115401195015000000000
B1746283439178S05932679WA0117601226015000000000
B1746323439128S05932609WA0118301236015000000000
B1746363439078S05932540WA0117601240015000000000
B1746403439019S05932459WA0116801234015000000000
B1746443438958S05932389WA0116101224015000000000
B1746483438889S05932319WA0114601209015000000000
B1746523438809S05932249WA0115401202015000000000
B1746563438738S05932189WA0117601211015000000000
B1747003438669S05932150WA0121301251015000000000
B1747043438618S05932159WA0121901279015000000000
B1747083438599S05932219WA0121901278015000000000
B1747123438629S05932269WA0122801280015000000000
B1747163438679S05932289WA0125001300015000000000
B1747203438719S05932249WA0125701318015000000000
B1747243438728S05932179WA0126301321015000000000
B1747283438698S05932110WA0127901336015000000000
B1747323438639S05932110WA0128501352015000000000
B1747363438599S05932159WA0128501348015000000000
B1747403438608S05932229WA0130301358015000000000
B1747443438658S05932259WA0131601373015000000000
B1747483438708S05932249WA0133001390015000000000
B1747523438738S05932199WA0133001403015000000000
B1747563438728S05932119WA0133801402015000000000
B1748003438679S05932070WA0134601406015000000000
B1748043438608S05932029WA0133801411015000000000
B1748083438549S05931980WA0133801408015000000000
B1748123438478S05931929WA0133001401015000000000
B1748163438398S05931869WA0132401389015000000000
B1748203438329S05931810WA0131601380015000000000
B1748243438249S05931760WA0131601379015000000000
B1748283438169S05931709WA0131601383015000000000
B1748323438088S05931659WA0131601384015000000000
B1748363438008S05931598WA0130901384015000000000
B1748403437928S05931550WA0130301375015000000000
B1748443437838S05931499WA0129401367015000000000
B1748483437758S05931449WA0129401361015000000000
B1748523437668S05931409WA0128501352015000000000
B1748563437578S05931359WA0127101344015000000000
B1749003437488S05931309WA0126301338015000000000
B1749043437398S05931259WA0125701330015000000000
B1749083437318S05931219WA0125701324015000000000
B1749123437228S05931169WA0125701321015000000000
B1749163437138S05931120WA0124101315015000000000
B1749203437049S05931080WA0124101307015000000000
B1749243436949S05931029WA0123401302015000000000
B1749283436858S05930979WA0122801298015000000000
B1749323436768S05930929WA0123401293015000000000
B1749363436668S05930889WA0122801290015000000000
B1749403436579S05930839WA0121901286015000000000
B1749443436489S05930789WA0121901281015000000000
B1749483436399S05930749WA0120401275015000000000
B1749523436309S05930699WA0119801265015000000000
B1749563436208S05930639WA0119001258015000000000
B1750003436118S05930569WA0119001252015000000000
B1750043436038S05930499WA0118301248015000000000
B1750083435948S05930430WA0117601242015000000000
B1750123435868S05930369WA0116801232015000000000
B1750163435778S05930300WA0115401224015000000000
B1750203435698S05930229WA0115401215015000000000
B1750243435608S05930159WA0113101204015000000000
B1750283435528S05930079WA0113101194015000000000
B1750323435438S05930009WA0112401188015000000000
B1750363435359S05929939WA0112401186015000000000
B1750403435289S05929859WA0111001181015000000000
B1750443435208S05929779WA0111001169015000000000
B1750483435138S05929709WA0111001171015000000000
B1750523435058S05929639WA0109401166015000000000
B1750563434979S05929599WA0109401158015000000000
B1751003434878S05929569WA0108001147015000000000
B1751043434778S05929549WA0106501132015000000000
B1751083434689S05929519WA0105901121015000000000
B1751123434589S05929509WA0105901116015000000000
B1751163434488S05929490WA0104301108015000000000
B1751203434389S05929479WA0103601102015000000000
B1751243434289S05929469WA0103601098015000000000
B1751283434199S05929459WA0103001094015000000000
B1751323434108S05929449WA0103001089015000000000
B1751363434018S05929449WA0103001084015000000000
B1751403433928S05929439WA0103001091015000000000
B1751443433838S05929419WA0104301096015000000000
B1751483433758S05929400WA0104301105015000000000
B1751523433668S05929379WA0104301105015000000000
B1751563433588S05929360WA0105901114015000000000
B1752003433519S05929329WA0107301125015000000000
B1752043433439S05929299WA0108001141015000000000
B1752083433368S05929270WA0111001152015000000000
B1752123433299S05929259WA0112401177015000000000
B1752163433259S05929309WA0113101191015000000000
B1752203433278S05929360WA0113801199015000000000
B1752243433328S05929369WA0115401208015000000000
B1752283433368S05929309WA0117601230015000000000
B1752323433368S05929230WA0118301244015000000000
B1752363433318S05929169WA0119001254015000000000
B1752403433259S05929159WA0120401267015000000000
B1752443433219S05929190WA0121301279015000000000
B1752483433208S05929249WA0122801285015000000000
B1752523433248S05929279WA0124101298015000000000
B1752563433299S05929249WA0125701315015000000000
B1753003433318S05929179WA0126301332015000000000
B1753043433278S05929100WA0127101340015000000000
B1753083433208S05929069WA0128501352015000000000
B1753123433158S05929109WA0130301366015000000000
B1753163433148S05929159WA0131601378015000000000
B1753203433188S05929199WA0131601387015000000000
B1753243433238S05929169WA0133801401015000000000
B1753283433259S05929100WA0135301422015000000000
B1753323433229S05929020WA0136101431015000000000
B1753363433169S05928979WA0136801437015000000000
B1753403433108S05928999WA0137601447015000000000
B1753443433078S05929060WA0139901456015000000000
B1753483433099S05929109WA0140501472015000000000
B1753523433148S05929100WA0142101484015000000000
B1753563433179S05929039WA0142901495015000000000
B1754003433169S05928949WA0144501512015000000000
B1754043433108S05928899WA0145201517015000000000
B1754083433049S05928890WA0146801534015000000000
B1754123432999S05928939WA0145801538015000000000
B1754163433009S05928999WA0147401546015000000000
B1754203433049S05929029WA0148901561015000000000
B1754243433099S05929009WA0150501575015000000000
B1754283433129S05928949WA0152001587015000000000
B1754323433108S05928869WA0152801602015000000000
B1754363433058S05928809WA0153601605015000000000
B1754403432988S05928819WA0154401614015000000000
B1754443432948S05928859WA0154401622015000000000
B1754483432948S05928919WA0156501631015000000000
B1754523432988S05928959WA0158201646015000000000
B1754563433028S05928939WA0158201659015000000000
B1755003433058S05928869WA0159601663015000000000
B1755043433028S05928789WA0161201678015000000000
B1755083432969S05928749WA0162101689015000000000
B1755123432909S05928769WA0162801699015000000000
B1755163432888S05928819WA0164301709015000000000
B1755203432909S05928869WA0165201718015000000000
B1755243432959S05928848WA0165201729015000000000
B1755283432988S05928789WA0165901732015000000000
B1755323432969S05928699WA0167501746015000000000
B1755363432919S05928639WA0168201759015000000000
B1755403432848S05928639WA0169001768015000000000
B1755443432808S05928679WA0169001773015000000000
B1755483432818S05928739WA0170601779015000000000
B1755523432858S05928760WA0171401790015000000000
B1755563432909S05928739WA0172101798015000000000
B1756003432938S05928670WA0173001801015000000000
B1756043432948S05928590WA0174501815015000000000
B1756083432909S05928509WA0174501820015000000000
B1756123432848S05928450WA0173701816015000000000
B1756163432768S05928399WA0173001808015000000000
B1756203432688S05928359WA0173001809015000000000
B1756243432598S05928320WA0170601795015000000000
B1756283432498S05928269WA0169001768015000000000
B1756323432409S05928219WA0168201756015000000000
B1756363432308S05928160WA0167501754015000000000
B1756403432208S05928099WA0165901743015000000000
B1756443432118S05928049WA0164301729015000000000
B1756483432009S05927989WA0163501714015000000000
B1756523431908S05927940WA0162801706015000000000
B1756563431818S05927879WA0162801705015000000000
B1757003431719S05927829WA0162801701015000000000
B1757043431618S05927779WA0161201694015000000000
B1757083431518S05927719WA0161201687015000000000
B1757123431419S05927669WA0160601682015000000000
B1757163431329S05927619WA0160601677015000000000
B1757203431228S05927558WA0159601672015000000000
B1757243431128S05927509WA0158901666015000000000
B1757283431029S05927459WA0158901661015000000000
B1757323430928S05927409WA0158201657015000000000
B1757363430838S05927359WA0157401650015000000000
B1757403430738S05927309WA0156501643015000000000
B1757443430639S05927258WA0156501636015000000000
B1757483430538S05927210WA0155001632015000000000
B1757523430448S05927159WA0155001629015000000000
B1757563430349S05927109WA0155001625015000000000
B1758003430249S05927059WA0154401616015000000000
B1758043430148S05927000WA0152801607015000000000
B1758083430058S05926949WA0152001600015000000000
B1758123429959S05926889WA0152001594015000000000
B1758163429859S05926839WA0151301590015000000000
B1758203429758S05926789WA0151301584015000000000
B1758243429668S05926729WA0149801575015000000000
B1758283429569S05926679WA0148901570015000000000
B1758323429468S05926629WA0148901564015000000000
B1758363429378S05926570WA0148101559015000000000
B1758403429278S05926509WA0147401553015000000000
B1758443429189S05926459WA0147401547015000000000
B1758483429099S05926390WA0147401543015000000000
B1758523428998S05926339WA0146801541015000000000
B1758563428908S05926289WA0145801533015000000000
B1759003428808S05926239WA0145801529015000000000
B1759043428718S05926189WA0145801528015000000000
B1759083428629S05926149WA0144501522015000000000
B1759123428539S05926098WA0144501515015000000000
B1759163428449S05926039WA0144501516015000000000
B1759203428359S05925989WA0144501511015000000000
B1759243428268S05925939WA0142901504015000000000
B1759283428178S05925889WA0140501486015000000000
B1759323428098S05925830WA0139901472015000000000
B1759363428008S05925759WA0139101467015000000000
B1759403427918S05925710WA0139101464015000000000
B1759443427828S05925649WA0138301458015000000000
B1759483427738S05925589WA0138301453015000000000
B1759523427658S05925529WA0138301453015000000000
B1759563427578S05925479WA0138301452015000000000
B1800003427499S05925419WA0139101457015000000000
B1800043427429S05925360WA0139101463015000000000
B1800083427348S05925299WA0137601454015000000000
B1800123427268S05925239WA0136101433015000000000
B1800163427178S05925179WA0136101425015000000000
B1800203427088S05925119WA0135301425015000000000
B1800243426999S05925079WA0134601416015000000000
B1800283426909S05925029WA0133801406015000000000
B1800323426808S05924989WA0133001400015000000000
B1800363426718S05924949WA0132401396015000000000
B1800403426628S05924909WA0131601388015000000000
B1800443426528S05924859WA0130901381015000000000
B1800483426439S05924808WA0130301377015000000000
B1800523426349S05924759WA0130901375015000000000
B1800563426259S05924709WA0130301373015000000000
B1801003426169S05924649WA0130901372015000000000
B1801043426079S05924590WA0130901374015000000000
B1801083425988S05924529WA0131601379015000000000
B1801123425908S05924460WA0130901375015000000000
B1801163425829S05924389WA0130301370015000000000
B1801203425749S05924319WA0128501360015000000000
B1801243425668S05924239WA0127901351015000000000
B1801283425588S05924169WA0127101341015000000000
B1801323425498S05924099WA0125701325015000000000
B1801363425418S05924019WA0124101312015000000000
B1801403425338S05923939WA0123401299015000000000
B1801443425248S05923869WA0122801294015000000000
B1801483425168S05923799WA0122801290015000000000
B1801523425078S05923719WA0122801290015000000000
B1801563424998S05923648WA0122801290015000000000
B1802003424919S05923579WA0121901282015000000000
B1802043424839S05923509WA0121301280015000000000
B1802083424759S05923439WA0120401275015000000000
B1802123424679S05923359WA0120401268015000000000
B1802163424608S05923289WA0119801262015000000000
B1802203424528S05923209WA0118301250015000000000
B1802243424449S05923130WA0117601243015000000000
B1802283424369S05923059WA0118301241015000000000
B1802323424289S05922979WA0116801237015000000000
B1802363424208S05922909WA0115401219015000000000
B1802403424128S05922830WA0114601210015000000000
B1802443424058S05922749WA0113801206015000000000
B1802483423979S05922679WA0113801201015000000000
B1802523423899S05922599WA0113101193015000000000
B1802563423819S05922530WA0112401183015000000000
B1803003423738S05922449WA0113101187015000000000
B1803043423668S05922369WA0113801196015000000000
B1803083423589S05922289WA0115401206015000000000
B1803123423519S05922219WA0115401222015000000000
B1803163423448S05922149WA0115401218015000000000
B1803203423368S05922079WA0114601213015000000000
B1803243423289S05922009WA0116101214015000000000
B1803283423209S05921939WA0118301232015000000000
B1803323423148S05921879WA0119001254015000000000
B1803363423089S05921819WA0118301256015000000000
B1803403423018S05921758WA0116801239015000000000
B1803443422938S05921710WA0116801228015000000000
B1803483422869S05921659WA0119801242015000000000
B1803523422808S05921619WA0119801268015000000000
B1803563422739S05921589WA0118301260015000000000
B1804003422659S05921540WA0117601244015000000000
B1804043422578S05921500WA0116801232015000000000
B1804083422498S05921449WA0116101226015000000000
B1804123422408S05921399WA0114601211015000000000
B1804163422328S05921339WA0114601204015000000000
B1804203422238S05921288WA0113101197015000000000
B1804243422158S05921240WA0113101196015000000000
B1804283422068S05921179WA0112401188015000000000
B1804323421988S05921129WA0111701180015000000000
B1804363421898S05921079WA0111001170015000000000
B1804403421808S05921028WA0109401162015000000000
B1804443421718S05920989WA0108801151015000000000
B1804483421629S05920940WA0108001141015000000000
B1804523421529S05920909WA0106501132015000000000
B1804563421438S05920869WA0105901121015000000000
B1805003421338S05920829WA0105901115015000000000
B1805043421248S05920789WA0105101110015000000000
B1805083421149S05920749WA0104301107015000000000
B1805123421059S05920709WA0105101109015000000000
B1805163420969S05920669WA0104301109015000000000
B1805203420879S05920619WA0104301103015000000000
B1805243420799S05920559WA0103001096015000000000
B1805283420708S05920499WA0102101085015000000000
B1805323420618S05920449WA0101501073015000000000
B1805363420528S05920389WA0100701063015000000000
B1805403420438S05920340WA0099801055015000000000
B1805443420348S05920289WA0099301046015000000000
B1805483420258S05920229WA0098501041015000000000
B1805523420159S05920179WA0098501037015000000000
B1805563420069S05920129WA0099801042015000000000
B1806003419979S05920080WA0101501055015000000000
B1806043419899S05920029WA0103001072015000000000
B1806083419828S05919979WA0103601085015000000000
B1806123419748S05919929WA0104301098015000000000
B1806163419668S05919889WA0105101103015000000000
B1806203419599S05919839WA0106501114015000000000
B1806243419528S05919789WA0108001129015000000000
B1806283419469S05919749WA0108801143015000000000
B1806323419398S05919749WA0108801149015000000000
B1806363419358S05919799WA0109401156015000000000
B1806403419368S05919849WA0107301149015000000000
B1806443419419S05919869WA0106501130015000000000
B1806483419469S05919829WA0107301129015000000000
B1806523419508S05919769WA0108001138015000000000
B1806563419538S05919719WA0110201155015000000000
B1807003419559S05919650WA0111001168015000000000
B1807043419549S05919568WA0110201167015000000000
B1807083419508S05919499WA0111001169015000000000
B1807123419469S05919419WA0110201163015000000000
B1807163419448S05919329WA0110201159015000000000
B1807203419448S05919239WA0111001165015000000000
B1807243419448S05919139WA0110201163015000000000
B1807283419448S05919050WA0111001165015000000000
B1807323419458S05918969WA0111701170015000000000
B1807363419458S05918880WA0111001170015000000000
B1807403419438S05918790WA0110201167015000000000
B1807443419408S05918700WA0109401155015000000000
B1807483419358S05918620WA0108001144015000000000
B1807523419309S05918530WA0108001138015000000000
B1807563419259S05918450WA0107301133015000000000
B1808003419198S05918359WA0105901128015000000000
B1808043419148S05918270WA0106501122015000000000
B1808083419098S05918190WA0105901118015000000000
B1808123419039S05918099WA0104301106015000000000
B1808163418988S05918009WA0103601096015000000000
B1808203418928S05917909WA0103001090015000000000
B1808243418879S05917819WA0102101080015000000000
B1808283418829S05917720WA0101501070015000000000
B1808323418768S05917630WA0099801063015000000000
B1808363418718S05917529WA0098501048015000000000
B1808403418659S05917439WA0097801039015000000000
B1808443418609S05917339WA0097101029015000000000
B1808483418558S05917248WA0096401023015000000000
B1808523418508S05917149WA0095701015015000000000
B1808563418458S05917059WA0096401014015000000000
B1809003418408S05916959WA0097801026015000000000
B1809043418368S05916869WA0098501037015000000000
B1809083418338S05916779WA0098501039015000000000
B1809123418319S05916690WA0100701056015000000000
B1809163418269S05916629WA0102101078015000000000
B1809203418198S05916629WA0102101081015000000000
B1809243418168S05916679WA0102101081015000000000
B1809283418189S05916730WA0101501082015000000000
B1809323418238S05916739WA0101501073015000000000
B1809363418288S05916709WA0102101073015000000000
B1809403418338S05916669WA0104301091015000000000
B1809443418359S05916600WA0103001099015000000000
B1809483418338S05916519WA0103001090015000000000
B1809523418298S05916430WA0103001087015000000000
B1809563418259S05916340WA0103601090015000000000
B1810003418208S05916260WA0103601093015000000000
B1810043418158S05916179WA0104301095015000000000
B1810083418108S05916099WA0103601098015000000000
B1810123418059S05916029WA0104301100015000000000
B1810163418009S05915959WA0104301104015000000000
B1810203417958S05915879WA0105901112015000000000
B1810243417908S05915819WA0107301124015000000000
B1810283417858S05915759WA0109401149015000000000
B1810323417818S05915700WA0109401155015000000000
B1810363417759S05915629WA0109401155015000000000
B1810403417709S05915549WA0109401154015000000000
B1810443417658S05915469WA0109401151015000000000
B1810483417598S05915390WA0109401154015000000000
B1810523417548S05915299WA0110201153015000000000
B1810563417499S05915209WA0110201156015000000000
B1811003417449S05915119WA0110201157015000000000
B1811043417388S05915039WA0110201155015000000000
B1811083417338S05914949WA0108801150015000000000
B1811123417289S05914869WA0108801145015000000000
B1811163417248S05914779WA0108001143015000000000
B1811203417199S05914689WA0106501130015000000000
B1811243417149S05914589WA0106501123015000000000
B1811283417098S05914498WA0105901121015000000000
B1811323417059S05914410WA0105101113015000000000
B1811363417008S05914319WA0105101109015000000000
B1811403416968S05914230WA0105101107015000000000
B1811443416918S05914150WA0105101108015000000000
B1811483416878S05914059WA0104301106015000000000
B1811523416838S05913969WA0104301104015000000000
B1811563416799S05913879WA0103601097015000000000
B1812003416748S05913799WA0101501083015000000000
B1812043416679S05913720WA0101501069015000000000
B1812083416608S05913659WA0100701062015000000000
B1812123416528S05913599WA0099301055015000000000
B1812163416459S05913539WA0098501051015000000000
B1812203416379S05913489WA0098501044015000000000
B1812243416289S05913429WA0099301041015000000000
B1812283416209S05913389WA0097801041015000000000
B1812323416129S05913339WA0098501036015000000000
B1812363416048S05913290WA0098501037015000000000
B1812403415968S05913239WA0097801038015000000000
B1812443415899S05913179WA0098501035015000000000
B1812483415829S05913109WA0099301039015000000000
B1812523415758S05913038WA0099801054015000000000
B1812563415699S05912969WA0099301056015000000000
B1813003415628S05912879WA0099301048015000000000
B1813043415569S05912799WA0099801050015000000000
B1813083415509S05912719WA0100701056015000000000
B1813123415448S05912639WA0100701059015000000000
B1813163415389S05912569WA0099801056015000000000
B1813203415328S05912489WA0099801056015000000000
B1813243415278S05912409WA0100701059015000000000
B1813283415228S05912339WA0101501065015000000000
B1813323415169S05912269WA0099801062015000000000
B1813363415108S05912199WA0098501047015000000000
B1813403415049S05912130WA0097101037015000000000
B1813443414978S05912059WA0097101029015000000000
B1813483414908S05912000WA0096401022015000000000
B1813523414848S05911929WA0096401019015000000000
B1813563414778S05911870WA0095701018015000000000
B1814003414709S05911799WA0095701012015000000000
B1814043414648S05911729WA0094901006015000000000
B1814083414579S05911669WA0094901004015000000000
B1814123414518S05911599WA0094201005015000000000
B1814163414449S05911530WA0093400996015000000000
B1814203414388S05911459WA0092800986015000000000
B1814243414319S05911389WA0092100977015000000000
B1814283414258S05911309WA0090700969015000000000
B1814323414189S05911239WA0090700962015000000000
B1814363414128S05911159WA0090700963015000000000
B1814403414059S05911079WA0090000957015000000000
B1814443413998S05911009WA0090000953015000000000
B1814483413929S05910930WA0092100960015000000000
B1814523413878S05910869WA0094200991015000000000
B1814563413828S05910800WA0094901007015000000000
B1815003413778S05910739WA0095701007015000000000
B1815043413728S05910670WA0095701016015000000000
B1815083413669S05910599WA0094901008015000000000
B1815123413608S05910519WA0094900997015000000000
B1815163413539S05910439WA0094901001015000000000
B1815203413478S05910349WA0096401008015000000000
B1815243413428S05910279WA0097101024015000000000
B1815283413369S05910200WA0097101035015000000000
B1815323413308S05910129WA0097101027015000000000
B1815363413249S05910049WA0097101027015000000000
B1815403413188S05909979WA0097101031015000000000
B1815443413128S05909900WA0097101030015000000000
B1815483413058S05909829WA0098501035015000000000
B1815523412998S05909759WA0099801047015000000000
B1815563412949S05909689WA0099801058015000000000
B1816003412889S05909629WA0100701063015000000000
B1816043412828S05909559WA0099801066015000000000
B1816083412769S05909479WA0100701065015000000000
B1816123412708S05909409WA0099801058015000000000
B1816163412649S05909329WA0099301049015000000000
B1816203412588S05909250WA0098501040015000000000
B1816243412519S05909170WA0097801033015000000000
B1816283412458S05909089WA0097101027015000000000
B1816323412389S05909009WA0096401017015000000000
B1816363412339S05908919WA0095701009015000000000
B1816403412289S05908819WA0097801015015000000000
B1816443412259S05908719WA0099801042015000000000
B1816483412219S05908650WA0101501063015000000000
B1816523412158S05908629WA0100701068015000000000
B1816563412119S05908659WA0100701063015000000000
B1817003412129S05908709WA0101501068015000000000
B1817043412178S05908730WA0102101075015000000000
B1817083412219S05908679WA0102101081015000000000
B1817123412249S05908599WA0103601087015000000000
B1817163412249S05908520WA0104301099015000000000
B1817203412209S05908449WA0104301102015000000000
B1817243412138S05908440WA0103601098015000000000
B1817283412108S05908480WA0104301098015000000000
B1817323412119S05908529WA0104301097015000000000
B1817363412169S05908529WA0104301100015000000000
B1817403412219S05908489WA0104301100015000000000
B1817443412259S05908419WA0104301106015000000000
B1817483412268S05908339WA0105101108015000000000
B1817523412238S05908259WA0104301104015000000000
B1817563412188S05908180WA0102101090015000000000
B1818003412129S05908098WA0101501075015000000000
B1818043412058S05908029WA0099801059015000000000
B1818083411978S05907968WA0098501045015000000000
B1818123411888S05907929WA0097801034015000000000
B1818163411798S05907899WA0097801030015000000000
B1818203411708S05907869WA0098501032015000000000
B1818243411619S05907840WA0099801045015000000000
B1818283411538S05907809WA0102101063015000000000
B1818323411468S05907789WA0103601082015000000000
B1818363411408S05907809WA0104301100015000000000
B1818403411378S05907859WA0105901109015000000000
B1818443411399S05907909WA0106501116015000000000
B1818483411439S05907929WA0106501122015000000000
B1818523411489S05907899WA0108001136015000000000
B1818563411508S05907830WA0108001144015000000000
B1819003411489S05907750WA0108801145015000000000
B1819043411428S05907710WA0109401147015000000000
B1819083411368S05907710WA0109401152015000000000
B1819123411309S05907739WA0111001162015000000000
B1819163411278S05907789WA0111001171015000000000
B1819203411298S05907840WA0111701175015000000000
B1819243411338S05907849WA0112401182015000000000
B1819283411378S05907809WA0113801196015000000000
B1819323411389S05907719WA0114601200015000000000
B1819363411338S05907659WA0115401207015000000000
B1819403411278S05907639WA0116101217015000000000
B1819443411229S05907679WA0116801226015000000000
B1819483411219S05907739WA0116801231015000000000
B1819523411259S05907769WA0118301239015000000000
B1819563411298S05907739WA0119001250015000000000
B1820003411319S05907668WA0119801258015000000000
B1820043411298S05907589WA0120401264015000000000
B1820083411238S05907559WA0121301271015000000000
B1820123411179S05907580WA0121901275015000000000
B1820163411148S05907639WA0121901280015000000000
B1820203411179S05907689WA0123401286015000000000
B1820243411219S05907679WA0123401297015000000000
B1820283411248S05907620WA0124101304015000000000
B1820323411238S05907538WA0125001309015000000000
B1820363411179S05907499WA0125001314015000000000
B1820403411118S05907499WA0125701317015000000000
B1820443411078S05907559WA0126301321015000000000
B1820483411099S05907609WA0127101329015000000000
B1820523411139S05907620WA0127101340015000000000
B1820563411179S05907569WA0127901343015000000000
B1821003411189S05907490WA0128501349015000000000
B1821043411158S05907419WA0128501354015000000000
B1821083411099S05907349WA0128501347015000000000
B1821123411038S05907289WA0128501350015000000000
B1821163410988S05907219WA0129401354015000000000
B1821203410938S05907150WA0129401362015000000000
B1821243410879S05907089WA0130301360015000000000
B1821283410818S05907020WA0131601366015000000000
B1821323410768S05906949WA0132401383015000000000
B1821363410709S05906899WA0132401386015000000000
B1821403410638S05906850WA0132401386015000000000
B1821443410579S05906809WA0132401391015000000000
B1821483410508S05906779WA0132401391015000000000
B1821523410438S05906760WA0132401389015000000000
B1821563410369S05906760WA0131601388015000000000
B1822003410298S05906760WA0131601383015000000000
B1822043410239S05906789WA0130901380015000000000
B1822083410208S05906839WA0130301373015000000000
B1822123410208S05906909WA0128501359015000000000
B1822163410208S05906980WA0128501350015000000000
B1822203410208S05907049WA0128501344015000000000
B1822243410208S05907119WA0128501345015000000000
B1822283410199S05907199WA0129401351015000000000
B1822323410189S05907259WA0129401358015000000000
B1822363410178S05907329WA0130301361015000000000
B1822403410168S05907399WA0131601373015000000000
B1822443410168S05907450WA0132401388015000000000
B1822483410208S05907469WA0133001397015000000000
B1822523410248S05907429WA0133001398015000000000
B1822563410248S05907349WA0133801404015000000000
B1823003410208S05907299WA0134601412015000000000
B1823043410139S05907280WA0135301419015000000000
B1823083410088S05907320WA0136101424015000000000
B1823123410078S05907369WA0136801430015000000000
B1823163410098S05907419WA0136101432015000000000
B1823203410149S05907419WA0136801437015000000000
B1823243410189S05907359WA0138301446015000000000
B1823283410189S05907289WA0139101453015000000000
B1823323410139S05907239WA0139101461015000000000
B1823363410078S05907229WA0139101459015000000000
B1823403410029S05907259WA0139101458015000000000
B1823443409998S05907320WA0139101457015000000000
B1823483409979S05907389WA0139901461015000000000
B1823523409958S05907450WA0140501469015000000000
B1823563409948S05907509WA0140501474015000000000
B1824003409939S05907569WA0140501475015000000000
B1824043409929S05907629WA0141401477015000000000
B1824083409918S05907689WA0140501474015000000000
B1824123409908S05907759WA0139901469015000000000
B1824163409899S05907830WA0139101464015000000000
B1824203409908S05907889WA0139101460015000000000
B1824243409939S05907949WA0138301452015000000000
B1824283409968S05907999WA0136801444015000000000
B1824323410019S05908050WA0134601424015000000000
B1824363410059S05908109WA0133801413015000000000
B1824403410109S05908169WA0133801405015000000000
B1824443410159S05908228WA0132401395015000000000
B1824483410208S05908289WA0131601386015000000000
B1824523410258S05908359WA0131601380015000000000
B1824563410308S05908419WA0130901375015000000000
B1825003410359S05908480WA0130301372015000000000
B1825043410409S05908549WA0129401366015000000000
B1825083410468S05908610WA0129401360015000000000
B1825123410518S05908669WA0128501350015000000000
B1825163410579S05908740WA0127101339015000000000
B1825203410638S05908799WA0126301328015000000000
B1825243410699S05908870WA0125701319015000000000
B1825283410759S05908929WA0125001314015000000000
B1825323410818S05909000WA0123401300015000000000
B1825363410879S05909059WA0123401296015000000000
B1825403410938S05909128WA0121901286015000000000
B1825443410998S05909199WA0121301279015000000000
B1825483411059S05909258WA0120401272015000000000
B1825523411118S05909319WA0120401263015000000000
B1825563411179S05909389WA0119801258015000000000
B1826003411238S05909449WA0119001254015000000000
B1826043411298S05909510WA0118301248015000000000
B1826083411349S05909569WA0119001248015000000000
B1826123411399S05909640WA0118301249015000000000
B1826163411448S05909699WA0119001246015000000000
B1826203411498S05909770WA0119001248015000000000
B1826243411548S05909829WA0118301248015000000000
B1826283411609S05909889WA0118301241015000000000
B1826323411659S05909949WA0118301242015000000000
B1826363411708S05910009WA0118301243015000000000
B1826403411758S05910070WA0118301240015000000000
B1826443411798S05910129WA0119001244015000000000
B1826483411838S05910189WA0119001252015000000000
B1826523411878S05910259WA0118301246015000000000
B1826563411919S05910319WA0118301238015000000000
B1827003411949S05910389WA0118301244015000000000
B1827043411989S05910460WA0117601237015000000000
B1827083412018S05910529WA0117601232015000000000
B1827123412049S05910599WA0116101226015000000000
B1827163412079S05910679WA0115401208015000000000
B1827203412108S05910769WA0114601204015000000000
B1827243412129S05910848WA0113801200015000000000
B1827283412148S05910930WA0113801197015000000000
B1827323412169S05911019WA0113801196015000000000
B1827363412178S05911100WA0114601204015000000000
B1827403412188S05911179WA0116101215015000000000
B1827443412188S05911259WA0116101217015000000000
B1827483412198S05911329WA0118301226015000000000
B1827523412198S05911400WA0120401249015000000000
B1827563412228S05911449WA0121301272015000000000
B1828003412268S05911419WA0122801284015000000000
B1828043412289S05911339WA0123401286015000000000
B1828083412238S05911270WA0124101301015000000000
B1828123412178S05911270WA0125001313015000000000
B1828163412138S05911320WA0126301322015000000000
B1828203412148S05911379WA0127901335015000000000
B1828243412188S05911379WA0128501346015000000000
B1828283412228S05911329WA0129401353015000000000
B1828323412219S05911249WA0130301364015000000000
B1828363412169S05911199WA0131601374015000000000
B1828403412098S05911209WA0131601385015000000000
B1828443412079S05911259WA0133001388015000000000
B1828483412098S05911309WA0133801401015000000000
B1828523412148S05911309WA0136101416015000000000
B1828563412169S05911249WA0136101427015000000000
B1829003412148S05911169WA0136801434015000000000
B1829043412089S05911129WA0138301444015000000000
B1829083412028S05911159WA0139101455015000000000
B1829123412028S05911219WA0139901462015000000000
B1829163412058S05911249WA0141401476015000000000
B1829203412108S05911219WA0142101485015000000000
B1829243412119S05911140WA0142901496015000000000
B1829283412079S05911069WA0144501508015000000000
B1829323412008S05911069WA0145801519015000000000
B1829363411978S05911119WA0146801526015000000000
B1829403411989S05911179WA0147401538015000000000
B1829443412039S05911190WA0148901553015000000000
B1829483412079S05911140WA0149801564015000000000
B1829523412058S05911060WA0150501575015000000000
B1829563411999S05911009WA0152001584015000000000
B1830003411938S05911039WA0152801590015000000000
B1830043411909S05911100WA0153601603015000000000
B1830083411928S05911149WA0155801621015000000000
B1830123411989S05911140WA0155801632015000000000
B1830163412018S05911069WA0157401638015000000000
B1830203411989S05910989WA0158901654015000000000
B1830243411919S05910959WA0159601668015000000000
B1830283411869S05910989WA0160601672015000000000
B1830323411848S05911049WA0162101683015000000000
B1830363411878S05911100WA0163501700015000000000
B1830403411928S05911089WA0163501706015000000000
B1830443411968S05911029WA0164301713015000000000
B1830483411949S05910949WA0165901725015000000000
B1830523411898S05910890WA0166701738015000000000
B1830563411838S05910899WA0167501748015000000000
B1831003411798S05910959WA0167501753015000000000
B1831043411819S05911029WA0167501748015000000000
B1831083411859S05911100WA0167501744015000000000
B1831123411919S05911149WA0168201750015000000000
B1831163411978S05911169WA0169801766015000000000
B1831203412028S05911190WA0169801778015000000000
B1831243412089S05911219WA0168201766015000000000
B1831283412148S05911259WA0166701748015000000000
B1831323412209S05911299WA0166701738015000000000
B1831363412268S05911360WA0164301726015000000000
B1831403412339S05911409WA0162801709015000000000
B1831443412398S05911479WA0162101695015000000000
B1831483412458S05911539WA0161201687015000000000
B1831523412509S05911620WA0161201684015000000000
B1831563412568S05911689WA0160601676015000000000
B1832003412618S05911769WA0159601667015000000000
B1832043412668S05911849WA0158901661015000000000
B1832083412718S05911920WA0158901657015000000000
B1832123412769S05912000WA0158201650015000000000
B1832163412828S05912069WA0158201646015000000000
B1832203412878S05912149WA0157401641015000000000
B1832243412928S05912220WA0156501638015000000000
B1832283412978S05912300WA0156501633015000000000
B1832323413019S05912369WA0155001628015000000000
B1832363413069S05912449WA0155801621015000000000
B1832403413119S05912529WA0154401614015000000000
B1832443413168S05912599WA0153601610015000000000
B1832483413218S05912679WA0152801600015000000000
B1832523413268S05912749WA0152001593015000000000
B1832563413319S05912820WA0152001587015000000000
B1833003413369S05912889WA0151301583015000000000
B1833043413428S05912959WA0150501575015000000000
B1833083413478S05913030WA0151301574015000000000
B1833123413528S05913099WA0150501572015000000000
B1833163413579S05913168WA0149801568015000000000
B1833203413629S05913239WA0148901565015000000000
B1833243413679S05913309WA0148101556015000000000
B1833283413728S05913389WA0148101549015000000000
B1833323413778S05913460WA0148101547015000000000
B1833363413818S05913529WA0147401545015000000000
B1833403413868S05913599WA0146801540015000000000
B1833443413908S05913669WA0146801537015000000000
B1833483413948S05913749WA0146801533015000000000
B1833523413988S05913819WA0145801531015000000000
B1833563414028S05913899WA0145801527015000000000
B1834003414068S05913980WA0145801525015000000000
B1834043414109S05914049WA0146801528015000000000
B1834083414139S05914119WA0147401537015000000000
B1834123414179S05914179WA0148901548015000000000
B1834163414218S05914240WA0151301570015000000000
B1834203414258S05914280WA0151301590015000000000
B1834243414309S05914319WA0152001584015000000000
B1834283414369S05914360WA0151301587015000000000
B1834323414428S05914399WA0149801576015000000000
B1834363414508S05914429WA0148101555015000000000
B1834403414579S05914459WA0147401545015000000000
B1834443414659S05914498WA0145801534015000000000
B1834483414728S05914529WA0145201523015000000000
B1834523414798S05914559WA0144501517015000000000
B1834563414879S05914589WA0144501512015000000000
B1835003414948S05914620WA0144501508015000000000
B1835043415018S05914659WA0143701502015000000000
B1835083415089S05914689WA0142901494015000000000
B1835123415158S05914719WA0141401487015000000000
B1835163415228S05914758WA0141401476015000000000
B1835203415299S05914789WA0140501474015000000000
B1835243415368S05914819WA0140501473015000000000
B1835283415439S05914849WA0139901468015000000000
B1835323415509S05914869WA0139901463015000000000
B1835363415578S05914899WA0140501468015000000000
B1835403415639S05914919WA0139101467015000000000
B1835443415708S05914949WA0138301456015000000000
B1835483415779S05914970WA0138301454015000000000
B1835523415848S05914999WA0137601450015000000000
B1835563415918S05915029WA0136101433015000000000
B1836003415999S05915050WA0136101425015000000000
B1836043416068S05915069WA0136801427015000000000
B1836083416148S05915089WA0136801431015000000000
B1836123416218S05915109WA0136801431015000000000
B1836163416289S05915140WA0136801429015000000000
B1836203416358S05915180WA0136801433015000000000
B1836243416419S05915219WA0137601439015000000000
B1836283416488S05915270WA0136801434015000000000
B1836323416549S05915319WA0135301422015000000000
B1836363416618S05915379WA0135301418015000000000
B1836403416679S05915429WA0138301432015000000000
B1836443416729S05915469WA0139901456015000000000
B1836483416778S05915499WA0139901475015000000000
B1836523416838S05915539WA0139101467015000000000
B1836563416899S05915589WA0138301455015000000000
B1837003416958S05915639WA0136801442015000000000
B1837043417029S05915689WA0136101433015000000000
B1837083417088S05915749WA0135301418015000000000
B1837123417159S05915799WA0135301415015000000000
B1837163417229S05915839WA0133801415015000000000
B1837203417298S05915889WA0134601408015000000000
B1837243417378S05915929WA0135301413015000000000
B1837283417438S05915969WA0137601428015000000000
B1837323417499S05916000WA0135301428015000000000
B1837363417558S05916049WA0133801412015000000000
B1837403417619S05916109WA0133001393015000000000
B1837443417688S05916159WA0130901379015000000000
B1837483417768S05916199WA0130901366015000000000
B1837523417849S05916229WA0129401359015000000000
B1837563417919S05916260WA0128501351015000000000
B1838003417998S05916289WA0127901344015000000000
B1838043418078S05916329WA0127101336015000000000
B1838083418149S05916359WA0126301327015000000000
B1838123418218S05916389WA0125701319015000000000
B1838163418288S05916419WA0125701318015000000000
B1838203418359S05916459WA0124101307015000000000
B1838243418439S05916489WA0125701307015000000000
B1838283418508S05916509WA0127101323015000000000
B1838323418569S05916549WA0127901337015000000000
B1838363418628S05916589WA0127901341015000000000
B1838403418699S05916640WA0127901337015000000000
B1838443418758S05916679WA0127101335015000000000
B1838483418829S05916739WA0126301326015000000000
B1838523418888S05916789WA0125701323015000000000
B1838563418959S05916839WA0125701321015000000000
B1839003419028S05916900WA0125701317015000000000
B1839043419098S05916959WA0125001309015000000000
B1839083419169S05917009WA0124101308015000000000
B1839123419228S05917070WA0124101300015000000000
B1839163419299S05917129WA0124101296015000000000
B1839203419368S05917179WA0122801293015000000000
B1839243419438S05917240WA0121301278015000000000
B1839283419508S05917290WA0121301268015000000000
B1839323419578S05917349WA0120401265015000000000
B1839363419649S05917399WA0120401263015000000000
B1839403419708S05917449WA0121301265015000000000
B1839443419779S05917509WA0120401267015000000000
B1839483419849S05917559WA0119801262015000000000
B1839523419918S05917609WA0119001254015000000000
B1839563419989S05917670WA0118301245015000000000
B1840003420058S05917720WA0117601234015000000000
B1840043420128S05917779WA0116101225015000000000
B1840083420199S05917829WA0115401215015000000000
B1840123420268S05917890WA0114601209015000000000
B1840163420339S05917949WA0113801198015000000000
B1840203420398S05918009WA0113801194015000000000
B1840243420469S05918060WA0113101190015000000000
B1840283420538S05918109WA0112401178015000000000
B1840323420608S05918159WA0111001170015000000000
B1840363420679S05918219WA0111001165015000000000
B1840403420748S05918270WA0110201159015000000000
B1840443420818S05918320WA0109401153015000000000
B1840483420879S05918369WA0109401150015000000000
B1840523420948S05918419WA0108801147015000000000
B1840563421009S05918469WA0109401145015000000000
B1841003421069S05918519WA0110201152015000000000
B1841043421139S05918559WA0109401152015000000000
B1841083421208S05918609WA0110201147015000000000
B1841123421269S05918660WA0111001157015000000000
B1841163421329S05918700WA0112401173015000000000
B1841203421388S05918739WA0111001171015000000000
B1841243421449S05918790WA0110201159015000000000
B1841283421518S05918839WA0109401153015000000000
B1841323421588S05918889WA0108001143015000000000
B1841363421648S05918949WA0108001134015000000000
B1841403421718S05918999WA0107301126015000000000
B1841443421789S05919050WA0106501125015000000000
B1841483421848S05919099WA0107301125015000000000
B1841523421919S05919149WA0106501124015000000000
B1841563421988S05919199WA0106501114015000000000
B1842003422059S05919249WA0105101109015000000000
B1842043422118S05919300WA0104301103015000000000
B1842083422188S05919350WA0104301098015000000000
B1842123422259S05919389WA0103601095015000000000
B1842163422318S05919438WA0103601089015000000000
B1842203422389S05919489WA0103601085015000000000
B1842243422458S05919539WA0103601084015000000000
B1842283422529S05919589WA0104301089015000000000
B1842323422598S05919639WA0105101098015000000000
B1842363422659S05919690WA0105901103015000000000
B1842403422729S05919740WA0104301105015000000000
B1842443422789S05919799WA0104301095015000000000
B1842483422859S05919849WA0104301090015000000000
B1842523422918S05919910WA0103001086015000000000
B1842563422989S05919959WA0102101073015000000000
B1843003423048S05920019WA0102101066015000000000
B1843043423119S05920080WA0100701061015000000000
B1843083423188S05920139WA0099301049015000000000
B1843123423249S05920199WA0098501038015000000000
B1843163423318S05920259WA0098501032015000000000
B1843203423379S05920309WA0098501036015000000000
B1843243423448S05920359WA0099301040015000000000
B1843283423519S05920409WA0099301042015000000000
B1843323423578S05920459WA0099801047015000000000
B1843363423648S05920510WA0099301047015000000000
B1843403423708S05920569WA0098501041015000000000
B1843443423778S05920619WA0098501037015000000000
B1843483423849S05920680WA0099301036015000000000
B1843523423918S05920728WA0099301042015000000000
B1843563423989S05920779WA0099301041015000000000
B1844003424058S05920839WA0098501042015000000000
B1844043424128S05920890WA0098501035015000000000
B1844083424199S05920949WA0097801028015000000000
B1844123424258S05921009WA0096401021015000000000
B1844163424329S05921079WA0095701007015000000000
B1844203424398S05921139WA0094900998015000000000
B1844243424468S05921200WA0094900995015000000000
B1844283424528S05921259WA0093400986015000000000
B1844323424598S05921319WA0092100973015000000000
B1844363424669S05921379WA0091300961015000000000
B1844403424738S05921429WA0090000948015000000000
B1844443424799S05921489WA0090000942015000000000
B1844483424868S05921549WA0088500937015000000000
B1844523424929S05921609WA0087000927015000000000
B1844563424988S05921670WA0087000921015000000000
B1845003425049S05921719WA0087700917015000000000
B1845043425109S05921758WA0090000934015000000000
B1845083425158S05921800WA0090700954015000000000
B1845123425218S05921849WA0090000953015000000000
B1845163425279S05921899WA0090700951015000000000
B1845203425338S05921959WA0091300958015000000000
B1845243425388S05922019WA0090700962015000000000
B1845283425449S05922069WA0090000951015000000000
B1845323425508S05922140WA0088500937015000000000
B1845363425569S05922199WA0087000922015000000000
B1845403425628S05922259WA0087000916015000000000
B1845443425688S05922329WA0087000916015000000000
B1845483425749S05922389WA0085700908015000000000
B1845523425808S05922449WA0085000897015000000000
B1845563425869S05922509WA0085000892015000000000
B1846003425919S05922570WA0084100890015000000000
B1846043425978S05922629WA0084100884015000000000
B1846083426038S05922700WA0084100891015000000000
B1846123426089S05922759WA0083400886015000000000
B1846163426139S05922830WA0083400883015000000000
B1846203426198S05922899WA0085000885015000000000
B1846243426248S05922960WA0084100889015000000000
B1846283426299S05923029WA0083400884015000000000
B1846323426358S05923090WA0082800875015000000000
B1846363426408S05923159WA0082000869015000000000
B1846403426458S05923220WA0081400865015000000000
B1846443426509S05923289WA0080700855015000000000
B1846483426569S05923348WA0081400852015000000000
B1846523426618S05923409WA0081400853015000000000
B1846563426678S05923470WA0082000860015000000000
B1847003426729S05923529WA0082800867015000000000
B1847043426779S05923589WA0082800872015000000000
B1847083426828S05923648WA0082000875015000000000
B1847123426878S05923709WA0081400863015000000000
