ACAMC0J2
HFDTE211213
HFFXA050
HFPLTPilot:   
HFGYTGliderType:  ASW 20  
HFGIDGliderID: DR 
HFDTM100GPSDatum: WGS-84
HFRFWFIRMWAREVERSION: 6.0   
HFRHWHARDWAREVERSION: 39
HFCIDCompetitionID: DR 
HFSITSite: CAPA2009                        
HFTZNTimezone: 0
HFUNTUnits: km,m,m/s
I033638FXA3941ENL4247REX
LCAMM CAI Utilities 0.0.0
LCAMN000013427199S05927589W000045T       7 Y 41      
LCAMN000023351299S05932589W000033T       9 Y 41      
LCAMN000033358329S05931749W000027T       AE AMANECER 
LCAMN000043416878S05932240W000034T       AE ARECO FUM
LCAMN000053404638S06002749W000033T       AE ARRECIFES
LCAMN000063406958S05904790W000025T       AE ATE      
LCAMN000073347989S05928999W000000T       AE BARADERO 
LCAMN000083507999S06027998W000057T       AE BRAGADO  
LCAMN000093506739S05843558W000032T       AE CANUELAS 
LCAMN000103409939S05943849W000040T       AE CAP SARMI
LCAMN000113424969S05952218W000048T       AE CARMEN   
LCAMN000123413889S05912629W000031T       AE CHENAULT 
LCAMN000133457948S06001949W000045T       AE CHIVILCOY
LCAMN000143355998S06101990W000081T       AE COLON    
LCAMN000153436508S06024569W000068T       AE CUCHA CUC
LCAMN000163403378S06003638W000040T       AE DI PALMA 
LCAMN000173411028S05936150W000039T       AE DUGGAN CE
LCAMN000183409778S05935689W000038T       AE DUGGAN LE
LCAMN000193402239S06004739W000049T       AE FUMIGADOR
LCAMN000203421438S06009299W000063T       AE GAHAM    
LCAMN000213440689S05902200W000027T       AE GRAL RODR
LCAMN000223458999S06101990W000071T       AE GRAL VIAM
LCAMN000233409278S05952510W000045T       AE LA LUISA 
LCAMN000243424709S05926949W000040T       AE LAGUNA   
LCAMN000253438998S06100989W000077T       AE LAGUNA GO
LCAMN000263432338S05935089W000050T       AE LIPTON   
LCAMN000273512879S05907979W000028T       AE LOBOS    
LCAMN000283430498S05902989W000018T       AE LUJAN    
LCAMN000293438398S05927300W000032T       AE MERCEDES 
LCAMN000303501399S05917399W000031T       AE NAVARRO  
LCAMN000313425588S05928848W000049T       AE PEPONE   
LCAMN000323355139S06038849W000075T       AE PERGAMINO
LCAMN000333412899S06040448W000064T       AE ROJAS    
LCAMN000343418338S06017199W000042T       AE SALTO    
LCAMN000353413268S05926529W000033T       AE SAN ANTON
LCAMN000363340999S05943999W000026T       AE SAN PEDRO
LCAMN000373443388S05939458W000040T       AE SUIPACHA 
LCAMN000383339999S06158000W000111T       AE VENADO TU
LCAMN000393454659S05920919W000039T       AE WILLIAMS 
LCAMN000403355579S06023358W000076T       ANCHORENA ES
LCAMN000413355029S06056008W000083T       ARBOLITO EL 
LCAMN000423403768S06006279W000040T       ARRECIFES   
LCAMN000433421978S05922469W000036T       AZCUENAGA ES
LCAMN000443445119S06059719W000079T       BAIGORRITA E
LCAMN000453427688S05931059W000055T       BALANZA     
LCAMN000463322929S06111729W000090T       BIGAND EST  
LCAMN000473423329S05949149W000049T       CARMEN DE AR
LCAMN000483437748S06028239W000071T       CHACABUCO ES
LCAMN000493454588S06000019W000053T       CHIVILCOY ES
LCAMN000503403688S05933979W000035T       COLOMA SANTA
LCAMN000513521020S06044809W000066T       DENNEHY EST 
LCAMN000523412788S05939028W000051T       DUGGAN EST  
LCAMN000533431499S05935659W000051T       ESPORA      
LCAMN000543420109S06005589W000060T       GAHAM       
LCAMN000553442898S05933089W000035T       GARCIA MJ   
LCAMN000563428239S05925419W000050TAL     GILES CENTRO
LCAMN000573449698S05952690W000047T       GOROSTIAGA  
LCAMN000583429758S05948109W000054T       GOUIN       
LCAMN000593425938S05939439W000055T       HEAVY       
LCAMN000603428978S05922589W000046T       HOTEL LA LUN
LCAMN000613414688S06032078W000056T       HUNTER      
LCAMN000623415748S06022869W000052T       INVENCIBLE L
LCAMN000633458548S05931649W000043T       JACINTO SAN 
LCAMN000643408999S06100989W000081T       LA BEBA ESTA
LCAMN000653503119S06021969W000056T       LARREA EST  
LCAMN000663427419S06010808W000063T       LOS ANGELES 
LCAMN000673307498S06136499W000074T       LOS NOGALES 
LCAMN000683407628S05958360W000035T       LUISA LA    
LCAMN000693357239S06017719W000053T       MAGUIRE     
LCAMN000703355689S05944788W000021T       MONETA      
LCAMN000713459748S05916849W000033T       NAVARRO EST 
LCAMN000723436848S06014789W000060T       PATRICIO SAN
LCAMN000733431499S05918119W000039T       PEAJE ESPIL 
LCAMN000743349948S06029999W000079T       PENA DE LA  
LCAMN000753358789S05940199W000027T       PORTELA IRIN
LCAMN000763402018S06030079W000067T       RANCAGUA    
LCAMN000773436598S06004028W000063T       RAWSON      
LCAMN000783411999S06043999W000069T       ROJAS EST   
LCAMN000793524189S05920179W000032T       ROQUE PEREZ 
LCAMN000803417398S06015719W000042T       SALTO ESTACI
LCAMN000813352499S05952289W000050T       SANTA LUCIA 
LCAMN000823345988S05954999W000045T       SANTA LUCIA 
LCAMN000833427908S05959919W000050T       SARGENTOS TR
LCAMN000843410539S05947589W000048T       SARMIENTO CA
LCAMN000853417719S05919209W000039T       SOLIS       
LCAMN000863446378S05941430W000046T       SUIPACHA    
LCAMN000873422259S05957659W000046T       TATAY       
LCAMN000883431499S05941659W000053T       TUYUTI      
LCAMN000893417768S05927529W000032T       VAGUES      
LCAMN000903407218S05925739W000038T       VILLA LIA   
LCAMN000913359559S06013679W000052T       VINA        
LCAMN000923343978S06010499W000055T       VIOLETA LA  
LCAMN000933405819S05902279W000025T       ZARATE EST  
C211213151356211213000103
C3428499S05925280W0000TakeOff     
C3428239S05925420W0056GILES CENTRO
C3351299S05932590W00029 Y 41      
C3355580S06023359W0040ANCHORENA ES
C3413889S05912629W0012AE CHENAULT 
C3428239S05925420W0056GILES CENTRO
C3428128S05925469W0000Landing     
B1534043428499S05925280WA0007600071015000000000
B1534123428499S05925280WA0007600071015000000000
B1534203428499S05925280WA0007000071015000000000
B1534283428489S05925289WA0007000071015000000000
B1534363428489S05925289WA0007000071015000000000
B1534443428489S05925289WA0007600072015000000000
B1534523428489S05925289WA0007600072015000000000
B1535003428489S05925289WA0007000072015000000000
B1535083428489S05925289WA0007600072015000000000
B1535163428489S05925289WA0007000072015000000000
B1535243428489S05925289WA0007600071015000000000
B1535323428489S05925289WA0007600072015000000000
B1535403428489S05925289WA0007600071015000000000
B1535483428489S05925289WA0007600071015000000000
B1535563428489S05925289WA0007600071015000000000
B1536043428478S05925299WA0007000071015000000000
B1536083428459S05925309WA0007000071015000000000
B1536123428418S05925329WA0007600071015000000000
B1536163428378S05925360WA0007600071015000000000
B1536203428329S05925389WA0007600072015000000000
B1536243428258S05925429WA0007600072015000000000
B1536283428199S05925469WA0008400076015000000000
B1536323428128S05925509WA0008400079015000000000
B1536363428048S05925559WA0009700091015000000000
B1536403427979S05925599WA0011700103015000000000
B1536443427918S05925639WA0013800124015000000000
B1536483427849S05925669WA0015000143015000000000
B1536523427778S05925699WA0016300157015000000000
B1536563427708S05925719WA0017800173015000000000
B1537003427639S05925719WA0018300180015000000000
B1537043427568S05925710WA0019100191015000000000
B1537083427499S05925699WA0020300201015000000000
B1537123427419S05925679WA0020300207015000000000
B1537163427348S05925659WA0021000215015000000000
B1537203427278S05925620WA0021800222015000000000
B1537243427218S05925580WA0021800227015000000000
B1537283427148S05925529WA0023200234015000000000
B1537323427079S05925490WA0023200239015000000000
B1537363426999S05925479WA0025000250015000000000
B1537403426928S05925479WA0026600268015000000000
B1537443426859S05925499WA0027200285015000000000
B1537483426788S05925529WA0029300298015000000000
B1537523426718S05925580WA0031300311015000000000
B1537563426658S05925629WA0031300321015000000000
B1538003426599S05925699WA0032600335015000000000
B1538043426548S05925769WA0035300353015000000000
B1538083426498S05925840WA0036700378015000000000
B1538123426448S05925909WA0038700389015000000000
B1538163426398S05925989WA0040300409015000000000
B1538203426368S05926079WA0041600424015000000000
B1538243426349S05926169WA0044300443015000000000
B1538283426358S05926270WA0045100465015000000000
B1538323426389S05926359WA0046300479015000000000
B1538363426439S05926429WA0047800493015000000000
B1538403426509S05926480WA0049100507015000000000
B1538443426588S05926489WA0048600511015000000000
B1538483426678S05926480WA0048600508015000000000
B1538523426748S05926440WA0049100511015000000000
B1538563426819S05926379WA0049700519015000000000
B1539003426869S05926310WA0052600540015000000000
B1539043426909S05926239WA0055400566015000000000
B1539083426949S05926169WA0056700585015000000000
B1539123426978S05926090WA0057500595015000000000
B1539163427008S05926010WA0060200614015000000000
B1539203427018S05925929WA0062300636015000000000
B1539243426999S05925869WA0063000648015000000000
B1539283426949S05925849WA0063700659015000000000
B1539323426899S05925880WA0063700663015000000000
B1539363426878S05925939WA0064300663015000000000
B1539403426878S05926010WA0063700667015000000000
B1539443426918S05926059WA0064300673015000000000
B1539483426978S05926079WA0065200678015000000000
B1539523427029S05926050WA0065700678015000000000
B1539563427058S05925999WA0065700685015000000000
B1540003427058S05925939WA0065200677015000000000
B1540043427048S05925889WA0065200674015000000000
B1540083427008S05925840WA0065700677015000000000
B1540123426958S05925819WA0065700680015000000000
B1540163426909S05925830WA0065700682015000000000
B1540203426859S05925859WA0065700681015000000000
B1540243426819S05925909WA0066600691015000000000
B1540283426808S05925979WA0066600692015000000000
B1540323426819S05926059WA0067900696015000000000
B1540363426838S05926129WA0068600707015000000000
B1540403426888S05926169WA0069400713015000000000
B1540443426949S05926149WA0069400719015000000000
B1540483426968S05926090WA0069400718015000000000
B1540523426958S05926029WA0068600718015000000000
B1540563426909S05925999WA0070000725015000000000
B1541003426859S05926010WA0071500737015000000000
B1541043426819S05926059WA0072100747015000000000
B1541083426808S05926129WA0072100750015000000000
B1541123426838S05926199WA0072900754015000000000
B1541163426888S05926228WA0072100761015000000000
B1541203426949S05926209WA0072900761015000000000
B1541243426968S05926140WA0072100757015000000000
B1541283426949S05926079WA0073500760015000000000
B1541323426909S05926050WA0074100773015000000000
B1541363426859S05926069WA0075000785015000000000
B1541403426828S05926129WA0075700788015000000000
B1541443426848S05926209WA0076400794015000000000
B1541483426888S05926249WA0076400802015000000000
B1541523426949S05926249WA0076400802015000000000
B1541563426978S05926199WA0076400799015000000000
B1542003426978S05926129WA0076400797015000000000
B1542043426938S05926090WA0077900806015000000000
B1542083426888S05926109WA0078600819015000000000
B1542123426859S05926169WA0079300827015000000000
B1542163426859S05926239WA0079900835015000000000
B1542203426909S05926289WA0079900838015000000000
B1542243426958S05926289WA0079300837015000000000
B1542283426999S05926249WA0079900832015000000000
B1542323427008S05926180WA0079300828015000000000
B1542363426968S05926129WA0080700833015000000000
B1542403426918S05926109WA0082000848015000000000
B1542443426869S05926119WA0082800858015000000000
B1542483426828S05926169WA0083400867015000000000
B1542523426819S05926239WA0084100873015000000000
B1542563426838S05926310WA0085000879015000000000
B1543003426878S05926350WA0085000884015000000000
B1543043426938S05926359WA0084100883015000000000
B1543083426978S05926319WA0084100879015000000000
B1543123426999S05926260WA0083400877015000000000
B1543163426989S05926199WA0083400874015000000000
B1543203426958S05926140WA0085700884015000000000
B1543243426918S05926109WA0086200897015000000000
B1543283426859S05926129WA0086200900015000000000
B1543323426828S05926180WA0087700907015000000000
B1543363426828S05926249WA0088500914015000000000
B1543403426859S05926319WA0088500920015000000000
B1543443426909S05926350WA0088500922015000000000
B1543483426968S05926350WA0089100923015000000000
B1543523427008S05926299WA0089100922015000000000
B1543563427029S05926239WA0090000925015000000000
B1544003427018S05926169WA0091300938015000000000
B1544043426978S05926129WA0091300950015000000000
B1544083426918S05926140WA0090700948015000000000
B1544123426878S05926189WA0091300946015000000000
B1544163426869S05926260WA0091300953015000000000
B1544203426888S05926329WA0092100957015000000000
B1544243426938S05926379WA0092800963015000000000
B1544283426989S05926390WA0092100964015000000000
B1544323427048S05926359WA0092100963015000000000
B1544363427079S05926310WA0092100958015000000000
B1544403427119S05926239WA0092100964015000000000
B1544443427148S05926169WA0092800968015000000000
B1544483427178S05926098WA0092800966015000000000
B1544523427199S05926019WA0091300960015000000000
B1544563427228S05925939WA0090700952015000000000
B1545003427249S05925859WA0091300950015000000000
B1545043427258S05925779WA0091300950015000000000
B1545083427278S05925689WA0091300948015000000000
B1545123427299S05925609WA0092100956015000000000
B1545163427318S05925529WA0092800963015000000000
B1545203427348S05925459WA0092800964015000000000
B1545243427388S05925410WA0094200972015000000000
B1545283427419S05925339WA0094900983015000000000
B1545323427419S05925269WA0095700992015000000000
B1545363427379S05925219WA0095701000015000000000
B1545403427318S05925198WA0095701002015000000000
B1545443427258S05925230WA0094200990015000000000
B1545483427199S05925269WA0094200982015000000000
B1545523427148S05925320WA0094200984015000000000
B1545563427098S05925360WA0093400983015000000000
B1546003427079S05925419WA0093400977015000000000
B1546043427079S05925499WA0092800971015000000000
B1546083427098S05925569WA0092100967015000000000
B1546123427148S05925629WA0092100962015000000000
B1546163427199S05925669WA0092100961015000000000
B1546203427249S05925710WA0092100960015000000000
B1546243427308S05925750WA0092100959015000000000
B1546283427358S05925769WA0091300958015000000000
B1546323427419S05925799WA0092100957015000000000
B1546363427478S05925830WA0093400964015000000000
B1546403427539S05925840WA0094200979015000000000
B1546443427578S05925799WA0092800977015000000000
B1546483427578S05925729WA0092100961015000000000
B1546523427539S05925669WA0093400966015000000000
B1546563427478S05925639WA0094200978015000000000
B1547003427429S05925639WA0094200985015000000000
B1547043427379S05925679WA0093400979015000000000
B1547083427358S05925750WA0093400973015000000000
B1547123427358S05925819WA0093400972015000000000
B1547163427369S05925889WA0093400973015000000000
B1547203427398S05925960WA0093400973015000000000
B1547243427438S05926019WA0094200980015000000000
B1547283427488S05926050WA0094900992015000000000
B1547323427549S05926039WA0095700998015000000000
B1547363427578S05925979WA0096400999015000000000
B1547403427568S05925909WA0096401002015000000000
B1547443427518S05925880WA0095701005015000000000
B1547483427459S05925909WA0095701000015000000000
B1547523427429S05925979WA0095701003015000000000
B1547563427438S05926050WA0097101010015000000000
B1548003427488S05926109WA0098501019015000000000
B1548043427549S05926129WA0098501026015000000000
B1548083427599S05926090WA0098501030015000000000
B1548123427618S05926029WA0098501029015000000000
B1548163427608S05925968WA0099301032015000000000
B1548203427568S05925929WA0098501037015000000000
B1548243427509S05925939WA0097801025015000000000
B1548283427448S05925968WA0097801017015000000000
B1548323427409S05926029WA0098501021015000000000
B1548363427369S05926090WA0098501028015000000000
B1548403427339S05926169WA0099301031015000000000
B1548443427308S05926239WA0098501032015000000000
B1548483427278S05926319WA0097801027015000000000
B1548523427249S05926399WA0097801019015000000000
B1548563427228S05926480WA0097801014015000000000
B1549003427199S05926559WA0097801016015000000000
B1549043427159S05926639WA0098501018015000000000
B1549083427108S05926700WA0099301027015000000000
B1549123427088S05926769WA0099801039015000000000
B1549163427088S05926839WA0099301035015000000000
B1549203427079S05926919WA0098501029015000000000
B1549243427048S05926979WA0097801023015000000000
B1549283426989S05927029WA0097101015015000000000
B1549323426928S05927059WA0096401006015000000000
B1549363426869S05927080WA0095700999015000000000
B1549403426798S05927089WA0096400996015000000000
B1549443426718S05927089WA0097101006015000000000
B1549483426658S05927099WA0099301024015000000000
B1549523426618S05927149WA0100701043015000000000
B1549563426628S05927229WA0101501051015000000000
B1550003426678S05927269WA0101501057015000000000
B1550043426739S05927269WA0103001066015000000000
B1550083426779S05927219WA0104301078015000000000
B1550123426779S05927149WA0103601083015000000000
B1550163426748S05927099WA0105901091015000000000
B1550203426689S05927089WA0105901104015000000000
B1550243426639S05927128WA0106501108015000000000
B1550283426618S05927199WA0107301118015000000000
B1550323426649S05927269WA0108001128015000000000
B1550363426699S05927300WA0108801134015000000000
B1550403426758S05927290WA0108801141015000000000
B1550443426798S05927239WA0110201150015000000000
B1550483426798S05927170WA0110201156015000000000
B1550523426769S05927109WA0111701166015000000000
B1550563426718S05927089WA0113801183015000000000
B1551003426668S05927099WA0115401196015000000000
B1551043426628S05927159WA0115401202015000000000
B1551083426639S05927229WA0116101201015000000000
B1551123426678S05927290WA0116101209015000000000
B1551163426748S05927300WA0116801214015000000000
B1551203426798S05927258WA0117601220015000000000
B1551243426828S05927199WA0118301226015000000000
B1551283426819S05927128WA0119001239015000000000
B1551323426788S05927080WA0120401254015000000000
B1551363426729S05927059WA0121901266015000000000
B1551403426678S05927089WA0123401279015000000000
B1551443426658S05927149WA0122801288015000000000
B1551483426668S05927219WA0122801291015000000000
B1551523426718S05927258WA0122801289015000000000
B1551563426779S05927258WA0123401292015000000000
B1552003426828S05927210WA0125701304015000000000
B1552043426828S05927149WA0126301318015000000000
B1552083426808S05927080WA0127901330015000000000
B1552123426769S05927049WA0128501341015000000000
B1552163426708S05927049WA0129401350015000000000
B1552203426658S05927080WA0131601361015000000000
B1552243426639S05927149WA0131601372015000000000
B1552283426668S05927210WA0130901374015000000000
B1552323426718S05927239WA0130901370015000000000
B1552363426769S05927210WA0130901369015000000000
B1552403426798S05927149WA0132401380015000000000
B1552443426788S05927080WA0133001393015000000000
B1552483426758S05927029WA0133801403015000000000
B1552523426699S05927009WA0135301413015000000000
B1552563426649S05927029WA0136101422015000000000
B1553003426609S05927089WA0136801428015000000000
B1553043426609S05927159WA0137601437015000000000
B1553083426639S05927210WA0137601438015000000000
B1553123426699S05927219WA0137601435015000000000
B1553163426748S05927170WA0138301435015000000000
B1553203426758S05927109WA0139101446015000000000
B1553243426748S05927049WA0140501462015000000000
B1553283426699S05927009WA0141401470015000000000
B1553323426639S05927009WA0142101475015000000000
B1553363426588S05927059WA0142901485015000000000
B1553403426588S05927128WA0142901491015000000000
B1553443426618S05927179WA0142901496015000000000
B1553483426668S05927189WA0142901494015000000000
B1553523426718S05927159WA0142901492015000000000
B1553563426748S05927089WA0144501497015000000000
B1554003426748S05927029WA0145201510015000000000
B1554043426708S05926979WA0145201520015000000000
B1554083426649S05926969WA0145201518015000000000
B1554123426599S05927009WA0145201516015000000000
B1554163426578S05927069WA0145801523015000000000
B1554203426609S05927128WA0145801528015000000000
B1554243426658S05927159WA0146801532015000000000
B1554283426718S05927149WA0147401537015000000000
B1554323426748S05927089WA0148901546015000000000
B1554363426739S05927029WA0150501557015000000000
B1554403426699S05927000WA0150501563015000000000
B1554443426639S05927009WA0149801560015000000000
B1554483426609S05927069WA0150501563015000000000
B1554523426618S05927139WA0151301573015000000000
B1554563426668S05927170WA0150501573015000000000
B1555003426718S05927179WA0151301576015000000000
B1555043426769S05927139WA0152001584015000000000
B1555083426769S05927069WA0153601593015000000000
B1555123426729S05927019WA0153601601015000000000
B1555163426668S05927029WA0153601602015000000000
B1555203426628S05927069WA0153601602015000000000
B1555243426609S05927139WA0154401607015000000000
B1555283426639S05927199WA0154401611015000000000
B1555323426689S05927229WA0154401613015000000000
B1555363426739S05927210WA0155001613015000000000
B1555403426769S05927159WA0155001619015000000000
B1555443426739S05927099WA0155001625015000000000
B1555483426678S05927089WA0155001623015000000000
B1555523426628S05927128WA0155801622015000000000
B1555563426618S05927199WA0155801627015000000000
B1556003426649S05927258WA0155801630015000000000
B1556043426708S05927279WA0155801625015000000000
B1556083426769S05927249WA0155801628015000000000
B1556123426798S05927199WA0156501632015000000000
B1556163426819S05927139WA0157401637015000000000
B1556203426848S05927069WA0159601654015000000000
B1556243426869S05927009WA0160601672015000000000
B1556283426878S05926939WA0160601678015000000000
B1556323426878S05926859WA0161201681015000000000
B1556363426848S05926789WA0161201680015000000000
B1556403426819S05926729WA0160601680015000000000
B1556443426779S05926669WA0159601676015000000000
B1556483426729S05926619WA0159601666015000000000
B1556523426668S05926589WA0158901659015000000000
B1556563426609S05926559WA0158201658015000000000
B1557003426548S05926529WA0158901655015000000000
B1557043426488S05926499WA0158201651015000000000
B1557083426429S05926469WA0158201649015000000000
B1557123426368S05926459WA0157401647015000000000
B1557163426309S05926459WA0156501643015000000000
B1557203426248S05926480WA0155001632015000000000
B1557243426179S05926489WA0155001622015000000000
B1557283426118S05926509WA0154401614015000000000
B1557323426049S05926520WA0153601607015000000000
B1557363425978S05926529WA0153601597015000000000
B1557403425919S05926539WA0153601598015000000000
B1557443425858S05926549WA0153601604015000000000
B1557483425789S05926559WA0155001608015000000000
B1557523425728S05926570WA0155001618015000000000
B1557563425668S05926570WA0155001618015000000000
B1558003425598S05926579WA0155001616015000000000
B1558043425539S05926579WA0154401613015000000000
B1558083425479S05926559WA0155001615015000000000
B1558123425428S05926539WA0155801624015000000000
B1558163425368S05926509WA0156501626015000000000
B1558203425309S05926480WA0157401634015000000000
B1558243425258S05926489WA0156501640015000000000
B1558283425208S05926549WA0155001627015000000000
B1558323425208S05926619WA0154401621015000000000
B1558363425248S05926689WA0153601607015000000000
B1558403425319S05926709WA0153601601015000000000
B1558443425378S05926689WA0153601599015000000000
B1558483425439S05926639WA0152801597015000000000
B1558523425498S05926599WA0153601597015000000000
B1558563425558S05926549WA0154401600015000000000
B1559003425619S05926520WA0155001612015000000000
B1559043425668S05926469WA0157401632015000000000
B1559083425688S05926399WA0158201646015000000000
B1559123425668S05926339WA0158201655015000000000
B1559163425619S05926299WA0158201652015000000000
B1559203425569S05926310WA0158201653015000000000
B1559243425529S05926369WA0158901659015000000000
B1559283425529S05926440WA0159601659015000000000
B1559323425558S05926499WA0159601664015000000000
B1559363425609S05926539WA0160601669015000000000
B1559403425668S05926539WA0162101684015000000000
B1559443425709S05926489WA0162801692015000000000
B1559483425699S05926429WA0162801693015000000000
B1559523425668S05926390WA0162801696015000000000
B1559563425609S05926390WA0162801696015000000000
B1600003425558S05926419WA0163501703015000000000
B1600043425539S05926480WA0163501709015000000000
B1600083425558S05926549WA0163501702015000000000
B1600123425609S05926599WA0163501706015000000000
B1600163425668S05926619WA0164301714015000000000
B1600203425739S05926629WA0164301715015000000000
B1600243425808S05926639WA0163501710015000000000
B1600283425888S05926639WA0164301704015000000000
B1600323425959S05926650WA0165201715015000000000
B1600363426028S05926669WA0165201725015000000000
B1600403426089S05926689WA0163501715015000000000
B1600443426169S05926700WA0162801703015000000000
B1600483426238S05926719WA0162101694015000000000
B1600523426309S05926749WA0161201687015000000000
B1600563426379S05926799WA0162101684015000000000
B1601003426448S05926839WA0161201681015000000000
B1601043426509S05926899WA0159601677015000000000
B1601083426569S05926959WA0159601668015000000000
B1601123426628S05927019WA0159601665015000000000
B1601163426689S05927080WA0158901659015000000000
B1601203426739S05927149WA0158901656015000000000
B1601243426798S05927210WA0159601664015000000000
B1601283426869S05927239WA0159601666015000000000
B1601303426909S05927249WA0159601666015000000000
B1601323426949S05927249WA0159601667015000000000
B1601343426989S05927239WA0159601665015000000000
B1601363427018S05927229WA0160601665015000000000
B1601383427058S05927219WA0160601667015000000000
B1601403427098S05927199WA0160601669015000000000
B1601423427128S05927189WA0161201672015000000000
B1601443427169S05927179WA0161201676015000000000
B1601463427209S05927159WA0161201679015000000000
B1601483427238S05927149WA0161201682015000000000
B1601503427278S05927139WA0162101683015000000000
B1601523427318S05927128WA0161201684015000000000
B1601543427348S05927119WA0161201681015000000000
B1601583427429S05927099WA0161201675015000000000
B1602023427509S05927099WA0161201681015000000000
B1602063427589S05927109WA0162101690015000000000
B1602103427669S05927128WA0162101689015000000000
B1602143427759S05927159WA0162101691015000000000
B1602183427838S05927179WA0162101685015000000000
B1602223427918S05927199WA0162101682015000000000
B1602263427998S05927219WA0162101684015000000000
B1602303428069S05927229WA0162101684015000000000
B1602343428149S05927239WA0160601674015000000000
B1602383428229S05927229WA0161201669015000000000
B1602423428298S05927199WA0160601673015000000000
B1602463428369S05927189WA0161201673015000000000
B1602503428449S05927189WA0161201677015000000000
B1602543428518S05927199WA0161201678015000000000
B1602583428598S05927210WA0162101680015000000000
B1603023428669S05927219WA0162101684015000000000
B1603063428749S05927239WA0162101684015000000000
B1603103428818S05927239WA0162101685015000000000
B1603143428889S05927210WA0162101683015000000000
B1603183428948S05927170WA0162101685015000000000
B1603223428998S05927109WA0162101689015000000000
B1603263429049S05927049WA0162101687015000000000
B1603303429089S05926989WA0162101684015000000000
B1603343429139S05926929WA0162101687015000000000
B1603383429168S05926870WA0162101689015000000000
B1603423429208S05926799WA0161201681015000000000
B1603463429238S05926729WA0160601675015000000000
B1603503429269S05926669WA0159601669015000000000
B1603543429298S05926599WA0159601666015000000000
B1603583429309S05926520WA0158901663015000000000
B1604023429328S05926440WA0158901658015000000000
B1604063429328S05926359WA0158901654015000000000
B1604103429298S05926289WA0158201653015000000000
B1604143429238S05926270WA0158201649015000000000
B1604183429168S05926279WA0157401641015000000000
B1604223429108S05926329WA0156501636015000000000
B1604263429038S05926359WA0156501628015000000000
B1604303428959S05926390WA0155801625015000000000
B1604343428889S05926409WA0155801626015000000000
B1604383428818S05926429WA0155801624015000000000
B1604423428749S05926449WA0155001617015000000000
B1604463428678S05926499WA0154401613015000000000
B1604503428608S05926559WA0155001612015000000000
B1604543428548S05926610WA0155001613015000000000
B1604583428489S05926659WA0155001617015000000000
B1605023428428S05926709WA0155001616015000000000
B1605063428359S05926749WA0154401607015000000000
B1605103428288S05926799WA0153601603015000000000
B1605143428208S05926839WA0153601599015000000000
B1605183428128S05926870WA0152001585015000000000
B1605223428048S05926910WA0151301576015000000000
B1605263427958S05926949WA0150501565015000000000
B1605303427878S05926989WA0148901554015000000000
B1605343427788S05927040WA0148101539015000000000
B1605383427708S05927099WA0147401533015000000000
B1605423427629S05927149WA0147401528015000000000
B1605463427539S05927210WA0148101532015000000000
B1605483427499S05927229WA0148101537015000000000
B1605503427459S05927249WA0148901545015000000000
B1605523427419S05927269WA0149801551015000000000
B1605543427379S05927290WA0149801555015000000000
B1605563427329S05927290WA0149801556015000000000
B1605583427289S05927300WA0150501558015000000000
B1606003427249S05927300WA0150501559015000000000
B1606023427199S05927300WA0149801561015000000000
B1606043427159S05927300WA0149801560015000000000
B1606063427108S05927290WA0149801556015000000000
B1606083427068S05927290WA0148901551015000000000
B1606103427018S05927279WA0148901548015000000000
B1606123426978S05927269WA0148901550015000000000
B1606143426928S05927258WA0149801552015000000000
B1606163426878S05927249WA0149801555015000000000
B1606203426788S05927229WA0149801559015000000000
B1606243426689S05927219WA0148901550015000000000
B1606283426599S05927199WA0147401543015000000000
B1606323426509S05927179WA0147401535015000000000
B1606363426418S05927149WA0147401533015000000000
B1606403426328S05927119WA0146801530015000000000
B1606443426238S05927080WA0145801520015000000000
B1606483426148S05927029WA0145801513015000000000
B1606523426058S05926989WA0145801514015000000000
B1606563425988S05926939WA0145801515015000000000
B1607003425898S05926889WA0145801515015000000000
B1607043425808S05926870WA0145801512015000000000
B1607083425728S05926870WA0145801517015000000000
B1607123425638S05926879WA0145201519015000000000
B1607163425548S05926879WA0146801514015000000000
B1607203425468S05926889WA0148101531015000000000
B1607243425388S05926889WA0146801532015000000000
B1607283425298S05926899WA0145201513015000000000
B1607323425208S05926899WA0144501500015000000000
B1607363425109S05926899WA0143701495015000000000
B1607403425009S05926899WA0142901486015000000000
B1607443424919S05926910WA0142101476015000000000
B1607483424818S05926919WA0142101476015000000000
B1607523424719S05926919WA0141401474015000000000
B1607563424629S05926929WA0141401468015000000000
B1608003424528S05926939WA0140501463015000000000
B1608043424438S05926949WA0140501458015000000000
B1608083424348S05926959WA0141401464015000000000
B1608123424268S05926969WA0142101474015000000000
B1608163424188S05926959WA0140501474015000000000
B1608203424098S05926949WA0139901458015000000000
B1608243424008S05926939WA0138301443015000000000
B1608283423918S05926929WA0138301434015000000000
B1608323423828S05926910WA0137601428015000000000
B1608363423738S05926899WA0135301417015000000000
B1608403423639S05926879WA0133801399015000000000
B1608443423538S05926859WA0133001387015000000000
B1608483423438S05926839WA0133001383015000000000
B1608523423348S05926819WA0133001382015000000000
B1608563423249S05926799WA0132401376015000000000
B1609003423158S05926780WA0130901365015000000000
B1609043423069S05926759WA0130301355015000000000
B1609083422978S05926740WA0129401349015000000000
B1609123422888S05926719WA0128501342015000000000
B1609163422798S05926700WA0128501336015000000000
B1609203422718S05926669WA0128501333015000000000
B1609243422638S05926650WA0129401340015000000000
B1609283422559S05926629WA0131601353015000000000
B1609323422479S05926619WA0132401369015000000000
B1609363422418S05926619WA0133801389015000000000
B1609403422349S05926610WA0133801397015000000000
B1609443422278S05926610WA0133001397015000000000
B1609483422219S05926610WA0132401387015000000000
B1609523422139S05926629WA0130301367015000000000
B1609563422059S05926650WA0128501347015000000000
B1610003421969S05926669WA0127901336015000000000
B1610043421888S05926689WA0127901331015000000000
B1610083421799S05926719WA0127101320015000000000
B1610123421709S05926749WA0125701310015000000000
B1610163421619S05926780WA0125701303015000000000
B1610203421529S05926809WA0124101294015000000000
B1610243421438S05926839WA0123401284015000000000
B1610283421359S05926870WA0122801273015000000000
B1610323421269S05926899WA0121301265015000000000
B1610363421178S05926929WA0120401254015000000000
B1610403421088S05926949WA0119801245015000000000
B1610443420988S05926969WA0116101226015000000000
B1610483420899S05927000WA0116801211015000000000
B1610523420799S05927029WA0116801208015000000000
B1610563420708S05927049WA0116101203015000000000
B1611003420618S05927080WA0114601194015000000000
B1611043420518S05927089WA0114601187015000000000
B1611083420428S05927109WA0115401185015000000000
B1611123420339S05927128WA0116101199015000000000
B1611163420249S05927139WA0116101204015000000000
B1611203420159S05927159WA0115401202015000000000
B1611243420069S05927170WA0114601193015000000000
B1611283419979S05927179WA0113801187015000000000
B1611323419878S05927189WA0113101176015000000000
B1611363419788S05927199WA0112401165015000000000
B1611403419698S05927210WA0112401163015000000000
B1611443419609S05927210WA0111701158015000000000
B1611483419519S05927219WA0111001152015000000000
B1611523419429S05927219WA0110201147015000000000
B1611563419339S05927219WA0110201140015000000000
B1612003419259S05927219WA0109401135015000000000
B1612043419169S05927229WA0108001128015000000000
B1612083419079S05927229WA0108001119015000000000
B1612123418988S05927239WA0108001115015000000000
B1612163418909S05927239WA0108001114015000000000
B1612203418829S05927249WA0108001117015000000000
B1612243418749S05927249WA0109401130015000000000
B1612283418668S05927249WA0111001144015000000000
B1612323418598S05927249WA0110201147015000000000
B1612363418519S05927239WA0109401142015000000000
B1612403418449S05927229WA0108801133015000000000
B1612443418368S05927219WA0108001122015000000000
B1612483418288S05927199WA0108001119015000000000
B1612523418208S05927189WA0108801119015000000000
B1612563418128S05927170WA0108801123015000000000
B1613003418059S05927149WA0110201131015000000000
B1613043417988S05927128WA0111001145015000000000
B1613083417919S05927099WA0111701150015000000000
B1613123417849S05927080WA0111701159015000000000
B1613163417789S05927049WA0113801172015000000000
B1613203417719S05927029WA0114601183015000000000
B1613243417658S05927000WA0114601188015000000000
B1613283417598S05926969WA0113801183015000000000
B1613323417528S05926939WA0113101179015000000000
B1613363417449S05926910WA0112401172015000000000
B1613403417378S05926889WA0112401163015000000000
B1613443417308S05926849WA0111701161015000000000
B1613483417239S05926809WA0111701160015000000000
B1613523417178S05926759WA0111701158015000000000
B1613563417109S05926719WA0113101161015000000000
B1614003417048S05926679WA0113801174015000000000
B1614043416998S05926650WA0114601187015000000000
B1614083416939S05926619WA0114601194015000000000
B1614123416878S05926589WA0113801190015000000000
B1614163416809S05926559WA0113801182015000000000
B1614203416738S05926539WA0113801184015000000000
B1614243416669S05926509WA0113101180015000000000
B1614283416589S05926480WA0113101172015000000000
B1614323416518S05926449WA0111701164015000000000
B1614363416438S05926419WA0111001156015000000000
B1614403416358S05926390WA0111001151015000000000
B1614443416278S05926359WA0110201147015000000000
B1614483416188S05926329WA0109401140015000000000
B1614523416108S05926299WA0109401136015000000000
B1614563416039S05926270WA0108801130015000000000
B1615003415958S05926228WA0108801126015000000000
B1615043415878S05926180WA0108001123015000000000
B1615083415808S05926140WA0108801122015000000000
B1615123415739S05926098WA0108001124015000000000
B1615163415668S05926059WA0107301121015000000000
B1615203415598S05926019WA0107301112015000000000
B1615243415519S05925979WA0106501105015000000000
B1615283415448S05925949WA0107301104015000000000
B1615323415389S05925909WA0108001111015000000000
B1615363415328S05925869WA0108801122015000000000
B1615403415269S05925830WA0109401129015000000000
B1615443415208S05925799WA0109401135015000000000
B1615483415148S05925769WA0110201140015000000000
B1615523415089S05925739WA0111701148015000000000
B1615563415028S05925719WA0113801166015000000000
B1616003414978S05925759WA0116101187015000000000
B1616043414969S05925830WA0116801204015000000000
B1616083415009S05925880WA0118301221015000000000
B1616123415058S05925880WA0118301229015000000000
B1616163415089S05925809WA0119001232015000000000
B1616203415068S05925739WA0121301244015000000000
B1616243415028S05925699WA0121901264015000000000
B1616283414969S05925710WA0123401274015000000000
B1616323414928S05925759WA0125701298015000000000
B1616363414928S05925830WA0127101322015000000000
B1616403414978S05925880WA0128501331015000000000
B1616443415028S05925859WA0129401341015000000000
B1616483415049S05925799WA0130301351015000000000
B1616523415018S05925750WA0131601366015000000000
B1616563414969S05925729WA0132401372015000000000
B1617003414908S05925750WA0133801389015000000000
B1617043414869S05925809WA0136101405015000000000
B1617083414879S05925880WA0136801416015000000000
B1617123414928S05925919WA0136801423015000000000
B1617163414978S05925909WA0137601431015000000000
B1617203414999S05925849WA0139101444015000000000
B1617243414978S05925789WA0142101463015000000000
B1617283414919S05925769WA0142901484015000000000
B1617323414869S05925809WA0145201501015000000000
B1617363414848S05925869WA0145801513015000000000
B1617403414879S05925939WA0145801520015000000000
B1617443414938S05925960WA0146801521015000000000
B1617483414978S05925919WA0148101532015000000000
B1617523414988S05925859WA0149801554015000000000
B1617563414959S05925799WA0151301572015000000000
B1618003414898S05925789WA0152801579015000000000
B1618043414848S05925830WA0153601595015000000000
B1618083414829S05925899WA0155001610015000000000
B1618123414869S05925960WA0155001613015000000000
B1618163414928S05925968WA0155001612015000000000
B1618203414969S05925929WA0156501625015000000000
B1618243414988S05925869WA0158901646015000000000
B1618283414959S05925809WA0160601662015000000000
B1618323414888S05925789WA0160601669015000000000
B1618363414829S05925819WA0161201679015000000000
B1618403414808S05925880WA0162801692015000000000
B1618443414818S05925949WA0162801698015000000000
B1618483414869S05925989WA0162801692015000000000
B1618523414928S05925989WA0164301698015000000000
B1618563414969S05925949WA0165201713015000000000
B1619003414999S05925889WA0166701724015000000000
B1619043414988S05925830WA0167501736015000000000
B1619083414938S05925789WA0168201743015000000000
B1619123414879S05925769WA0168201749015000000000
B1619163414808S05925779WA0168201751015000000000
B1619203414749S05925809WA0168201750015000000000
B1619243414678S05925840WA0166701743015000000000
B1619283414619S05925889WA0165901729015000000000
B1619323414558S05925949WA0164301713015000000000
B1619363414489S05926010WA0162801701015000000000
B1619403414418S05926069WA0162801694015000000000
B1619443414349S05926119WA0162801690015000000000
B1619483414269S05926180WA0162101684015000000000
B1619523414198S05926239WA0161201677015000000000
B1619563414139S05926299WA0160601668015000000000
B1620003414068S05926369WA0159601657015000000000
B1620043413998S05926440WA0158201649015000000000
B1620083413929S05926509WA0158201643015000000000
B1620123413858S05926570WA0158201640015000000000
B1620163413778S05926610WA0157401638015000000000
B1620203413688S05926650WA0155801628015000000000
B1620243413608S05926689WA0155001616015000000000
B1620283413518S05926719WA0154401608015000000000
B1620323413428S05926759WA0155001604015000000000
B1620363413338S05926789WA0154401605015000000000
B1620403413258S05926819WA0155801612015000000000
B1620443413178S05926849WA0158201630015000000000
B1620483413098S05926879WA0159601651015000000000
B1620523413029S05926899WA0159601657015000000000
B1620563412958S05926939WA0158201648015000000000
B1621003412878S05926979WA0156501636015000000000
B1621043412798S05927029WA0155001618015000000000
B1621083412718S05927089WA0155001608015000000000
B1621123412639S05927149WA0154401602015000000000
B1621163412559S05927210WA0153601593015000000000
B1621203412479S05927269WA0152001582015000000000
B1621243412398S05927329WA0152001575015000000000
B1621283412318S05927399WA0151301572015000000000
B1621323412238S05927459WA0150501567015000000000
B1621363412158S05927519WA0152001571015000000000
B1621403412079S05927579WA0154401590015000000000
B1621443412008S05927619WA0157401620015000000000
B1621483411938S05927640WA0158201645015000000000
B1621523411878S05927649WA0157401648015000000000
B1621563411798S05927669WA0155001623015000000000
B1622003411708S05927688WA0152001599015000000000
B1622043411619S05927699WA0151301576015000000000
B1622083411519S05927719WA0150501562015000000000
B1622123411428S05927739WA0148901550015000000000
B1622163411328S05927759WA0148101539015000000000
B1622203411229S05927789WA0146801529015000000000
B1622243411128S05927810WA0146801523015000000000
B1622283411038S05927839WA0145801517015000000000
B1622323410938S05927869WA0145201509015000000000
B1622363410839S05927900WA0144501503015000000000
B1622403410749S05927929WA0144501499015000000000
B1622443410648S05927959WA0144501495015000000000
B1622483410548S05927989WA0142901491015000000000
B1622523410459S05928019WA0142901483015000000000
B1622563410359S05928059WA0142101475015000000000
B1623003410269S05928099WA0142101473015000000000
B1623043410178S05928129WA0143701484015000000000
B1623083410088S05928149WA0145201504015000000000
B1623123410009S05928169WA0145201510015000000000
B1623163409929S05928179WA0146801514015000000000
B1623203409858S05928169WA0148901533015000000000
B1623243409788S05928169WA0150501559015000000000
B1623283409729S05928160WA0151301571015000000000
B1623323409658S05928169WA0151301574015000000000
B1623363409589S05928200WA0149801566015000000000
B1623403409509S05928240WA0148901554015000000000
B1623443409428S05928288WA0146801535015000000000
B1623483409339S05928339WA0144501511015000000000
B1623523409249S05928379WA0143701499015000000000
B1623563409169S05928429WA0142101486015000000000
B1624003409079S05928479WA0142101473015000000000
B1624043408989S05928539WA0141401470015000000000
B1624083408909S05928590WA0141401468015000000000
B1624123408819S05928639WA0140501465015000000000
B1624163408739S05928699WA0139901458015000000000
B1624203408658S05928749WA0139101450015000000000
B1624243408578S05928800WA0139101442015000000000
B1624283408488S05928840WA0138301443015000000000
B1624323408408S05928879WA0139101436015000000000
B1624363408318S05928919WA0139101441015000000000
B1624403408238S05928959WA0137601431015000000000
B1624443408148S05928999WA0136801423015000000000
B1624483408058S05929039WA0135301419015000000000
B1624523407978S05929079WA0134601413015000000000
B1624563407888S05929119WA0135301406015000000000
B1625003407798S05929149WA0134601400015000000000
B1625043407709S05929179WA0133001392015000000000
B1625083407619S05929219WA0132401380015000000000
B1625123407529S05929249WA0132401375015000000000
B1625163407449S05929289WA0133001379015000000000
B1625203407368S05929329WA0133001380015000000000
B1625243407288S05929360WA0133001383015000000000
B1625283407218S05929400WA0133001382015000000000
B1625323407149S05929449WA0132401378015000000000
B1625363407088S05929519WA0132401376015000000000
B1625403407049S05929609WA0133001379015000000000
B1625443407009S05929689WA0133801389015000000000
B1625483406969S05929779WA0134601398015000000000
B1625523406929S05929859WA0134601398015000000000
B1625563406879S05929949WA0133801396015000000000
B1626003406839S05930039WA0133001391015000000000
B1626043406778S05930119WA0133801386015000000000
B1626083406698S05930159WA0133001385015000000000
B1626123406619S05930178WA0131601376015000000000
B1626163406528S05930189WA0130901361015000000000
B1626203406438S05930189WA0130301352015000000000
B1626243406348S05930189WA0130301347015000000000
B1626283406258S05930189WA0129401339015000000000
B1626323406168S05930189WA0129401339015000000000
B1626363406088S05930189WA0129401341015000000000
B1626403405998S05930189WA0130301346015000000000
B1626443405918S05930189WA0129401345015000000000
B1626483405828S05930189WA0127901331015000000000
B1626523405748S05930189WA0127101321015000000000
B1626563405658S05930170WA0127101318015000000000
B1627003405568S05930149WA0129401330015000000000
B1627043405488S05930139WA0130301349015000000000
B1627083405419S05930109WA0131601364015000000000
B1627123405339S05930079WA0133001373015000000000
B1627163405268S05930059WA0135301397015000000000
B1627203405199S05930069WA0136101412015000000000
B1627243405129S05930090WA0133001404015000000000
B1627283405048S05930109WA0132401384015000000000
B1627323404968S05930139WA0130901367015000000000
B1627363404878S05930170WA0130301354015000000000
B1627403404789S05930199WA0129401344015000000000
B1627443404699S05930229WA0128501336015000000000
B1627483404609S05930260WA0127901329015000000000
B1627523404519S05930300WA0127101323015000000000
B1627563404429S05930329WA0126301316015000000000
B1628003404338S05930369WA0125001313015000000000
B1628043404259S05930399WA0125701309015000000000
B1628083404169S05930430WA0125001300015000000000
B1628123404078S05930449WA0124101293015000000000
B1628163403988S05930459WA0123401287015000000000
B1628203403888S05930449WA0122801275015000000000
B1628243403799S05930449WA0122801269015000000000
B1628283403709S05930438WA0122801271015000000000
B1628323403629S05930430WA0122801274015000000000
B1628363403539S05930430WA0122801276015000000000
B1628403403458S05930438WA0121901273015000000000
B1628443403369S05930438WA0121901267015000000000
B1628483403279S05930449WA0121901262015000000000
B1628523403199S05930489WA0121901261015000000000
B1628563403118S05930539WA0121901261015000000000
B1629003403059S05930609WA0121301259015000000000
B1629043402988S05930679WA0121301255015000000000
B1629083402918S05930759WA0121901256015000000000
B1629123402858S05930829WA0122801262015000000000
B1629163402788S05930899WA0122801270015000000000
B1629203402728S05930969WA0122801274015000000000
B1629243402658S05931029WA0123401277015000000000
B1629283402589S05931080WA0124101283015000000000
B1629323402518S05931120WA0124101289015000000000
B1629363402438S05931159WA0123401287015000000000
B1629403402348S05931179WA0122801278015000000000
B1629443402258S05931189WA0121301262015000000000
B1629483402159S05931210WA0119801247015000000000
B1629523402058S05931219WA0119001238015000000000
B1629563401968S05931229WA0118301228015000000000
B1630003401868S05931239WA0117601218015000000000
B1630043401769S05931250WA0116801210015000000000
B1630083401668S05931250WA0116101202015000000000
B1630123401578S05931239WA0116101199015000000000
B1630163401488S05931229WA0116101197015000000000
B1630203401408S05931229WA0115401195015000000000
B1630243401328S05931229WA0115401194015000000000
B1630283401238S05931239WA0113801187015000000000
B1630323401158S05931259WA0113101179015000000000
B1630363401068S05931279WA0113101174015000000000
B1630403400978S05931309WA0114601181015000000000
B1630443400898S05931330WA0116801198015000000000
B1630483400818S05931349WA0118301213015000000000
B1630523400749S05931380WA0121301238015000000000
B1630563400718S05931439WA0122801265015000000000
B1631003400728S05931499WA0122801274015000000000
B1631043400779S05931529WA0123401281015000000000
B1631083400829S05931499WA0125001289015000000000
B1631123400848S05931429WA0127101308015000000000
B1631163400829S05931369WA0127901327015000000000
B1631203400768S05931338WA0128501331015000000000
B1631243400708S05931349WA0130301344015000000000
B1631283400678S05931409WA0131601356015000000000
B1631323400678S05931479WA0131601365015000000000
B1631363400718S05931529WA0132401368015000000000
B1631403400768S05931529WA0133801383015000000000
B1631443400808S05931479WA0135301401015000000000
B1631483400818S05931419WA0136801415015000000000
B1631523400779S05931369WA0137601430015000000000
B1631563400718S05931359WA0139101432015000000000
B1632003400678S05931399WA0139101444015000000000
B1632043400678S05931468WA0139901449015000000000
B1632083400718S05931529WA0139901454015000000000
B1632123400768S05931519WA0141401471015000000000
B1632163400808S05931479WA0142901487015000000000
B1632203400818S05931409WA0144501502015000000000
B1632243400779S05931359WA0145201511015000000000
B1632283400718S05931349WA0145801513015000000000
B1632323400668S05931409WA0146801523015000000000
B1632363400678S05931479WA0147401533015000000000
B1632403400718S05931529WA0148101537015000000000
B1632443400779S05931519WA0150501552015000000000
B1632483400808S05931468WA0151301569015000000000
B1632523400789S05931399WA0152001578015000000000
B1632563400739S05931359WA0152801585015000000000
B1633003400678S05931389WA0152001588015000000000
B1633043400649S05931449WA0153601592015000000000
B1633083400659S05931519WA0155001608015000000000
B1633123400708S05931550WA0156501620015000000000
B1633163400768S05931529WA0158201634015000000000
B1633203400789S05931468WA0158901648015000000000
B1633243400768S05931399WA0159601662015000000000
B1633283400708S05931369WA0160601670015000000000
B1633323400649S05931399WA0160601670015000000000
B1633363400628S05931468WA0162101678015000000000
B1633403400649S05931539WA0162801692015000000000
B1633443400699S05931569WA0164301702015000000000
B1633483400749S05931539WA0165201717015000000000
B1633523400768S05931468WA0167501732015000000000
B1633563400758S05931399WA0168201746015000000000
B1634003400708S05931359WA0169001754015000000000
B1634043400649S05931359WA0168201756015000000000
B1634083400598S05931409WA0169001760015000000000
B1634123400598S05931468WA0170601771015000000000
B1634163400638S05931529WA0170601778015000000000
B1634203400688S05931539WA0172101784015000000000
B1634243400739S05931499WA0173001797015000000000
B1634283400758S05931429WA0174501812015000000000
B1634323400749S05931359WA0175301822015000000000
B1634363400699S05931319WA0174501825015000000000
B1634403400628S05931309WA0173701821015000000000
B1634443400558S05931319WA0173001808015000000000
B1634483400479S05931330WA0172101798015000000000
B1634523400389S05931330WA0170601785015000000000
B1634563400298S05931338WA0169801770015000000000
B1635003400198S05931338WA0169001761015000000000
B1635043400108S05931338WA0169801759015000000000
B1635083400009S05931349WA0169001759015000000000
B1635123359908S05931359WA0169801758015000000000
B1635163359819S05931369WA0171401769015000000000
B1635203359729S05931369WA0171401780015000000000
B1635243359639S05931369WA0171401782015000000000
B1635283359549S05931349WA0170601776015000000000
B1635323359459S05931330WA0170601771015000000000
B1635363359369S05931299WA0169801769015000000000
B1635403359279S05931279WA0169001763015000000000
B1635443359189S05931259WA0168201754015000000000
B1635483359089S05931250WA0166701739015000000000
B1635523358999S05931229WA0166701729015000000000
B1635563358899S05931210WA0165901723015000000000
B1636003358809S05931169WA0165901725015000000000
B1636043358729S05931120WA0165201724015000000000
B1636083358649S05931059WA0165201720015000000000
B1636123358569S05931009WA0164301712015000000000
B1636163358479S05930959WA0163501704015000000000
B1636203358399S05930919WA0162801697015000000000
B1636243358299S05930879WA0162101690015000000000
B1636283358209S05930849WA0161201683015000000000
B1636323358108S05930829WA0160601674015000000000
B1636363358009S05930809WA0160601668015000000000
B1636403357909S05930799WA0159601663015000000000
B1636443357808S05930780WA0159601658015000000000
B1636483357709S05930769WA0158901650015000000000
B1636523357619S05930759WA0158201643015000000000
B1636563357519S05930759WA0158201638015000000000
B1637003357418S05930759WA0157401634015000000000
B1637043357319S05930759WA0156501625015000000000
B1637083357229S05930759WA0155801619015000000000
B1637123357129S05930759WA0155001615015000000000
B1637163357038S05930759WA0155001606015000000000
B1637203356939S05930749WA0154401602015000000000
B1637243356849S05930749WA0153601595015000000000
B1637283356759S05930749WA0152001584015000000000
B1637323356659S05930769WA0151301572015000000000
B1637363356569S05930769WA0150501566015000000000
B1637403356478S05930739WA0150501565015000000000
B1637443356399S05930699WA0152001568015000000000
B1637483356329S05930669WA0152001576015000000000
B1637523356249S05930629WA0152801587015000000000
B1637563356169S05930599WA0154401593015000000000
B1638003356088S05930599WA0153601600015000000000
B1638043356008S05930619WA0153601599015000000000
B1638083355929S05930659WA0153601598015000000000
B1638123355849S05930709WA0152801593015000000000
B1638163355769S05930769WA0152001589015000000000
B1638203355679S05930829WA0152001580015000000000
B1638243355599S05930889WA0152001580015000000000
B1638283355519S05930959WA0152001578015000000000
B1638323355439S05931019WA0151301575015000000000
B1638363355358S05931080WA0151301571015000000000
B1638403355279S05931139WA0151301565015000000000
B1638443355199S05931200WA0150501564015000000000
B1638483355119S05931250WA0149801558015000000000
B1638523355039S05931299WA0149801550015000000000
B1638563354959S05931349WA0150501558015000000000
B1639003354879S05931389WA0151301563015000000000
B1639043354789S05931419WA0152001573015000000000
B1639083354710S05931449WA0152801582015000000000
B1639123354619S05931460WA0152001582015000000000
B1639163354529S05931479WA0151301578015000000000
B1639203354439S05931489WA0151301573015000000000
B1639243354349S05931510WA0151301570015000000000
B1639283354259S05931519WA0152801574015000000000
B1639323354179S05931539WA0154401597015000000000
B1639363354108S05931559WA0154401609015000000000
B1639403354028S05931579WA0153601595015000000000
B1639443353949S05931598WA0152801588015000000000
B1639483353859S05931619WA0154401590015000000000
B1639523353779S05931619WA0154401600015000000000
B1639563353699S05931629WA0152801593015000000000
B1640003353609S05931629WA0149801568015000000000
B1640043353519S05931629WA0148901551015000000000
B1640083353420S05931619WA0148101542015000000000
B1640123353329S05931619WA0148101535015000000000
B1640163353239S05931619WA0148101536015000000000
B1640203353149S05931619WA0148901543015000000000
B1640243353059S05931640WA0148901545015000000000
B1640283352969S05931659WA0149801544015000000000
B1640323352889S05931689WA0150501555015000000000
B1640363352799S05931720WA0151301567015000000000
B1640403352719S05931749WA0151301574015000000000
B1640443352639S05931779WA0151301569015000000000
B1640483352549S05931810WA0151301570015000000000
B1640523352459S05931839WA0151301568015000000000
B1640563352369S05931879WA0150501568015000000000
B1641003352289S05931909WA0151301569015000000000
B1641043352209S05931959WA0150501564015000000000
B1641083352119S05932009WA0149801558015000000000
B1641123352048S05932059WA0148901548015000000000
B1641163351968S05932119WA0148101541015000000000
B1641203351889S05932189WA0147401537015000000000
B1641243351819S05932249WA0146801527015000000000
B1641283351739S05932319WA0145801519015000000000
B1641323351669S05932379WA0145801514015000000000
B1641363351599S05932439WA0145801516015000000000
B1641403351519S05932498WA0145801514015000000000
B1641443351448S05932569WA0145201509015000000000
B1641483351379S05932628WA0143701498015000000000
B1641523351299S05932689WA0142901487015000000000
B1641563351229S05932758WA0142101483015000000000
B1642003351169S05932829WA0142901481015000000000
B1642043351109S05932909WA0142101478015000000000
B1642083351039S05932979WA0142101473015000000000
B1642123350989S05933059WA0141401469015000000000
B1642163350928S05933129WA0141401467015000000000
B1642203350869S05933209WA0140501461015000000000
B1642243350809S05933289WA0141401461015000000000
B1642283350749S05933369WA0141401463015000000000
B1642323350699S05933449WA0142901471015000000000
B1642363350628S05933509WA0145201487015000000000
B1642403350569S05933570WA0146801505015000000000
B1642443350508S05933619WA0148101521015000000000
B1642483350479S05933689WA0149801547015000000000
B1642523350500S05933749WA0150501566015000000000
B1642563350559S05933769WA0150501567015000000000
B1643003350619S05933749WA0152001566015000000000
B1643043350659S05933700WA0153601583015000000000
B1643083350679S05933639WA0155001603015000000000
B1643123350679S05933579WA0155801617015000000000
B1643163350639S05933530WA0155801619015000000000
B1643203350569S05933530WA0157401626015000000000
B1643243350529S05933570WA0158201640015000000000
B1643283350529S05933629WA0158201650015000000000
B1643323350579S05933679WA0158901653015000000000
B1643363350639S05933679WA0160601660015000000000
B1643403350689S05933649WA0161201672015000000000
B1643443350718S05933589WA0162101681015000000000
B1643483350718S05933519WA0162801692015000000000
B1643523350669S05933459WA0162801691015000000000
B1643563350599S05933449WA0162801690015000000000
B1644003350519S05933459WA0162801694015000000000
B1644043350449S05933489WA0162101686015000000000
B1644083350370S05933519WA0160601673015000000000
B1644123350289S05933559WA0159601664015000000000
B1644163350209S05933599WA0158901653015000000000
B1644203350118S05933629WA0158901643015000000000
B1644243350039S05933658WA0159601655015000000000
B1644283349969S05933689WA0160601669015000000000
B1644323349889S05933719WA0158901662015000000000
B1644363349799S05933749WA0158201648015000000000
B1644403349719S05933779WA0157401638015000000000
B1644443349629S05933809WA0156501635015000000000
B1644483349539S05933849WA0156501629015000000000
B1644523349449S05933879WA0155801624015000000000
B1644563349369S05933919WA0156501625015000000000
B1645003349279S05933950WA0156501626015000000000
B1645043349210S05933989WA0156501626015000000000
B1645083349139S05934059WA0156501627015000000000
B1645123349109S05934139WA0155001621015000000000
B1645163349128S05934229WA0155001614015000000000
B1645203349159S05934319WA0153601604015000000000
B1645243349199S05934399WA0152801594015000000000
B1645283349239S05934489WA0152001584015000000000
B1645323349279S05934579WA0150501574015000000000
B1645363349309S05934679WA0150501566015000000000
B1645403349340S05934779WA0148901555015000000000
B1645443349369S05934879WA0148101541015000000000
B1645483349389S05934969WA0148101537015000000000
B1645523349409S05935069WA0146801532015000000000
B1645563349428S05935160WA0145201519015000000000
B1646003349459S05935259WA0143701502015000000000
B1646043349489S05935359WA0142101486015000000000
B1646083349509S05935460WA0142901482015000000000
B1646123349509S05935550WA0143701491015000000000
B1646163349519S05935639WA0143701496015000000000
B1646203349539S05935729WA0143701491015000000000
B1646243349558S05935829WA0142901485015000000000
B1646283349579S05935930WA0142101479015000000000
B1646323349609S05936029WA0141401471015000000000
B1646363349639S05936129WA0140501466015000000000
B1646403349679S05936239WA0141401465015000000000
B1646443349709S05936339WA0140501464015000000000
B1646483349739S05936439WA0140501463015000000000
B1646523349770S05936539WA0139901459015000000000
B1646563349799S05936649WA0139101454015000000000
B1647003349829S05936759WA0139101449015000000000
B1647043349858S05936859WA0139101445015000000000
B1647083349879S05936968WA0139101444015000000000
B1647123349909S05937079WA0138301442015000000000
B1647163349939S05937189WA0137601435015000000000
B1647203349969S05937299WA0136801430015000000000
B1647243349999S05937409WA0136101421015000000000
B1647283350028S05937520WA0136101416015000000000
B1647323350059S05937629WA0136101411015000000000
B1647363350079S05937740WA0136101410015000000000
B1647403350099S05937860WA0135301408015000000000
B1647443350118S05937969WA0135301406015000000000
B1647483350139S05938080WA0135301406015000000000
B1647523350139S05938189WA0134601406015000000000
B1647563350149S05938299WA0134601401015000000000
B1648003350158S05938399WA0133801397015000000000
B1648043350179S05938510WA0133801388015000000000
B1648083350189S05938629WA0133801386015000000000
B1648123350189S05938739WA0133801392015000000000
B1648163350198S05938839WA0134601401015000000000
B1648203350209S05938949WA0133001387015000000000
B1648243350209S05939070WA0131601371015000000000
B1648283350209S05939179WA0130901363015000000000
B1648323350209S05939288WA0130301360015000000000
B1648363350209S05939399WA0130901357015000000000
B1648403350229S05939500WA0129401350015000000000
B1648443350259S05939599WA0129401343015000000000
B1648483350299S05939710WA0128501336015000000000
B1648523350339S05939809WA0127101326015000000000
B1648563350378S05939909WA0126301318015000000000
B1649003350419S05940009WA0126301311015000000000
B1649043350458S05940109WA0127101316015000000000
B1649083350500S05940209WA0126301321015000000000
B1649123350539S05940309WA0127101321015000000000
B1649163350569S05940389WA0127901326015000000000
B1649203350609S05940469WA0127101325015000000000
B1649243350649S05940559WA0126301316015000000000
B1649283350679S05940639WA0126301316015000000000
B1649323350689S05940740WA0125701315015000000000
B1649363350679S05940830WA0125001308015000000000
B1649403350649S05940920WA0125001301015000000000
B1649443350628S05941009WA0124101293015000000000
B1649483350599S05941109WA0123401289015000000000
B1649523350559S05941209WA0122801279015000000000
B1649563350529S05941309WA0122801275015000000000
B1650003350479S05941409WA0122801275015000000000
B1650043350439S05941499WA0121301271015000000000
B1650083350389S05941599WA0120401257015000000000
B1650123350339S05941699WA0119801247015000000000
B1650163350289S05941789WA0119801240015000000000
B1650203350229S05941879WA0119001238015000000000
B1650243350169S05941959WA0119801235015000000000
B1650283350110S05942039WA0119001236015000000000
B1650323350059S05942120WA0119801241015000000000
B1650363350019S05942209WA0119801245015000000000
B1650403349999S05942299WA0119801245015000000000
B1650443349969S05942399WA0119801246015000000000
B1650483349939S05942489WA0119801243015000000000
B1650523349909S05942590WA0118301239015000000000
B1650563349858S05942680WA0117601228015000000000
B1651003349809S05942769WA0116801216015000000000
B1651043349759S05942859WA0117601216015000000000
B1651083349709S05942949WA0118301227015000000000
B1651123349669S05943039WA0119001233015000000000
B1651163349619S05943119WA0118301231015000000000
B1651203349569S05943199WA0119801234015000000000
B1651243349519S05943269WA0120401240015000000000
B1651283349489S05943339WA0119801246015000000000
B1651323349468S05943429WA0119001241015000000000
B1651363349459S05943529WA0119801238015000000000
B1651403349468S05943628WA0119001236015000000000
B1651443349478S05943729WA0118301227015000000000
B1651483349489S05943840WA0116801212015000000000
B1651523349499S05943949WA0116101204015000000000
B1651563349509S05944059WA0115401198015000000000
B1652003349529S05944169WA0113801190015000000000
B1652043349539S05944279WA0113801181015000000000
B1652083349539S05944398WA0112401171015000000000
B1652123349549S05944509WA0111701160015000000000
B1652163349558S05944619WA0111001152015000000000
B1652203349558S05944729WA0110201146015000000000
B1652243349569S05944839WA0110201142015000000000
B1652283349569S05944950WA0110201142015000000000
B1652323349569S05945059WA0111001144015000000000
B1652363349569S05945170WA0111701149015000000000
B1652403349569S05945269WA0112401161015000000000
B1652443349579S05945359WA0113101172015000000000
B1652483349579S05945459WA0113101176015000000000
B1652523349579S05945550WA0113801176015000000000
B1652563349569S05945640WA0113801180015000000000
B1653003349569S05945719WA0113801183015000000000
B1653043349558S05945810WA0115401192015000000000
B1653083349558S05945889WA0117601209015000000000
B1653123349549S05945969WA0117601219015000000000
B1653163349539S05946049WA0117601224015000000000
B1653203349549S05946129WA0116801219015000000000
B1653243349569S05946209WA0116101207015000000000
B1653283349589S05946299WA0114601197015000000000
B1653323349609S05946399WA0113801185015000000000
B1653363349629S05946489WA0112401173015000000000
B1653403349639S05946590WA0111701163015000000000
B1653443349659S05946689WA0111701157015000000000
B1653483349669S05946800WA0111701154015000000000
B1653523349679S05946899WA0111001154015000000000
B1653563349688S05946989WA0112401157015000000000
B1654003349699S05947089WA0113101170015000000000
B1654043349709S05947179WA0113101173015000000000
B1654083349719S05947270WA0113101173015000000000
B1654123349719S05947369WA0113801173015000000000
B1654163349728S05947450WA0115401188015000000000
B1654203349739S05947539WA0116801204015000000000
B1654243349759S05947609WA0117601216015000000000
B1654283349809S05947639WA0118301225015000000000
B1654323349858S05947620WA0117601229015000000000
B1654363349879S05947559WA0118301233015000000000
B1654403349858S05947499WA0119801246015000000000
B1654443349809S05947479WA0121901261015000000000
B1654483349749S05947509WA0121901264015000000000
B1654523349719S05947569WA0123401273015000000000
B1654563349719S05947639WA0122801277015000000000
B1655003349739S05947719WA0122801272015000000000
B1655043349770S05947799WA0122801271015000000000
B1655083349789S05947889WA0120401261015000000000
B1655123349818S05947989WA0119801247015000000000
B1655163349839S05948090WA0119001239015000000000
B1655203349869S05948189WA0118301228015000000000
B1655243349889S05948300WA0117601219015000000000
B1655283349909S05948409WA0118301214015000000000
B1655323349929S05948520WA0119001222015000000000
B1655363349948S05948619WA0121901245015000000000
B1655403349969S05948699WA0122801272015000000000
B1655443349988S05948780WA0121901275015000000000
B1655483350009S05948879WA0120401257015000000000
B1655523350019S05948990WA0119001242015000000000
B1655563350028S05949099WA0119801239015000000000
B1656003350009S05949199WA0122801254015000000000
B1656043349999S05949279WA0124101277015000000000
B1656083349980S05949359WA0124101291015000000000
B1656123349988S05949449WA0124101287015000000000
B1656163350019S05949539WA0124101289015000000000
B1656203350059S05949629WA0124101294015000000000
B1656243350099S05949720WA0124101291015000000000
B1656283350139S05949819WA0123401289015000000000
B1656323350179S05949919WA0123401291015000000000
B1656363350219S05950009WA0124101289015000000000
B1656403350259S05950110WA0124101295015000000000
B1656443350299S05950209WA0124101297015000000000
B1656483350328S05950309WA0125001299015000000000
B1656523350339S05950410WA0125001304015000000000
B1656563350349S05950509WA0124101301015000000000
B1657003350359S05950609WA0123401291015000000000
B1657043350389S05950710WA0122801284015000000000
B1657083350419S05950819WA0121901278015000000000
B1657123350449S05950920WA0121901274015000000000
B1657163350479S05951019WA0122801274015000000000
B1657203350508S05951129WA0122801275015000000000
B1657243350539S05951230WA0124101283015000000000
B1657283350559S05951329WA0126301302015000000000
B1657323350588S05951409WA0128501325015000000000
B1657363350649S05951459WA0130301349015000000000
B1657403350709S05951459WA0131601362015000000000
B1657443350739S05951409WA0131601369015000000000
B1657483350718S05951350WA0131601374015000000000
B1657523350679S05951329WA0132401379015000000000
B1657563350628S05951359WA0133001382015000000000
B1658003350599S05951419WA0134601393015000000000
B1658043350579S05951489WA0136101408015000000000
B1658083350599S05951559WA0137601425015000000000
B1658123350649S05951599WA0138301434015000000000
B1658163350709S05951599WA0139101444015000000000
B1658203350758S05951559WA0141401458015000000000
B1658243350749S05951499WA0141401467015000000000
B1658283350699S05951480WA0141401470015000000000
B1658323350649S05951499WA0142901480015000000000
B1658363350619S05951549WA0144501492015000000000
B1658403350599S05951619WA0145201510015000000000
B1658443350628S05951689WA0145801518015000000000
B1658483350689S05951719WA0146801526015000000000
B1658523350758S05951700WA0148101541015000000000
B1658563350779S05951639WA0150501559015000000000
B1659003350749S05951599WA0149801565015000000000
B1659043350699S05951589WA0150501564015000000000
B1659083350649S05951629WA0152001577015000000000
B1659123350639S05951689WA0152801589015000000000
B1659163350659S05951769WA0153601593015000000000
B1659203350709S05951830WA0155801609015000000000
B1659243350769S05951839WA0157401632015000000000
B1659283350819S05951789WA0158201647015000000000
B1659323350819S05951729WA0158901656015000000000
B1659363350779S05951700WA0159601661015000000000
B1659403350729S05951719WA0160601663015000000000
B1659443350699S05951779WA0161201673015000000000
B1659483350709S05951859WA0162801684015000000000
B1659523350758S05951919WA0163501696015000000000
B1659563350829S05951939WA0165901716015000000000
B1700003350879S05951899WA0166701730015000000000
B1700043350899S05951849WA0166701737015000000000
B1700083350869S05951799WA0166701740015000000000
B1700123350809S05951799WA0166701740015000000000
B1700163350769S05951849WA0167501739015000000000
B1700203350749S05951939WA0167501741015000000000
B1700243350779S05952029WA0167501738015000000000
B1700283350829S05952130WA0166701738015000000000
B1700323350888S05952229WA0166701735015000000000
B1700363350939S05952329WA0165201729015000000000
B1700403350978S05952439WA0164301717015000000000
B1700443350999S05952560WA0164301711015000000000
B1700483351018S05952669WA0162801699015000000000
B1700523351039S05952789WA0162101690015000000000
B1700563351058S05952900WA0162101688015000000000
B1701003351079S05953009WA0162101683015000000000
B1701043351099S05953120WA0161201679015000000000
B1701083351119S05953229WA0160601673015000000000
B1701123351129S05953349WA0159601663015000000000
B1701163351139S05953460WA0159601650015000000000
B1701203351159S05953579WA0158201648015000000000
B1701243351159S05953689WA0158201644015000000000
B1701283351169S05953800WA0156501636015000000000
B1701323351179S05953919WA0156501627015000000000
B1701363351179S05954029WA0156501620015000000000
B1701403351179S05954150WA0156501618015000000000
B1701443351188S05954259WA0155801617015000000000
B1701483351199S05954379WA0155801613015000000000
B1701523351219S05954490WA0155001614015000000000
B1701563351249S05954599WA0155001611015000000000
B1702003351278S05954719WA0154401607015000000000
B1702043351309S05954830WA0154401599015000000000
B1702083351318S05954949WA0153601597015000000000
B1702123351339S05955069WA0152801591015000000000
B1702163351349S05955189WA0152001579015000000000
B1702203351349S05955310WA0151301572015000000000
B1702243351358S05955429WA0151301566015000000000
B1702283351358S05955549WA0151301568015000000000
B1702323351349S05955659WA0152801577015000000000
B1702363351329S05955769WA0152801589015000000000
B1702403351329S05955870WA0152001584015000000000
B1702443351339S05955979WA0152801579015000000000
B1702483351349S05956089WA0152001579015000000000
B1702523351358S05956199WA0150501568015000000000
B1702563351379S05956319WA0148901555015000000000
B1703003351389S05956428WA0148901547015000000000
B1703043351408S05956550WA0150501551015000000000
B1703083351419S05956659WA0153601571015000000000
B1703123351419S05956749WA0154401596015000000000
B1703163351408S05956839WA0155001608015000000000
B1703203351399S05956940WA0152801593015000000000
B1703243351389S05957049WA0153601588015000000000
B1703283351389S05957169WA0154401593015000000000
B1703323351389S05957279WA0153601593015000000000
B1703363351389S05957389WA0152801586015000000000
B1703403351389S05957509WA0152001576015000000000
B1703443351379S05957619WA0152001569015000000000
B1703483351379S05957739WA0152001569015000000000
B1703523351379S05957848WA0153601576015000000000
B1703563351389S05957949WA0153601589015000000000
B1704003351408S05958060WA0152001582015000000000
B1704043351439S05958169WA0150501568015000000000
B1704083351469S05958279WA0149801551015000000000
B1704123351499S05958400WA0148901540015000000000
B1704163351529S05958509WA0148901535015000000000
B1704203351549S05958629WA0148101536015000000000
B1704243351578S05958740WA0148101536015000000000
B1704283351599S05958849WA0147401528015000000000
B1704323351618S05958960WA0146801522015000000000
B1704363351629S05959069WA0147401521015000000000
B1704403351649S05959179WA0145801516015000000000
B1704443351669S05959289WA0145801508015000000000
B1704483351699S05959399WA0145801510015000000000
B1704523351719S05959520WA0147401511015000000000
B1704563351739S05959619WA0148101527015000000000
B1705003351739S05959719WA0147401536015000000000
B1705043351739S05959829WA0145801518015000000000
B1705083351729S05959929WA0145201504015000000000
B1705123351719S06000039WA0145201502015000000000
B1705163351699S06000149WA0146801509015000000000
B1705203351679S06000238WA0148101525015000000000
B1705243351669S06000328WA0150501547015000000000
B1705283351649S06000418WA0150501554015000000000
B1705323351649S06000519WA0149801547015000000000
B1705363351669S06000619WA0148901543015000000000
B1705403351689S06000729WA0150501546015000000000
B1705443351708S06000838WA0151301559015000000000
B1705483351719S06000949WA0150501559015000000000
B1705523351748S06001058WA0150501549015000000000
B1705563351779S06001159WA0151301552015000000000
B1706003351809S06001259WA0150501553015000000000
B1706043351838S06001358WA0150501554015000000000
B1706083351849S06001469WA0152001558015000000000
B1706123351838S06001568WA0155001591015000000000
B1706163351838S06001658WA0155801609015000000000
B1706203351838S06001769WA0155801607015000000000
B1706243351838S06001868WA0155001604015000000000
B1706283351830S06001979WA0155001598015000000000
B1706323351830S06002099WA0154401590015000000000
B1706363351830S06002218WA0155001591015000000000
B1706403351830S06002329WA0154401592015000000000
B1706443351830S06002449WA0152801580015000000000
B1706483351838S06002558WA0152001568015000000000
B1706523351838S06002679WA0151301560015000000000
B1706563351838S06002799WA0151301559015000000000
B1707003351830S06002919WA0153601568015000000000
B1707043351830S06003028WA0157401599015000000000
B1707083351830S06003118WA0161201644015000000000
B1707123351830S06003208WA0163501677015000000000
B1707163351838S06003298WA0164301695015000000000
B1707203351849S06003389WA0165201702015000000000
B1707243351869S06003479WA0164301700015000000000
B1707283351889S06003588WA0165201700015000000000
B1707323351909S06003689WA0165201706015000000000
B1707363351929S06003789WA0165201705015000000000
B1707403351960S06003898WA0165201701015000000000
B1707443351979S06004009WA0166701714015000000000
B1707483352008S06004118WA0166701719015000000000
B1707523352039S06004219WA0168201728015000000000
B1707563352059S06004318WA0169001750015000000000
B1708003352088S06004419WA0167501746015000000000
B1708043352109S06004538WA0165201724015000000000
B1708083352129S06004649WA0165201710015000000000
B1708123352149S06004769WA0165201705015000000000
B1708163352169S06004888WA0165201707015000000000
B1708203352189S06004999WA0164301704015000000000
B1708243352209S06005109WA0163501698015000000000
B1708283352229S06005218WA0163501689015000000000
B1708323352259S06005339WA0162801685015000000000
B1708363352279S06005448WA0162801686015000000000
B1708403352308S06005549WA0162801684015000000000
B1708443352329S06005658WA0162801681015000000000
B1708483352348S06005769WA0162101679015000000000
B1708523352369S06005868WA0162801678015000000000
B1708563352390S06005979WA0165201696015000000000
B1709003352399S06006069WA0166701719015000000000
B1709043352419S06006168WA0165901720015000000000
B1709083352438S06006279WA0166701720015000000000
B1709123352449S06006388WA0166701722015000000000
B1709163352469S06006499WA0165201714015000000000
B1709203352478S06006619WA0164301705015000000000
B1709243352499S06006738WA0164301697015000000000
B1709283352518S06006849WA0162801693015000000000
B1709323352539S06006969WA0162101684015000000000
B1709363352559S06007089WA0161201673015000000000
B1709403352579S06007208WA0159601662015000000000
B1709443352608S06007328WA0159601652015000000000
B1709483352629S06007449WA0159601650015000000000
B1709523352648S06007569WA0159601650015000000000
B1709563352669S06007689WA0158201643015000000000
B1710003352689S06007798WA0157401639015000000000
B1710043352709S06007919WA0157401631015000000000
B1710083352729S06008039WA0156501625015000000000
B1710123352738S06008148WA0156501621015000000000
B1710163352749S06008268WA0155801621015000000000
B1710203352759S06008379WA0156501619015000000000
B1710243352759S06008488WA0155801619015000000000
B1710283352769S06008599WA0155801617015000000000
B1710323352769S06008708WA0155801619015000000000
B1710363352769S06008819WA0155001616015000000000
B1710403352759S06008928WA0154401607015000000000
B1710443352749S06009048WA0154401602015000000000
B1710483352738S06009159WA0154401601015000000000
B1710523352719S06009268WA0155001602015000000000
B1710563352689S06009379WA0155001603015000000000
B1711003352669S06009478WA0155001605015000000000
B1711043352639S06009589WA0155001604015000000000
B1711083352619S06009688WA0157401620015000000000
B1711123352589S06009789WA0157401634015000000000
B1711163352568S06009878WA0157401634015000000000
B1711203352559S06009979WA0158201633015000000000
B1711243352549S06010078WA0158901646015000000000
B1711283352549S06010168WA0158201655015000000000
B1711323352529S06010269WA0156501639015000000000
B1711363352499S06010369WA0155801625015000000000
B1711403352469S06010468WA0155001616015000000000
B1711443352438S06010569WA0154401610015000000000
B1711483352409S06010659WA0153601603015000000000
B1711523352369S06010768WA0152001587015000000000
B1711563352339S06010879WA0152001579015000000000
B1712003352308S06010988WA0152001574015000000000
B1712043352299S06011099WA0152001570015000000000
B1712083352289S06011209WA0151301570015000000000
B1712123352299S06011328WA0151301565015000000000
B1712163352329S06011448WA0152001564015000000000
B1712203352369S06011548WA0154401583015000000000
B1712243352409S06011639WA0155001608015000000000
B1712283352449S06011718WA0153601601015000000000
B1712323352499S06011819WA0152801583015000000000
B1712363352539S06011909WA0154401594015000000000
B1712403352579S06011999WA0155001612015000000000
B1712443352619S06012089WA0155801621015000000000
B1712483352659S06012188WA0156501629015000000000
B1712523352689S06012279WA0156501632015000000000
B1712563352729S06012379WA0156501633015000000000
B1713003352759S06012479WA0158201635015000000000
B1713043352789S06012578WA0159601652015000000000
B1713083352819S06012679WA0161201669015000000000
B1713123352839S06012759WA0162801690015000000000
B1713163352868S06012849WA0162801699015000000000
B1713203352899S06012939WA0161201690015000000000
B1713243352919S06013038WA0160601682015000000000
B1713283352939S06013149WA0161201682015000000000
B1713323352948S06013258WA0160601679015000000000
B1713363352959S06013369WA0160601673015000000000
B1713403352959S06013489WA0159601667015000000000
B1713443352969S06013598WA0158201663015000000000
B1713483352969S06013719WA0157401654015000000000
B1713523352959S06013829WA0157401643015000000000
B1713563352959S06013948WA0155801637015000000000
B1714003352959S06014068WA0155801627015000000000
B1714043352948S06014179WA0155001620015000000000
B1714083352939S06014298WA0155801616015000000000
B1714123352919S06014409WA0156501624015000000000
B1714163352899S06014508WA0156501634015000000000
B1714203352879S06014598WA0157401638015000000000
B1714243352860S06014699WA0157401642015000000000
B1714283352860S06014798WA0157401644015000000000
B1714323352868S06014888WA0156501642015000000000
B1714363352899S06014989WA0155801639015000000000
B1714403352939S06015089WA0154401624015000000000
B1714443352990S06015188WA0155001617015000000000
B1714483353029S06015289WA0154401615015000000000
B1714523353069S06015389WA0152801604015000000000
B1714563353120S06015488WA0152001593015000000000
B1715003353159S06015599WA0151301575015000000000
B1715043353199S06015708WA0150501567015000000000
B1715083353229S06015809WA0150501565015000000000
B1715123353258S06015918WA0149801567015000000000
B1715163353289S06016029WA0149801569015000000000
B1715203353299S06016138WA0150501567015000000000
B1715243353319S06016259WA0152001577015000000000
B1715283353329S06016369WA0155001603015000000000
B1715323353329S06016459WA0157401640015000000000
B1715363353338S06016549WA0157401659015000000000
B1715403353359S06016648WA0157401652015000000000
B1715443353369S06016759WA0156501641015000000000
B1715483353378S06016879WA0155001630015000000000
B1715523353388S06016989WA0155001624015000000000
B1715563353399S06017109WA0154401618015000000000
B1716003353409S06017219WA0153601607015000000000
B1716043353429S06017338WA0152801596015000000000
B1716083353439S06017449WA0152001590015000000000
B1716123353459S06017569WA0152001585015000000000
B1716163353468S06017678WA0151301590015000000000
B1716203353479S06017799WA0152001591015000000000
B1716243353489S06017909WA0153601601015000000000
B1716283353489S06018009WA0155001622015000000000
B1716323353499S06018099WA0157401642015000000000
B1716363353519S06018189WA0158201655015000000000
B1716403353559S06018269WA0157401656015000000000
B1716443353609S06018349WA0156501643015000000000
B1716483353669S06018429WA0155001629015000000000
B1716523353729S06018519WA0153601615015000000000
B1716563353789S06018609WA0153601605015000000000
B1717003353859S06018699WA0152801597015000000000
B1717043353919S06018789WA0152001587015000000000
B1717083353979S06018888WA0152001582015000000000
B1717123354039S06018978WA0152001583015000000000
B1717163354099S06019069WA0151301577015000000000
B1717203354150S06019159WA0151301567015000000000
B1717243354209S06019259WA0150501561015000000000
B1717283354269S06019349WA0149801549015000000000
B1717323354328S06019448WA0148901543015000000000
B1717363354389S06019549WA0148101539015000000000
B1717403354439S06019649WA0148101535015000000000
B1717443354498S06019748WA0147401525015000000000
B1717483354549S06019849WA0146801518015000000000
B1717523354599S06019949WA0146801515015000000000
B1717563354649S06020058WA0145801511015000000000
B1718003354689S06020169WA0146801511015000000000
B1718043354729S06020268WA0148901520015000000000
B1718083354759S06020369WA0149801540015000000000
B1718123354789S06020469WA0151301553015000000000
B1718163354809S06020568WA0151301560015000000000
B1718203354838S06020669WA0152001567015000000000
B1718243354869S06020759WA0153601583015000000000
B1718283354899S06020849WA0154401591015000000000
B1718323354939S06020948WA0153601592015000000000
B1718363354979S06021049WA0152801583015000000000
B1718403355009S06021149WA0152801578015000000000
B1718443355039S06021259WA0152001573015000000000
B1718483355058S06021359WA0150501561015000000000
B1718523355089S06021468WA0150501551015000000000
B1718563355109S06021569WA0149801545015000000000
B1719003355129S06021678WA0148101537015000000000
B1719043355139S06021779WA0147401524015000000000
B1719083355159S06021888WA0145801508015000000000
B1719123355169S06021999WA0145201493015000000000
B1719163355169S06022108WA0144501484015000000000
B1719203355179S06022219WA0144501480015000000000
B1719243355199S06022328WA0144501479015000000000
B1719283355228S06022429WA0144501485015000000000
B1719323355259S06022529WA0145201487015000000000
B1719363355289S06022628WA0144501485015000000000
B1719403355318S06022739WA0145201485015000000000
B1719443355349S06022838WA0145201486015000000000
B1719483355369S06022949WA0145801494015000000000
B1719523355389S06023048WA0145201494015000000000
B1719563355398S06023159WA0144501488015000000000
B1720003355419S06023268WA0142901474015000000000
B1720043355439S06023379WA0142101465015000000000
B1720083355459S06023499WA0141401455015000000000
B1720123355480S06023618WA0139901443015000000000
B1720163355509S06023729WA0139901433015000000000
B1720203355528S06023849WA0139101428015000000000
B1720243355549S06023958WA0138301421015000000000
B1720283355579S06024078WA0136801411015000000000
B1720323355599S06024199WA0136101401015000000000
B1720363355629S06024319WA0135301394015000000000
B1720403355658S06024439WA0134601385015000000000
B1720443355679S06024558WA0134601378015000000000
B1720483355709S06024679WA0133801372015000000000
B1720523355729S06024789WA0133001367015000000000
B1720563355748S06024908WA0132401363015000000000
B1721003355759S06025028WA0132401359015000000000
B1721043355779S06025149WA0132401356015000000000
B1721083355799S06025259WA0131601351015000000000
B1721123355819S06025368WA0130901341015000000000
B1721163355849S06025479WA0130301336015000000000
B1721203355870S06025579WA0129401330015000000000
B1721243355899S06025689WA0128501325015000000000
B1721283355929S06025789WA0127901316015000000000
B1721323355958S06025888WA0127101307015000000000
B1721363355989S06025989WA0125701293015000000000
B1721403356019S06026098WA0125701282015000000000
B1721443356059S06026198WA0127101289015000000000
B1721483356088S06026299WA0127101300015000000000
B1721523356119S06026398WA0127901305015000000000
B1721563356159S06026499WA0128501312015000000000
B1722003356179S06026588WA0129401327015000000000
B1722043356209S06026679WA0129401327015000000000
B1722083356249S06026779WA0128501319015000000000
B1722123356279S06026878WA0130301324015000000000
B1722163356300S06026968WA0131601339015000000000
B1722203356329S06027058WA0133001349015000000000
B1722243356348S06027138WA0133801363015000000000
B1722283356369S06027218WA0134601380015000000000
B1722323356388S06027308WA0133801381015000000000
B1722363356419S06027398WA0133001369015000000000
B1722403356449S06027488WA0133801367015000000000
B1722443356489S06027589WA0133001369015000000000
B1722483356518S06027688WA0133001368015000000000
B1722523356558S06027789WA0132401359015000000000
B1722563356589S06027899WA0131601351015000000000
B1723003356629S06027998WA0131601347015000000000
B1723043356669S06028109WA0130301337015000000000
B1723083356699S06028219WA0129401327015000000000
B1723123356739S06028329WA0129401320015000000000
B1723163356778S06028439WA0127901312015000000000
B1723203356819S06028548WA0126301303015000000000
B1723243356849S06028659WA0126301291015000000000
B1723283356889S06028759WA0126301288015000000000
B1723323356929S06028869WA0125701288015000000000
B1723363356969S06028978WA0125701286015000000000
B1723403356999S06029078WA0125001282015000000000
B1723443357038S06029179WA0124101273015000000000
B1723483357079S06029288WA0124101267015000000000
B1723523357118S06029399WA0124101265015000000000
B1723563357149S06029498WA0124101267015000000000
B1724003357179S06029609WA0125001269015000000000
B1724043357209S06029708WA0125701285015000000000
B1724083357239S06029809WA0125001283015000000000
B1724123357269S06029909WA0124101274015000000000
B1724163357309S06030008WA0122801261015000000000
B1724203357349S06030119WA0122801255015000000000
B1724243357389S06030219WA0122801257015000000000
B1724283357418S06030329WA0122801258015000000000
B1724323357460S06030419WA0123401263015000000000
B1724363357489S06030519WA0123401265015000000000
B1724403357529S06030618WA0123401263015000000000
B1724443357559S06030708WA0123401256015000000000
B1724483357609S06030799WA0122801251015000000000
B1724523357649S06030889WA0121301244015000000000
B1724563357689S06030989WA0120401230015000000000
B1725003357729S06031088WA0120401225015000000000
B1725043357769S06031189WA0119801224015000000000
B1725083357799S06031279WA0119801222015000000000
B1725123357839S06031369WA0121301230015000000000
B1725163357869S06031459WA0122801247015000000000
B1725203357899S06031539WA0123401262015000000000
B1725243357919S06031619WA0122801260015000000000
B1725283357949S06031698WA0121901250015000000000
B1725323357978S06031778WA0122801253015000000000
B1725363357999S06031869WA0122801257015000000000
B1725403358009S06031958WA0121901252015000000000
B1725443358029S06032049WA0120401241015000000000
B1725483358029S06032149WA0119001228015000000000
B1725523358029S06032248WA0118301215015000000000
B1725563358018S06032359WA0117601205015000000000
B1726003358009S06032468WA0117601199015000000000
B1726043357999S06032579WA0116801195015000000000
B1726083357978S06032678WA0116101189015000000000
B1726123357969S06032789WA0115401182015000000000
B1726163357949S06032899WA0114601176015000000000
B1726203357929S06033009WA0114601173015000000000
B1726243357909S06033108WA0114601173015000000000
B1726283357888S06033209WA0114601171015000000000
B1726323357869S06033309WA0113801170015000000000
B1726363357848S06033408WA0114601170015000000000
B1726403357819S06033509WA0115401178015000000000
B1726443357799S06033609WA0115401181015000000000
B1726483357779S06033708WA0114601177015000000000
B1726523357779S06033809WA0114601174015000000000
B1726563357769S06033918WA0114601177015000000000
B1727003357759S06034018WA0113801170015000000000
B1727043357739S06034119WA0113801162015000000000
B1727083357729S06034218WA0113801162015000000000
B1727123357709S06034319WA0113801165015000000000
B1727163357699S06034398WA0114601173015000000000
B1727203357678S06034488WA0114601181015000000000
B1727243357659S06034568WA0113801177015000000000
B1727283357639S06034658WA0112401160015000000000
B1727323357609S06034749WA0111701149015000000000
B1727363357579S06034849WA0111001140015000000000
B1727403357548S06034939WA0111001138015000000000
B1727443357519S06035029WA0110201135015000000000
B1727483357489S06035119WA0109401121015000000000
B1727523357449S06035199WA0108001113015000000000
B1727563357418S06035289WA0108801110015000000000
B1728003357378S06035369WA0110201124015000000000
B1728043357339S06035449WA0111001134015000000000
B1728083357309S06035518WA0109401133015000000000
B1728123357269S06035598WA0109401125015000000000
B1728163357229S06035669WA0111001123015000000000
B1728203357199S06035728WA0113101145015000000000
B1728243357199S06035799WA0113101161015000000000
B1728283357229S06035858WA0113801164015000000000
B1728323357299S06035879WA0114601174015000000000
B1728363357349S06035849WA0116101186015000000000
B1728403357359S06035779WA0116801196015000000000
B1728443357330S06035738WA0116801199015000000000
B1728483357279S06035759WA0117601200015000000000
B1728523357248S06035808WA0118301211015000000000
B1728563357259S06035889WA0118301215015000000000
B1729003357299S06035948WA0119801222015000000000
B1729043357359S06035969WA0120401237015000000000
B1729083357418S06035938WA0122801252015000000000
B1729123357439S06035879WA0123401264015000000000
B1729163357418S06035829WA0123401269015000000000
B1729203357369S06035829WA0123401275015000000000
B1729243357339S06035879WA0124101280015000000000
B1729283357339S06035959WA0125001286015000000000
B1729323357369S06036019WA0127101301015000000000
B1729363357429S06036059WA0127901315015000000000
B1729403357489S06036049WA0129401325015000000000
B1729443357519S06035988WA0130301339015000000000
B1729483357499S06035929WA0131601346015000000000
B1729523357460S06035919WA0132401356015000000000
B1729563357418S06035969WA0133001365015000000000
B1730003357418S06036039WA0133801375015000000000
B1730043357469S06036089WA0135301393015000000000
B1730083357539S06036078WA0136801407015000000000
B1730123357569S06036019WA0136801414015000000000
B1730163357548S06035959WA0138301418015000000000
B1730203357499S06035948WA0139101427015000000000
B1730243357460S06035988WA0139901439015000000000
B1730283357460S06036059WA0140501447015000000000
B1730323357489S06036129WA0142101462015000000000
B1730363357539S06036169WA0144501484015000000000
B1730403357599S06036158WA0145201493015000000000
B1730443357619S06036099WA0144501496015000000000
B1730483357599S06036039WA0144501490015000000000
B1730523357548S06036019WA0145801504015000000000
B1730563357508S06036049WA0147401517015000000000
B1731003357489S06036118WA0148101524015000000000
B1731043357499S06036198WA0150501544015000000000
B1731083357548S06036248WA0152001566015000000000
B1731123357609S06036248WA0152001578015000000000
B1731163357649S06036198WA0151301571015000000000
B1731203357639S06036118WA0150501558015000000000
B1731243357588S06036078WA0152801572015000000000
B1731283357539S06036089WA0154401590015000000000
B1731323357499S06036129WA0156501605015000000000
B1731363357489S06036189WA0158201626015000000000
B1731403357519S06036259WA0159601644015000000000
B1731443357579S06036279WA0162101659015000000000
B1731483357629S06036238WA0162801676015000000000
B1731523357629S06036179WA0162801681015000000000
B1731563357588S06036129WA0164301692015000000000
B1732003357539S06036139WA0165901713015000000000
B1732043357499S06036189WA0168201729015000000000
B1732083357508S06036259WA0169001747015000000000
B1732123357559S06036319WA0171401765015000000000
B1732163357619S06036309WA0173001786015000000000
B1732203357649S06036259WA0173701797015000000000
B1732243357629S06036198WA0175301805015000000000
B1732283357588S06036179WA0176801823015000000000
B1732323357548S06036208WA0177701836015000000000
B1732363357529S06036279WA0179301848015000000000
B1732403357548S06036349WA0180801862015000000000
B1732443357609S06036378WA0182401877015000000000
B1732483357659S06036349WA0182401893015000000000
B1732523357678S06036288WA0183201899015000000000
B1732563357639S06036248WA0184701907015000000000
B1733003357599S06036238WA0187101925015000000000
B1733043357559S06036288WA0188001943015000000000
B1733083357548S06036359WA0188701951015000000000
B1733123357579S06036418WA0191001966015000000000
B1733163357639S06036439WA0191801981015000000000
B1733203357689S06036399WA0191801991015000000000
B1733243357699S06036339WA0192601996015000000000
B1733283357669S06036299WA0194202003015000000000
B1733323357609S06036288WA0195802018015000000000
B1733363357569S06036328WA0196502032015000000000
B1733403357559S06036389WA0197502038015000000000
B1733443357569S06036469WA0199002049015000000000
B1733483357619S06036508WA0199902064015000000000
B1733523357678S06036508WA0200802078015000000000
B1733563357729S06036458WA0200802081015000000000
B1734003357729S06036399WA0201602088015000000000
B1734043357699S06036349WA0202302097015000000000
B1734083357649S06036339WA0204802114015000000000
B1734123357599S06036368WA0205502128015000000000
B1734163357579S06036429WA0206402134015000000000
B1734203357588S06036508WA0207202143015000000000
B1734243357629S06036569WA0208802156015000000000
B1734283357678S06036588WA0208802170015000000000
B1734323357739S06036559WA0210402176015000000000
B1734363357759S06036489WA0211302179015000000000
B1734403357749S06036429WA0212002192015000000000
B1734443357699S06036399WA0212902202015000000000
B1734483357649S06036418WA0214502214015000000000
B1734523357619S06036479WA0214502222015000000000
B1734563357629S06036548WA0215202229015000000000
B1735003357678S06036599WA0216902242015000000000
B1735043357749S06036588WA0217702249015000000000
B1735083357789S06036529WA0216902249015000000000
B1735123357819S06036458WA0217702250015000000000
B1735163357829S06036378WA0217702257015000000000
B1735203357829S06036299WA0218502264015000000000
B1735243357819S06036208WA0217702259015000000000
B1735283357829S06036118WA0216902247015000000000
B1735323357829S06036009WA0215202233015000000000
B1735363357848S06035909WA0213602217015000000000
B1735403357869S06035789WA0212902199015000000000
B1735443357909S06035678WA0210402185015000000000
B1735483357938S06035558WA0208802167015000000000
B1735523357989S06035439WA0208002153015000000000
B1735563358049S06035329WA0208002149015000000000
B1736003358108S06035229WA0207202145015000000000
B1736043358169S06035119WA0206402134015000000000
B1736083358238S06035009WA0205502124015000000000
B1736123358309S06034908WA0204802118015000000000
B1736163358389S06034809WA0203802111015000000000
B1736203358469S06034719WA0203802107015000000000
B1736243358549S06034639WA0203802106015000000000
B1736283358628S06034559WA0203802107015000000000
B1736323358708S06034478WA0203802109015000000000
B1736363358779S06034398WA0204802113015000000000
B1736403358849S06034319WA0205502119015000000000
B1736443358909S06034228WA0205502126015000000000
B1736483358959S06034129WA0205502129015000000000
B1736523358989S06034018WA0205502126015000000000
B1736563359019S06033909WA0203802115015000000000
B1737003359039S06033798WA0202302098015000000000
B1737043359069S06033689WA0202302092015000000000
B1737083359089S06033569WA0201602088015000000000
B1737123359109S06033458WA0200802082015000000000
B1737163359129S06033339WA0200802077015000000000
B1737203359149S06033219WA0199002064015000000000
B1737243359169S06033099WA0198402048015000000000
B1737283359189S06032969WA0197502043015000000000
B1737323359219S06032848WA0195802035015000000000
B1737363359239S06032728WA0195002023015000000000
B1737403359268S06032598WA0193502010015000000000
B1737443359299S06032479WA0193501998015000000000
B1737483359329S06032349WA0191801989015000000000
B1737523359349S06032229WA0191801982015000000000
B1737563359379S06032099WA0191001973015000000000
B1738003359398S06031979WA0191001972015000000000
B1738043359438S06031869WA0191801977015000000000
B1738083359469S06031759WA0191801983015000000000
B1738123359509S06031659WA0192601992015000000000
B1738163359539S06031558WA0194202005015000000000
B1738203359568S06031459WA0194202011015000000000
B1738243359589S06031359WA0194202009015000000000
B1738283359599S06031258WA0194202009015000000000
B1738323359599S06031159WA0193502006015000000000
B1738363359599S06031048WA0192601997015000000000
B1738403359599S06030949WA0191001985015000000000
B1738443359599S06030839WA0191001975015000000000
B1738483359608S06030729WA0189501965015000000000
B1738523359608S06030618WA0188701956015000000000
B1738563359608S06030509WA0188001946015000000000
B1739003359608S06030398WA0188001941015000000000
B1739043359608S06030289WA0186201938015000000000
B1739083359608S06030178WA0186201932015000000000
B1739123359619S06030069WA0186201928015000000000
B1739163359619S06029959WA0185501925015000000000
B1739203359629S06029838WA0185501919015000000000
B1739243359629S06029729WA0183801911015000000000
B1739283359639S06029619WA0183201901015000000000
B1739323359658S06029509WA0183201896015000000000
B1739363359689S06029399WA0182401893015000000000
B1739403359709S06029299WA0183201890015000000000
B1739443359749S06029189WA0182401888015000000000
B1739483359788S06029099WA0182401887015000000000
B1739523359829S06029009WA0181501887015000000000
B1739563359849S06028919WA0181501882015000000000
B1740003359868S06028818WA0180801875015000000000
B1740043359879S06028718WA0180801868015000000000
B1740083359899S06028619WA0179301863015000000000
B1740123359908S06028508WA0177701849015000000000
B1740163359918S06028409WA0177701836015000000000
B1740203359929S06028298WA0176001830015000000000
B1740243359939S06028189WA0176001821015000000000
B1740283359950S06028088WA0174501814015000000000
B1740323359969S06027979WA0175301810015000000000
B1740363359989S06027879WA0174501804015000000000
B1740403400019S06027778WA0173701796015000000000
B1740443400038S06027679WA0173701791015000000000
B1740483400068S06027579WA0173701791015000000000
B1740523400099S06027478WA0173001788015000000000
B1740563400128S06027379WA0172101782015000000000
B1741003400158S06027279WA0170601772015000000000
B1741043400198S06027178WA0170601763015000000000
B1741083400238S06027079WA0170601758015000000000
B1741123400278S06026989WA0170601758015000000000
B1741163400328S06026899WA0170601760015000000000
B1741203400378S06026809WA0170601764015000000000
B1741243400418S06026719WA0171401770015000000000
B1741283400449S06026618WA0171401772015000000000
B1741323400479S06026519WA0171401772015000000000
B1741363400498S06026419WA0170601769015000000000
B1741403400519S06026309WA0170601762015000000000
B1741443400548S06026209WA0169001758015000000000
B1741483400569S06026108WA0168201745015000000000
B1741523400598S06025999WA0166701732015000000000
B1741563400619S06025898WA0165901719015000000000
B1742003400649S06025789WA0165201712015000000000
B1742043400678S06025689WA0165201705015000000000
B1742083400708S06025588WA0164301699015000000000
B1742123400749S06025498WA0163501696015000000000
B1742163400798S06025418WA0163501696015000000000
