ACAMC0J2
HFDTE261013
HFFXA050
HFPLTPilot:Richard Muller
HFGTYGliderType:  ASW 20  
HFCIDCompetitionID: DR 
HFDTM100Datum: WGS-84
HFRFWFIRMWAREVERSION: 6.0   
HFRHWHARDWAREVERSION: 2.39 
HFSITSite: CAPA2009                        
HFTZOTimezone: 0
HFUNTUnits: km,m,m/s
I033638FXA3941ENL4247REX
LCAMN CAI Utility DLL Vers: 1, 0, 1, 3
LCAMN000013427199S05927589W000045T       7 Y 41      
LCAMN000023351299S05932589W000033T       9 Y 41      
LCAMN000033358329S05931749W000027T       AE AMANECER 
LCAMN000043416878S05932240W000034T       AE ARECO FUM
LCAMN000053404638S06002749W000033T       AE ARRECIFES
LCAMN000063406958S05904790W000025T       AE ATE      
LCAMN000073347989S05928999W000000T       AE BARADERO 
LCAMN000083507999S06027998W000057T       AE BRAGADO  
LCAMN000093506739S05843558W000032T       AE CANUELAS 
LCAMN000103409939S05943849W000040T       AE CAP SARMI
LCAMN000113424969S05952218W000048T       AE CARMEN   
LCAMN000123413889S05912629W000031T       AE CHENAULT 
LCAMN000133457948S06001949W000045T       AE CHIVILCOY
LCAMN000143355998S06101990W000081T       AE COLON    
LCAMN000153436508S06024569W000068T       AE CUCHA CUC
LCAMN000163403378S06003638W000040T       AE DI PALMA 
LCAMN000173411028S05936150W000039T       AE DUGGAN CE
LCAMN000183409778S05935689W000038T       AE DUGGAN LE
LCAMN000193402239S06004739W000049T       AE FUMIGADOR
LCAMN000203421438S06009299W000063T       AE GAHAM    
LCAMN000213440689S05902200W000027T       AE GRAL RODR
LCAMN000223458999S06101990W000071T       AE GRAL VIAM
LCAMN000233409278S05952510W000045T       AE LA LUISA 
LCAMN000243424709S05926949W000040T       AE LAGUNA   
LCAMN000253438998S06100989W000077T       AE LAGUNA GO
LCAMN000263432338S05935089W000050T       AE LIPTON   
LCAMN000273512879S05907979W000028T       AE LOBOS    
LCAMN000283430498S05902989W000018T       AE LUJAN    
LCAMN000293438398S05927300W000032T       AE MERCEDES 
LCAMN000303501399S05917399W000031T       AE NAVARRO  
LCAMN000313425588S05928848W000049T       AE PEPONE   
LCAMN000323355139S06038849W000075T       AE PERGAMINO
LCAMN000333412899S06040448W000064T       AE ROJAS    
LCAMN000343418338S06017199W000042T       AE SALTO    
LCAMN000353413268S05926529W000033T       AE SAN ANTON
LCAMN000363340999S05943999W000026T       AE SAN PEDRO
LCAMN000373443388S05939458W000040T       AE SUIPACHA 
LCAMN000383339999S06158000W000111T       AE VENADO TU
LCAMN000393454659S05920919W000039T       AE WILLIAMS 
LCAMN000403355579S06023358W000076T       ANCHORENA ES
LCAMN000413355029S06056008W000083T       ARBOLITO EL 
LCAMN000423403768S06006279W000040T       ARRECIFES   
LCAMN000433421978S05922469W000036T       AZCUENAGA ES
LCAMN000443445119S06059719W000079T       BAIGORRITA E
LCAMN000453427688S05931059W000055T       BALANZA     
LCAMN000463322929S06111729W000090T       BIGAND EST  
LCAMN000473423329S05949149W000049T       CARMEN DE AR
LCAMN000483437748S06028239W000071T       CHACABUCO ES
LCAMN000493454588S06000019W000053T       CHIVILCOY ES
LCAMN000503403688S05933979W000035T       COLOMA SANTA
LCAMN000513521020S06044809W000066T       DENNEHY EST 
LCAMN000523412788S05939028W000051T       DUGGAN EST  
LCAMN000533431499S05935659W000051T       ESPORA      
LCAMN000543420109S06005589W000060T       GAHAM       
LCAMN000553442898S05933089W000035T       GARCIA MJ   
LCAMN000563428239S05925419W000050TAL     GILES CENTRO
LCAMN000573449698S05952690W000047T       GOROSTIAGA  
LCAMN000583429758S05948109W000054T       GOUIN       
LCAMN000593425938S05939439W000055T       HEAVY       
LCAMN000603428978S05922589W000046T       HOTEL LA LUN
LCAMN000613414688S06032078W000056T       HUNTER      
LCAMN000623415748S06022869W000052T       INVENCIBLE L
LCAMN000633458548S05931649W000043T       JACINTO SAN 
LCAMN000643408999S06100989W000081T       LA BEBA ESTA
LCAMN000653503119S06021969W000056T       LARREA EST  
LCAMN000663427419S06010808W000063T       LOS ANGELES 
LCAMN000673307498S06136499W000074T       LOS NOGALES 
LCAMN000683407628S05958360W000035T       LUISA LA    
LCAMN000693357239S06017719W000053T       MAGUIRE     
LCAMN000703355689S05944788W000021T       MONETA      
LCAMN000713459748S05916849W000033T       NAVARRO EST 
LCAMN000723436848S06014789W000060T       PATRICIO SAN
LCAMN000733431499S05918119W000039T       PEAJE ESPIL 
LCAMN000743349948S06029999W000079T       PENA DE LA  
LCAMN000753358789S05940199W000027T       PORTELA IRIN
LCAMN000763402018S06030079W000067T       RANCAGUA    
LCAMN000773436598S06004028W000063T       RAWSON      
LCAMN000783411999S06043999W000069T       ROJAS EST   
LCAMN000793524189S05920179W000032T       ROQUE PEREZ 
LCAMN000803417398S06015719W000042T       SALTO ESTACI
LCAMN000813352499S05952289W000050T       SANTA LUCIA 
LCAMN000823345988S05954999W000045T       SANTA LUCIA 
LCAMN000833427908S05959919W000050T       SARGENTOS TR
LCAMN000843410539S05947589W000048T       SARMIENTO CA
LCAMN000853417719S05919209W000039T       SOLIS       
LCAMN000863446378S05941430W000046T       SUIPACHA    
LCAMN000873422259S05957659W000046T       TATAY       
LCAMN000883431499S05941659W000053T       TUYUTI      
LCAMN000893417768S05927529W000032T       VAGUES      
LCAMN000903407218S05925739W000038T       VILLA LIA   
LCAMN000913359559S06013679W000052T       VINA        
LCAMN000923343978S06010499W000055T       VIOLETA LA  
LCAMN000933405819S05902279W000025T       ZARATE EST  
C261013162455261013000103
C0000000N00000000E0000TAKEOFF    
C3428239S05925420W0056GILES CENTRO
C3442900S05933089W0055GARCIA MJ   
C3351299S05932590W00029 Y 41      
C3413889S05912629W0012AE CHENAULT 
C3428239S05925420W0056GILES CENTRO
C0000000N00000000E0000LANDING    
B1558093428008S05925580WA0005000071015000000000
B1558173428008S05925580WA0005000071015000000000
B1558253428008S05925580WA0005000071015000000000
B1558333427998S05925580WA0005000072015000000000
B1558413427998S05925580WA0005000072015000000000
B1558493427998S05925580WA0005000072015000000000
B1558573428008S05925580WA0005000072015000000000
B1559053427998S05925580WA0005500072015000000000
B1559133428008S05925580WA0005000072015000000000
B1559213428008S05925580WA0005500072015000000000
B1559293428008S05925580WA0005000072015000000000
B1559373428008S05925580WA0005000072015000000000
B1559453428008S05925580WA0005000072015000000000
B1559533428008S05925580WA0005000072015000000000
B1600013428008S05925580WA0005000072015000000000
B1600093428008S05925580WA0005000071015000000000
B1600173428029S05925569WA0005000071015000000000
B1600213428059S05925549WA0005000071015000000000
B1600253428098S05925519WA0005000072015000000000
B1600293428149S05925490WA0005000073015000000000
B1600333428199S05925459WA0005000074015000000000
B1600373428268S05925419WA0005500077015000000000
B1600413428338S05925379WA0007000088015000000000
B1600453428409S05925349WA0009000101015000000000
B1600493428468S05925309WA0011000118015000000000
B1600533428539S05925269WA0012400134015000000000
B1600573428598S05925230WA0013800150015000000000
B1601013428658S05925190WA0016300170015000000000
B1601053428718S05925150WA0017100192015000000000
B1601093428778S05925110WA0018300207015000000000
B1601133428839S05925060WA0019700215015000000000
B1601173428898S05925020WA0020300224015000000000
B1601213428959S05924969WA0021000234015000000000
B1601253429009S05924930WA0021800242015000000000
B1601293429068S05924889WA0022500249015000000000
B1601333429128S05924839WA0023800257015000000000
B1601373429189S05924789WA0026600274015000000000
B1601413429238S05924739WA0027900297015000000000
B1601453429269S05924659WA0029300308015000000000
B1601493429278S05924579WA0031300328015000000000
B1601533429269S05924499WA0033400345015000000000
B1601573429219S05924439WA0036700374015000000000
B1602013429148S05924409WA0038100397015000000000
B1602053429078S05924409WA0038700414015000000000
B1602093429019S05924460WA0041600427015000000000
B1602133428988S05924529WA0043600449015000000000
B1602173428978S05924599WA0045100467015000000000
B1602213428998S05924670WA0045600482015000000000
B1602253429049S05924709WA0047200493015000000000
B1602293429108S05924729WA0049100504015000000000
B1602333429168S05924709WA0051900530015000000000
B1602373429219S05924659WA0052600550015000000000
B1602413429248S05924579WA0053300556015000000000
B1602453429259S05924489WA0055400574015000000000
B1602493429229S05924409WA0057500591015000000000
B1602533429179S05924339WA0058900608015000000000
B1602573429108S05924309WA0061600632015000000000
B1603013429049S05924330WA0063700655015000000000
B1603053429019S05924389WA0064300667015000000000
B1603093429028S05924449WA0065200677015000000000
B1603133429068S05924489WA0065700683015000000000
B1603173429128S05924479WA0065700687015000000000
B1603213429179S05924439WA0067100695015000000000
B1603253429198S05924369WA0068600706015000000000
B1603293429189S05924299WA0068600717015000000000
B1603333429139S05924239WA0069400720015000000000
B1603373429078S05924229WA0071500735015000000000
B1603413429028S05924269WA0072900751015000000000
B1603453429009S05924319WA0073500761015000000000
B1603493429019S05924380WA0074100773015000000000
B1603533429059S05924399WA0074100774015000000000
B1603573429108S05924369WA0075000777015000000000
B1604013429128S05924309WA0075700787015000000000
B1604053429128S05924239WA0076400793015000000000
B1604093429108S05924160WA0077900804015000000000
B1604133429059S05924120WA0079300816015000000000
B1604173429009S05924129WA0079900828015000000000
B1604213428978S05924189WA0080700837015000000000
B1604253428998S05924239WA0081400844015000000000
B1604293429049S05924259WA0082000852015000000000
B1604333429099S05924229WA0082800863015000000000
B1604373429118S05924160WA0085000874015000000000
B1604413429108S05924089WA0085700885015000000000
B1604453429059S05924049WA0087000902015000000000
B1604493428998S05924049WA0087700902015000000000
B1604533428959S05924099WA0089100914015000000000
B1604573428959S05924160WA0089100926015000000000
B1605013428998S05924189WA0090700934015000000000
B1605053429049S05924189WA0091300946015000000000
B1605093429089S05924139WA0092800955015000000000
B1605133429099S05924069WA0094200971015000000000
B1605173429078S05923999WA0094900978015000000000
B1605213429028S05923969WA0095700987015000000000
B1605253428969S05923979WA0096400996015000000000
B1605293428929S05924030WA0097801006015000000000
B1605333428929S05924089WA0098501016015000000000
B1605373428959S05924139WA0098501021015000000000
B1605413429009S05924149WA0099801030015000000000
B1605453429059S05924109WA0099801037015000000000
B1605493429078S05924049WA0101501050015000000000
B1605533429059S05923979WA0102101055015000000000
B1605573429009S05923950WA0102101060015000000000
B1606013428948S05923979WA0103601066015000000000
B1606053428919S05924030WA0104301076015000000000
B1606093428938S05924089WA0105101082015000000000
B1606133428978S05924120WA0105901089015000000000
B1606173429028S05924099WA0106501096015000000000
B1606213429068S05924039WA0107301105015000000000
B1606253429068S05923979WA0107301112015000000000
B1606293429028S05923919WA0108801113015000000000
B1606333428978S05923900WA0109401124015000000000
B1606373428919S05923929WA0109401128015000000000
B1606413428898S05923990WA0110201135015000000000
B1606453428908S05924039WA0111001139015000000000
B1606493428959S05924069WA0111701148015000000000
B1606533429009S05924039WA0111701153015000000000
B1606573429028S05923979WA0112401162015000000000
B1607013429019S05923908WA0113101164015000000000
B1607053428978S05923860WA0114601170015000000000
B1607093428919S05923849WA0115401182015000000000
B1607133428868S05923889WA0114601187015000000000
B1607173428848S05923950WA0114601187015000000000
B1607213428868S05924009WA0116101194015000000000
B1607253428919S05924030WA0116101198015000000000
B1607293428969S05923999WA0116101197015000000000
B1607333429009S05923950WA0116801208015000000000
B1607373428998S05923879WA0116801207015000000000
B1607413428969S05923829WA0117601211015000000000
B1607453428908S05923799WA0118301219015000000000
B1607493428858S05923820WA0118301225015000000000
B1607533428829S05923869WA0119001228015000000000
B1607573428839S05923929WA0118301224015000000000
B1608013428879S05923979WA0118301226015000000000
B1608053428929S05923979WA0119001228015000000000
B1608093428969S05923950WA0119801234015000000000
B1608133428998S05923889WA0118301231015000000000
B1608173428988S05923820WA0119001229015000000000
B1608213428948S05923759WA0119801232015000000000
B1608253428898S05923739WA0119801237015000000000
B1608293428839S05923739WA0119801235015000000000
B1608333428778S05923759WA0119801236015000000000
B1608373428738S05923789WA0119801239015000000000
B1608413428688S05923829WA0119801237015000000000
B1608453428638S05923869WA0119001233015000000000
B1608493428579S05923900WA0119801234015000000000
B1608533428518S05923908WA0120401242015000000000
B1608573428449S05923908WA0120401244015000000000
B1609013428388S05923939WA0120401245015000000000
B1609053428369S05923999WA0120401245015000000000
B1609093428388S05924049WA0119801239015000000000
B1609133428439S05924059WA0119801234015000000000
B1609173428478S05924019WA0119001231015000000000
B1609213428489S05923959WA0119801234015000000000
B1609253428478S05923889WA0119801233015000000000
B1609293428468S05923820WA0119801236015000000000
B1609333428439S05923759WA0120401238015000000000
B1609373428388S05923719WA0120401241015000000000
B1609413428319S05923719WA0119801241015000000000
B1609453428268S05923759WA0118301231015000000000
B1609493428239S05923820WA0116801216015000000000
B1609533428218S05923889WA0116101202015000000000
B1609573428189S05923959WA0114601193015000000000
B1610013428159S05924030WA0113801180015000000000
B1610053428128S05924109WA0113801173015000000000
B1610093428098S05924179WA0113101171015000000000
B1610133428078S05924250WA0113101169015000000000
B1610173428038S05924319WA0111701160015000000000
B1610213428008S05924399WA0111701146015000000000
B1610253427968S05924469WA0111701150015000000000
B1610293427929S05924550WA0111701155015000000000
B1610333427899S05924609WA0112401159015000000000
B1610373427859S05924670WA0113101167015000000000
B1610413427809S05924709WA0113801171015000000000
B1610453427748S05924739WA0113801173015000000000
B1610493427688S05924749WA0113101172015000000000
B1610533427629S05924769WA0112401162015000000000
B1610573427568S05924789WA0111701154015000000000
B1611013427518S05924850WA0112401159015000000000
B1611053427499S05924909WA0113101161015000000000
B1611093427499S05924980WA0112401162015000000000
B1611133427499S05925049WA0113101165015000000000
B1611173427499S05925110WA0114601176015000000000
B1611213427539S05925139WA0115401188015000000000
B1611253427578S05925129WA0115401191015000000000
B1611293427608S05925079WA0114601192015000000000
B1611333427589S05925009WA0113801180015000000000
B1611373427549S05924949WA0114601182015000000000
B1611413427488S05924919WA0115401190015000000000
B1611453427429S05924909WA0116101196015000000000
B1611493427379S05924938WA0114601194015000000000
B1611533427369S05924999WA0113801184015000000000
B1611573427388S05925060WA0115401183015000000000
B1612013427429S05925099WA0115401191015000000000
B1612053427469S05925099WA0115401191015000000000
B1612093427518S05925079WA0115401188015000000000
B1612133427558S05925029WA0115401190015000000000
B1612173427599S05924980WA0115401188015000000000
B1612213427639S05924938WA0116101188015000000000
B1612253427688S05924909WA0116101273015000000000
B1612293427738S05924889WA0115401193015000000000
B1612333427788S05924859WA0113801177015000000000
B1612373427849S05924819WA0113101166015000000000
B1612413427899S05924779WA0111701158015000000000
B1612453427958S05924729WA0111701155015000000000
B1612493428008S05924689WA0111001153015000000000
B1612533428069S05924659WA0111701156015000000000
B1612573428118S05924619WA0111701157015000000000
B1613013428178S05924590WA0111701157015000000000
B1613053428229S05924550WA0112401157015000000000
B1613093428268S05924489WA0112401160015000000000
B1613133428268S05924409WA0112401164015000000000
B1613173428248S05924349WA0112401163015000000000
B1613213428189S05924299WA0111701156015000000000
B1613253428138S05924279WA0111701151015000000000
B1613293428069S05924259WA0111001144015000000000
B1613333428008S05924239WA0110201140015000000000
B1613373427948S05924209WA0111001142015000000000
B1613413427889S05924189WA0111001143015000000000
B1613453427828S05924160WA0110201141015000000000
B1613493427769S05924149WA0108801130015000000000
B1613533427708S05924160WA0108801126015000000000
B1613573427658S05924200WA0108001122015000000000
B1614013427608S05924239WA0108801117015000000000
B1614053427558S05924299WA0108001116015000000000
B1614093427518S05924359WA0107301112015000000000
B1614133427488S05924420WA0106501107015000000000
B1614173427448S05924479WA0105901096015000000000
B1614213427409S05924550WA0106501093015000000000
B1614253427369S05924609WA0107301100015000000000
B1614293427329S05924670WA0106501106015000000000
B1614333427289S05924729WA0106501106015000000000
B1614373427249S05924779WA0106501104015000000000
B1614413427218S05924839WA0107301108015000000000
B1614453427218S05924899WA0107301112015000000000
B1614493427249S05924938WA0107301112015000000000
B1614533427308S05924949WA0108001114015000000000
B1614573427348S05924909WA0108801120015000000000
B1615013427358S05924839WA0108801123015000000000
B1615053427339S05924769WA0108801125015000000000
B1615093427278S05924729WA0108801125015000000000
B1615133427218S05924739WA0108801127015000000000
B1615173427178S05924779WA0109401131015000000000
B1615213427169S05924839WA0108801128015000000000
B1615253427199S05924889WA0108801127015000000000
B1615293427249S05924909WA0109401126015000000000
B1615333427299S05924909WA0108801123015000000000
B1615373427358S05924909WA0108801124015000000000
B1615413427409S05924909WA0109401125015000000000
B1615453427469S05924899WA0109401130015000000000
B1615493427518S05924869WA0111001140015000000000
B1615533427539S05924819WA0111001147015000000000
B1615573427528S05924749WA0111701151015000000000
B1616013427488S05924709WA0111001149015000000000
B1616053427429S05924720WA0111001148015000000000
B1616093427398S05924769WA0111001153015000000000
B1616133427409S05924829WA0111001153015000000000
B1616173427438S05924869WA0111701154015000000000
B1616213427478S05924909WA0112401161015000000000
B1616253427528S05924919WA0113101171015000000000
B1616293427568S05924899WA0113101170015000000000
B1616333427599S05924839WA0113101167015000000000
B1616373427599S05924769WA0112401167015000000000
B1616413427589S05924699WA0111701155015000000000
B1616453427589S05924629WA0111701153015000000000
B1616493427578S05924559WA0111701157015000000000
B1616533427528S05924499WA0111001150015000000000
B1616573427469S05924479WA0111701154015000000000
B1617013427419S05924489WA0112401161015000000000
B1617053427388S05924529WA0113101164015000000000
B1617093427398S05924590WA0113801171015000000000
B1617133427438S05924609WA0113801174015000000000
B1617173427488S05924599WA0114601176015000000000
B1617213427528S05924539WA0114601180015000000000
B1617253427528S05924469WA0115401189015000000000
B1617293427499S05924409WA0115401193015000000000
B1617333427448S05924380WA0114601186015000000000
B1617373427398S05924409WA0114601179015000000000
B1617413427388S05924460WA0115401186015000000000
B1617453427409S05924519WA0115401188015000000000
B1617493427429S05924569WA0115401187015000000000
B1617533427459S05924629WA0114601188015000000000
B1617573427488S05924689WA0115401186015000000000
B1618013427518S05924749WA0114601187015000000000
B1618053427549S05924819WA0113801177015000000000
B1618093427578S05924889WA0113101166015000000000
B1618133427608S05924959WA0112401162015000000000
B1618173427639S05925029WA0112401162015000000000
B1618213427658S05925089WA0111701159015000000000
B1618253427688S05925159WA0111701155015000000000
B1618293427708S05925230WA0111001148015000000000
B1618333427738S05925299WA0111701147015000000000
B1618373427769S05925369WA0111701146015000000000
B1618413427788S05925429WA0111701151015000000000
B1618453427799S05925499WA0111001152015000000000
B1618493427809S05925569WA0111001146015000000000
B1618533427818S05925639WA0111001141015000000000
B1618573427838S05925710WA0110201140015000000000
B1619013427868S05925769WA0110201141015000000000
B1619053427889S05925830WA0110201140015000000000
B1619093427908S05925880WA0110201136015000000000
B1619133427939S05925939WA0109401129015000000000
B1619173427979S05925989WA0108001121015000000000
B1619213428008S05926029WA0107301114015000000000
B1619253428038S05926069WA0107301107015000000000
B1619293428078S05926109WA0107301102015000000000
B1619333428109S05926159WA0107301103015000000000
B1619373428118S05926220WA0108001108015000000000
B1619413428109S05926289WA0108001114015000000000
B1619453428088S05926350WA0109401122015000000000
B1619493428078S05926409WA0108801127015000000000
B1619533428109S05926469WA0110201131015000000000
B1619573428159S05926469WA0111001141015000000000
B1620013428189S05926419WA0111701147015000000000
B1620053428189S05926350WA0113101157015000000000
B1620093428149S05926299WA0114601173015000000000
B1620133428088S05926289WA0115401184015000000000
B1620173428038S05926329WA0114601186015000000000
B1620213428019S05926390WA0116101192015000000000
B1620253428038S05926440WA0116101200015000000000
B1620293428078S05926469WA0116101199015000000000
B1620333428118S05926449WA0115401198015000000000
B1620373428149S05926390WA0115401192015000000000
B1620413428149S05926319WA0116101193015000000000
B1620453428128S05926260WA0117601204015000000000
B1620493428088S05926209WA0117601215015000000000
B1620533428029S05926209WA0117601213015000000000
B1620573427979S05926249WA0118301213015000000000
B1621013427958S05926310WA0117601214015000000000
B1621053427979S05926359WA0118301218015000000000
B1621093428019S05926379WA0117601218015000000000
B1621133428069S05926339WA0118301213015000000000
B1621173428088S05926279WA0119001217015000000000
B1621213428078S05926209WA0119801224015000000000
B1621253428048S05926159WA0119801233015000000000
B1621293427988S05926129WA0120401236015000000000
B1621333427929S05926140WA0119801237015000000000
B1621373427889S05926189WA0119801235015000000000
B1621413427889S05926249WA0119001228015000000000
B1621453427918S05926289WA0119001226015000000000
B1621493427968S05926299WA0119001224015000000000
B1621533428019S05926299WA0118301222015000000000
B1621573428069S05926279WA0118301221015000000000
B1622013428118S05926279WA0119001221015000000000
B1622053428168S05926279WA0119801229015000000000
B1622093428208S05926249WA0120401239015000000000
B1622133428229S05926189WA0120401244015000000000
B1622173428208S05926119WA0120401245015000000000
B1622213428159S05926079WA0121301244015000000000
B1622253428109S05926079WA0121901256015000000000
B1622293428059S05926119WA0121901255015000000000
B1622333428059S05926189WA0121901252015000000000
B1622373428088S05926228WA0121901255015000000000
B1622413428138S05926228WA0122801254015000000000
B1622453428178S05926189WA0121901256015000000000
B1622493428189S05926129WA0122801262015000000000
B1622533428159S05926069WA0122801264015000000000
B1622573428109S05926029WA0124101268015000000000
B1623013428048S05926029WA0123401276015000000000
B1623053428008S05926069WA0124101274015000000000
B1623093427988S05926129WA0122801271015000000000
B1623133428008S05926180WA0122801267015000000000
B1623173428059S05926189WA0121901261015000000000
B1623213428109S05926159WA0122801261015000000000
B1623253428138S05926109WA0123401263015000000000
B1623293428138S05926039WA0123401269015000000000
B1623333428118S05925979WA0123401270015000000000
B1623373428069S05925929WA0123401273015000000000
B1623413428008S05925909WA0123401273015000000000
B1623453427958S05925929WA0123401272015000000000
B1623493427908S05925960WA0122801268015000000000
B1623533427859S05925999WA0122801266015000000000
B1623573427799S05926029WA0121901263015000000000
B1624013427738S05926039WA0121301256015000000000
B1624053427688S05926069WA0119801242015000000000
B1624093427658S05926129WA0119001231015000000000
B1624133427679S05926180WA0118301218015000000000
B1624173427729S05926189WA0117601210015000000000
B1624213427769S05926159WA0116101203015000000000
B1624253427809S05926119WA0116101194015000000000
B1624313427889S05926090WA0115401190015000000000
B1624353427939S05926090WA0114601186015000000000
B1624413428008S05926098WA0114601179015000000000
B1624453428059S05926109WA0115401176015000000000
B1624493428109S05926109WA0113801177015000000000
B1624553428189S05926109WA0114601174015000000000
B1624593428248S05926109WA0115401180015000000000
B1625053428319S05926098WA0116101187015000000000
B1625093428369S05926050WA0115401190015000000000
B1625133428378S05925989WA0114601187015000000000
B1625173428348S05925929WA0113801180015000000000
B1625213428308S05925899WA0113801175015000000000
B1625253428248S05925909WA0113801167015000000000
B1625293428199S05925939WA0113801169015000000000
B1625333428168S05925989WA0113801170015000000000
B1625373428138S05926039WA0113801172015000000000
B1625413428128S05926090WA0113801170015000000000
B1625453428118S05926149WA0114601175015000000000
B1625493428118S05926209WA0114601181015000000000
B1625533428159S05926249WA0114601181015000000000
B1625573428208S05926249WA0116101187015000000000
B1626013428258S05926220WA0115401192015000000000
B1626053428268S05926149WA0114601183015000000000
B1626093428239S05926090WA0113101171015000000000
B1626133428178S05926069WA0113801164015000000000
B1626173428138S05926090WA0116101178015000000000
B1626213428069S05926119WA0116101192015000000000
B1626253428059S05926180WA0116101194015000000000
B1626293428098S05926220WA0116801196015000000000
B1626333428149S05926220WA0116801200015000000000
B1626373428189S05926159WA0117601205015000000000
B1626413428178S05926090WA0117601211015000000000
B1626453428128S05926039WA0119001216015000000000
B1626493428078S05926039WA0119801229015000000000
B1626533428029S05926079WA0119801235015000000000
B1626573428029S05926140WA0119801230015000000000
B1627013428069S05926169WA0119801233015000000000
B1627053428118S05926149WA0119801235015000000000
B1627093428138S05926079WA0120401231015000000000
B1627133428118S05926010WA0121301243015000000000
B1627173428069S05925979WA0122801254015000000000
B1627213428019S05925979WA0122801262015000000000
B1627253427979S05926029WA0122801261015000000000
B1627293427988S05926090WA0121301251015000000000
B1627333428038S05926109WA0121901254015000000000
B1627373428078S05926069WA0121301254015000000000
B1627413428078S05925999WA0121301249015000000000
B1627453428059S05925939WA0122801255015000000000
B1627493428008S05925889WA0122801263015000000000
B1627533427948S05925889WA0123401270015000000000
B1627573427908S05925919WA0123401269015000000000
B1628013427889S05925979WA0122801262015000000000
B1628053427908S05926029WA0122801263015000000000
B1628093427958S05926039WA0121901263015000000000
B1628133427988S05925989WA0121301253015000000000
B1628173428008S05925919WA0121301246015000000000
B1628213428019S05925840WA0122801253015000000000
B1628253428019S05925769WA0124101268015000000000
B1628293427979S05925710WA0124101274015000000000
B1628333427929S05925689WA0123401271015000000000
B1628373427878S05925719WA0122801262015000000000
B1628413427868S05925779WA0122801255015000000000
B1628453427899S05925830WA0122801259015000000000
B1628493427939S05925859WA0125001274015000000000
B1628533427988S05925849WA0125001279015000000000
B1628573428029S05925799WA0126301285015000000000
B1629013428038S05925729WA0125701296015000000000
B1629053427998S05925659WA0125001285015000000000
B1629093427948S05925629WA0125701286015000000000
B1629133427889S05925639WA0125001285015000000000
B1629173427859S05925689WA0125001280015000000000
B1629213427849S05925739WA0125701283015000000000
B1629253427878S05925789WA0126301289015000000000
B1629293427918S05925809WA0126301297015000000000
B1629333427958S05925789WA0127101302015000000000
B1629373427979S05925719WA0127101311015000000000
B1629413427948S05925659WA0126301305015000000000
B1629453427889S05925629WA0127101300015000000000
B1629493427838S05925649WA0127101307015000000000
B1629533427788S05925679WA0127901309015000000000
B1629573427738S05925719WA0127901310015000000000
B1630013427729S05925789WA0127901311015000000000
B1630053427759S05925830WA0126301305015000000000
B1630093427818S05925830WA0125001291015000000000
B1630133427878S05925799WA0125001277015000000000
B1630173427939S05925759WA0125001276015000000000
B1630213427998S05925719WA0125701282015000000000
B1630253428059S05925679WA0125701287015000000000
B1630293428118S05925649WA0126301298015000000000
B1630333428178S05925629WA0125701301015000000000
B1630373428239S05925609WA0124101284015000000000
B1630413428308S05925580WA0123401272015000000000
B1630453428378S05925569WA0122801264015000000000
B1630493428459S05925549WA0121901252015000000000
B1630533428528S05925529WA0121901248015000000000
B1630573428598S05925499WA0121301249015000000000
B1631013428678S05925469WA0121301243015000000000
B1631053428749S05925439WA0119801235015000000000
B1631093428818S05925399WA0119801228015000000000
B1631133428889S05925369WA0119001223015000000000
B1631173428969S05925329WA0119001219015000000000
B1631213429038S05925299WA0118301216015000000000
B1631253429108S05925269WA0117601211015000000000
B1631293429179S05925230WA0118301207015000000000
B1631333429248S05925198WA0117601206015000000000
B1631373429328S05925169WA0117601203015000000000
B1631413429399S05925139WA0116801201015000000000
B1631453429468S05925119WA0116801193015000000000
B1631493429538S05925089WA0115401187015000000000
B1631533429619S05925060WA0115401182015000000000
B1631573429688S05925029WA0115401177015000000000
B1632013429758S05925009WA0113801171015000000000
B1632053429829S05924980WA0113801165015000000000
B1632093429909S05924959WA0112401159015000000000
B1632133429978S05924930WA0111701154015000000000
B1632173430049S05924909WA0112401152015000000000
B1632213430119S05924879WA0111701151015000000000
B1632253430188S05924850WA0111701146015000000000
B1632293430259S05924829WA0111001138015000000000
B1632333430328S05924800WA0110201132015000000000
B1632373430398S05924769WA0110201127015000000000
B1632413430469S05924749WA0109401123015000000000
B1632453430538S05924720WA0108801119015000000000
B1632493430599S05924699WA0108801114015000000000
B1632533430668S05924680WA0108001108015000000000
B1632573430738S05924649WA0106501101015000000000
B1633013430798S05924619WA0106501094015000000000
B1633053430868S05924599WA0106501094015000000000
B1633093430939S05924569WA0108801100015000000000
B1633133430998S05924539WA0110201122015000000000
B1633173431048S05924519WA0111001138015000000000
B1633213431109S05924509WA0111001140015000000000
B1633253431168S05924499WA0111001139015000000000
B1633293431239S05924499WA0111701139015000000000
B1633333431308S05924499WA0111701150015000000000
B1633373431388S05924499WA0111001145015000000000
B1633413431459S05924489WA0110201133015000000000
B1633453431528S05924489WA0111701139015000000000
B1633493431598S05924479WA0114601159015000000000
B1633533431658S05924469WA0115401177015000000000
B1633573431719S05924460WA0114601180015000000000
B1634013431778S05924469WA0113101172015000000000
B1634053431849S05924489WA0111701153015000000000
B1634093431918S05924519WA0110201135015000000000
B1634133431988S05924539WA0110201129015000000000
B1634173432059S05924569WA0109401125015000000000
B1634213432128S05924590WA0109401121015000000000
B1634253432198S05924619WA0110201127015000000000
B1634293432258S05924639WA0109401128015000000000
B1634333432328S05924659WA0109401122015000000000
B1634373432399S05924680WA0109401117015000000000
B1634413432458S05924709WA0108801116015000000000
B1634453432529S05924729WA0108001109015000000000
B1634493432598S05924759WA0107301103015000000000
B1634533432659S05924789WA0106501098015000000000
B1634573432728S05924819WA0106501097015000000000
B1635013432799S05924850WA0106501093015000000000
B1635053432858S05924879WA0107301095015000000000
B1635093432919S05924909WA0107301095015000000000
B1635133432978S05924930WA0107301101015000000000
B1635173433039S05924949WA0107301097015000000000
B1635213433108S05924980WA0106501093015000000000
B1635253433169S05925009WA0106501089015000000000
B1635293433229S05925029WA0105901084015000000000
B1635333433299S05925060WA0105101081015000000000
B1635373433358S05925079WA0105101074015000000000
B1635413433418S05925110WA0103601068015000000000
B1635453433488S05925129WA0103001061015000000000
B1635493433548S05925159WA0102101053015000000000
B1635533433609S05925179WA0101501041015000000000
B1635573433678S05925198WA0099801035015000000000
B1636013433739S05925230WA0099801028015000000000
B1636053433798S05925249WA0099301022015000000000
B1636093433859S05925280WA0098501016015000000000
B1636133433918S05925309WA0097801008015000000000
B1636173433978S05925339WA0097100999015000000000
B1636213434029S05925379WA0097100996015000000000
B1636253434079S05925429WA0097800999015000000000
B1636293434119S05925479WA0098501008015000000000
B1636333434169S05925529WA0100701028015000000000
B1636373434209S05925559WA0101501042015000000000
B1636413434268S05925589WA0103001044015000000000
B1636453434318S05925620WA0103001054015000000000
B1636493434379S05925639WA0102101053015000000000
B1636533434448S05925649WA0101501043015000000000
B1636573434518S05925659WA0101501039015000000000
B1637013434578S05925659WA0101501039015000000000
B1637053434639S05925620WA0101501041015000000000
B1637093434639S05925540WA0100701036015000000000
B1637133434589S05925490WA0101501037015000000000
B1637173434528S05925490WA0100701031015000000000
B1637213434459S05925499WA0098501020015000000000
B1637253434389S05925509WA0097101006015000000000
B1637293434318S05925519WA0097100995015000000000
B1637333434249S05925529WA0097800992015000000000
B1637373434178S05925540WA0097800995015000000000
B1637413434098S05925540WA0097801001015000000000
B1637453434029S05925540WA0098501001015000000000
B1637493433959S05925529WA0098501011015000000000
B1637533433878S05925540WA0099301018015000000000
B1637573433808S05925540WA0099301017015000000000
B1638013433729S05925549WA0099801019015000000000
B1638053433649S05925549WA0099801022015000000000
B1638093433559S05925559WA0099301019015000000000
B1638133433479S05925559WA0099301018015000000000
B1638173433399S05925559WA0098501016015000000000
B1638213433318S05925559WA0097801012015000000000
B1638253433238S05925559WA0097801002015000000000
B1638293433169S05925569WA0098500999015000000000
B1638333433089S05925559WA0098501009015000000000
B1638373433018S05925559WA0098501016015000000000
B1638413432948S05925559WA0097801015015000000000
B1638453432869S05925559WA0097801007015000000000
B1638493432789S05925569WA0098501009015000000000
B1638533432718S05925569WA0097801011015000000000
B1638573432638S05925580WA0097101003015000000000
B1639013432568S05925580WA0096400995015000000000
B1639053432489S05925589WA0096400990015000000000
B1639093432418S05925589WA0097100995015000000000
B1639133432349S05925580WA0097100999015000000000
B1639173432269S05925559WA0097100996015000000000
B1639213432198S05925540WA0097100997015000000000
B1639253432118S05925519WA0097100998015000000000
B1639293432038S05925499WA0096400995015000000000
B1639333431958S05925479WA0096400987015000000000
B1639373431879S05925459WA0095700987015000000000
B1639413431809S05925450WA0094200975015000000000
B1639453431728S05925429WA0094200966015000000000
B1639493431648S05925410WA0092800961015000000000
B1639533431568S05925389WA0092800954015000000000
B1639573431499S05925379WA0093400959015000000000
B1640013431428S05925369WA0094200968015000000000
B1640053431358S05925360WA0096400981015000000000
B1640093431289S05925360WA0097100990015000000000
B1640133431218S05925369WA0097801003015000000000
B1640173431148S05925389WA0097801010015000000000
B1640213431079S05925399WA0097801009015000000000
B1640253431008S05925419WA0097101000015000000000
B1640293430928S05925429WA0096400995015000000000
B1640333430859S05925439WA0094900985015000000000
B1640373430788S05925450WA0094200975015000000000
B1640413430708S05925459WA0092800962015000000000
B1640453430628S05925469WA0091300951015000000000
B1640493430549S05925479WA0091300943015000000000
B1640533430479S05925479WA0090700935015000000000
B1640573430398S05925490WA0090000931015000000000
B1641013430318S05925479WA0090000928015000000000
B1641053430249S05925459WA0090000927015000000000
B1641093430178S05925439WA0090000925015000000000
B1641133430098S05925419WA0087700916015000000000
B1641173430018S05925410WA0087000903015000000000
B1641213429938S05925419WA0086200893015000000000
B1641253429859S05925419WA0086200891015000000000
B1641293429789S05925429WA0086200894015000000000
B1641333429708S05925450WA0086200892015000000000
B1641373429628S05925459WA0086200894015000000000
B1641413429548S05925469WA0086200891015000000000
B1641453429468S05925469WA0087700895015000000000
B1641493429399S05925479WA0090000914015000000000
B1641533429328S05925490WA0092100939015000000000
B1641573429269S05925499WA0092100951015000000000
B1642013429198S05925509WA0092100947015000000000
B1642053429128S05925509WA0092100949015000000000
B1642093429049S05925519WA0092100949015000000000
B1642133428969S05925519WA0091300940015000000000
B1642173428898S05925519WA0090700930015000000000
B1642213428818S05925519WA0091300935015000000000
B1642253428749S05925519WA0092800942015000000000
B1642293428678S05925519WA0093400957015000000000
B1642333428608S05925529WA0093400960015000000000
B1642373428528S05925529WA0093400957015000000000
B1642413428459S05925540WA0092800958015000000000
B1642453428388S05925540WA0092800950015000000000
B1642493428308S05925540WA0091300940015000000000
B1642533428229S05925529WA0092100936015000000000
B1642573428159S05925519WA0092100942015000000000
B1643013428078S05925509WA0092800950015000000000
B1643053428008S05925499WA0092100954015000000000
B1643093427939S05925490WA0092800950015000000000
B1643133427859S05925469WA0092800953015000000000
B1643173427788S05925450WA0092800954015000000000
B1643213427708S05925439WA0092800950015000000000
B1643253427639S05925419WA0094200955015000000000
B1643293427568S05925399WA0094900968015000000000
B1643333427499S05925389WA0097100991015000000000
B1643373427459S05925439WA0098501001015000000000
B1643413427478S05925490WA0098501010015000000000
B1643453427528S05925490WA0099301015015000000000
B1643493427558S05925439WA0099801020015000000000
B1643533427558S05925369WA0100701030015000000000
B1643573427539S05925309WA0102101043015000000000
B1644013427488S05925269WA0103001052015000000000
B1644053427429S05925269WA0103601060015000000000
B1644093427388S05925309WA0104301067015000000000
B1644133427379S05925369WA0104301069015000000000
B1644173427419S05925410WA0105101073015000000000
B1644213427459S05925399WA0105101076015000000000
B1644253427488S05925349WA0105101076015000000000
B1644293427488S05925280WA0107301087015000000000
B1644333427438S05925219WA0107301099015000000000
B1644373427379S05925209WA0108801109015000000000
B1644413427339S05925249WA0108801118015000000000
B1644453427329S05925309WA0108801117015000000000
B1644493427358S05925349WA0109401120015000000000
B1644533427409S05925339WA0109401122015000000000
B1644573427438S05925289WA0110201118015000000000
B1645013427469S05925230WA0111001129015000000000
B1645053427459S05925159WA0112401144015000000000
B1645093427419S05925110WA0111701146015000000000
B1645133427358S05925089WA0113101151015000000000
B1645173427308S05925129WA0113801158015000000000
B1645213427308S05925190WA0113801164015000000000
B1645253427339S05925219WA0113801162015000000000
B1645293427388S05925209WA0113801158015000000000
B1645333427419S05925159WA0114601168015000000000
B1645373427429S05925089WA0116101177015000000000
B1645413427398S05925029WA0116101186015000000000
B1645453427348S05924980WA0116801187015000000000
B1645493427289S05924969WA0116101191015000000000
B1645533427218S05924980WA0115401185015000000000
B1645573427148S05924989WA0115401181015000000000
B1646013427079S05924999WA0114601177015000000000
B1646053427008S05925009WA0113101164015000000000
B1646093426928S05925029WA0112401154015000000000
B1646133426848S05925049WA0112401149015000000000
B1646173426779S05925079WA0112401145015000000000
B1646213426708S05925119WA0111701145015000000000
B1646253426639S05925150WA0111701143015000000000
B1646293426569S05925179WA0111701142015000000000
B1646333426509S05925219WA0111001137015000000000
B1646373426439S05925249WA0110201131015000000000
B1646413426368S05925289WA0111001127015000000000
B1646453426309S05925320WA0110201126015000000000
B1646493426238S05925360WA0109401119015000000000
B1646533426169S05925389WA0108801113015000000000
B1646573426098S05925429WA0108001108015000000000
B1647013426028S05925469WA0108001104015000000000
B1647053425959S05925509WA0108001103015000000000
B1647093425888S05925540WA0108001105015000000000
B1647133425829S05925569WA0108001104015000000000
B1647173425758S05925599WA0107301102015000000000
B1647213425688S05925629WA0107301102015000000000
B1647253425619S05925649WA0108001102015000000000
B1647293425548S05925679WA0108001100015000000000
B1647333425479S05925710WA0107301092015000000000
B1647373425409S05925739WA0105901089015000000000
B1647413425338S05925769WA0105901080015000000000
B1647453425269S05925789WA0104301074015000000000
B1647493425198S05925819WA0104301065015000000000
B1647533425128S05925840WA0103601061015000000000
B1647573425059S05925869WA0103001051015000000000
B1648013424988S05925909WA0103001048015000000000
B1648053424929S05925960WA0102101043015000000000
B1648093424878S05926010WA0101501036015000000000
B1648133424818S05926059WA0100701028015000000000
B1648173424748S05926098WA0100701026015000000000
B1648213424688S05926129WA0100701032015000000000
B1648253424618S05926149WA0101501032015000000000
B1648293424549S05926169WA0100701031015000000000
B1648333424478S05926189WA0100701027015000000000
B1648373424409S05926209WA0099801021015000000000
B1648413424338S05926228WA0098501017015000000000
B1648453424268S05926260WA0098501014015000000000
B1648493424199S05926279WA0097801007015000000000
B1648533424128S05926289WA0097801000015000000000
B1648573424058S05926310WA0097100993015000000000
B1649013423998S05926329WA0097100995015000000000
B1649053423928S05926359WA0097100996015000000000
B1649093423868S05926359WA0098500999015000000000
B1649133423809S05926350WA0099801014015000000000
B1649173423748S05926339WA0099801024015000000000
B1649213423689S05926319WA0099301024015000000000
B1649253423618S05926319WA0099301018015000000000
B1649293423549S05926319WA0099801021015000000000
B1649333423488S05926329WA0100701024015000000000
B1649373423419S05926339WA0100701031015000000000
B1649413423358S05926350WA0101501030015000000000
B1649453423289S05926369WA0102101042015000000000
B1649493423219S05926390WA0101501042015000000000
B1649533423158S05926399WA0101501036015000000000
B1649573423089S05926419WA0100701037015000000000
B1650013423018S05926440WA0099801032015000000000
B1650053422949S05926459WA0099301023015000000000
B1650093422869S05926480WA0099301014015000000000
B1650133422798S05926509WA0098501007015000000000
B1650173422718S05926529WA0097801002015000000000
B1650213422649S05926559WA0097100997015000000000
B1650253422578S05926589WA0097100992015000000000
B1650293422508S05926619WA0096400989015000000000
B1650333422439S05926650WA0095700986015000000000
B1650373422368S05926669WA0095700980015000000000
B1650413422299S05926689WA0094900973015000000000
B1650453422229S05926709WA0094200964015000000000
B1650493422158S05926719WA0094200962015000000000
B1650533422099S05926740WA0093400959015000000000
B1650573422028S05926749WA0092800951015000000000
B1651013421959S05926769WA0091300939015000000000
B1651053421888S05926780WA0090700927015000000000
B1651093421818S05926789WA0089100919015000000000
B1651133421749S05926809WA0089100911015000000000
B1651173421678S05926829WA0089100910015000000000
B1651213421608S05926839WA0089100908015000000000
B1651253421539S05926859WA0090000913015000000000
B1651293421478S05926870WA0091300925015000000000
B1651333421418S05926879WA0093400943015000000000
B1651373421388S05926919WA0094200959015000000000
B1651413421399S05926969WA0094200963015000000000
B1651453421449S05926989WA0094900967015000000000
B1651493421478S05926939WA0094900972015000000000
B1651533421489S05926870WA0095700975015000000000
B1651573421458S05926809WA0096400981015000000000
B1652013421399S05926769WA0096400985015000000000
B1652053421338S05926769WA0097100993015000000000
B1652093421298S05926819WA0097800997015000000000
B1652133421298S05926879WA0099801007015000000000
B1652173421329S05926910WA0099801024015000000000
B1652213421378S05926889WA0099801025015000000000
B1652253421399S05926819WA0100701024015000000000
B1652293421369S05926749WA0102101038015000000000
B1652333421319S05926709WA0103001049015000000000
B1652373421258S05926729WA0103601051015000000000
B1652413421239S05926780WA0103601056015000000000
B1652453421248S05926839WA0105901068015000000000
B1652493421279S05926870WA0105901080015000000000
B1652533421319S05926839WA0106501087015000000000
B1652573421329S05926759WA0106501087015000000000
B1653013421298S05926700WA0107301093015000000000
B1653053421239S05926679WA0108801102015000000000
B1653093421189S05926709WA0108801108015000000000
B1653133421178S05926769WA0110201113015000000000
B1653173421208S05926809WA0111001120015000000000
B1653213421258S05926799WA0111001128015000000000
B1653253421288S05926729WA0110201131015000000000
B1653293421279S05926650WA0110201128015000000000
B1653333421229S05926599WA0111701137015000000000
B1653373421168S05926599WA0112401144015000000000
B1653413421128S05926639WA0113101149015000000000
B1653453421128S05926689WA0113101154015000000000
B1653493421139S05926740WA0113801158015000000000
B1653533421178S05926769WA0114601168015000000000
B1653573421229S05926740WA0114601171015000000000
B1654013421248S05926679WA0113801167015000000000
B1654053421239S05926599WA0114601170015000000000
B1654093421189S05926559WA0115401178015000000000
B1654133421128S05926549WA0115401179015000000000
B1654173421069S05926549WA0114601176015000000000
B1654213421009S05926549WA0114601171015000000000
B1654253420939S05926559WA0113801167015000000000
B1654293420868S05926570WA0113101160015000000000
B1654333420799S05926579WA0111701152015000000000
B1654373420719S05926589WA0111001138015000000000
B1654413420639S05926579WA0110201133015000000000
B1654453420558S05926579WA0111001132015000000000
B1654493420478S05926570WA0110201130015000000000
B1654533420408S05926559WA0110201126015000000000
B1654573420329S05926549WA0108801121015000000000
B1655013420258S05926539WA0108801113015000000000
B1655053420178S05926529WA0108801107015000000000
B1655093420098S05926520WA0108801106015000000000
B1655133420029S05926520WA0108001105015000000000
B1655173419958S05926509WA0107301102015000000000
B1655213419878S05926509WA0106501096015000000000
B1655253419809S05926499WA0106501091015000000000
B1655293419729S05926489WA0105901090015000000000
B1655333419658S05926480WA0105101082015000000000
B1655373419578S05926480WA0104301073015000000000
B1655413419508S05926480WA0103001063015000000000
B1655453419429S05926489WA0103001055015000000000
B1655493419358S05926489WA0102101051015000000000
B1655533419278S05926499WA0100701045015000000000
B1655573419209S05926509WA0100701030015000000000
B1656013419129S05926520WA0099801026015000000000
B1656053419058S05926520WA0099301021015000000000
B1656093418988S05926539WA0098501014015000000000
B1656133418919S05926549WA0097801006015000000000
B1656173418838S05926559WA0096400999015000000000
B1656213418768S05926579WA0095700983015000000000
B1656253418699S05926619WA0095700977015000000000
B1656293418638S05926659WA0096400982015000000000
B1656333418579S05926689WA0095700989015000000000
B1656373418519S05926719WA0095700984015000000000
B1656413418458S05926749WA0094900982015000000000
B1656453418389S05926780WA0094900975015000000000
B1656493418328S05926809WA0094200971015000000000
B1656533418259S05926829WA0093400968015000000000
B1656573418189S05926859WA0094200965015000000000
B1657013418118S05926879WA0093400964015000000000
B1657053418049S05926899WA0092800960015000000000
B1657093417978S05926919WA0092800953015000000000
B1657133417908S05926949WA0092100950015000000000
B1657173417849S05926979WA0091300944015000000000
B1657213417778S05927009WA0090700937015000000000
B1657253417719S05927049WA0090700934015000000000
B1657293417658S05927080WA0090700933015000000000
B1657333417598S05927119WA0090000933015000000000
B1657373417548S05927159WA0090700927015000000000
B1657413417499S05927210WA0090700927015000000000
B1657453417449S05927249WA0091300932015000000000
B1657493417398S05927290WA0092100941015000000000
B1657533417348S05927340WA0092800949015000000000
B1657573417348S05927399WA0092100948015000000000
B1658013417378S05927439WA0091300942015000000000
B1658053417428S05927439WA0090700940015000000000
B1658093417459S05927389WA0090000932015000000000
B1658133417459S05927319WA0090000927015000000000
B1658173417419S05927258WA0089100923015000000000
B1658213417359S05927229WA0090700924015000000000
B1658253417289S05927199WA0091300934015000000000
B1658293417229S05927179WA0091300938015000000000
B1658333417168S05927149WA0090700931015000000000
B1658373417098S05927119WA0090000923015000000000
B1658413417038S05927089WA0088500914015000000000
B1658453416968S05927059WA0087000902015000000000
B1658493416899S05927029WA0086200891015000000000
B1658533416828S05927000WA0085700883015000000000
B1658573416769S05926959WA0084100873015000000000
B1659013416698S05926929WA0083400861015000000000
B1659053416618S05926889WA0082000851015000000000
B1659093416549S05926870WA0082800852015000000000
B1659133416478S05926879WA0082000852015000000000
B1659173416419S05926879WA0082000846015000000000
B1659213416348S05926889WA0082000843015000000000
B1659253416278S05926879WA0082000841015000000000
B1659293416218S05926870WA0080700837015000000000
B1659333416148S05926839WA0079900829015000000000
B1659373416079S05926799WA0079900823015000000000
B1659413416008S05926759WA0079300818015000000000
B1659453415949S05926719WA0078600812015000000000
B1659493415878S05926679WA0079300807015000000000
B1659533415808S05926629WA0078600807015000000000
B1659573415748S05926589WA0077900803015000000000
B1700013415678S05926559WA0077100799015000000000
B1700053415609S05926520WA0076400794015000000000
B1700093415538S05926489WA0077100790015000000000
B1700133415468S05926459WA0076400790015000000000
B1700173415399S05926429WA0076400783015000000000
B1700213415328S05926399WA0075000777015000000000
B1700253415259S05926369WA0074100771015000000000
B1700293415188S05926339WA0074100767015000000000
B1700333415118S05926310WA0074100764015000000000
B1700373415049S05926279WA0072900755015000000000
B1700413414978S05926249WA0072100748015000000000
B1700453414908S05926220WA0071500740015000000000
B1700493414839S05926180WA0070800737015000000000
B1700533414768S05926159WA0070000729015000000000
B1700573414699S05926129WA0069400717015000000000
B1701013414628S05926109WA0069400710015000000000
B1701053414569S05926090WA0068600706015000000000
B1701093414498S05926069WA0067100698015000000000
B1701133414428S05926039WA0066600692015000000000
B1701173414359S05926019WA0067100689015000000000
B1701213414298S05925989WA0066600686015000000000
B1701253414229S05925960WA0065700679015000000000
B1701293414158S05925939WA0064300671015000000000
B1701333414088S05925909WA0064300665015000000000
B1701373414019S05925889WA0063700660015000000000
B1701413413948S05925869WA0063000649015000000000
B1701453413868S05925849WA0061600641015000000000
B1701493413799S05925830WA0061000628015000000000
B1701533413728S05925809WA0059500617015000000000
B1701573413648S05925789WA0060200614015000000000
B1702013413579S05925759WA0061600624015000000000
B1702053413518S05925739WA0063000644015000000000
B1702093413459S05925759WA0062300647015000000000
B1702133413438S05925819WA0062300639015000000000
B1702173413468S05925869WA0062300640015000000000
B1702213413518S05925880WA0063700649015000000000
B1702253413558S05925849WA0065700667015000000000
B1702293413558S05925779WA0065700679015000000000
B1702333413518S05925729WA0066600688015000000000
B1702373413459S05925729WA0066600693015000000000
B1702413413428S05925789WA0065700681015000000000
B1702453413438S05925859WA0066600676015000000000
B1702493413478S05925889WA0067900690015000000000
B1702533413528S05925889WA0069400705015000000000
B1702573413558S05925840WA0070800721015000000000
B1703013413549S05925769WA0070800732015000000000
B1703053413499S05925729WA0071500733015000000000
B1703093413438S05925739WA0072100742015000000000
B1703133413409S05925789WA0073500752015000000000
B1703173413438S05925849WA0073500757015000000000
B1703213413488S05925849WA0075700771015000000000
B1703253413528S05925809WA0077100787015000000000
B1703293413528S05925739WA0077900800015000000000
B1703333413478S05925689WA0077900799015000000000
B1703373413419S05925679WA0079900813015000000000
B1703413413379S05925729WA0080700827015000000000
B1703453413369S05925789WA0080700827015000000000
B1703493413409S05925830WA0082000839015000000000
B1703533413459S05925830WA0083400851015000000000
B1703573413499S05925779WA0085000865015000000000
B1704013413499S05925710WA0085000873015000000000
B1704053413459S05925649WA0085000868015000000000
B1704093413398S05925629WA0086200879015000000000
B1704133413348S05925669WA0087000893015000000000
B1704173413338S05925729WA0088500901015000000000
B1704213413369S05925769WA0090000914015000000000
B1704253413419S05925759WA0090700929015000000000
B1704293413449S05925699WA0091300940015000000000
B1704333413438S05925639WA0092100943015000000000
B1704373413388S05925589WA0092100942015000000000
B1704413413329S05925580WA0093400957015000000000
B1704453413289S05925629WA0094200964015000000000
B1704493413279S05925689WA0095700974015000000000
B1704533413319S05925719WA0096400986015000000000
B1704573413369S05925719WA0097100994015000000000
B1705013413398S05925669WA0098501004015000000000
B1705053413409S05925599WA0097801011015000000000
B1705093413369S05925549WA0098501009015000000000
B1705133413308S05925519WA0099801021015000000000
B1705173413258S05925540WA0099301023015000000000
B1705213413228S05925599WA0099801026015000000000
B1705253413239S05925649WA0101501041015000000000
B1705293413268S05925669WA0102101052015000000000
B1705333413319S05925659WA0103001053015000000000
B1705373413358S05925599WA0103601062015000000000
B1705413413348S05925529WA0103601065015000000000
B1705453413308S05925479WA0104301072015000000000
B1705493413239S05925479WA0104301077015000000000
B1705533413199S05925519WA0105101079015000000000
B1705573413178S05925580WA0105901084015000000000
B1706013413188S05925639WA0107301100015000000000
B1706053413228S05925659WA0108801110015000000000
B1706093413268S05925620WA0108801115015000000000
B1706133413279S05925559WA0108801115015000000000
B1706173413249S05925499WA0108801119015000000000
B1706213413188S05925479WA0108801120015000000000
B1706253413138S05925509WA0109401121015000000000
B1706293413109S05925569WA0110201126015000000000
B1706333413109S05925620WA0111001138015000000000
B1706373413149S05925659WA0111701145015000000000
B1706413413188S05925649WA0111701148015000000000
B1706453413218S05925599WA0111701152015000000000
B1706493413218S05925529WA0111701149015000000000
B1706533413168S05925479WA0111701148015000000000
B1706573413098S05925450WA0111001145015000000000
B1707013413029S05925439WA0111701146015000000000
B1707053412958S05925439WA0111701148015000000000
B1707093412889S05925429WA0112401157015000000000
B1707133412819S05925419WA0111001153015000000000
B1707173412748S05925399WA0111001145015000000000
B1707213412679S05925379WA0110201144015000000000
B1707253412599S05925369WA0110201138015000000000
B1707293412519S05925349WA0110201135015000000000
B1707333412438S05925339WA0110201133015000000000
B1707373412358S05925320WA0108801128015000000000
B1707413412278S05925299WA0108801124015000000000
B1707453412209S05925280WA0108801123015000000000
B1707493412129S05925259WA0108801123015000000000
B1707533412058S05925239WA0108801120015000000000
B1707573411989S05925219WA0107301115015000000000
B1708013411919S05925198WA0107301110015000000000
B1708053411838S05925179WA0108001109015000000000
B1708093411768S05925159WA0108001117015000000000
B1708133411688S05925139WA0108801119015000000000
B1708173411619S05925110WA0108801121015000000000
B1708213411548S05925079WA0111001134015000000000
B1708253411479S05925068WA0113101158015000000000
B1708293411428S05925099WA0113101170015000000000
B1708333411439S05925159WA0112401163015000000000
B1708373411479S05925198WA0112401159015000000000
B1708413411529S05925179WA0113801167015000000000
B1708453411548S05925119WA0115401180015000000000
B1708493411538S05925049WA0115401192015000000000
B1708533411498S05924999WA0116801198015000000000
B1708573411439S05924980WA0118301209015000000000
B1709013411389S05925029WA0118301210015000000000
B1709053411389S05925089WA0117601209015000000000
B1709093411428S05925119WA0117601209015000000000
B1709133411479S05925099WA0118301207015000000000
B1709173411498S05925049WA0119801223015000000000
B1709213411479S05924980WA0119801231015000000000
B1709253411428S05924919WA0119801229015000000000
B1709293411378S05924879WA0121301238015000000000
B1709333411309S05924850WA0121301236015000000000
B1709373411248S05924850WA0119801237015000000000
B1709413411189S05924869WA0119801228015000000000
B1709453411128S05924879WA0117601217015000000000
B1709493411059S05924889WA0116801206015000000000
B1709533410988S05924889WA0115401194015000000000
B1709573410919S05924889WA0115401185015000000000
B1710013410839S05924889WA0114601179015000000000
B1710053410768S05924899WA0113801175015000000000
B1710093410688S05924889WA0113801169015000000000
B1710133410608S05924889WA0113101163015000000000
B1710173410539S05924879WA0111701154015000000000
B1710213410459S05924879WA0111001142015000000000
B1710253410378S05924879WA0109401131015000000000
B1710293410298S05924879WA0109401123015000000000
B1710333410218S05924879WA0108801118015000000000
B1710373410139S05924869WA0108801116015000000000
B1710413410069S05924869WA0108801118015000000000
B1710453409988S05924859WA0108001112015000000000
B1710493409908S05924859WA0107301106015000000000
B1710533409838S05924859WA0107301099015000000000
B1710573409759S05924859WA0106501092015000000000
B1711013409679S05924879WA0105901088015000000000
B1711053409608S05924899WA0105901086015000000000
B1711093409538S05924930WA0105101081015000000000
B1711133409459S05924959WA0105101079015000000000
B1711173409398S05924989WA0104301079015000000000
B1711213409329S05925020WA0103601069015000000000
B1711253409258S05925049WA0103601062015000000000
B1711293409188S05925079WA0104301067015000000000
B1711333409128S05925110WA0105101073015000000000
B1711373409068S05925139WA0106501077015000000000
B1711413409008S05925169WA0108001098015000000000
B1711453408958S05925190WA0108001108015000000000
B1711493408899S05925209WA0107301108015000000000
B1711533408838S05925239WA0107301100015000000000
B1711573408769S05925269WA0106501100015000000000
B1712013408698S05925299WA0105901090015000000000
B1712053408628S05925320WA0105901088015000000000
B1712093408559S05925349WA0105101083015000000000
B1712133408488S05925379WA0104301075015000000000
B1712173408408S05925410WA0103601066015000000000
B1712213408339S05925439WA0103001056015000000000
B1712253408259S05925459WA0102101054015000000000
B1712293408188S05925490WA0101501047015000000000
B1712333408108S05925519WA0100701037015000000000
B1712373408039S05925549WA0101501037015000000000
B1712413407968S05925580WA0100701039015000000000
B1712453407898S05925609WA0100701035015000000000
B1712493407829S05925629WA0099801029015000000000
B1712533407758S05925659WA0099301022015000000000
B1712573407688S05925679WA0099301023015000000000
B1713013407619S05925710WA0099301019015000000000
B1713053407558S05925739WA0099301017015000000000
B1713093407489S05925769WA0098501016015000000000
B1713133407428S05925809WA0099801020015000000000
B1713173407368S05925840WA0099801024015000000000
B1713213407309S05925869WA0098501017015000000000
B1713253407248S05925899WA0097801006015000000000
B1713293407189S05925929WA0096400995015000000000
B1713333407118S05925968WA0095700984015000000000
B1713373407049S05926010WA0095700982015000000000
B1713413406988S05926039WA0094900981015000000000
B1713453406919S05926079WA0094900975015000000000
B1713493406849S05926119WA0095700975015000000000
B1713533406778S05926149WA0095700980015000000000
B1713573406719S05926189WA0095700981015000000000
B1714013406648S05926220WA0094200974015000000000
B1714053406579S05926249WA0093400963015000000000
B1714093406508S05926279WA0093400958015000000000
B1714133406438S05926310WA0092100949015000000000
B1714173406369S05926350WA0092100942015000000000
B1714213406308S05926390WA0093400950015000000000
B1714253406249S05926419WA0094200964015000000000
B1714293406188S05926449WA0093400966015000000000
B1714333406128S05926489WA0093400959015000000000
B1714373406069S05926529WA0093400955015000000000
B1714413406008S05926559WA0093400957015000000000
B1714453405949S05926599WA0094200960015000000000
B1714493405889S05926629WA0094900971015000000000
B1714533405828S05926669WA0095700976015000000000
B1714573405769S05926689WA0095700978015000000000
B1715013405708S05926719WA0094900980015000000000
B1715053405658S05926759WA0096400980015000000000
B1715093405599S05926789WA0097100994015000000000
B1715133405589S05926839WA0098501007015000000000
B1715173405618S05926879WA0097801011015000000000
B1715213405658S05926870WA0097801007015000000000
B1715253405689S05926819WA0098501010015000000000
B1715293405689S05926740WA0099301014015000000000
B1715333405668S05926669WA0099801027015000000000
B1715373405618S05926639WA0100701032015000000000
B1715413405559S05926659WA0099801031015000000000
B1715453405538S05926709WA0101501034015000000000
B1715493405559S05926759WA0102101045015000000000
B1715533405599S05926780WA0103601054015000000000
B1715573405639S05926749WA0104301066015000000000
B1716013405668S05926689WA0105101068015000000000
B1716053405648S05926619WA0105901082015000000000
B1716093405589S05926589WA0105101083015000000000
B1716133405528S05926610WA0105901081015000000000
B1716173405498S05926659WA0105901089015000000000
B1716213405509S05926709WA0107301094015000000000
B1716253405549S05926740WA0108001107015000000000
B1716293405589S05926719WA0108801111015000000000
B1716333405618S05926659WA0109401114015000000000
B1716373405608S05926589WA0110201127015000000000
B1716413405568S05926539WA0110201129015000000000
B1716453405509S05926509WA0109401126015000000000
B1716493405448S05926469WA0110201126015000000000
B1716533405398S05926429WA0109401129015000000000
B1716573405339S05926390WA0108001121015000000000
B1717013405278S05926339WA0106501104015000000000
B1717053405218S05926279WA0105901093015000000000
B1717093405158S05926228WA0105101085015000000000
B1717133405098S05926169WA0105101078015000000000
B1717173405039S05926109WA0104301073015000000000
B1717213404978S05926059WA0105901074015000000000
B1717253404918S05926010WA0105901087015000000000
B1717293404859S05925960WA0105901086015000000000
B1717333404798S05925899WA0105901091015000000000
B1717373404739S05925849WA0106501090015000000000
B1717413404689S05925799WA0106501093015000000000
B1717453404628S05925739WA0105901093015000000000
B1717493404578S05925689WA0106501091015000000000
B1717533404519S05925639WA0108001100015000000000
B1717573404468S05925599WA0109401114015000000000
B1718013404418S05925569WA0108801119015000000000
B1718053404349S05925540WA0108001105015000000000
B1718093404288S05925509WA0109401112015000000000
B1718133404219S05925479WA0108001115015000000000
B1718173404158S05925450WA0106501102015000000000
B1718213404089S05925410WA0105101088015000000000
B1718253404009S05925369WA0105101079015000000000
B1718293403938S05925339WA0104301074015000000000
B1718333403869S05925299WA0103601069015000000000
B1718373403799S05925259WA0103001058015000000000
B1718413403718S05925219WA0101501046015000000000
B1718453403648S05925169WA0100701037015000000000
B1718493403568S05925129WA0100701030015000000000
B1718533403499S05925079WA0099801029015000000000
B1718573403428S05925039WA0099801028015000000000
B1719013403348S05924999WA0099801027015000000000
B1719053403279S05924949WA0099801023015000000000
B1719093403208S05924919WA0099801021015000000000
B1719133403128S05924879WA0099801027015000000000
B1719173403059S05924850WA0099801030015000000000
B1719213402988S05924819WA0099301024015000000000
B1719253402908S05924789WA0098501013015000000000
B1719293402828S05924749WA0097101005015000000000
B1719333402759S05924699WA0097101000015000000000
B1719373402688S05924659WA0095700991015000000000
B1719413402618S05924609WA0094900981015000000000
B1719453402549S05924559WA0094900971015000000000
B1719493402478S05924519WA0093400964015000000000
B1719533402408S05924469WA0092800958015000000000
B1719573402339S05924420WA0092800953015000000000
B1720013402278S05924369WA0092800949015000000000
B1720053402209S05924319WA0092100946015000000000
B1720093402138S05924269WA0091300938015000000000
B1720133402079S05924219WA0090700929015000000000
B1720173402008S05924169WA0090000927015000000000
B1720213401949S05924120WA0090000925015000000000
B1720253401888S05924069WA0090000924015000000000
B1720293401828S05924019WA0090700925015000000000
B1720333401769S05923969WA0091300931015000000000
B1720373401708S05923919WA0092100939015000000000
B1720413401649S05923869WA0093400952015000000000
B1720453401599S05923839WA0094900965015000000000
B1720493401549S05923869WA0094200973015000000000
B1720533401538S05923929WA0094200970015000000000
B1720573401578S05923969WA0094200963015000000000
B1721013401628S05923959WA0094900970015000000000
B1721053401658S05923908WA0094200971015000000000
B1721093401668S05923829WA0094900972015000000000
B1721133401639S05923759WA0095700977015000000000
B1721173401599S05923709WA0097100988015000000000
B1721213401549S05923699WA0097100998015000000000
B1721253401519S05923739WA0096400996015000000000
B1721293401528S05923799WA0096400989015000000000
B1721333401568S05923829WA0095700989015000000000
B1721373401618S05923799WA0096400987015000000000
B1721413401649S05923739WA0097100991015000000000
B1721453401679S05923679WA0097800998015000000000
B1721493401689S05923600WA0098501006015000000000
B1721533401679S05923529WA0098501012015000000000
B1721573401639S05923479WA0097801010015000000000
B1722013401578S05923439WA0096400997015000000000
B1722053401519S05923409WA0095700987015000000000
B1722093401458S05923369WA0094200972015000000000
B1722133401389S05923329WA0093400960015000000000
B1722173401318S05923289WA0093400956015000000000
B1722213401249S05923260WA0092800952015000000000
B1722253401179S05923229WA0092100945015000000000
B1722293401108S05923199WA0091300942015000000000
B1722333401039S05923170WA0091300938015000000000
B1722373400968S05923149WA0091300934015000000000
B1722413400898S05923119WA0090700931015000000000
B1722453400829S05923099WA0090000924015000000000
B1722493400749S05923069WA0090000920015000000000
B1722533400678S05923029WA0091300923015000000000
B1722573400609S05922979WA0092800942015000000000
B1723013400558S05922939WA0094200962015000000000
B1723053400498S05922960WA0094200970015000000000
B1723093400498S05923019WA0093400961015000000000
B1723133400538S05923059WA0095700968015000000000
B1723173400588S05923049WA0097100986015000000000
B1723213400628S05923000WA0097100994015000000000
B1723253400649S05922929WA0098501002015000000000
B1723293400638S05922859WA0099301010015000000000
B1723333400588S05922809WA0098501013015000000000
B1723373400529S05922799WA0098501012015000000000
B1723413400489S05922830WA0099301018015000000000
B1723453400479S05922879WA0098501014015000000000
B1723493400508S05922919WA0098501011015000000000
B1723533400558S05922919WA0099801015015000000000
B1723573400598S05922879WA0100701024015000000000
B1724013400609S05922809WA0100701030015000000000
B1724053400588S05922740WA0099801026015000000000
B1724093400538S05922700WA0098501018015000000000
B1724133400479S05922700WA0098501009015000000000
B1724173400418S05922719WA0097801007015000000000
B1724213400359S05922740WA0097101001015000000000
B1724253400288S05922769WA0097100995015000000000
B1724293400229S05922799WA0097800998015000000000
B1724333400168S05922839WA0099301008015000000000
B1724373400108S05922870WA0098501014015000000000
B1724413400059S05922899WA0097801008015000000000
B1724453359998S05922939WA0096400998015000000000
B1724493359929S05922969WA0095700988015000000000
B1724533359868S05923000WA0094900978015000000000
B1724573359799S05923029WA0094200971015000000000
B1725013359729S05923049WA0094200966015000000000
B1725053359658S05923079WA0094200963015000000000
B1725093359589S05923099WA0093400957015000000000
B1725133359520S05923130WA0092800953015000000000
B1725173359449S05923159WA0092100946015000000000
B1725213359390S05923189WA0091300939015000000000
B1725253359319S05923220WA0090000929015000000000
B1725293359259S05923260WA0090000923015000000000
B1725333359199S05923289WA0091300922015000000000
B1725373359149S05923329WA0091300933015000000000
B1725413359089S05923359WA0090000934015000000000
B1725453359029S05923399WA0090000924015000000000
B1725493358979S05923439WA0090700924015000000000
B1725533358929S05923479WA0090700925015000000000
B1725573358869S05923520WA0090000926015000000000
B1726013358819S05923549WA0088500916015000000000
B1726053358759S05923589WA0087700906015000000000
B1726093358708S05923619WA0087700899015000000000
B1726133358649S05923659WA0087000898015000000000
B1726173358599S05923699WA0087000893015000000000
B1726213358538S05923739WA0087000890015000000000
B1726253358490S05923770WA0087000893015000000000
B1726293358429S05923809WA0086200893015000000000
B1726333358379S05923839WA0087000895015000000000
B1726373358329S05923869WA0087700898015000000000
B1726413358278S05923908WA0087700902015000000000
B1726453358238S05923939WA0089100912015000000000
B1726493358209S05923990WA0089100917015000000000
B1726533358229S05924039WA0089100917015000000000
B1726573358278S05924059WA0088500914015000000000
B1727013358329S05924030WA0087700909015000000000
B1727053358360S05923969WA0087700904015000000000
B1727093358360S05923900WA0087700899015000000000
B1727133358360S05923820WA0087000897015000000000
B1727173358349S05923739WA0087000895015000000000
B1727213358339S05923669WA0087700896015000000000
B1727253358329S05923589WA0087000898015000000000
B1727293358329S05923520WA0087000892015000000000
B1727333358309S05923449WA0087000890015000000000
B1727373358309S05923369WA0086200886015000000000
B1727413358329S05923309WA0085700882015000000000
B1727453358368S05923279WA0085000875015000000000
B1727493358419S05923260WA0083400862015000000000
B1727533358469S05923260WA0082800856015000000000
B1727573358519S05923269WA0082000849015000000000
B1728013358578S05923279WA0081400839015000000000
B1728053358628S05923289WA0081400834015000000000
B1728093358689S05923300WA0082800839015000000000
B1728133358739S05923300WA0084100855015000000000
B1728173358779S05923279WA0085000869015000000000
B1728213358799S05923220WA0084100868015000000000
B1728253358779S05923149WA0085700869015000000000
B1728293358719S05923119WA0085700874015000000000
B1728333358669S05923130WA0085000868015000000000
B1728373358649S05923189WA0084100858015000000000
B1728413358659S05923249WA0084100860015000000000
B1728453358689S05923300WA0086200876015000000000
B1728493358729S05923309WA0087000891015000000000
B1728533358779S05923279WA0087700893015000000000
B1728573358799S05923209WA0087700902015000000000
B1729013358769S05923149WA0088500904015000000000
B1729053358719S05923119WA0088500908015000000000
B1729093358659S05923139WA0088500907015000000000
B1729133358628S05923189WA0088500909015000000000
B1729173358639S05923249WA0090700920015000000000
B1729213358679S05923279WA0090700928015000000000
B1729253358729S05923279WA0091300931015000000000
B1729293358769S05923229WA0092100937015000000000
B1729333358769S05923159WA0092800940015000000000
B1729373358729S05923109WA0092100946015000000000
B1729413358669S05923099WA0092100947015000000000
B1729453358618S05923149WA0093400951015000000000
B1729493358599S05923199WA0094200964015000000000
B1729533358609S05923260WA0094900973015000000000
B1729573358649S05923279WA0094900977015000000000
B1730013358699S05923249WA0095700980015000000000
B1730053358708S05923189WA0096400985015000000000
B1730093358679S05923119WA0096400989015000000000
B1730133358618S05923090WA0097800996015000000000
B1730173358559S05923099WA0097801001015000000000
B1730213358529S05923149WA0099301011015000000000
B1730253358538S05923209WA0099801018015000000000
B1730293358578S05923229WA0099801023015000000000
B1730333358618S05923199WA0100701028015000000000
B1730373358639S05923139WA0101501030015000000000
B1730413358609S05923069WA0101501036015000000000
B1730453358549S05923039WA0101501036015000000000
B1730493358490S05923049WA0102101039015000000000
B1730533358448S05923090WA0103001046015000000000
B1730573358439S05923149WA0103001053015000000000
B1731013358469S05923189WA0104301062015000000000
B1731053358509S05923189WA0104301071015000000000
B1731093358549S05923149WA0104301069015000000000
B1731133358549S05923079WA0105101075015000000000
B1731173358519S05923009WA0105901078015000000000
B1731213358459S05922989WA0105901082015000000000
B1731253358408S05923009WA0105901089015000000000
B1731293358379S05923059WA0105901088015000000000
B1731333358389S05923109WA0107301094015000000000
B1731373358429S05923130WA0107301105015000000000
B1731413358469S05923109WA0107301102015000000000
B1731453358498S05923039WA0108001099015000000000
B1731493358490S05922969WA0108801109015000000000
B1731533358448S05922909WA0108801112015000000000
B1731573358389S05922889WA0109401118015000000000
B1732013358339S05922929WA0108801119015000000000
B1732053358318S05922979WA0109401118015000000000
B1732093358339S05923029WA0108801118015000000000
B1732133358389S05923049WA0109401120015000000000
B1732173358439S05923029WA0109401119015000000000
B1732213358459S05922960WA0110201122015000000000
B1732253358448S05922879WA0109401122015000000000
B1732293358408S05922819WA0109401122015000000000
B1732333358349S05922790WA0110201126015000000000
B1732373358299S05922819WA0110201128015000000000
B1732413358269S05922870WA0109401120015000000000
B1732453358278S05922929WA0109401121015000000000
B1732493358309S05922960WA0109401118015000000000
B1732533358368S05922969WA0108801114015000000000
B1732573358419S05922960WA0108801109015000000000
B1733013358479S05922939WA0108801109015000000000
B1733053358538S05922919WA0108001108015000000000
B1733093358599S05922899WA0108801109015000000000
B1733133358669S05922889WA0108001110015000000000
B1733173358729S05922879WA0109401115015000000000
B1733213358789S05922879WA0109401124015000000000
B1733253358859S05922870WA0108801119015000000000
B1733293358920S05922859WA0109401117015000000000
B1733333358989S05922859WA0111701131015000000000
B1733373359039S05922859WA0113101148015000000000
B1733413359079S05922809WA0113101155015000000000
B1733453359069S05922729WA0112401150015000000000
B1733493359029S05922679WA0112401151015000000000
B1733533358968S05922669WA0112401151015000000000
B1733573358929S05922709WA0111701145015000000000
B1734013358920S05922769WA0112401146015000000000
B1734053358939S05922819WA0113101155015000000000
B1734093358979S05922859WA0112401158015000000000
B1734133359039S05922870WA0111001148015000000000
B1734173359098S05922870WA0110201131015000000000
B1734213359169S05922859WA0108801120015000000000
B1734253359239S05922849WA0108801116015000000000
B1734293359299S05922839WA0108801113015000000000
B1734333359369S05922830WA0108801111015000000000
B1734373359438S05922830WA0109401117015000000000
B1734413359499S05922830WA0110201122015000000000
B1734453359568S05922839WA0111701133015000000000
B1734493359619S05922859WA0112401151015000000000
B1734533359679S05922870WA0111701156015000000000
B1734573359738S05922889WA0111001143015000000000
B1735013359799S05922909WA0110201134015000000000
B1735053359859S05922929WA0111001134015000000000
B1735093359918S05922949WA0111001134015000000000
B1735133359979S05922969WA0111001135015000000000
B1735173400038S05922989WA0110201133015000000000
B1735213400099S05923000WA0110201130015000000000
B1735253400158S05923019WA0109401126015000000000
B1735293400219S05923039WA0109401121015000000000
B1735333400288S05923049WA0108801114015000000000
B1735373400349S05923059WA0108001108015000000000
B1735413400408S05923079WA0107301100015000000000
B1735453400479S05923090WA0105901089015000000000
B1735493400548S05923099WA0105901083015000000000
B1735533400609S05923099WA0105901084015000000000
B1735573400678S05923109WA0105101078015000000000
B1736013400739S05923119WA0104301068015000000000
B1736053400798S05923130WA0103601061015000000000
B1736093400869S05923130WA0103001052015000000000
B1736133400938S05923130WA0103001049015000000000
B1736173400999S05923109WA0103001056015000000000
B1736213401058S05923090WA0104301060015000000000
B1736253401119S05923059WA0105901079015000000000
B1736293401148S05923000WA0107301093015000000000
B1736333401129S05922929WA0107301097015000000000
B1736373401079S05922889WA0108001103015000000000
B1736413401018S05922899WA0108001105015000000000
B1736453400978S05922949WA0108001103015000000000
B1736493400959S05923009WA0109401113015000000000
B1736533400988S05923049WA0110201125015000000000
B1736573401039S05923049WA0110201127015000000000
B1737013401068S05923000WA0111701139015000000000
B1737053401058S05922929WA0111701146015000000000
B1737093401018S05922889WA0112401151015000000000
B1737133400968S05922899WA0111701151015000000000
B1737173400928S05922939WA0112401151015000000000
B1737213400928S05923000WA0112401155015000000000
B1737253400959S05923049WA0113101157015000000000
B1737293400999S05923079WA0113801165015000000000
B1737333401049S05923079WA0114601173015000000000
B1737373401098S05923079WA0113801173015000000000
B1737413401158S05923090WA0114601174015000000000
B1737453401219S05923099WA0113801170015000000000
B1737493401278S05923109WA0113801170015000000000
B1737533401339S05923119WA0113101164015000000000
B1737573401398S05923130WA0113101157015000000000
B1738013401469S05923139WA0112401151015000000000
B1738053401538S05923130WA0111701145015000000000
B1738093401609S05923119WA0111001139015000000000
B1738133401679S05923099WA0110201132015000000000
B1738173401738S05923079WA0109401125015000000000
B1738213401809S05923069WA0108801115015000000000
B1738253401878S05923049WA0108001108015000000000
B1738293401939S05923029WA0107301103015000000000
B1738333402008S05923009WA0107301096015000000000
B1738373402079S05923000WA0107301093015000000000
B1738413402138S05922979WA0108801101015000000000
B1738453402199S05922979WA0108801117015000000000
B1738493402249S05922960WA0106501103015000000000
B1738533402319S05922949WA0106501092015000000000
B1738573402379S05922939WA0106501088015000000000
B1739013402449S05922929WA0105901082015000000000
B1739053402518S05922919WA0105101079015000000000
B1739093402589S05922919WA0105101074015000000000
B1739133402648S05922919WA0104301071015000000000
B1739173402719S05922919WA0103001059015000000000
B1739213402778S05922919WA0101501047015000000000
B1739253402849S05922919WA0101501040015000000000
B1739293402908S05922919WA0100701034015000000000
B1739333402979S05922929WA0100701026015000000000
B1739373403048S05922929WA0099801023015000000000
B1739413403118S05922939WA0100701027015000000000
B1739453403178S05922939WA0103001043015000000000
B1739493403229S05922929WA0104301061015000000000
B1739533403279S05922929WA0103601062015000000000
B1739573403338S05922929WA0103601061015000000000
B1740013403399S05922929WA0103601055015000000000
B1740053403468S05922929WA0103601057015000000000
B1740093403529S05922929WA0103001058015000000000
B1740133403598S05922929WA0103601058015000000000
B1740173403669S05922929WA0103001054015000000000
B1740213403739S05922929WA0101501039015000000000
B1740253403799S05922929WA0099801026015000000000
B1740293403869S05922929WA0099801020015000000000
B1740333403938S05922929WA0098501013015000000000
B1740373404009S05922929WA0098501007015000000000
B1740413404068S05922929WA0097801002015000000000
B1740453404139S05922929WA0097100995015000000000
B1740493404198S05922929WA0096400988015000000000
B1740533404259S05922929WA0096400986015000000000
B1740573404318S05922939WA0095700978015000000000
B1741013404378S05922949WA0094200970015000000000
B1741053404439S05922949WA0093400961015000000000
B1741093404508S05922949WA0092800948015000000000
B1741133404569S05922949WA0092100943015000000000
B1741173404628S05922949WA0091300939015000000000
B1741213404699S05922939WA0091300929015000000000
B1741253404768S05922929WA0090700926015000000000
B1741293404829S05922919WA0090000924015000000000
B1741333404898S05922919WA0090000921015000000000
B1741373404968S05922919WA0089100914015000000000
B1741413405028S05922929WA0088500907015000000000
B1741453405098S05922939WA0087700902015000000000
B1741493405169S05922960WA0087700897015000000000
B1741533405238S05922969WA0087700898015000000000
B1741573405299S05922979WA0087700899015000000000
B1742013405368S05923000WA0087700896015000000000
B1742053405429S05923000WA0087000888015000000000
B1742093405498S05923009WA0087000888015000000000
B1742133405559S05923019WA0087700887015000000000
B1742173405618S05923019WA0087700899015000000000
B1742213405668S05923019WA0088500904015000000000
B1742253405729S05923019WA0089100908015000000000
B1742293405778S05923019WA0088500912015000000000
B1742333405828S05923029WA0087700907015000000000
B1742373405889S05923039WA0087700901015000000000
B1742413405949S05923059WA0087700897015000000000
B1742453405998S05923079WA0087000895015000000000
B1742493406058S05923109WA0086200889015000000000
B1742533406109S05923130WA0086200882015000000000
B1742573406168S05923159WA0085700878015000000000
B1743013406218S05923179WA0085000873015000000000
B1743053406279S05923189WA0083400862015000000000
B1743093406338S05923209WA0082800855015000000000
B1743133406388S05923229WA0082800848015000000000
B1743173406448S05923249WA0081400840015000000000
B1743213406499S05923279WA0081400833015000000000
B1743253406549S05923309WA0079900825015000000000
B1743293406598S05923329WA0079900818015000000000
B1743333406648S05923359WA0079300812015000000000
B1743373406688S05923390WA0078600808015000000000
B1743413406738S05923430WA0078600801015000000000
B1743453406789S05923459WA0077100795015000000000
B1743493406839S05923499WA0076400785015000000000
B1743533406879S05923539WA0075000777015000000000
B1743573406929S05923589WA0074100770015000000000
B1744013406979S05923629WA0073500758015000000000
B1744053407028S05923669WA0072900749015000000000
B1744093407078S05923709WA0073500752015000000000
B1744133407139S05923739WA0074100758015000000000
B1744173407189S05923759WA0075700766015000000000
B1744213407238S05923770WA0077900791015000000000
B1744253407279S05923730WA0078600811015000000000
B1744293407269S05923659WA0077900805015000000000
B1744333407218S05923600WA0077900798015000000000
B1744373407158S05923600WA0079300805015000000000
B1744413407108S05923629WA0080700823015000000000
B1744453407088S05923679WA0081400836015000000000
B1744493407108S05923730WA0082000838015000000000
B1744533407158S05923730WA0082000840015000000000
B1744573407198S05923690WA0083400851015000000000
B1745013407198S05923619WA0084100867015000000000
B1745053407158S05923560WA0085000870015000000000
B1745093407088S05923549WA0086200876015000000000
B1745133407049S05923579WA0087700897015000000000
B1745173407049S05923640WA0087700902015000000000
B1745213407078S05923669WA0087700899015000000000
B1745253407139S05923669WA0088500904015000000000
B1745293407168S05923619WA0090000920015000000000
B1745333407168S05923549WA0090000925015000000000
B1745373407118S05923499WA0089100919015000000000
B1745413407049S05923489WA0091300926015000000000
B1745453407009S05923529WA0093400948015000000000
B1745493407009S05923589WA0092800955015000000000
B1745533407049S05923619WA0092800951015000000000
B1745573407099S05923600WA0094200957015000000000
B1746013407118S05923539WA0095700977015000000000
B1746053407099S05923479WA0094900983015000000000
B1746093407038S05923439WA0095700979015000000000
B1746133406979S05923439WA0097800991015000000000
B1746173406938S05923479WA0099301008015000000000
B1746213406938S05923539WA0099801017015000000000
B1746253406979S05923569WA0099301019015000000000
B1746293407028S05923560WA0100701024015000000000
B1746333407049S05923499WA0101501032015000000000
B1746373407028S05923430WA0101501039015000000000
B1746413406969S05923399WA0101501039015000000000
B1746453406908S05923419WA0103001044015000000000
B1746493406879S05923470WA0103601059015000000000
B1746533406898S05923509WA0103601069015000000000
B1746573406948S05923520WA0104301068015000000000
B1747013406988S05923470WA0105901075015000000000
B1747053406979S05923399WA0105901087015000000000
B1747093406929S05923359WA0105101081015000000000
B1747133406858S05923359WA0106501083015000000000
B1747173406808S05923390WA0108001096015000000000
B1747213406799S05923449WA0108801108015000000000
B1747253406818S05923499WA0108801111015000000000
B1747293406858S05923520WA0109401115015000000000
B1747333406898S05923489WA0108801121015000000000
B1747373406938S05923439WA0109401119015000000000
B1747413406988S05923399WA0109401119015000000000
B1747453407038S05923359WA0109401120015000000000
B1747493407099S05923309WA0109401121015000000000
B1747533407149S05923269WA0108801118015000000000
B1747573407208S05923229WA0107301106015000000000
B1748013407258S05923179WA0105901090015000000000
B1748053407319S05923130WA0105101078015000000000
B1748093407378S05923069WA0103601069015000000000
B1748133407428S05923019WA0103601062015000000000
B1748173407478S05922969WA0103601061015000000000
B1748213407538S05922919WA0104301064015000000000
B1748253407588S05922870WA0104301065015000000000
B1748293407638S05922819WA0103601065015000000000
B1748333407699S05922769WA0103601063015000000000
B1748373407749S05922719WA0103601060015000000000
B1748413407808S05922669WA0102101050015000000000
B1748453407869S05922619WA0100701038015000000000
B1748493407928S05922570WA0100701031015000000000
B1748533407988S05922519WA0099801023015000000000
B1748573408049S05922469WA0099301018015000000000
B1749013408098S05922419WA0098501014015000000000
B1749053408158S05922379WA0098501006015000000000
B1749093408219S05922339WA0097101001015000000000
B1749133408268S05922289WA0097100997015000000000
B1749173408328S05922249WA0097100990015000000000
B1749213408378S05922199WA0096400985015000000000
B1749253408439S05922159WA0095700982015000000000
B1749293408488S05922109WA0096400981015000000000
B1749333408538S05922060WA0096400982015000000000
B1749373408588S05922009WA0096400984015000000000
B1749413408639S05921959WA0095700984015000000000
B1749453408698S05921909WA0095700981015000000000
B1749493408758S05921869WA0096400987015000000000
B1749533408808S05921819WA0097100991015000000000
B1749573408869S05921779WA0097800995015000000000
B1750013408918S05921729WA0098501000015000000000
B1750053408968S05921689WA0099301009015000000000
B1750093409018S05921639WA0099801018015000000000
B1750133409068S05921599WA0100701027015000000000
B1750173409119S05921569WA0100701029015000000000
B1750213409169S05921549WA0099801026015000000000
B1750253409228S05921540WA0099801024015000000000
B1750293409278S05921540WA0099801022015000000000
B1750333409339S05921540WA0099301018015000000000
B1750373409398S05921549WA0097801011015000000000
B1750413409459S05921569WA0097801006015000000000
B1750453409528S05921589WA0097101000015000000000
B1750493409589S05921609WA0097100996015000000000
B1750533409648S05921639WA0096400993015000000000
B1750573409708S05921659WA0096400989015000000000
B1751013409778S05921689WA0095700985015000000000
B1751053409838S05921710WA0094900981015000000000
B1751093409899S05921739WA0094200972015000000000
B1751133409958S05921779WA0093400962015000000000
B1751173410009S05921809WA0092800956015000000000
B1751213410069S05921849WA0092100948015000000000
B1751253410118S05921889WA0091300943015000000000
B1751293410168S05921930WA0091300935015000000000
B1751333410218S05921959WA0090000931015000000000
B1751373410269S05921989WA0090000923015000000000
B1751413410329S05922019WA0089100918015000000000
B1751453410378S05922050WA0088500911015000000000
B1751493410438S05922079WA0088500908015000000000
B1751533410489S05922119WA0089100908015000000000
B1751573410539S05922149WA0088500913015000000000
B1752013410598S05922180WA0088500906015000000000
B1752053410659S05922199WA0088500903015000000000
B1752093410709S05922219WA0089100910015000000000
B1752133410759S05922239WA0090000921015000000000
B1752173410818S05922249WA0089100919015000000000
B1752213410868S05922270WA0089100914015000000000
B1752253410929S05922289WA0089100915015000000000
B1752293410978S05922318WA0088500910015000000000
B1752333411028S05922349WA0087700905015000000000
B1752373411089S05922369WA0088500904015000000000
B1752413411139S05922389WA0087700901015000000000
B1752453411189S05922419WA0086200892015000000000
B1752493411248S05922449WA0085700884015000000000
B1752533411298S05922469WA0085700880015000000000
B1752573411359S05922479WA0085000875015000000000
B1753013411408S05922499WA0085000870015000000000
B1753053411468S05922509WA0084100866015000000000
B1753093411519S05922519WA0083400861015000000000
B1753133411578S05922539WA0084100858015000000000
B1753173411628S05922559WA0084100861015000000000
B1753213411678S05922579WA0084100864015000000000
B1753253411718S05922610WA0085000867015000000000
B1753293411768S05922639WA0085000869015000000000
B1753333411819S05922660WA0085700879015000000000
B1753373411859S05922689WA0085000878015000000000
B1753413411909S05922709WA0083400865015000000000
B1753453411959S05922740WA0084100860015000000000
B1753493412008S05922769WA0083400861015000000000
B1753533412058S05922790WA0085000862015000000000
B1753573412108S05922819WA0087000880015000000000
B1754013412158S05922809WA0088500897015000000000
B1754053412188S05922749WA0088500903015000000000
B1754093412169S05922679WA0090700921015000000000
B1754133412108S05922660WA0091300934015000000000
B1754173412058S05922689WA0093400946015000000000
B1754213412068S05922749WA0094900962015000000000
B1754253412108S05922769WA0095700976015000000000
B1754293412158S05922719WA0095700979015000000000
B1754333412158S05922649WA0097800991015000000000
B1754373412119S05922589WA0099301013015000000000
B1754413412058S05922599WA0101501025015000000000
B1754453412039S05922649WA0102101039015000000000
B1754493412058S05922689WA0103601056015000000000
B1754533412108S05922679WA0104301064015000000000
B1754573412138S05922610WA0105901071015000000000
B1755013412119S05922539WA0108001094015000000000
B1755053412068S05922509WA0108801105015000000000
B1755093412008S05922519WA0110201118015000000000
B1755133411999S05922579WA0111701133015000000000
B1755173412018S05922610WA0113101146015000000000
B1755213412068S05922599WA0113801154015000000000
B1755253412108S05922539WA0113801160015000000000
B1755293412089S05922469WA0115401178015000000000
B1755333412039S05922419WA0116101186015000000000
B1755373411989S05922419WA0117601194015000000000
B1755413411959S05922469WA0119001207015000000000
B1755453411968S05922519WA0119801218015000000000
B1755493412008S05922539WA0121301233015000000000
B1755533412049S05922499WA0121301239015000000000
B1755573412058S05922419WA0121901240015000000000
B1756013412039S05922349WA0122801257015000000000
B1756053411978S05922318WA0123401265015000000000
B1756093411928S05922349WA0124101268015000000000
B1756133411909S05922400WA0125701276015000000000
B1756173411938S05922449WA0126301287015000000000
B1756213411978S05922459WA0127101300015000000000
B1756253412018S05922419WA0127901303015000000000
B1756293412018S05922339WA0128501308015000000000
B1756333411978S05922279WA0129401317015000000000
B1756373411919S05922259WA0130301326015000000000
B1756413411869S05922289WA0130901336015000000000
B1756453411859S05922339WA0132401345015000000000
B1756493411888S05922379WA0133001354015000000000
B1756533411938S05922369WA0133801361015000000000
B1756573411968S05922318WA0133001363015000000000
B1757013411959S05922239WA0133801364015000000000
B1757053411919S05922180WA0134601373015000000000
B1757093411859S05922159WA0135301379015000000000
B1757133411808S05922180WA0136101385015000000000
B1757173411789S05922239WA0136101389015000000000
B1757213411798S05922279WA0137601394015000000000
B1757253411848S05922299WA0137601401015000000000
B1757293411888S05922270WA0136801401015000000000
B1757333411909S05922188WA0136801399015000000000
B1757373411878S05922119WA0136801399015000000000
B1757413411819S05922079WA0137601406015000000000
B1757453411768S05922100WA0138301409015000000000
B1757493411729S05922140WA0138301411015000000000
B1757533411718S05922188WA0138301412015000000000
B1757573411739S05922239WA0138301413015000000000
B1758013411758S05922279WA0137601411015000000000
B1758053411798S05922289WA0137601409015000000000
B1758093411859S05922289WA0136101402015000000000
B1758133411909S05922279WA0136101394015000000000
B1758173411978S05922270WA0135301388015000000000
B1758213412049S05922249WA0134601380015000000000
B1758253412119S05922239WA0135301382015000000000
B1758293412188S05922230WA0134601379015000000000
B1758333412249S05922209WA0133801369015000000000
B1758373412318S05922199WA0133001366015000000000
B1758413412389S05922188WA0133001363015000000000
B1758453412458S05922180WA0133001363015000000000
B1758493412519S05922169WA0133001361015000000000
B1758533412588S05922169WA0133001356015000000000
B1758573412649S05922159WA0132401354015000000000
B1759013412718S05922149WA0133001353015000000000
B1759053412779S05922140WA0132401352015000000000
B1759093412848S05922140WA0132401353015000000000
B1759133412908S05922129WA0132401352015000000000
B1759173412968S05922119WA0131601348015000000000
B1759213413029S05922109WA0130901342015000000000
B1759253413098S05922100WA0130901338015000000000
B1759293413159S05922100WA0130301333015000000000
B1759333413218S05922089WA0130301328015000000000
B1759373413289S05922079WA0130301326015000000000
B1759413413348S05922069WA0130301322015000000000
B1759453413409S05922060WA0129401319015000000000
B1759493413478S05922050WA0128501317015000000000
B1759533413539S05922050WA0128501314015000000000
B1759573413598S05922039WA0128501310015000000000
B1800013413658S05922039WA0127901305015000000000
B1800073413759S05922019WA0127101300015000000000
B1800113413818S05922019WA0126301296015000000000
B1800153413878S05922009WA0126301292015000000000
B1800193413939S05922019WA0126301290015000000000
B1800233413998S05922029WA0125701285015000000000
B1800273414059S05922039WA0125001277015000000000
B1800313414118S05922060WA0124101268015000000000
B1800353414179S05922079WA0123401261015000000000
B1800393414239S05922100WA0122801252015000000000
B1800433414298S05922119WA0121301242015000000000
B1800473414359S05922129WA0120401235015000000000
B1800513414428S05922140WA0119801226015000000000
B1800553414489S05922149WA0119801223015000000000
B1800593414548S05922149WA0119001214015000000000
B1801033414619S05922149WA0118301208015000000000
B1801073414678S05922149WA0117601205015000000000
B1801113414739S05922140WA0117601200015000000000
B1801153414798S05922140WA0116801196015000000000
B1801193414858S05922140WA0116801192015000000000
B1801233414908S05922129WA0116101189015000000000
B1801273414969S05922119WA0116101188015000000000
B1801313415028S05922109WA0115401182015000000000
B1801353415078S05922109WA0114601175015000000000
B1801393415139S05922119WA0114601172015000000000
B1801433415198S05922129WA0114601168015000000000
B1801473415248S05922140WA0113801167015000000000
B1801513415309S05922149WA0113801164015000000000
B1801553415368S05922149WA0113801161015000000000
B1801593415429S05922159WA0113801165015000000000
B1802033415479S05922159WA0113801164015000000000
B1802073415538S05922169WA0113801163015000000000
B1802113415598S05922169WA0113101162015000000000
B1802153415649S05922180WA0112401156015000000000
B1802193415708S05922180WA0111701149015000000000
B1802233415769S05922199WA0111701142015000000000
B1802273415829S05922219WA0110201129015000000000
B1802313415888S05922239WA0108801118015000000000
B1802353415949S05922259WA0108001107015000000000
B1802393416008S05922279WA0106501097015000000000
B1802433416068S05922299WA0105901088015000000000
B1802473416129S05922329WA0105901082015000000000
B1802513416178S05922360WA0104301074015000000000
B1802553416238S05922389WA0104301066015000000000
B1802593416289S05922419WA0103001059015000000000
B1803033416348S05922449WA0103001055015000000000
B1803073416398S05922479WA0103001053015000000000
B1803113416448S05922499WA0102101050015000000000
B1803153416509S05922519WA0101501044015000000000
B1803193416559S05922539WA0101501037015000000000
B1803233416618S05922559WA0099801032015000000000
B1803273416669S05922579WA0099801027015000000000
B1803313416719S05922589WA0099301023015000000000
B1803353416778S05922589WA0098501014015000000000
B1803393416838S05922589WA0097801005015000000000
B1803433416899S05922589WA0097100996015000000000
B1803473416958S05922589WA0096400989015000000000
B1803513417019S05922589WA0096400985015000000000
B1803553417078S05922589WA0094900977015000000000
B1803593417138S05922599WA0094900969015000000000
B1804033417199S05922599WA0093400963015000000000
B1804073417258S05922599WA0093400957015000000000
B1804113417319S05922610WA0092100951015000000000
B1804153417378S05922610WA0091300943015000000000
B1804193417438S05922610WA0091300937015000000000
B1804233417499S05922619WA0090700932015000000000
B1804273417558S05922619WA0090000923015000000000
B1804313417629S05922619WA0089100915015000000000
B1804353417688S05922619WA0090700920015000000000
B1804393417749S05922619WA0091300927015000000000
B1804433417799S05922619WA0091300932015000000000
B1804473417858S05922610WA0090700929015000000000
B1804513417919S05922610WA0090000923015000000000
B1804553417978S05922610WA0089100914015000000000
B1804593418038S05922610WA0088500905015000000000
B1805033418099S05922599WA0087700899015000000000
B1805073418158S05922589WA0087000894015000000000
B1805113418218S05922589WA0087000888015000000000
B1805153418278S05922589WA0086200879015000000000
B1805193418338S05922589WA0086200878015000000000
B1805233418399S05922579WA0085700884015000000000
B1805273418449S05922570WA0084100874015000000000
B1805313418508S05922579WA0083400861015000000000
B1805353418569S05922579WA0082800851015000000000
B1805393418628S05922570WA0082000846015000000000
B1805433418678S05922570WA0082000841015000000000
B1805473418739S05922570WA0080700831015000000000
B1805513418798S05922570WA0079900824015000000000
B1805553418858S05922579WA0080700825015000000000
B1805593418919S05922589WA0080700826015000000000
B1806033418968S05922599WA0081400827015000000000
B1806073419018S05922619WA0082000839015000000000
B1806113419068S05922639WA0082000844015000000000
B1806153419118S05922649WA0082000843015000000000
B1806193419169S05922669WA0082000845015000000000
B1806233419209S05922689WA0082800847015000000000
B1806273419259S05922709WA0082800850015000000000
B1806313419309S05922729WA0082800853015000000000
B1806353419358S05922749WA0085000858015000000000
B1806393419408S05922749WA0086200878015000000000
B1806433419438S05922689WA0087700894015000000000
B1806473419408S05922619WA0088500905015000000000
B1806513419349S05922599WA0089100910015000000000
B1806553419318S05922639WA0089100915015000000000
B1806593419318S05922689WA0090000921015000000000
B1807033419358S05922729WA0092100934015000000000
B1807073419398S05922709WA0092800948015000000000
B1807113419419S05922639WA0092800953015000000000
B1807153419389S05922570WA0094200960015000000000
B1807193419339S05922539WA0094900971015000000000
B1807233419299S05922570WA0094900974015000000000
B1807273419278S05922619WA0095700979015000000000
B1807313419309S05922669WA0097100988015000000000
